S00B0000696E732E73726563CF
S2140000000C94C8070C94EE070C94D00A0C940E0BB4
S2140000100C94B00E0C94EE0E0C9437250C9482259E
S2140000200C94CD250C9418260C94EE070C94EE0731
S2140000300C94CF120C949A120C945F2D0C94652C91
S2140000400C94732C0C94AE2C0C94E92C0C94242D4C
S2140000500C94102E0C94EE070C949A2D0C94D52D1F
S2140000600C94EE070C94B9190C94EF190C94EE0747
S2140000700C94251A0C945B1A0C94EE070C94EE075D
S2140000800C94EE070C94EE070C94540A0C94920A07
S2140000900C94EE070C94EE070C94EE070C94EE0707
S2140000A00C94EE070C94EE070C94EE070C94C80B19
S2140000B00C94060C0C94A3130C946E130C940F3132
S2140000C00C94EE070C9423300C945E300C9499300C
S2140000D00C94D4300C94C0310C94EE070C944A3136
S2140000E00C9485310C94EE070C94691B0C949F1BA2
S2140000F00C94EE070C94D51B0C940B1C0C94EE077A
S2140001000C944C0B0C948A0B0C94D8090C94160A7D
S2140001100C94EE070C94EE070C94EE070C94EE0786
S2140001200C94EE070C94EE070C94EE070C9439131F
S2140001300C9404130C94372F0C94EE070C944B2E4F
S2140001400C94862E0C94C12E0C94FC2E0C94E82F46
S2140001500C94EE070C94722F0C94AD2F0C94EE07B3
S2140001600C94911A0C94C71A0C94EE070C94FD1A72
S2140001700C94331B0C94EE070C94340E0C94720EF5
S2140001800C94C00C0C94FE0C0C943C0D0C947A0D44
S2140001900C94B80D0C94F60D0C94EE070C94EE0728
S2140001A00C94440C0C94820C0C940D140C94D813E0
S2140001B00C94E7320C94EE070C94FB310C94363218
S2140001C00C9471320C94AC320C9498330C94EE0769
S2140001D00C9422330C945D330C94EE070C94411C63
S2140001E00C94771C0C94EE070C94AD1C0C94E31C3A
S2140001F00C94EE0755105A105F1067106C107110B3
S21400020076107B10801085108A108F10941099102D
S2140002109E10A310A810AD10B210B710BC10C110DD
S2140002201B6300726F6C6C203D205B2534642C25AC
S21400023034645D2C207069746368203D205B25342F
S214000240642C2534645D2C20796177203D205B2565
S21400025034642C2534645D2C2064796E616D69638A
S21400026073203D2025640D006779726F20736361EB
S2140002706C652078203D202534642C206779726FC9
S214000280207363616C652079203D202534642C2022
S2140002906779726F207363616C65207A203D202534
S2140002A034640D006779726F20626961732078206C
S2140002B03D202534642C206779726F206269617353
S2140002C02079203D202534642C206779726F2062C7
S2140002D0696173207A203D202534640D0023637302
S2140002E0642025662025662025662025662025664E
S2140002F02025662025662025662025662025662082
S21400030025660D0A002363616C6D73672023636F97
S2140003106C6C65637420526F7461746520646576D6
S21400032069636520746F2061206E6577206C6F634B
S2140003306174696F6E2C20707265737320656E74BD
S2140003406572207768656E2072656164790D0A00B3
S2140003502363616C6D7367202363616C3364706F15
S214000360696E742025662025662025662025662071
S21400037025660D0A002363616C6D73672023636F27
S2140003806C6C65637420526F746174652064657666
S21400039069636520746F2061206E6577206C6F63DB
S2140003A06174696F6E2C20707265737320656E744D
S2140003B06572207768656E2072656164790D0A0043
S2140003C02363616C6D7367202363616C3364706FA5
S2140003D0696E742025662025662025662025662001
S2140003E025660D0A002363616C6D736720236361C5
S2140003F06C726F746D617472697820252E34662075
S214000400252E346620252E346620252E346620259B
S2140004102E346620252E346620252E346620252E82
S214000420346620252E34660D0A002363616C6D73D6
S214000430672023617869737363616C6520252E34A9
S2140004406620252E346620252E34660D0A0023638A
S214000450616C6D73672023617869736269617320CC
S214000460252E346620252E346620252E34660D0A69
S214000470002363616C6D73672023726573756C74FB
S214000480207061737365640D0A002363616C6D737D
S214000490672023726573756C74206661696C656489
S2140004A00D0A00496E76616C696420746F6B656E28
S2140004B02073697A650A0D00496E76616C6964205E
S2140004C06E756D626572206F6620746F6B656E73F5
S2140004D00A0D007363740068656C700073646C00CA
S2140004E064657600746F70006C7300726D002D7218
S2140004F000726D646972006D6B64697200636400FB
S2140005002F006865616400496E76616C69642043FB
S2140005104D440A0D002E2D2D2D2D2D2D2D2D2D2D3E
S2140005202D2D2D2D2D2D2D2D2D2D2D2D2D2D2D2DF6
S2140005302D2D2D2D2D2D2D2D2D2D2D2D2D2D2D2DE6
S2140005402D2D2D2D2D2D2D2D2D2D2D2D2D2D2D2DD6
S2140005502D2D2D2D2D2D2D2D2D2D2D2D2D2D2E0AE8
S2140005600D007C20436F6D6D616E64207C20202022
S2140005702020417267756D656E74732020202020E0
S2140005807C202020202020202020202020202044E6
S21400059065736372697074696F6E20202020202056
S2140005A020202020202020202020207C0A0D007CD7
S2140005B02D2D2D2D2D2D2D2D2D7C2D2D2D2D2D2D17
S2140005C02D2D2D2D2D2D2D2D2D2D2D2D2D7C2D2D07
S2140005D02D2D2D2D2D2D2D2D2D2D2D2D2D2D2D2D46
S2140005E02D2D2D2D2D2D2D2D2D2D2D2D2D2D2D2D36
S2140005F02D2D2D2D2D2D2D2D7C0A0D007C20736488
S2140006006C20202020207C203C617267313E202018
S214000610202020202020202020207C2053657420AD
S214000620746865206465627567206C6576656C2CF9
S214000630207768657265203C617267313E203D20F8
S21400064020202020207C0A0D007C20202020202036
S2140006502020207C20202020202020202020202039
S214000660202020202020207C20302C312C322028D6
S2140006706C6F772C206D65642C206869676829206C
S2140006802020202020202020202020202020202065
S21400069020207C0A0D007C20646576202020202007
S2140006A07C202020202020202020202020202020E9
S2140006B0202020207C2052657475726E7320612085
S2140006C06C697374206F6620616374697665206454
S2140006D07269766572732E20202020202020207CD0
S2140006E00A0D007C20746F7020202020207C2020A3
S2140006F020202020202020202020202020202020F5
S214000700207C20446973706C6179732073797374EC
S214000710656D20737461746973746963732E202029
S2140007202020202020202020202020207C0A0D00B1
S2140007307C206C732020202020207C203C61726767
S214000740313E2020202020202020202020207C2019
S214000750446973706C6179732074686520636F6E8A
S21400076074656E7473206F6620646972203C6172D3
S21400077067313E2E20202020207C0A0D007C20633E
S214000780642020202020207C203C617267313E209F
S21400079020202020202020202020207C204368614C
S2140007A06E676520746F20646972203C61726731E1
S2140007B03E2E202020202020202020202020202008
S2140007C02020202020207C0A0D007C20726D202016
S2140007D0202020207C203C617267313E2020202093
S2140007E020202020202020207C2052656D6F7665FA
S2140007F020612066696C65203C617267313E2E2060
S21400080020202020202020202020202020202020E3
S2140008102020207C0A0D007C20726D6469722020E6
S214000820207C203C617267313E2020202020202042
S21400083020202020207C2052656D6F766520612068
S2140008406469726563746F72792E202020202020E0
S2140008502020202020202020202020202020202093
S2140008607C0A0D007C206D6B6469722020207C2041
S2140008703C617267313E202020202020202020204E
S21400088020207C2043726561746520612064697253
S2140008906563746F7279203C617267313E2E20204A
S2140008A0202020202020202020202020207C0A0D10
S2140008B0007C20746F7563682020207C203C617269
S2140008C067313E2020202020202020202020207C51
S2140008D0204372656174652066696C65203C6172B0
S2140008E067313E2E2020202020202020202020207F
S2140008F0202020202020202020207C0A0D007C2084
S21400090068656164202020207C203C617267313E4F
S2140009102020202020202020202020207C205072F4
S214000920696E747320612066696C65203C6172672D
S214000930313E20746F20746865207465726D696E30
S214000940616C2E202020207C0A0D00272D2D2D2DB9
S2140009502D2D2D2D2D272D2D2D2D2D2D2D2D2D2DC8
S2140009602D2D2D2D2D2D2D2D2D272D2D2D2D2D2DB8
S2140009702D2D2D2D2D2D2D2D2D2D2D2D2D2D2D2DA2
S2140009802D2D2D2D2D2D2D2D2D2D2D2D2D2D2D2D92
S2140009902D2D2D2D270A0D00496E76616C69642079
S2140009A04C6576656C0A0D005468652027456E74A4
S2140009B065722720627574746F6E2077696C6C2080
S2140009C0656E61626C652F64697361626C65206137
S2140009D020646562756767696E67207365737369FF
S2140009E06F6E2E2050726573732027456E74657285
S2140009F02720746F20626567696E2E2E2E0A0D0002
S214000A002E2D2D2D2D2D2D2D2D2D2D2D2D2D2D2D10
S214000A102D2D2D2D2D2D2D2D2D2D2D2D2D2D2D2D01
S214000A202D2D2D2D2D2D2D2D2D2D2D2D2D2D2D2DF1
S214000A302D2D2D2D2D2D2D2D2D2D2D2D2D2D2E0A03
S214000A400D007C202020447269766572204E616D10
S214000A50652020207C204D616A6F72204E756D6285
S214000A606572207C204D696E6F72204E756D6265D2
S214000A70727C2023206F662048616E646C6573204C
S214000A807C0A0D007C2D2D2D2D2D2D2D2D2D2D2D63
S214000A902D2D2D2D2D2D7C2D2D2D2D2D2D2D2D2D32
S214000AA02D2D2D2D2D7C2D2D2D2D2D2D2D2D2D2D22
S214000AB02D2D2D7C2D2D2D2D2D2D2D2D2D2D2D2D12
S214000AC02D2D7C0A0D007C20253136737C202532A6
S214000AD06420202020202020202020207C2025325A
S214000AE064202020202020202020207C2025326406
S214000AF020202020202020202020207C0A0D0027D7
S214000B002D2D2D2D2D2D2D2D2D2D2D2D2D2D2D2D10
S214000B102D272D2D2D2D2D2D2D2D2D2D2D2D2D2D06
S214000B20272D2D2D2D2D2D2D2D2D2D2D2D2D272DFC
S214000B302D2D2D2D2D2D2D2D2D2D2D2D2D270A0D29
S214000B40002E2D2D2D2D2D2D2D2D2D2E2D2D2D2DFB
S214000B502D2D2D2D2D2D2D2D2D2D2D2E2D2D2D2DBF
S214000B602D2D2D2D2D2D2D2D2D2D2D2E0A0D007CD0
S214000B702053656374696F6E207C202020204164BA
S214000B806472657373202020207C20202053697AAD
S214000B906520427974657320207C0A0D007C2D2D1B
S214000BA02D2D2D2D2D2D2D7C2D2D2D2D2D2D2D2D21
S214000BB02D2D2D2D2D2D2D7C2D2D2D2D2D2D2D2D11
S214000BC02D2D2D2D2D2D2D7C0A0D007C2020202E48
S214000BD064617461207C2020202020202020307832
S214000BE02578207C2025313364207C0A0D007C206B
S214000BF02020202E627373207C202020202020209E
S214000C002030782578207C2025313364207C0A0D1E
S214000C10007C2020202E68656170207C202020200B
S214000C202020202030782578207C20253133642031
S214000C307C0A0D00272D2D2D2D2D2D2D2D2D272D0C
S214000C402D2D2D2D2D2D2D2D2D2D2D2D2D2D272DD5
S214000C502D2D2D2D2D2D2D2D2D2D2D2D2D2D270AE8
S214000C600D007C557365642052414D207C20202069
S214000C702020202020202020202020207C202531FD
S214000C803364207C0A0D007C202020202020202099
S214000C90207C2020202020202020202020202020F3
S214000CA0207C20253132642525207C0A0D00272D46
S214000CB02D2D2D2D2D2D2D2D272D2D2D2D2D2D2D65
S214000CC02D2D2D2D2D2D2D2D272D2D2D2D2D2D2D55
S214000CD02D2D2D2D2D2D2D2D270A0D007C467265D0
S214000CE0652052414D207C202020202020202020DE
S214000CF02020202020207C2025313364207C0A0DF3
S214000D00007C2020202020202020207C2020202046
S214000D1020202020202020202020207C202531324A
S214000D20642525207C0A0D00272D2D2D2D2D2D2DFB
S214000D302D2D272D2D2D2D2D2D2D2D2D2D2D2D2DE4
S214000D402D2D272D2D2D2D2D2D2D2D2D2D2D2D2DD4
S214000D502D2D270A0D007C537973204C6F6164207B
S214000D6061667465722031206D696E757465202029
S214000D707C202531322E31662525207C0A0D002761
S214000D802D2D2D2D2D2D2D2D2D2D2D2D2D2D2D2D8E
S214000D902D2D2D2D2D2D2D2D2D272D2D2D2D2D2D84
S214000DA02D2D2D2D2D2D2D2D2D270A0D007C537923
S214000DB073204C6F61642061667465722035206D07
S214000DC0696E75746573207C202531322E31662558
S214000DD025207C0A0D00272D2D2D2D2D2D2D2D2D7A
S214000DE02D2D2D2D2D2D2D2D2D2D2D2D2D2D2D2D2E
S214000DF0272D2D2D2D2D2D2D2D2D2D2D2D2D2D2D24
S214000E00270A0D000D0A50726573732027456E740D
S214000E1065722720746F20726573756D652C2027A8
S214000E20712720746F2073746F702E0A0D005B2577
S214000E303032643A005B2532643A00253032643A38
S214000E40002532643A00253032643A002532643A8E
S214000E500025303033645D202000253033645D206B
S214000E6020002533645D2020006172625F73797311
S214000E7054696D65725374617274206661696C653D
S214000E806420776974682025642E0A0D006E616EF2
S214000E9000696E660000407A10F35A00A0724E1881
S214000EA0090010A5D4E80000E87648170000E40B17
S214000EB054020000CA9A3B000000E1F505000080DD
S214000EC0969800000040420F000000A08601000037
S214000ED000102700000000E8030000000064000087
S214000EE00000000A00000000000100000000002CC6
S214000EF076D888DC674F0823DFC1DFAE59E1B1B78B
S214000F0096E5E3E453C63AE651997696E8E6C28457
S214000F1026EB898C9B62ED407C6FFCEFBC9C9F406F
S214000F20F2BAA56FA5F490055A2AF75C936B6CF994
S214000F30676DC11BFCE0E40D47FEF520E6B500D06A
S214000F40ED902E0300943577050080841E0800007F
S214000F50204E0A000000C80C333333330F986E124D
S214000F60831141EF8D2114893BE65516CFFEE6DB53
S214000F7018D1844B381BF77C1D901DA4BBE424209D
S214000F803284725E228100C9F124ECA1E53D27007F
S214000F9011241FBECFEFDFE3DEBFCDBF00E00CBFE6
S214000FA018BE19BE1ABE1BBE13E2A0E0B0E2E0E611
S214000FB0F5EF01E00BBF02C007900D92A83DB10708
S214000FC0D9F71BBE1CE2A8EDB3E201C01D92AE33FA
S214000FD0B107E1F70E9431C00C9409F60C940000AA
S214000FE0CF93DF930F920F92CDB7DEB7E091BD207F
S214000FF0F091BE2022813381E091BD20F091BE2089
S2140010000CC0E981FA810190F081E02D908198175B
S21400101069F021503040E981FA8140855185498345
S2140010205A83121613066CF3E0E0F0E0CF010F903F
S2140010300F90DF91CF910895CF93DF930F920F9289
S214001040CDB7DEB784E090E00E9480D989839A838A
S21400105089819A8197FD0CC08091BD209091BE2019
S21400106069817A8141E00E94E4D989819A8102C02F
S2140010708EEF9FEF0F900F90DF91CF910895CF9254
S214001080DF92EF92FF920F931F93CF93DF930F920F
S2140010900F92CDB7DEB78C017B01C42ED22EDB01BA
S2140010A08C918830C1F0893048F4813008F426C12C
S2140010B0833088F0843009F021C10DC0803259F0A9
S2140010C0813220F4803109F019C105C0803419F04E
S2140010D0803809F013C1F8019081982309F011C1F6
S2140010E08C2D0E94F007009709F080C00E941C0813
S2140010F089839A8389819A8197FD09C1E981FA815A
S2140011000190F081E02DC082D7018C9181831296E8
S2140011108D919C911397828393838C91883099F15B
S214001120893040F48230E9F0843021F1813009F0D2
S21400113055C00EC08032C9F1813220F4803109F0EA
S2140011404DC02AC08034D1F1803809F047C03FC076
S214001150F8018089D70111969C911197892B808B75
S2140011603DC0F8018189D70111969C911197892B72
S214001170818B34C0F8018289D70111969C91119712
S214001180892B828B2BC0F8018389D70111969C91FD
S2140011901197892B838B22C0F8018489D701119679
S2140011A09C911197892B848B19C0F8018589D701EA
S2140011B011969C911197892B858B10C0F801868912
S2140011C0D70111969C911197892B868B07C0F80141
S2140011D08789D70111969C91892B878BF801818589
S2140011E083608187D7018C91828785C08D2D0E9470
S2140011F0F007009709F088C00E941C0889839A832C
S21400120089819A8197FD83C0E981FA810190F081F6
S214001210E02DD082D7018C91818312968D919C917E
S2140012201397828393838C91883099F1893040F4A8
S2140012308230E9F0843021F1813009F055C00EC0CB
S2140012408032C9F1813220F4803109F04DC02AC0C5
S2140012508034D1F1803809F047C03FC0F80180895A
S214001260D70111969C911197892B808B3DC0F80170
S2140012708189D70111969C911197892B818B34C057
S214001280F8018289D70111969C911197892B828B40
S2140012902BC0F8018389D70111969C911197892B51
S2140012A0838B22C0F8018489D70111969C911197EF
S2140012B0892B848B19C0F8018589D70111969C91DA
S2140012C01197892B858B10C0F8018689D701119656
S2140012D09C911197892B868B07C0F8018789D701C7
S2140012E011969C91892B878BF80181858C6081876C
S2140012F0D7018C91838789819A810BC08FEF9FEFEE
S21400130008C08AEF9FEF05C089EF9FEF02C08EEFFF
S2140013109FEF0F900F90DF91CF911F910F91FF904D
S214001320EF90DF90CF900895FC01DB0111968C9131
S2140013301197882309F112969C911297992311F020
S214001340868301C0858311968C91119781831196AF
S2140013508C9111978093B00014968C9114978130DD
S21400136029F0813040F0823031F402C080E201C0C2
S21400137088E2808B01C0108A8C918823C1F0118688
S2140013808C9182838C918093B00013968C911397E6
S214001390843029F0853029F0833041F404C080E1A0
S2140013A003C088E101C088E0808B0895108A089504
S2140013B01F920F920FB60F9208B60F9209B60F92B1
S2140013C00BB60F9211242F933F934F935F936F9317
S2140013D07F938F939F93AF93BF93EF93FF9380E09A
S2140013E00E94F007DC01009751F01296ED91FC91F7
S2140013F01397309721F080E011966C911995FF9124
S214001400EF91BF91AF919F918F917F916F915F9177
S2140014104F913F912F910F900BBE0F9009BE0F90EA
S21400142008BE0F900FBE0F901F9018951F920F9238
S2140014300FB60F9208B60F9209B60F920BB60F9220
S21400144011242F933F934F935F936F937F938F93C4
S2140014509F93AF93BF93EF93FF9381E00E94F007B3
S214001460DC01009751F01296ED91FC91139730979E
S21400147021F080E011966C911995FF91EF91BF9144
S214001480AF919F918F917F916F915F914F913F9117
S2140014902F910F900BBE0F9009BE0F9008BE0F90B5
S2140014A00FBE0F901F9018951F920F920FB60F92B7
S2140014B008B60F9209B60F920BB60F9211242F930F
S2140014C03F934F935F936F937F938F939F93AF93C7
S2140014D0BF93EF93FF9382E00E94F007DC01009732
S2140014E051F01296ED91FC911397309721F081E020
S2140014F011966C911995FF91EF91BF91AF919F91C5
S2140015008F917F916F915F914F913F912F910F90A7
S2140015100BBE0F9009BE0F9008BE0F900FBE0F9027
S2140015201F9018951F920F920FB60F9208B60F9243
S21400153009B60F920BB60F9211242F933F934F9339
S2140015405F936F937F938F939F93AF93BF93EF9326
S214001550FF9383E00E94F007DC01009751F012969B
S214001560ED91FC911397309721F081E011966C91E4
S2140015701995FF91EF91BF91AF919F918F917F91B8
S2140015806F915F914F913F912F910F900BBE0F90EF
S21400159009BE0F9008BE0F900FBE0F901F901895B3
S2140015A01F920F920FB60F9208B60F9209B60F92BF
S2140015B00BB60F9211242F933F934F935F936F9325
S2140015C07F938F939F93AF93BF93EF93FF9384E0A4
S2140015D00E94F007DC01009751F01296ED91FC9105
S2140015E01397309721F082E011966C911995FF9130
S2140015F0EF91BF91AF919F918F917F916F915F9186
S2140016004F913F912F910F900BBE0F9009BE0F90F8
S21400161008BE0F900FBE0F901F9018951F920F9246
S2140016200FB60F9208B60F9209B60F920BB60F922E
S21400163011242F933F934F935F936F937F938F93D2
S2140016409F93AF93BF93EF93FF9385E00E94F007BD
S214001650DC01009751F01296ED91FC9113973097AC
S21400166021F082E011966C911995FF91EF91BF9150
S214001670AF919F918F917F916F915F914F913F9125
S2140016802F910F900BBE0F9009BE0F9008BE0F90C3
S2140016900FBE0F901F9018951F920F920FB60F92C5
S2140016A008B60F9209B60F920BB60F9211242F931D
S2140016B03F934F935F936F937F938F939F93AF93D5
S2140016C0BF93EF93FF9386E00E94F007DC0100973C
S2140016D051F01296ED91FC911397309721F083E02C
S2140016E011966C911995FF91EF91BF91AF919F91D3
S2140016F08F917F916F915F914F913F912F910F90B6
S2140017000BBE0F9009BE0F9008BE0F900FBE0F9035
S2140017101F9018951F920F920FB60F9208B60F9251
S21400172009B60F920BB60F9211242F933F934F9347
S2140017305F936F937F938F939F93AF93BF93EF9334
S214001740FF9387E00E94F007DC01009751F01296A5
S214001750ED91FC911397309721F083E011966C91F0
S2140017601995FF91EF91BF91AF919F918F917F91C6
S2140017706F915F914F913F912F910F900BBE0F90FD
S21400178009BE0F9008BE0F900FBE0F901F901895C1
S2140017901F920F920FB60F9208B60F9209B60F92CD
S2140017A00BB60F9211242F933F934F935F936F9333
S2140017B07F938F939F93AF93BF93EF93FF9388E0AE
S2140017C00E94F007DC01009751F01296ED91FC9113
S2140017D01397309721F084E011966C911995FF913C
S2140017E0EF91BF91AF919F918F917F916F915F9194
S2140017F04F913F912F910F900BBE0F9009BE0F9007
S21400180008BE0F900FBE0F901F9018951F920F9254
S2140018100FB60F9208B60F9209B60F920BB60F923C
S21400182011242F933F934F935F936F937F938F93E0
S2140018309F93AF93BF93EF93FF9389E00E94F007C7
S214001840DC01009751F01296ED91FC9113973097BA
S21400185021F084E011966C911995FF91EF91BF915C
S214001860AF919F918F917F916F915F914F913F9133
S2140018702F910F900BBE0F9009BE0F9008BE0F90D1
S2140018800FBE0F901F9018951F920F920FB60F92D3
S21400189008B60F9209B60F920BB60F9211242F932B
S2140018A03F934F935F936F937F938F939F93AF93E3
S2140018B0BF93EF93FF938AE00E94F007DC01009746
S2140018C051F01296ED91FC911397309721F085E038
S2140018D011966C911995FF91EF91BF91AF919F91E1
S2140018E08F917F916F915F914F913F912F910F90C4
S2140018F00BBE0F9009BE0F9008BE0F900FBE0F9044
S2140019001F9018951F920F920FB60F9208B60F925F
S21400191009B60F920BB60F9211242F933F934F9355
S2140019205F936F937F938F939F93AF93BF93EF9342
S214001930FF938BE00E94F007DC01009751F01296AF
S214001940ED91FC911397309721F085E011966C91FC
S2140019501995FF91EF91BF91AF919F918F917F91D4
S2140019606F915F914F913F912F910F900BBE0F900B
S21400197009BE0F9008BE0F900FBE0F901F901895CF
S2140019801F920F920FB60F9208B60F9209B60F92DB
S2140019900BB60F9211242F933F934F935F936F9341
S2140019A07F938F939F93AF93BF93EF93FF938CE0B8
S2140019B00E94F007DC01009751F01296ED91FC9121
S2140019C01397309721F086E011966C911995FF9148
S2140019D0EF91BF91AF919F918F917F916F915F91A2
S2140019E04F913F912F910F900BBE0F9009BE0F9015
S2140019F008BE0F900FBE0F901F9018951F920F9263
S214001A000FB60F9208B60F9209B60F920BB60F924A
S214001A1011242F933F934F935F936F937F938F93EE
S214001A209F93AF93BF93EF93FF938DE00E94F007D1
S214001A30DC01009751F01296ED91FC9113973097C8
S214001A4021F086E011966C911995FF91EF91BF9168
S214001A50AF919F918F917F916F915F914F913F9141
S214001A602F910F900BBE0F9009BE0F9008BE0F90DF
S214001A700FBE0F901F9018951F920F920FB60F92E1
S214001A8008B60F9209B60F920BB60F9211242F9339
S214001A903F934F935F936F937F938F939F93AF93F1
S214001AA0BF93EF93FF938EE00E94F007DC01009750
S214001AB051F01296ED91FC911397309721F087E044
S214001AC011966C911995FF91EF91BF91AF919F91EF
S214001AD08F917F916F915F914F913F912F910F90D2
S214001AE00BBE0F9009BE0F9008BE0F900FBE0F9052
S214001AF01F9018951F920F920FB60F9208B60F926E
S214001B0009B60F920BB60F9211242F933F934F9363
S214001B105F936F937F938F939F93AF93BF93EF9350
S214001B20FF938FE00E94F007DC01009751F01296B9
S214001B30ED91FC911397309721F087E011966C9108
S214001B401995FF91EF91BF91AF919F918F917F91E2
S214001B506F915F914F913F912F910F900BBE0F9019
S214001B6009BE0F9008BE0F900FBE0F901F901895DD
S214001B701F920F920FB60F9208B60F9209B60F92E9
S214001B800BB60F9211242F933F934F935F936F934F
S214001B907F938F939F93AF93BF93EF93FF9380E1D1
S214001BA00E94F007DC01009751F01296ED91FC912F
S214001BB01397309721F088E011966C911995FF9154
S214001BC0EF91BF91AF919F918F917F916F915F91B0
S214001BD04F913F912F910F900BBE0F9009BE0F9023
S214001BE008BE0F900FBE0F901F9018951F920F9271
S214001BF00FB60F9208B60F9209B60F920BB60F9259
S214001C0011242F933F934F935F936F937F938F93FC
S214001C109F93AF93BF93EF93FF9381E10E94F007EA
S214001C20DC01009751F01296ED91FC9113973097D6
S214001C3021F088E011966C911995FF91EF91BF9174
S214001C40AF919F918F917F916F915F914F913F914F
S214001C502F910F900BBE0F9009BE0F9008BE0F90ED
S214001C600FBE0F901F9018951F920F920FB60F92EF
S214001C7008B60F9209B60F920BB60F9211242F9347
S214001C803F934F935F936F937F938F939F93AF93FF
S214001C90BF93EF93FF9382E10E94F007DC01009769
S214001CA051F01296ED91FC911397309721F089E050
S214001CB011966C911995FF91EF91BF91AF919F91FD
S214001CC08F917F916F915F914F913F912F910F90E0
S214001CD00BBE0F9009BE0F9008BE0F900FBE0F9060
S214001CE01F9018951F920F920FB60F9208B60F927C
S214001CF009B60F920BB60F9211242F933F934F9372
S214001D005F936F937F938F939F93AF93BF93EF935E
S214001D10FF9383E10E94F007DC01009751F01296D2
S214001D20ED91FC911397309721F089E011966C9114
S214001D301995FF91EF91BF91AF919F918F917F91F0
S214001D406F915F914F913F912F910F900BBE0F9027
S214001D5009BE0F9008BE0F900FBE0F901F901895EB
S214001D601F920F920FB60F9208B60F9209B60F92F7
S214001D700BB60F9211242F933F934F935F936F935D
S214001D807F938F939F93AF93BF93EF93FF9384E1DB
S214001D900E94F007DC01009751F01296ED91FC913D
S214001DA01397309721F08AE011966C911995FF9160
S214001DB0EF91BF91AF919F918F917F916F915F91BE
S214001DC04F913F912F910F900BBE0F9009BE0F9031
S214001DD008BE0F900FBE0F901F9018951F920F927F
S214001DE00FB60F9208B60F9209B60F920BB60F9267
S214001DF011242F933F934F935F936F937F938F930B
S214001E009F93AF93BF93EF93FF9385E10E94F007F4
S214001E10DC01009751F01296ED91FC9113973097E4
S214001E2021F08AE011966C911995FF91EF91BF9180
S214001E30AF919F918F917F916F915F914F913F915D
S214001E402F910F900BBE0F9009BE0F9008BE0F90FB
S214001E500FBE0F901F901895CF93DF9300D000D041
S214001E60CDB7DEB72A833B834C835D836E839FB7F3
S214001E709983F894853069F1863070F4823001F1E8
S214001E80833028F48823B1F08130D9F516C083302A
S214001E90D1F08430B1F51AC0883021F1893028F4A9
S214001EA08630D1F0873069F51AC08930F1F08A3073
S214001EB041F51EC080E096E01DC080E296E01AC0A4
S214001EC080E496E017C080E696E014C080E896E0CE
S214001ED011C080EA96E00EC080EE96E00BC080E06F
S214001EE097E008C080E297E005C080EC97E002C06B
S214001EF080EE97E0BE016E5F7F4F0E94940980E0FF
S214001F0001C08CEF99819FBF2696CDBFDEBFDF91C3
S214001F10CF910895CF93DF93CDB7DEB72797CDBF88
S214001F20DEBF4C835D836E837F839FB79983F8946F
S214001F30853009F44CC0863080F4823081F18330DD
S214001F4030F48823E1F0813009F079C020C0833076
S214001F5071F1843009F073C032C0883009F44FC084
S214001F60893030F48630D9F1873009F068C03FC038
S214001F70893009F44CC08A3009F061C050C080E056
S214001F8096E0BE016C5F7F4F40E021E04FC080E2EC
S214001F9096E0BE016C5F7F4F42E023E047C080E4DE
S214001FA096E0BE016C5F7F4F44E025E03FC080E6D0
S214001FB096E0BE016C5F7F4F46E027E037C080E8C2
S214001FC096E0BE016C5F7F4F48E029E02FC080EAB4
S214001FD096E0BE016C5F7F4F4AE02BE027C080EEA4
S214001FE096E0BE016C5F7F4F4CE02DE01FC080E0A6
S214001FF097E0BE016C5F7F4F4EE02FE017C080E297
S21400200097E0BE016C5F7F4F40E121E10FC080EC9E
S21400201097E0BE016C5F7F4F42E123E107C080EE90
S21400202097E0BE016C5F7F4F44E125E10E943F08C8
S2140020308A839B8389818FBF8A819B8104C0898123
S2140020408FBF8CEF9FEF2796CDBFDEBFDF91CF917E
S2140020500895CF93DF9300D0CDB7DEB78A839B83F6
S2140020608FB78983F894EA81FB818091BD20909197
S214002070BE20248135812817390721F089818FBF3A
S21400208088EF91C0EA81FB810190F081E02DE0812C
S214002090F0E0E631F10508F07BC0E650FF4FEE0FAA
S2140020A0FF1F0590F491E02D1994E0E0F6E0809192
S2140020B0090609C0E0E0F6E08091090666C0E0E2A5
S2140020C0F6E0809129068C7F8187128661C0E0E267
S2140020D0F6E08091290659C0E0E4F6E080914906D2
S2140020E0F2CFE0E4F6E0809149064FC0E0E6F6E085
S2140020F080916906E8CFE0E6F6E08091690645C083
S214002100E0E8F6E080918906DECFE0E8F6E0809130
S21400211089063BC0E0EAF6E08091A906D4CFE0EA63
S214002120F6E08091A90631C0E0EEF6E08091E9067F
S214002130CACFE0EEF6E08091E90627C0E0E0F7E0DF
S21400214080910907C0CFE0E0F7E0809109071DC045
S214002150E0E2F7E080912907B6CFE0E2F7E0809171
S214002160290713C0E0ECF7E08091C907ACCFE0EC9C
S214002170F7E08091C90709C0E0EEF7E08091E90733
S214002180A2CFE0EEF7E08091E907837F8187138690
S2140021908091BD209091BE206A817B810E9451DA99
S2140021A089818FBF80E02396CDBFDEBFDF91CF91C0
S2140021B008950F931F93CF93DF930F92CDB7DEB79B
S2140021C08C011982DC011996ED91FC911A97828197
S2140021D08983898182FF02C082E02EC0898183FFC5
S2140021E011C089E0F801868383859485009709F4F9
S2140021F086C00384F485E02DD80116968C9160E0A5
S21400220019957DC0898186FF0BC0898180FF08C033
S214002210F8011682118A128A0184F285E02D6DC0BB
S214002220898186FF18C0D8011996ED91FC911A97FE
S21400223089818064828384E016968C9316971B9619
S2140022408D919C911C97009709F459C01B96ED91AF
S214002250FC911C97D2CF898187FF51C0898181FF6D
S21400226037C0F80181899289009769F00184F28568
S214002270E02D828184FF07C0D8011996ED91FC916C
S2140022801A9782E03BC088E0F801868383859485B0
S2140022900097A9F10384F485E02DD80116968C9159
S2140022A060E01995D8011996ED91FC911A978483F0
S2140022B01996ED91FC911A9783E0818351968D9142
S2140022C09C915297019651968D939C93529717C066
S2140022D087E0F801868383859485009749F02385F7
S2140022E034858681A185B28514966C91F90119957D
S2140022F0D8011996ED91FC911A9783E081830F908F
S214002300DF91CF911F910F910895CF93DF930F9296
S2140023100F92CDB7DEB7E091CB20F091CC20228192
S2140023203381E091CB20F091CC200CC0E981FA817A
S2140023300190F081E02D9081981769F0215030408F
S214002340E981FA814085518549835A83121613061E
S2140023506CF3E0E0F0E0CF010F900F90DF91CF91AB
S2140023600895EF92FF920F931F93CF93DF93CDB70D
S214002370DEB76C97CDBFDEBF8C0119821A821B8236
S214002380DC011796ED91FC911897838189831D9641
S214002390ED90FC901E971F968D919C9150978A8386
S2140023A09B83898183FF13C01796ED91FC91189744
S2140023B083E082831796ED91FC9118978283179697
S2140023C0ED91FC911897998198609383A6C08981B6
S2140023D082FF22C0CE0104960E9429D1D8015396CE
S2140023E0FE01349689E101900D928150E1F7D80103
S2140023F01796ED91FC91189783E082831796ED91DE
S214002400FC91189782831796ED91FC911897898115
S2140024108860838382E081C0898184FF0EC0D801F2
S2140024201796ED91FC91189783E082831796ED91AD
S214002430FC911897828381E070C0898186FF2EC048
S214002440CE0104960E9429D1F8017396DE011496F7
S21400245089E10D9001928150E1F7F80121893289D6
S2140024608A819B812817390798F42781308501884F
S214002470F289E02DEE0DFF1D8081D90116968C9312
S2140024801697F801818992890196818B928B48C0B4
S214002490D8010780F085E02D83E038C0898187FF6A
S2140024A03FC0CE0104960E9429D1F8017396DE0142
S2140024B0149689E10D9001928150E1F7F801218987
S2140024C032898A819B8128173907D8F40188F289D6
S2140024D0E02DEE0DFF1DD80117968D919C91189753
S2140024E0DC0116968C9116978083F8018189928973
S2140024F00196818B928B0780F085E02D82E08283A7
S2140025000FC0D8010780F085E02D87E082831796FC
S214002510ED91FC911897828384E016968C9316971B
S2140025206C96CDBFDEBFDF91CF911F910F91FF90CC
S214002530EF9008951F920F920FB60F9208B60F9263
S21400254009B60F920BB60F9211242F933F934F9319
S2140025505F936F937F938F939F93AF93BF93EF9306
S214002560FF9380E00E948511009711F00E94B11140
S214002570FF91EF91BF91AF919F918F917F916F9156
S2140025805F914F913F912F910F900BBE0F9009BE18
S2140025900F9008BE0F900FBE0F901F9018951F92B9
S2140025A00F920FB60F9208B60F9209B60F920BB69F
S2140025B00F9211242F933F934F935F936F937F93C4
S2140025C08F939F93AF93BF93EF93FF9380E00E9408
S2140025D08511009711F00E94D910FF91EF91BF91DD
S2140025E0AF919F918F917F916F915F914F913F91A6
S2140025F02F910F900BBE0F9009BE0F9008BE0F9044
S2140026000FBE0F901F9018951F920F920FB60F9245
S21400261008B60F9209B60F920BB60F9211242F939D
S2140026203F934F935F936F937F938F939F93AF9355
S214002630BF93EF93FF9381E00E948511009711F0FE
S2140026400E94B111FF91EF91BF91AF919F918F9131
S2140026507F916F915F914F913F912F910F900BBE9D
S2140026600F9009BE0F9008BE0F900FBE0F901F90E0
S21400267018951F920F920FB60F9208B60F9209B6D2
S2140026800F920BB60F9211242F933F934F935F93A5
S2140026906F937F938F939F93AF93BF93EF93FF9325
S2140026A081E00E948511009711F00E94D910FF91D9
S2140026B0EF91BF91AF919F918F917F916F915F91B5
S2140026C04F913F912F910F900BBE0F9009BE0F9028
S2140026D008BE0F900FBE0F901F9018951F920F9276
S2140026E00FB60F9208B60F9209B60F920BB60F925E
S2140026F011242F933F934F935F936F937F938F9302
S2140027009F93AF93BF93EF93FF9382E00E94851150
S214002710009711F00E94B111FF91EF91BF91AF9118
S2140027209F918F917F916F915F914F913F912F91E4
S2140027300F900BBE0F9009BE0F9008BE0F900FBEF5
S2140027400F901F9018951F920F920FB60F9208B613
S2140027500F9209B60F920BB60F9211242F933F9348
S2140027604F935F936F937F938F939F93AF93BF9394
S214002770EF93FF9382E00E948511009711F00E946C
S214002780D910FF91EF91BF91AF919F918F917F915B
S2140027906F915F914F913F912F910F900BBE0F90CD
S2140027A009BE0F9008BE0F900FBE0F901F90189591
S2140027B01F920F920FB60F9208B60F9209B60F929D
S2140027C00BB60F9211242F933F934F935F936F9303
S2140027D07F938F939F93AF93BF93EF93FF9383E083
S2140027E00E948511009711F00E94B111FF91EF91A0
S2140027F0BF91AF919F918F917F916F915F914F9114
S2140028003F912F910F900BBE0F9009BE0F9008BE00
S2140028100F900FBE0F901F9018951F920F920FB635
S2140028200F9208B60F9209B60F920BB60F921124AC
S2140028302F933F934F935F936F937F938F939F93C3
S214002840AF93BF93EF93FF9383E00E9485110097A9
S21400285011F00E94D910FF91EF91BF91AF919F9117
S2140028608F917F916F915F914F913F912F910F9034
S2140028700BBE0F9009BE0F9008BE0F900FBE0F90B4
S2140028801F9018950F931F93CF93DF930F920F927D
S214002890CDB7DEB789839A83E981FA818091CB2010
S2140028A09091CC20248135812817390751F4E9818D
S2140028B0FA810190F081E02D028113812481358117
S2140028C004C00EEF1FEF2FEF3FEFB801C9010F90C6
S2140028D00F90DF91CF911F910F9108951F93CF9383
S2140028E0DF93CDB7DEB72597CDBFDEBF182F8FB7E6
S2140028F08983F894143028F089818FBF8BEF9FEF7F
S2140029003AC0812F0E948511009789F58CE290E0ED
S2140029100E9480D98A839B838A819B8197FD0CC005
S2140029208091CB209091CC206A817B8141E00E94EF
S214002930E4D98A819B8102C08FEF9FEF8C839D83B1
S2140029408C819D8197FF05C089818FBF8FEF9FEF98
S21400295012C0EC81FD810190F081E02D1182108380
S21400296085E0868389818FBF8C819D8104C08981A3
S2140029708FBF8DEF9FEF2596CDBFDEBFDF91CF9146
S2140029801F910895CF93DF9300D0CDB7DEB78A832B
S2140029909B838FB78983F894EA81FB818091CB2053
S2140029A09091CC20248135812817390721F0898120
S2140029B08FBF8EEF27C0EA81FB81A081B181179679
S2140029C0ED91FC911897309759F41996ED91FC917A
S2140029D01A9713821582108211821482128207C0FF
S2140029E015821482108211821282168213828091BE
S2140029F0CB209091CC206A817B810E9451DA89811C
S214002A008FBF80E02396CDBFDEBFDF91CF910895C4
S214002A10EF92FF920F931F93CF93DF93CDB7DEB75E
S214002A206097CDBFDEBF8F839887F02E09871A8701
S214002A302B873C874D87E52E5E876F87788B8FB711
S214002A408983F89481E0801720F489818FBF8AEF0C
S214002A50F7C0A1E00A1731F457FF04C089818FBF81
S214002A6089EFEEC0EF81F8858091CB209091CC2045
S214002A70248135812817390721F089818FBF8EEF91
S214002A80DFC0EF81F88500811181FF2039F41A82BA
S214002A9083E08B8381E08C831E8207C083E08A8379
S214002AA01B8281E08C8385E08D83F80180818130F4
S214002AB089F0813028F08230C1F0833089F51FC05C
S214002AC081E894E08783908788E894E081879287FE
S214002AD082E01FC081E994E0F8018783908788E947
S214002AE094E08187928783E014C081EA94E087832C
S214002AF0908788EA94E08187928784E00AC081EB19
S214002B0094E0F8018783908788EB94E0818792872A
S214002B1085E02A813B814C815D816E810E942C0F6D
S214002B20D8011796ED91FC911897158214821082A1
S214002B3011821282168213821996ED91FC911A97D1
S214002B40138215821082118214821282FF20E1F510
S214002B500E94DD242A853B854C855D85220F331F28
S214002B60441F551F0E9440FA7901C90106978F3FFE
S214002B70910520F089818FBF8CEF62C0F801118625
S214002B8012860780F085E02D808188608083D801DA
S214002B901796ED91FC911897C901059784831796AF
S214002BA0ED91FC91189781E083830E94DD249701C4
S214002BB0220F331F40E050E00E9440FAF8012283C3
S214002BC033834483558334C0D80117961D921C92D4
S214002BD018971996ED91FC911A978081806C8083E6
S214002BE01996ED91FC911A978081806280831996E0
S214002BF0ED91FC911A978081806180831996ED9102
S214002C00FC911A978081846080831996ED91FC91DF
S214002C101A978081886080831996ED91FC911A97A7
S214002C20EE0CE3828F8598891B968D939C931C9758
S214002C3085E0F801868381E0818389818FBF80E00B
S214002C406096CDBFDEBFDF91CF911F910F91FF90B1
S214002C50EF9008952F923F924F925F926F927F92DD
S214002C608F929F92AF92BF92CF92DF92EF92FF9297
S214002C700F931F93CF93DF93CDB7DEB7E897CDBF03
S214002C80DEBF8E8F9F8F1B012A01F02EEE8DFF8DEB
S214002C904091CB205091CC20848195818417950754
S214002CA009F0B9C0EE8DFF8D00811181D80117960D
S214002CB08D919C911897009709F4AFC016961C92B8
S214002CC01697E22EEE0CF3E16F2E712C600E711E3D
S214002CD08AE0D82ECC24C39490E2892E91EA992ECD
S214002CE097E0A92EB12C90C0D8011796ED91FC91D3
S214002CF01897838183708130B9F71D962D923C9288
S214002D001E971F964D925C92509751961D921C925C
S214002D105297CE0180960E9429D1F301DE0190964B
S214002D2089E10D9001928150E1F7D8011796ED9157
S214002D30FC911897E5825DC0C8010E94B111CE01D2
S214002D4005960E9429D18A8D9B8DAC8DBD8DF8018C
S214002D5040A551A562A573A5841B950BA60BB70BC2
S214002D6089839A83AB83BC8389819A81AB81BC813A
S214002D70B7FF04C089829A82AB82BC8289819A811D
S214002D80AB81BC818034F2E49F07FFE0AF07F0E040
S214002D90BF0764F089819A81AB81BC8180549244DC
S214002DA0AF40B04089839A83AB83BC8389819A8184
S214002DB0AB81BC81803221EA920727E0A20720E09F
S214002DC0B207BCF0D8011796ED91FC911897808158
S214002DD0877F80831796ED91FC9118978081886095
S214002DE080831696DC9216971796ED91FC911897AD
S214002DF0C382D8011796ED91FC9118978381837052
S214002E00813009F099CFFA94F8018681843039F040
S214002E10F7FE6ACF04C08EEF03C088EF01C080E0E3
S214002E20E896CDBFDEBFDF91CF911F910F91FF9047
S214002E30EF90DF90CF90BF90AF909F908F907F9055
S214002E406F905F904F903F902F900895CF93DF93B1
S214002E500F920F92CDB7DEB789839A83E981FA8104
S214002E608091CB209091CC2024813581281739077A
S214002E7039F4E981FA810190F081E02D868101C064
S214002E808BE00F900F90DF91CF9108956F927F9215
S214002E908F929F92AF92BF92CF92DF92EF92FF9265
S214002EA00F931F93CF93DF93CDB7DEB7E897CDBFD1
S214002EB0DEBF8E8F9F8F3B014A01E02EEE8DFF8D89
S214002EC04091CB205091CC20848195818417950722
S214002ED009F0A8C0EE8DFF8D00811181D8011796EC
S214002EE08D919C911897009709F49EC016961C9297
S214002EF0F22EFF0CB1E0FB2A23E1A22EB12CA00E8D
S214002F00B11E3AE0D32ECC24C39485C0D8011796C0
S214002F10ED91FC911897838183708130B9F71D96E7
S214002F206D927C921E971F968D929C92509751960A
S214002F301D921C925297CE0180960E9429D1F501CF
S214002F40DE01909689E10D9001928150E1F7D8015B
S214002F501796ED91FC911897F58253C0C8010E9410
S214002F60B111CE0105960E9429D18A8D9B8DAC8D1C
S214002F70BD8DF80140A551A562A573A5841B950BD0
S214002F80A60BB70B89839A83AB83BC8389819A810E
S214002F90AB81BC818034F2E49F07FFE0AF07F0E02E
S214002FA0BF0764F089819A81AB81BC8180549244CA
S214002FB0AF40B04089839A83AB83BC8389819A8172
S214002FC0AB81BC81803221EA920727E0A20720E08D
S214002FD0B207BCF0D8011796ED91FC911897808146
S214002FE0877F80831796ED91FC9118978081886083
S214002FF080831696DC9216971796ED91FC9118979B
S214003000C382D8011796ED91FC911897838183703F
S214003010813009F0A3CFF8018681843039F0E7FECD
S21400302075CF04C08EEF03C088EF01C080E0E8963D
S214003030CDBFDEBFDF91CF911F910F91FF90EF9034
S214003040DF90CF90BF90AF909F908F907F906F90C3
S2140030500895CF93DF93C091912BD091922B209718
S21400306071F0EF8DF8A1309719F089899A89199532
S2140030701D861E861D8A1E8A198A1A8A1B86DF915D
S214003080CF910895CF93DF93C091932BD091942B3B
S214003090209771F0EF8DF8A1309719F089899A89F9
S2140030A019951D861E861D8A1E8A198A1A8A1B86EF
S2140030B0DF91CF910895CF93DF93C091952BD09158
S2140030C0962B209771F0EF8DF8A1309719F089892B
S2140030D09A8919951D861E861D8A1E8A198A1A8A3D
S2140030E01B86DF91CF910895CF93DF93C091972BE6
S2140030F0D091982B209771F0EF8DF8A1309719F0AA
S21400310089899A8919951D861E861D8A1E8A198A9E
S2140031101A8A1B86DF91CF910895CF93DF93C091D3
S214003120992BD0919A2B209771F0EF8DF8A13097BC
S21400313019F089899A8919951D861E861D8A1E8A08
S214003140198A1A8A1B86DF91CF910895CF93DF9351
S214003150C0919B2BD0919C2B209771F0EF8DF8A1FE
S214003160309719F089899A8919951D861E861D8AB9
S2140031701E8A198A1A8A1B86DF91CF910895CF93EB
S214003180DF93C0919D2BD0919E2B209771F0EF8DF1
S214003190F8A1309719F089899A8919951D861E8697
S2140031A01D8A1E8A198A1A8A1B86DF91CF91089576
S2140031B0CF93DF93C0919F2BD091A02B209771F0D7
S2140031C0EF8DF8A1309719F089899A8919951D868F
S2140031D01E861D8A1E8A198A1A8A1B86DF91CF913F
S2140031E00895CF93DF93EC018B8D9C8D0E94062C67
S2140031F08B8D9C8D0E94A2298F8B988FED8DFE8DD6
S214003200309709F019951C861F86188A1F8A188E13
S2140032101B8A1C8AE985FA85838180638383DF9114
S214003220CF91089580919F2B9091A02B009711F03D
S2140032300E94F118089580919D2B90919E2B0097E7
S21400324011F00E94F118089580919B2B90919C2B71
S214003250009711F00E94F11808958091992B909193
S2140032609A2B009711F00E94F11808958091972BE1
S2140032709091982B009711F00E94F1180895809174
S214003280952B9091962B009711F00E94F1180895B7
S2140032908091932B9091942B009711F00E94F11837
S2140032A008958091912B9091922B009711F00E9497
S2140032B0F1180895CF93DF93EC018F8598890097D6
S2140032C051F4ED8DFE8D309711F1A985BA858C915C
S2140032D090E019951CC0E985FA852081EF89F88D64
S2140032E0E80FF91F20838F89988D01968F8B988F12
S2140032F02B893C898217930751F4ED8DFE8D30970C
S21400330009F019951F8A188E1B8A1C8A1C86DF9165
S214003310CF910895CF93DF93EC018D859E8500971E
S21400332029F1A985BA85ED89FE89E80FF91F808104
S2140033308C938D899E8901968D8B9E8B29893A89DF
S2140033408217930799F4E985FA8583818C7F8383B6
S214003350EF8DF8A1309719F08D899E8919951D86F5
S2140033601E861D8A1E8A198A1A8A1B86DF91CF91AD
S21400337008951F920F920FB60F9208B60F9209B6D5
S2140033800F920BB60F9211242F933F934F935F9398
S2140033906F937F938F939F93AF93BF93EF93FF9318
S2140033A08091912B9091922B009711F00E945A19C0
S2140033B0FF91EF91BF91AF919F918F917F916F9108
S2140033C05F914F913F912F910F900BBE0F9009BECA
S2140033D00F9008BE0F900FBE0F901F9018951F926B
S2140033E00F920FB60F9208B60F9209B60F920BB651
S2140033F00F9211242F933F934F935F936F937F9376
S2140034008F939F93AF93BF93EF93FF938091912BEE
S2140034109091922B009711F00E948A19FF91EF91DC
S214003420BF91AF919F918F917F916F915F914F91D7
S2140034303F912F910F900BBE0F9009BE0F9008BEC4
S2140034400F900FBE0F901F9018951F920F920FB6F9
S2140034500F9208B60F9209B60F920BB60F92112470
S2140034602F933F934F935F936F937F938F939F9387
S214003470AF93BF93EF93FF938091932B9091942BF0
S214003480009711F00E945A19FF91EF91BF91AF91EA
S2140034909F918F917F916F915F914F913F912F9167
S2140034A00F900BBE0F9009BE0F9008BE0F900FBE78
S2140034B00F901F9018951F920F920FB60F9208B696
S2140034C00F9209B60F920BB60F9211242F933F93CB
S2140034D04F935F936F937F938F939F93AF93BF9317
S2140034E0EF93FF938091932B9091942B009711F07C
S2140034F00E948A19FF91EF91BF91AF919F918F9192
S2140035007F916F915F914F913F912F910F900BBEDE
S2140035100F9009BE0F9008BE0F900FBE0F901F9021
S21400352018951F920F920FB60F9208B60F9209B613
S2140035300F920BB60F9211242F933F934F935F93E6
S2140035406F937F938F939F93AF93BF93EF93FF9366
S2140035508091952B9091962B009711F00E945A1906
S214003560FF91EF91BF91AF919F918F917F916F9156
S2140035705F914F913F912F910F900BBE0F9009BE18
S2140035800F9008BE0F900FBE0F901F9018951F92B9
S2140035900F920FB60F9208B60F9209B60F920BB69F
S2140035A00F9211242F933F934F935F936F937F93C4
S2140035B08F939F93AF93BF93EF93FF938091952B39
S2140035C09091962B009711F00E948A19FF91EF9127
S2140035D0BF91AF919F918F917F916F915F914F9126
S2140035E03F912F910F900BBE0F9009BE0F9008BE13
S2140035F00F900FBE0F901F9018951F920F920FB648
S2140036000F9208B60F9209B60F920BB60F921124BE
S2140036102F933F934F935F936F937F938F939F93D5
S214003620AF93BF93EF93FF938091972B9091982B36
S214003630009711F00E945A19FF91EF91BF91AF9138
S2140036409F918F917F916F915F914F913F912F91B5
S2140036500F900BBE0F9009BE0F9008BE0F900FBEC6
S2140036600F901F9018951F920F920FB60F9208B6E4
S2140036700F9209B60F920BB60F9211242F933F9319
S2140036804F935F936F937F938F939F93AF93BF9365
S214003690EF93FF938091972B9091982B009711F0C2
S2140036A00E948A19FF91EF91BF91AF919F918F91E0
S2140036B07F916F915F914F913F912F910F900BBE2D
S2140036C00F9009BE0F9008BE0F900FBE0F901F9070
S2140036D018951F920F920FB60F9208B60F9209B662
S2140036E00F920BB60F9211242F933F934F935F9335
S2140036F06F937F938F939F93AF93BF93EF93FF93B5
S2140037008091992B90919A2B009711F00E945A194C
S214003710FF91EF91BF91AF919F918F917F916F91A4
S2140037205F914F913F912F910F900BBE0F9009BE66
S2140037300F9008BE0F900FBE0F901F9018951F9207
S2140037400F920FB60F9208B60F9209B60F920BB6ED
S2140037500F9211242F933F934F935F936F937F9312
S2140037608F939F93AF93BF93EF93FF938091992B83
S21400377090919A2B009711F00E948A19FF91EF9171
S214003780BF91AF919F918F917F916F915F914F9174
S2140037903F912F910F900BBE0F9009BE0F9008BE61
S2140037A00F900FBE0F901F9018951F920F920FB696
S2140037B00F9208B60F9209B60F920BB60F9211240D
S2140037C02F933F934F935F936F937F938F939F9324
S2140037D0AF93BF93EF93FF9380919B2B90919C2B7D
S2140037E0009711F00E945A19FF91EF91BF91AF9187
S2140037F09F918F917F916F915F914F913F912F9104
S2140038000F900BBE0F9009BE0F9008BE0F900FBE14
S2140038100F901F9018951F920F920FB60F9208B632
S2140038200F9209B60F920BB60F9211242F933F9367
S2140038304F935F936F937F938F939F93AF93BF93B3
S214003840EF93FF9380919B2B90919C2B009711F008
S2140038500E948A19FF91EF91BF91AF919F918F912E
S2140038607F916F915F914F913F912F910F900BBE7B
S2140038700F9009BE0F9008BE0F900FBE0F901F90BE
S21400388018951F920F920FB60F9208B60F9209B6B0
S2140038900F920BB60F9211242F933F934F935F9383
S2140038A06F937F938F939F93AF93BF93EF93FF9303
S2140038B080919D2B90919E2B009711F00E945A1993
S2140038C0FF91EF91BF91AF919F918F917F916F91F3
S2140038D05F914F913F912F910F900BBE0F9009BEB5
S2140038E00F9008BE0F900FBE0F901F9018951F9256
S2140038F00F920FB60F9208B60F9209B60F920BB63C
S2140039000F9211242F933F934F935F936F937F9360
S2140039108F939F93AF93BF93EF93FF9380919D2BCD
S21400392090919E2B009711F00E948A19FF91EF91BB
S214003930BF91AF919F918F917F916F915F914F91C2
S2140039403F912F910F900BBE0F9009BE0F9008BEAF
S2140039500F900FBE0F901F9018951F920F920FB6E4
S2140039600F9208B60F9209B60F920BB60F9211245B
S2140039702F933F934F935F936F937F938F939F9372
S214003980AF93BF93EF93FF9380919F2B9091A02BC3
S214003990009711F00E945A19FF91EF91BF91AF91D5
S2140039A09F918F917F916F915F914F913F912F9152
S2140039B00F900BBE0F9009BE0F9008BE0F900FBE63
S2140039C00F901F9018951F920F920FB60F9208B681
S2140039D00F9209B60F920BB60F9211242F933F93B6
S2140039E04F935F936F937F938F939F93AF93BF9302
S2140039F0EF93FF9380919F2B9091A02B009711F04F
S214003A000E948A19FF91EF91BF91AF919F918F917C
S214003A107F916F915F914F913F912F910F900BBEC9
S214003A200F9009BE0F9008BE0F900FBE0F901F900C
S214003A301895CF93DF9300D0CDB7DEB78A839B83EC
S214003A408FB78983F894EA81FB818091D920909181
S214003A50DA20248135812817390721F089818FBF24
S214003A608EEF17C0EA81FB810190F081E02DA185E1
S214003A70B28513968C9113978F7C13968C9313971D
S214003A800184F285E02D83818063838389818FBFE3
S214003A9080E02396CDBFDEBFDF91CF910895CF9310
S214003AA0DF9300D0CDB7DEB78A839B838FB7898339
S214003AB0F894EA81FB818091D9209091DA202481C4
S214003AC035812817390721F089818FBF8EEF0EC008
S214003AD0EA81FB810190F081E02D0184F285E02DE2
S214003AE083818F7C838389818FBF80E02396CDBFBF
S214003AF0DEBFDF91CF910895CF93DF9300D0CDB78F
S214003B00DEB78A839B838FB78983F894EA81FB812B
S214003B108091D9209091DA202481358128173907A1
S214003B2021F089818FBF8EEF1AC0EA81FB81019058
S214003B30F081E02D8385882321F089818FBF81EF76
S214003B400EC081E0838789818FBFA185B2851196DB
S214003B508C91119785FFFBCF6C93138680E023969C
S214003B60CDBFDEBFDF91CF9108958F929F92AF9227
S214003B70BF92CF92DF92EF92FF920F931F93CF9355
S214003B80DF93CDB7DEB76197CDBFDEBF888B998B4D
S214003B90DB018FB78983F894E889F9898091D92069
S214003BA09091DA20248135812817390721F0898100
S214003BB08FBF8EEF5FC0E889F98980809180F4011D
S214003BC08485882321F089818FBF81EF53C081E0EF
S214003BD0F401848721853285F90183818F7C838374
S214003BE089818FBFF4016787708B438B548B178A4C
S214003BF0108E838D948D18161906ACF5808183502F
S214003C00833130F4E82FF0E0E951FF4D608101C0C8
S214003C106BE4F401A184B284AA82BB82AC83BD8328
S214003C201E8281E08F83188689874A875B871C8679
S214003C308D876E871F86838D948DCC80DD80EE24E5
S214003C40FF24F39400E011E02A853B8540E051E034
S214003C5070E00E94C729D4015B968D919C915C9779
S214003C600E94D92B06C00184F285E02D83818063F3
S214003C70838380E06196CDBFDEBFDF91CF911F9139
S214003C800F91FF90EF90DF90CF90BF90AF909F90F6
S214003C908F9008958F929F92AF92BF92CF92DF92AD
S214003CA0EF92FF920F931F93CF93DF93CDB7DEB7BC
S214003CB06197CDBFDEBF888B998BDB018FB7898379
S214003CC0F894E889F9898091D9209091DA202481A6
S214003CD035812817390721F089818FBF8EEFA1C063
S214003CE0E889F98980809180F4018385882321F012
S214003CF089818FBF81EF95C081E0F401838721859C
S214003D003285F90183818C7F838389818FBFF4019B
S214003D1065877687418B528B158A168A0FB607FE03
S214003D201BC08091A0008130B9F0878D90A10097CC
S214003D3091F512C0DA0111962C91119725FFFACF52
S214003D40D4011D96ED91FC911E97E80FF91F208176
S214003D50FA012083019602C080E090E0D4015196DB
S214003D602D913C9152978217930728F419964D91FE
S214003D705C911A97DFCFD4015F96ED91FC919097F6
S214003D80309711F0C9011995F401118A128A158627
S214003D901686138645C0F401818D928D1816190675
S214003DA0CCF580818350833130F4E82FF0E0E65084
S214003DB0FF4D608101C06CE4AA83BB83D4011996D1
S214003DC0CC9019971A96DC901A97CC82DD8281E007
S214003DD08E831F82888719864A875B871C868D8715
S214003DE06E871F8659968D919C915A97AA80BB80A4
S214003DF0EE24E394FF2401E010E02A853B8540E0B2
S214003E0051E070E00E94C729F401818D928D0E94D6
S214003E10D92B06C00184F285E02D838183608383DD
S214003E2080E06196CDBFDEBFDF91CF911F910F91ED
S214003E30FF90EF90DF90CF90BF90AF909F908F90C5
S214003E4008950F931F93CF93DF9300D0CDB7DEB7BF
S214003E508A839B838FB78983F894EA81FB8180915C
S214003E60D9209091DA20248135812817390739F036
S214003E7089818FBF0EEF1FEF2FEF3FEF0BC0EA8158
S214003E80FB810190F081E02D89818FBF0181128135
S214003E9023813481B801C9012396CDBFDEBFDF91EF
S214003EA0CF911F910F9108950F931F93CF93DF9398
S214003EB000D0CDB7DEB78A839B838FB78983F8940B
S214003EC0EA81FB818091D9209091DA202481358186
S214003ED02817390739F089818FBF0EEF1FEF2FEFB4
S214003EE03FEF0DC0EA81FB810190F081E02D8981D2
S214003EF08FBF01851285222717FD2095322FB80126
S214003F00C9012396CDBFDEBFDF91CF911F910F91E0
S214003F1008950F931F93CF93DF93CDB7DEB72B97FC
S214003F20CDBFDEBF282F8FB78983F894263128F0BF
S214003F3089818FBF82EF9FEF49C1E091D920F09130
S214003F40DA2082819381E091D920F091DA200BC0AB
S214003F50EA81FB810190F081E02D3081321759F023
S214003F600197EA81FB81408551854A835B83181659
S214003F70190674F303C0309709F01FC181E290E080
S214003F802B870E9480D98A839B838A819B812B857D
S214003F9097FD0DC08091D9209091DA206A817B81AF
S214003FA041E00E94E4D98A819B812B8502C08FEF75
S214003FB09FEF8C839D838C819D8197FF05C08981AF
S214003FC08FBF8FEF9FEF02C1EC81FD8100811181D1
S214003FD0F80120831182128213821482293009F498
S214003FE068C02A3040F4233081F1263009F447C0F7
S214003FF0222389F0E7C02F3009F490C0203120F446
S2140040002C3009F0DFC06FC0223109F4A2C0253180
S21400401009F0D8C0B8C080EA98E0F8018187928796
S21400402084E08E8388E08F8381E0888719861A86ED
S21400403082E024E038E041E050E060E00E942C0F8F
S2140040400093912B1093922BBDC080EB98E0F80163
S2140040508187928780E48E8380E88F8381E08887DB
S21400406019861A8682E020E430E841E050E060E0FD
S2140040700E942C0F0093932B1093942BA3C080EADE
S21400408099E0F8018187928784E08E8388E08F83A9
S21400409081E0888719861A8683E024E038E041E0CC
S2140040A050E060E00E942C0F0093952B1093962B07
S2140040B089C080EB99E0F8018187928780E48E833F
S2140040C080E88F8381E0888719861A8683E020E45B
S2140040D030E841E050E060E00E942C0F0093972B00
S2140040E01093982B6FC080EA9AE0F8018187928738
S2140040F084E08E8388E08F8381E0888785E08987E7
S2140041001A8684E024E038E041E055E060E00E9452
S2140041102C0F0093992B10939A2B54C080EB9AE0A7
S214004120F8018187928780E48E8380E88F8381E020
S214004130888785E089871A8684E020E430E841E0B5
S21400414055E060E00E942C0F00939B2B10939C2B55
S21400415039C080EA9BE0F8018187928784E08E83ED
S21400416088E08F8381E0888785E089871A8624E047
S21400417038E041E055E060E00E942C0F00939D2B54
S21400418010939E2B1FC080EB9BE0F80181879287DF
S21400419080E48E8380E88F8381E0888785E0898746
S2140041A01A8620E430E841E055E060E00E942C0FDB
S2140041B000939F2B1093A02B05C089818FBF89EF9A
S2140041C09FEF04C089818FBF8C819D812B96CDBFC8
S2140041D0DEBFDF91CF911F910F910895CF93DF93AC
S2140041E000D0CDB7DEB78A839B838FB78983F894D8
S2140041F0EA81FB818091D9209091DA202481358153
S2140042002817390721F089818FBF8EEFC7C0EA8152
S214004210FB810190F081E02DA185B28513968C91EB
S21400422013978F7C13968C93A185B28513968C91E9
S21400423013978C7F13968C93A185B28513968C91D9
S2140042401397837F13968C93A185B28513968C91D2
S21400425013978F7C13968C93A185B28513968C91B9
S21400426013978C7F13968C93A185B28513968C91A9
S2140042701397837F13968C93A185B28514968C91A1
S21400428014978F7E14968C93A185B28514968C9184
S2140042901497877F14968C93A185B28515968C917A
S2140042A015978F7315968C93A185B28515968C916C
S2140042B015978F7C15968C93A185B28515968C9153
S2140042C01597887F15968C93A185B28515968C9147
S2140042D01597877F15968C93A185B28516968C9137
S2140042E0169716961C92A185B28517968C911797ED
S2140042F0807F17968C93A185B28517968C91179719
S2140043008F7017968C9317978081893021F18A30A9
S21400431038F48330B1F08630C9F0882369F033C0B2
S2140043208F3019F1803118F48C3069F519C082315C
S21400433009F1853141F523C01092912B1092922BF2
S21400434022C01092932B1092942B1DC01092952B86
S2140043501092962B18C01092972B1092982B13C081
S2140043601092992B10929A2B0EC010929B2B1092A3
S2140043709C2B09C010929D2B10929E2B04C010926D
S2140043809F2B1092A02B8091D9209091DA206A81E1
S2140043907B810E9451DA89818FBF80E02396CDBF52
S2140043A0DEBFDF91CF9108954F925F926F927F921A
S2140043B08F929F92AF92BF92CF92DF92EF92FF9230
S2140043C00F931F93CF93DF93CDB7DEB76997CDBF1B
S2140043D0DEBF8A839B83AC82BD82EC2DCE82DF82D9
S2140043E0E886F9860A871B872C873D874E875F8776
S2140043F0688B798B0B2D1C2D288539854A855B8526
S2140044002E8B3F8B488F598F9FB79983F894AA209D
S21400441021F089818FBF88EFBCC2E33020F089810C
S2140044208FBF86EFB6C2043020F089818FBF87EF3A
S214004430B0C231E03D1520F489818FBF85EFA9C257
S2140044406E897F89888D998D0E94FEF26A8B7B8BA0
S2140044508C8B9D8B0E94DD240E94FEF220E030E0D3
S21400446040E054E30E9402F49B01AC016A897B8918
S2140044708C899D890E9427F287FD14C00E94DD2446
S2140044800E94FEF220E030E040E85DE30E9402F485
S2140044909B01AC016A897B898C899D890E94FEF309
S2140044A0181624F489818FBF84EF73C2EA81FB81DA
S2140044B08091D9209091DA202481358128173907F8
S2140044C021F089818FBF8EEF64C2EA81FB818080F4
S2140044D09180D4011996ED91FC911A9783818F7C77
S2140044E083831996ED91FC911A9783818C7F838341
S2140044F01996ED91FC911A978381837F8383199691
S214004500ED91FC911A9784818F7E84831996ED91A4
S214004510FC911A978481877F84831996ED91FC918C
S2140045201A9785818F7385831996ED91FC911A975A
S214004530858185831996ED91FC911A9785818F7CEC
S21400454085831996ED91FC911A978581113019F0A3
S214004550123021F402C0806201C080638583D401DA
S2140045601996ED91FC911A978581887F8583199617
S214004570ED91FC911A978581802B85831996ED9194
S214004580FC911A978581877F85831996ED91FC911A
S2140045901A978581DD0CDD0CDD0CD82AD58219969C
S2140045A0ED91FC911A97868116821996ED91FC91F1
S2140045B01A978781807F87831996ED91FC911A97C9
S2140045C087818F7087830E94DD240E94FEF26B0134
S2140045D07C016A897B898C899D8920E030E040E8EF
S2140045E051E40E9402F49B01AC01C701B6010E948F
S2140045F02BF2D62EC72EB82EA92EA6019501852FF2
S214004600942FA32FB22FBC01CD0120E030E040E86C
S2140046105FE30E94C2F1762E672E582E492E062F93
S214004620172F7201A3019201852F942FA32FB22F6B
S214004630BC01CD0120E030EF4FE755E40E94FEF3C9
S21400464087FF18C037C0A6019501852F9C2DA32F84
S214004650BA2DBC01CD0120E030E040E05FE30E94CF
S21400466002F4D62EC72EB82EA92E7394B7E07B166A
S21400467011F411C07724A6019501852F9C2DA32F38
S214004680BA2DBC01CD0120E030EF4FE755E40E9483
S214004690FEF31816C4F2A6019501852F9C2DA32FB4
S2140046A0BA2DBC01CD0120E030E040E85FE30E9477
S2140046B0C2F15FC0A3019201852F942FA32FB22FC2
S2140046C0BC01CD0120E030EF4FE755E40E9427F211
S2140046D0772487FD18C0AA24BB2471C09701802FB9
S2140046E0912FA32FBE2DBC01CD01A701252F3B2F57
S2140046F0A90198010E94C3F18B01F82EE92E7A9445
S214004700E9EF7E1679F09701802F912FA32FBE2D0B
S214004710BC01CD0120E030EF4FE755E40E9427F2C0
S21400472087FDDCCF9701802F912FA32FBE2DBC01D4
S214004730CD0120E030EF4FE755E40E94FEF3181657
S2140047408CF49701802F912FA32FBE2DBC01CD0195
S21400475020E030E040E05FE30E9402F48B01F82E98
S214004760E92E73949701802F912FA32FBE2DBC01A5
S214004770CD010E94D2F2DC01CB015C011714FCF4DF
S2140047800E94DD246B017C01C501A0E0B0E001962B
S214004790A11DB11D20E130E040E050E0072C04C030
S2140047A0220F331F441F551F0A94D2F7BC01CD01B8
S2140047B00E9421FA9B01AC01C701B60124C00E94E9
S2140047C0DD24AB01BC01850120E030E0E4E0000F11
S2140047D0111F221F331FEA95D1F7872D992787FDD2
S2140047E09095909581959F4F04C03695279517957F
S2140047F007958A95D2F7005F1F4F2F4F3F4FCB018B
S214004800BA01A90198010E9440FAB901CA010E94A2
S214004810FEF22A893B894C895D890E94C2F12A8969
S2140048203B894C895D890E942BF220E030E048EC01
S21400483052E40E9402F4DC01CB01F40185839683E6
S214004840A783B0878081863178F490E0880F991F1F
S214004850FC01E35FFE4D00811181875C9E4DDC010B
S214004860ED90FC90119704C0EE24FF2400E010E0C9
S2140048708D858823A1F00E944F27F401838F948FA3
S214004880838D948D97FF05C089818FBF838D948D0E
S21400489016C0838D948D60E0A8010E9463268C85E7
S2140048A08823D1F00E944F27F401818F928F818D4B
S2140048B0928D97FF0BC089818FBF818D928DFFEF00
S2140048C0893F9F0709F064C08AEF63C0818D928D8F
S2140048D060E0A7010E9463262E893F89488D598D86
S2140048E0D40111962D933D934D935C93149719968E
S2140048F0ED91FC911A97A6821996ED91FC911A9764
S214004900729480EF78227B2877821996ED91FC913D
S2140049101A978481806184831996ED91FC911A9789
S2140049208481886084831B961C921B971C961C921D
S2140049301C971F961D921C9250971D961D921C92B6
S2140049401E9757961D921C92589753961D921C922E
S214004950549755961D921C92569751961D921C92EE
S21400496052978E859F855D968D939C935E978889DA
S21400497099895F968D939C9390971996ED91FC91EB
S2140049801A9783818063838389818FBF80E001C00B
S2140049908FEF6996CDBFDEBFDF91CF911F910F914C
S2140049A0FF90EF90DF90CF90BF90AF909F908F904A
S2140049B07F906F905F904F9008956091322C709129
S2140049C0332C8091342C9091352C0895DC01CB014A
S2140049D022E02093500028ED24BFE0E4F0E01182AE
S2140049E02091410021832091510021FFFCCF28ED2A
S2140049F024BF21E020934000209150002E7F20937A
S214004A0050008093322C9093332CA093342CB09388
S214004A10352C80E00895CF93DF930F920F92CDB799
S214004A20DEB7E0916521F091662122813381E09125
S214004A306521F09166210CC0E981FA810190F08130
S214004A40E02D9081981769F021503040E981FA8175
S214004A504085518549835A83121613066CF3E0E0AD
S214004A60F0E0CF010F900F90DF91CF9108951F9245
S214004A700F920FB60F9208B60F9209B60F920BB6AA
S214004A800F9211242F933F934F935F936F937F93CF
S214004A908F939F93AF93BF93EF93FF93E0E0F1E084
S214004AA08091110185FF06C0809111018062818B83
S214004AB081E005C0809111018061818B80E00E94B9
S214004AC00B25009741F0DC011196ED91FC911297B1
S214004AD0309709F01995FF91EF91BF91AF919F9193
S214004AE08F917F916F915F914F913F912F910F9092
S214004AF00BBE0F9009BE0F9008BE0F900FBE0F9012
S214004B001F9018951F920F920FB60F9208B60F922D
S214004B1009B60F920BB60F9211242F933F934F9323
S214004B205F936F937F938F939F93AF93BF93EF9310
S214004B30FF93E0E0F1E08091210185FF06C08091BF
S214004B402101806281A383E005C0809121018061FC
S214004B5081A382E00E940B25009741F0DC011196AC
S214004B60ED91FC911297309709F01995FF91EF910E
S214004B70BF91AF919F918F917F916F915F914F9170
S214004B803F912F910F900BBE0F9009BE0F9008BE5D
S214004B900F900FBE0F901F9018951F920F920FB692
S214004BA00F9208B60F9209B60F920BB60F92112409
S214004BB02F933F934F935F936F937F938F939F9320
S214004BC0AF93BF93EF93FF93E0E0F1E08091310164
S214004BD085FF06C080913101806281AB85E005C00B
S214004BE080913101806181AB84E00E940B250097A3
S214004BF041F0DC011196ED91FC911297309709F087
S214004C001995FF91EF91BF91AF919F918F917F91F1
S214004C106F915F914F913F912F910F900BBE0F9028
S214004C2009BE0F9008BE0F900FBE0F901F901895EC
S214004C301F920F920FB60F9208B60F9209B60F92F8
S214004C400BB60F9211242F933F934F935F936F935E
S214004C507F938F939F93AF93BF93EF93FF93809130
S214004C60410185FF07C08091410180628093410128
S214004C7087E006C08091410180618093410186E013
S214004C800E940B25009741F0DC011196ED91FC91F6
S214004C901297309709F01995FF91EF91BF91AF9158
S214004CA09F918F917F916F915F914F913F912F913F
S214004CB00F900BBE0F9009BE0F9008BE0F900FBE50
S214004CC00F901F901895CF92DF92EF92FF920F935E
S214004CD01F93CF93DF93CDB7DEB72797CDBFDEBF49
S214004CE08E839F83062F6A018FB78983F894EE819F
S214004CF0FF8180917321909174212481358128173A
S214004D00390721F089818FBF8EEF51C0EE81FF8178
S214004D10E080F180D7011C91160F183020F08981B1
S214004D208FBF8BEF44C0812F0E940B250097E1F5C3
S214004D3083E090E00E9480D98A839B838A819B814E
S214004D4097FD0CC080916521909166216A817B81D8
S214004D5041E00E94E4D98A819B8102C08FEF9FEFD9
S214004D608C839D838C819D8197FF04C089818FBF32
S214004D708FEF1DC0EC81FD810190F081E02D108346
S214004D80C182D282F70182818F5F82830380F481A1
S214004D90E02D8181002311F4836001C08C60818343
S214004DA089818FBF80E003C089818FBF8AEF2796F5
S214004DB0CDBFDEBFDF91CF911F910F91FF90EF9097
S214004DC0DF90CF900895CF93DF9300D0CDB7DEB7B6
S214004DD08A839B838FB78983F894EA81FB818091CD
S214004DE0732190917421248135812817390721F089
S214004DF089818FBF8EEF4DC0EA81FB81A081B18192
S214004E002C91260FE0916521F09166214281538115
S214004E10E0916521F091662130C0E091A12BF091E0
S214004E20A22B0190F081E02D8081821701F5129669
S214004E308C911297815012968C9312971396ED913F
S214004E40FC9114978181662311F48C7F01C0837FC7
S214004E50818380916521909166216091A12B70914C
S214004E60A22B0E9451DA89818FBF80E012C0415088
S214004E705040E091A12BF091A22B808591858093E4
S214004E80A12B9093A22B141615063CF289818FBF96
S214004E908BEF2396CDBFDEBFDF91CF9108951F9392
S214004EA0CF93DF93CDB7DEB72597CDBFDEBF8FB7E5
S214004EB08983F894809181218823D9F08FB78A83DB
S214004EC0F894809100018F77809300018091000113
S214004ED0837F8093000180910001836080930001AE
S214004EE0809100018068809300018A818FBF1092B4
S214004EF0812144E050E010E0E0917321F0917421AC
S214004F0082819381E0917321F09174210BC0EA8134
S214004F10FB810190F081E02D2081211759F0019747
S214004F20EA81FB81208531852A833B831816190682
S214004F3074F307C0309729F01E5F41505040E1F6E9
S214004F404FC085E090E00E9480D98A839B838A8147
S214004F509B8197FD2DC0EA81FB810190F081E02DB9
S214004F60118210831282123069F0133018F4112364
S214004F7031F012C0143049F0163071F409C080E1E7
S214004F8091E008C080E291E005C080E391E002C0B5
S214004F9080E491E0838394838091732190917421BF
S214004FA06A817B8141E00E94E4D98A819B8102C0AC
S214004FB08FEF9FEF8C839D838C819D8197FF05C02B
S214004FC089818FBF8FEF9FEF04C089818FBF8C814F
S214004FD09D812596CDBFDEBFDF91CF911F910895AD
S214004FE089818FBF89EF9FEFF4CFAF92BF92CF92A8
S214004FF0DF92EF92FF920F931F93CF93DF9300D031
S214005000CDB7DEB78A839B838FB78983F894EA810E
S214005010FB8180917321909174212481358128171A
S214005020390721F089818FBF8EEF8AC0EA81FB8124
S2140050300081118182E0A82EB12CFF24D801EC90CB
S214005040EF0CE0916521F0916621C280D380E0915B
S2140050506521F09166213AC0E091A52BF091A62B30
S214005060A081B181E091A52BF091A62B8285938536
S2140050708093A32B9093A42B8C918E1501F5F801A9
S2140050808281815082830380F481E02D8181FF201C
S21400509011F48C7F01C0837F81838091652190917C
S2140050A066216091A52B7091A62B0E9451DA809103
S2140050B0A32B9091A42B8093A52B9093A62B0894BA
S2140050C0C108D108E091A52BF091A62B808591858B
S2140050D08093A52B9093A62B1C141D040CF4BCCF18
S2140050E0F3940894A108B108A114B10409F0A6CF5E
S2140050F0D8011396ED91FC91149780818F77808369
S2140051001396ED91FC91149780818F778083139688
S214005110ED91FC9114978081806480831396ED91C5
S214005120FC91149780818F7B80838091732190916E
S21400513074216A817B810E9451DA89818FBF80E069
S2140051402396CDBFDEBFDF91CF911F910F91FF90C9
S214005150EF90DF90CF90BF90AF900895CF93DF93FE
S21400516000D0CDB7DEB78A839B838FB78983F89448
S2140051706115710521F489818FBF84EF21C0EA8112
S214005180FB818091732190917421248135812817A9
S214005190390721F089818FBF8EEF12C0EA81FB812B
S2140051A00190F081E02DA381B4818C918F778C9350
S2140051B00380F481E02D6483758389818FBF80E04E
S2140051C02396CDBFDEBFDF91CF910895CF92DF92B9
S2140051D0EF92FF92CF93DF9300D0CDB7DEB78A83EE
S2140051E09B836A017B018FB78983F894EA81FB81F0
S2140051F08091732190917421248135812817390775
S21400520021F089818FBF8EEF21C0EA81FB8101905A
S214005210F081E02DA381B4818C918F778C93A3814C
S214005220B48118964C93A381B481452F562F672FCF
S214005230772719964C9319970380F481E02D670120
S214005240EE24FF24C28689818FBF80E02396CDBFDF
S214005250DEBFDF91CF91FF90EF90DF90CF90089563
S214005260CF92DF92EF92FF92CF93DF9300D0CDB72D
S214005270DEB78A839B836A017B018FB78983F894A4
S214005280EA81FB818091732190917421248135817C
S2140052902817390721F089818FBF8EEF21C0EA8158
S2140052A0FB810190F081E02DA381B4818C918F77F2
S2140052B08C93A381B4811C964C93A381B481452F13
S2140052C0562F672F77271D964C931D970380F481E2
S2140052D0E02D6701EE24FF24C68689818FBF80E01B
S2140052E02396CDBFDEBFDF91CF91FF90EF90DF908A
S2140052F0CF900895CF93DF930F920F92CDB7DEB77E
S21400530089839A83E981FA8180917321909174212F
S214005310248135812817390771F4E981FA810190D3
S214005320F081E02D0380F481E02D8181881F88279D
S214005330881F90E002C08EEF9FEF0F900F90DF91D6
S214005340CF910895CF93DF930F920F92CDB7DEB72C
S21400535089839A83E981FA818091732190917421DF
S214005360248135812817390759F4E981FA8101909B
S214005370F081E02D0380F481E02D8481958102C0C8
S2140053808EEF9FEF0F900F90DF91CF910895AF9221
S214005390BF92CF92DF92EF92FF920F931F93CF931D
S2140053A0DF93CDB7DEB76197CDBFDEBF8A839B8321
S2140053B0AC82BD82CE82DF828E2DE8869F2DF98656
S2140053C0E02F0A87F12F1B872C873D87242F4E87D7
S2140053D0F52E5F87E62E688B372F798B8F01CC846E
S2140053E0DD84B9012FB72983F894833010F4933005
S2140053F020F089818FBF86EFECC0043010F41430A3
S21400540020F089818FBF85EFE4C0C114D10421F458
S21400541089818FBF84EFDDC0643020F089818FBF23
S21400542083EFD7C021E0251720F489818FBF82EF54
S214005430D0C02FEA2E1520F489818FBF81EFC9C016
S214005440EA81FB812091732130917421448155813A
S2140054504217530721F089818FBF8EEFBAC0EA81C9
S214005460FB810190F081E02DA381B4812C912F77F0
S2140054702C93A381B4812C8118962C93A381B4819C
S2140054802D8119962C93A381B4811A961C92A38120
S214005490B4812E811C962C93A381B4812F811D96F6
S2140054A02C93A381B4811E961C92A381B48112967C
S2140054B02C9112972F7C12962C93A381B48112966E
S2140054C02C9112978295807F822B12968C93A381C3
S2140054D0B48112968C9112978C7F12968C93A3812E
S2140054E0B48112968C911297892B12968C93A38175
S2140054F0B48112968C9112978F7312968C93A38117
S214005500B48112968C9112970295000F000F007CC2
S214005510082B12960C93A381B48112968C91129745
S214005520837F12968C93A381B48112968C911297E6
S214005530110F110F182B12961C93A381B481149689
S214005540CD92DC921597A381B4818C918C7F8C933D
S214005550A381B4818C91862B8C93A381B4818C918A
S2140055608F7D8C93A381B48116961C92A381B481FF
S21400557017164CF48C9180628C93A381B481169696
S2140055807C93169705C0772319F08C9180628C93D4
S214005590A381B4818C918B7F8C93A381B4818C91F1
S2140055A0FF0CFF0CF82AFC92A381B48113968C9111
S2140055B0139713961C92A381B48113968C9113971C
S2140055C08E2913968C93139781E0818389818FBFF0
S2140055D080E06196CDBFDEBFDF91CF911F910F9126
S2140055E0FF90EF90DF90CF90BF90AF90089580919E
S2140055F000018064809300018091000186FDFCCF4D
S2140056000895CF93DF9300D0CDB7DEB78A839B8310
S2140056108FB78983F894EA81FB81809173219091FA
S2140056207421248135812817390721F089818FBF9D
S2140056308EEF1AC0EA81FB810190F081E02D818116
S214005640882379F0A381B4818C9180688C93038041
S214005650F481E02D80818061808389818FBF80E026
S21400566003C089818FBF8DEF2396CDBFDEBFDF914C
S214005670CF910895CF93DF930F920F92CDB7DEB7F9
S21400568089839A83E981FA818091732190917421AC
S2140056902481358128173907E1F4E981FA810190E0
S2140056A0F081E02D0380F481E02D818190E0662377
S2140056B041F48071907064E0959587956A95E1F75E
S2140056C00AC08072907055E0959587955A95E1F7D7
S2140056D002C08EEF9FEF0F900F90DF91CF9108954D
S2140056E0CF93DF930F920F92CDB7DEB789839A835D
S2140056F0E981FA818091732190917421248135810A
S2140057002817390739F4E981FA810190F081E02DF4
S214005710808101C08EEF0F900F90DF91CF9108959A
S214005720CF93DF930F920F92CDB7DEB789839A831C
S214005730E981FA81809173219091742124813581C9
S2140057402817390781F5E981FA810190F081E02D6B
S2140057508081882341F480910301662311F48160DF
S2140057600BC0806109C0823061F48091030166231A
S21400577011F4826001C08062E0E0F1E0838380E0A3
S21400578013C0843041F480910301662311F48460D1
S214005790F3CF8064F1CF80910301662311F4886013
S2140057A0EBCF8068E9CF8EEF0F900F90DF91CF910F
S2140057B00895CF93DF9300D0CDB7DEB78A839B835F
S2140057C08FB78983F894EA81FB8180917321909149
S2140057D07421248135812817390721F089818FBFEC
S2140057E08EEF0EC0EA81FB810190F081E02D0380F0
S2140057F0F481E02D80818068808389818FBF80E07E
S2140058002396CDBFDEBFDF91CF910895CF93DF9370
S21400581000D0CDB7DEB78A839B838FB78983F89491
S214005820EA81FB81809173219091742124813581D6
S2140058302817390721F089818FBF8EEF0EC0EA81C5
S214005840FB810190F081E02D0380F481E02D8081C2
S2140058508F77808389818FBF80E02396CDBFDEBFA0
S214005860DF91CF910895E0EAF0E09281982B928341
S2140058700895CF93DF930F920F92CDB7DEB7E091E6
S2140058807923F0917A2322813381E0917923F09174
S2140058907A230CC0E981FA810190F081E02D908195
S2140058A0981769F021503040E981FA81408551858A
S2140058B049835A83121613066CF3E0E0F0E0CF013A
S2140058C00F900F90DF91CF9108951F920F920FB611
