S01000006D6174684576616C2E73726563E2
S2140000000C942B070C9462070C9435260C947326DC
S2140000100C94152A0C94532A0C941A4A0C94654A8C
S2140000200C94B04A0C94FB4A0C9462070C9462073A
S2140000300C9462070C9462070C9442520C9448513C
S2140000400C9456510C9491510C94CC510C9407522C
S2140000500C94F3520C9462070C947D520C94B85294
S2140000600C94152F0C949C3E0C94D23E0C94620774
S2140000700C94083F0C943E3F0C9462070C94620765
S2140000800C9462070C9462070C94B9250C94F7251F
S2140000900C9462070C9462070C9462070C94620737
S2140000A00C9462070C9462070C9462070C942D273C
S2140000B00C946B270C9462070C9462070C94F25510
S2140000C00C9462070C9406550C9441550C947C5580
S2140000D00C94B7550C94A3560C9462070C942D56AA
S2140000E00C9468560C94852F0C944C400C948240CB
S2140000F00C9462070C94B8400C94EE400C94620783
S2140001000C94B1260C94EF260C943D250C947B257C
S2140001100C9462070C9462070C9462070C946207B6
S2140001200C9462070C9462070C9462070C946207A6
S2140001300C9462070C941A540C9462070C942E5379
S2140001400C9469530C94A4530C94DF530C94CB5426
S2140001500C9462070C9455540C9490540C944D2FA8
S2140001600C94743F0C94AA3F0C9462070C94E03FE6
S2140001700C9416400C9462070C9499290C94D72979
S2140001800C9425280C9463280C94A1280C94DF2842
S2140001900C941D290C945B290C9462070C9462073E
S2140001A00C94A9270C94E7270C9462070C9462071A
S2140001B00C94CA570C9462070C94DE560C9419578C
S2140001C00C9454570C948F570C947B580C946207DD
S2140001D00C9405580C9440580C94BD2F0C94244154
S2140001E00C945A410C9462070C9490410C94C641AE
S2140001F00C946207BA2BBF2BC42BCC2BD12BD62B3F
S214000200DB2BE02BE52BEA2BEF2BF42BF92BFE2B2D
S214000210032C082C0D2C122C172C1C2C212C262CD5
S214000220084AD73B3BCE016E84BCBFFDC12F3D6C58
S21400023074319ABD56833DDA3D00C77F11BED9E4BE
S214000240BB4C3E916BAAAABE000000803F05A84C9E
S214000250CDB2D44EB93836A9020C50B9918688086A
S2140002603CA6AAAA2ABE000000803F1B63002E2DD3
S2140002702D2D2D2D2D2D2D2D2D2D2D2D2D2D2D2DA9
S2140002802D2D2D2D2D2D2D2D2D2D2D2D2D2D2D2D99
S2140002902D2D2D2D2D2D2D2D2D2D2D2D2D2D2D2D89
S2140002A02D2D2D2D2D2D2D2D2D2D2D2D2D2D2D2D79
S2140002B02D2D2D2D2D2D2D2E0A0D007C20436F6DFE
S2140002C06D616E64207C2020202020417267756D51
S2140002D0656E747320202020207C20202020202083
S2140002E020202020202020204465736372697074CB
S2140002F0696F6E2020202020202020202020202013
S214000300202020207C0A0D007C2D2D2D2D2D2D2D1E
S2140003102D2D7C2D2D2D2D2D2D2D2D2D2D2D2D2DB9
S2140003202D2D2D2D2D2D7C2D2D2D2D2D2D2D2D2DA9
S2140003302D2D2D2D2D2D2D2D2D2D2D2D2D2D2D2DE8
S2140003402D2D2D2D2D2D2D2D2D2D2D2D2D2D2D2DD8
S2140003502D7C0A0D00496E76616C696420434D441D
S2140003600A0D0068656164002F006364006D6B64AD
S214000370697200726D646972002D7200726D006C95
S2140003807300746F70006465760073646C00686553
S2140003906C700073637400496E76616C6964206EDD
S2140003A0756D626572206F6620746F6B656E730A7A
S2140003B00D00496E76616C696420746F6B656E2003
S2140003C073697A650A0D00272D2D2D2D2D2D2D2DC7
S2140003D02D272D2D2D2D2D2D2D2D2D2D2D2D2D2D4E
S2140003E02D2D2D2D2D272D2D2D2D2D2D2D2D2D2D3E
S2140003F02D2D2D2D2D2D2D2D2D2D2D2D2D2D2D2D28
S2140004002D2D2D2D2D2D2D2D2D2D2D2D2D2D2D2D17
S214000410270A0D007C2068656164202020207C204F
S2140004203C617267313E20202020202020202020A2
S21400043020207C205072696E747320612066696C7F
S21400044065203C617267313E20746F2074686520B9
S2140004507465726D696E616C2E202020207C0A0DFA
S214000460007C20746F7563682020207C203C6172BD
S21400047067313E2020202020202020202020207CA5
S214000480204372656174652066696C65203C617204
S21400049067313E2E202020202020202020202020D3
S2140004A0202020202020202020207C0A0D007C20D8
S2140004B06D6B6469722020207C203C617267313E3F
S2140004C02020202020202020202020207C20437256
S2140004D0656174652061206469726563746F727902
S2140004E0203C617267313E2E2020202020202020D4
S2140004F0202020202020207C0A0D007C20726D64A5
S21400050069722020207C203C617267313E202020CA
S2140005102020202020202020207C2052656D6F7611
S214000520652061206469726563746F72792E20207D
S21400053020202020202020202020202020202020B6
S214000540202020207C0A0D007C20726D2020202098
S21400055020207C203C617267313E20202020202015
S2140005602020202020207C2052656D6F766520613B
S2140005702066696C65203C617267313E2E20202023
S2140005802020202020202020202020202020202066
S214000590207C0A0D007C2063642020202020207C04
S2140005A0203C617267313E20202020202020202021
S2140005B02020207C204368616E676520746F20646D
S2140005C06972203C617267313E2E20202020202058
S2140005D020202020202020202020202020207C0AD0
S2140005E00D007C206C732020202020207C203C6185
S2140005F07267313E2020202020202020202020202E
S2140006007C20446973706C6179732074686520631C
S2140006106F6E74656E7473206F6620646972203C1A
S214000620617267313E2E20202020207C0A0D007C3F
S21400063020746F7020202020207C20202020202066
S214000640202020202020202020202020207C204425
S2140006506973706C6179732073797374656D207338
S2140006607461746973746963732E202020202020BF
S21400067020202020202020207C0A0D007C2064657D
S2140006807620202020207C202020202020202020B3
S214000690202020202020202020207C2052657475D9
S2140006A0726E732061206C697374206F66206163BC
S2140006B07469766520647269766572732E202020D0
S2140006C020202020207C0A0D007C202020202020B6
S2140006D02020207C202020202020202020202020B9
S2140006E0202020202020207C20302C312C32202856
S2140006F06C6F772C206D65642C20686967682920EC
S21400070020202020202020202020202020202020E4
S21400071020207C0A0D007C2073646C202020202082
S2140007207C203C617267313E202020202020202043
S214000730202020207C205365742074686520646522
S214000740627567206C6576656C2C207768657265C7
S214000750203C617267313E203D2020202020207CF6
S2140007600A0D007C2D2D2D2D2D2D2D2D2D7C2D2D86
S2140007702D2D2D2D2D2D2D2D2D2D2D2D2D2D2D2DA4
S2140007802D7C2D2D2D2D2D2D2D2D2D2D2D2D2D2D45
S2140007902D2D2D2D2D2D2D2D2D2D2D2D2D2D2D2D84
S2140007A02D2D2D2D2D2D2D2D2D2D2D2D7C0A0D0095
S2140007B07C20436F6D6D616E64207C20202020209D
S2140007C0417267756D656E747320202020207C2032
S2140007D02020202020202020202020202044657358
S2140007E06372697074696F6E20202020202020209C
S2140007F02020202020202020207C0A0D002E2D2DB9
S2140008002D2D2D2D2D2D2D2D2D2D2D2D2D2D2D2D13
S2140008102D2D2D2D2D2D2D2D2D2D2D2D2D2D2D2D03
S2140008202D2D2D2D2D2D2D2D2D2D2D2D2D2D2D2DF3
S2140008302D2D2D2D2D2D2D2D2D2D2D2D2D2D2D2DE3
S2140008402D2D2D2D2D2D2E0A0D00546865202745A3
S2140008506E7465722720627574746F6E2077696C8B
S2140008606C20656E61626C652F64697361626C658D
S214000870206120646562756767696E6720736573BB
S21400088073696F6E2E2050726573732027456E74E1
S21400089065722720746F20626567696E2E2E2E0A99
S2140008A00D00496E76616C6964204C6576656C0A4D
S2140008B00D00272D2D2D2D2D2D2D2D2D2D2D2D2DB6
S2140008C02D2D2D2D272D2D2D2D2D2D2D2D2D2D2D59
S2140008D02D2D2D272D2D2D2D2D2D2D2D2D2D2D2D49
S2140008E02D272D2D2D2D2D2D2D2D2D2D2D2D2D2D39
S2140008F0270A0D007C20253136737C2025326420A3
S214000900202020202020202020207C20253264202B
S2140009102020202020202020207C2025326420201B
S2140009202020202020202020207C0A0D007C2D2D39
S2140009302D2D2D2D2D2D2D2D2D2D2D2D2D2D2D7C93
S2140009402D2D2D2D2D2D2D2D2D2D2D2D2D2D7C2D83
S2140009502D2D2D2D2D2D2D2D2D2D2D2D7C2D2D2D73
S2140009602D2D2D2D2D2D2D2D2D2D2D7C0A0D007C84
S214000970202020447269766572204E616D652020C5
S214000980207C204D616A6F72204E756D6265722004
S2140009907C204D696E6F72204E756D6265727C208C
S2140009A023206F662048616E646C6573207C0A0D98
S2140009B0002E2D2D2D2D2D2D2D2D2D2D2D2D2D2D8E
S2140009C02D2D2D2D2D2D2D2D2D2D2D2D2D2D2D2D52
S2140009D02D2D2D2D2D2D2D2D2D2D2D2D2D2D2D2D42
S2140009E02D2D2D2D2D2D2D2D2D2D2D2D2D2D2D2E31
S2140009F00A0D00272D2D2D2D2D2D2D2D2D2D2D2D98
S214000A002D2D2D2D2D2D2D2D2D2D2D2D2D272D2D17
S214000A102D2D2D2D2D2D2D2D2D2D2D2D2D270A0D4A
S214000A20007C537973204C6F616420616674657234
S214000A302035206D696E75746573207C20253132F3
S214000A402E31662525207C0A0D00272D2D2D2D2DD7
S214000A502D2D2D2D2D2D2D2D2D2D2D2D2D2D2D2DC1
S214000A602D2D2D2D272D2D2D2D2D2D2D2D2D2D2DB7
S214000A702D2D2D2D270A0D007C537973204C6F6188
S214000A80642061667465722031206D696E757465C8
S214000A9020207C202531322E31662525207C0A0D2B
S214000AA000272D2D2D2D2D2D2D2D2D272D2D2D2DAA
S214000AB02D2D2D2D2D2D2D2D2D2D2D272D2D2D2D67
S214000AC02D2D2D2D2D2D2D2D2D2D2D270A0D007C78
S214000AD02020202020202020207C202020202020B5
S214000AE02020202020202020207C20253132642534
S214000AF025207C0A0D007C467265652052414D20FB
S214000B007C20202020202020202020202020202084
S214000B107C2025313364207C0A0D00272D2D2D2DB9
S214000B202D2D2D2D2D272D2D2D2D2D2D2D2D2D2DF6
S214000B302D2D2D2D2D272D2D2D2D2D2D2D2D2D2DE6
S214000B402D2D2D2D2D270A0D007C20202020202045
S214000B502020207C20202020202020202020202034
S214000B602020207C20253132642525207C0A0D009B
S214000B707C557365642052414D207C202020202027
S214000B80202020202020202020207C202531336497
S214000B90207C0A0D00272D2D2D2D2D2D2D2D2D27BA
S214000BA02D2D2D2D2D2D2D2D2D2D2D2D2D2D2D2776
S214000BB02D2D2D2D2D2D2D2D2D2D2D2D2D2D2D2766
S214000BC00A0D007C2020202E68656170207C202085
S214000BD020202020202030782578207C20253133C6
S214000BE064207C0A0D007C202020202E6273732057
S214000BF07C202020202020202030782578207C2073
S214000C0025313364207C0A0D007C2020202E646170
S214000C107461207C20202020202020203078257819
S214000C20207C2025313364207C0A0D007C2D2D2D60
S214000C302D2D2D2D2D2D7C2D2D2D2D2D2D2D2D2D90
S214000C402D2D2D2D2D2D7C2D2D2D2D2D2D2D2D2D80
S214000C502D2D2D2D2D2D7C0A0D007C2053656374C3
S214000C60696F6E207C202020204164647265737357
S214000C70202020207C20202053697A652042797429
S214000C80657320207C0A0D002E2D2D2D2D2D2D2D4B
S214000C902D2D2E2D2D2D2D2D2D2D2D2D2D2D2D2D7E
S214000CA02D2D2E2D2D2D2D2D2D2D2D2D2D2D2D2D6E
S214000CB02D2D2E0A0D000D0A5072657373202745E0
S214000CC06E7465722720746F20726573756D652C5F
S214000CD02027712720746F2073746F702E0A0D0002
S214000CE02533645D202000253033645D20200025F8
S214000CF0303033645D2020002532643A00253032DF
S214000D00643A002532643A00253032643A005B25A6
S214000D1032643A005B253032643A006172625F7377
S214000D20797354696D657253746172742066616973
S214000D306C656420776974682025642E0A0D007C33
S214000D403C3E5E2B3D3F2F5B5D3B2C2A225C006EBB
S214000D50616E00696E660000407A10F35A00A07259
S214000D604E18090010A5D4E80000E87648170000E1
S214000D70E40B54020000CA9A3B000000E1F50500AF
S214000D800080969800000040420F000000A08601F8
S214000D90000000102700000000E8030000000064C8
S214000DA000000000000A0000000000010000000033
S214000DB0002C76D888DC674F0823DFC1DFAE59E108
S214000DC0B1B796E5E3E453C63AE651997696E8E677
S214000DD0C28426EB898C9B62ED407C6FFCEFBC9C4A
S214000DE09F40F2BAA56FA5F490055A2AF75C936B5C
S214000DF06CF9676DC11BFCE0E40D47FEF520E6B517
S214000E0000D0ED902E0300943577050080841E08F0
S214000E100000204E0A000000C80C333333330F980E
S214000E206E12831141EF8D2114893BE65516CFFED5
S214000E30E6DB18D1844B381BF77C1D901DA4BBE461
S214000E4024203284725E228100C9F124ECA1E53DA3
S214000E502700388F0FA811241FBECFEFDFE3DEBFB9
S214000E60CDBF00E00CBF18BE19BE1ABE1BBE14E2F2
S214000E70A0E0B0E2EEE5FAE601E00BBF02C00790A4
S214000E800D92A836B107D9F71BBE17E2A8E6B4E262
S214000E9001C01D92AE3EB107E1F71EE0C6E5DEE0FA
S214000EA000E006C022970109FE010BBF0E9429B58B
S214000EB0C235D10780E00807A9F71BBE0E948E70D6
S214000EC00C94ACB00C9400001F93CF93DF930F925A
S214000ED00F92CDB7DEB789839A838091682490916C
S214000EE0692460E00E94697E80917024815080931E
S214000EF07024882379F010E02091682430916924CA
S214000F00C9010E94227B812F0F900F90DF91CF9115
S214000F101F91089580917124909172240E9432420C
S214000F2087FFE9CF16EFE8CF1F93CF93DF930F929B
S214000F300F92CDB7DEB789839A8380916A24909109
S214000F406B2460E00E94697E809170248F5F80939E
S214000F507024813079F010E020916A2430916B245F
S214000F60C9010E94227B812F0F900F90DF91CF91B5
S214000F701F91089580917124909172240E94FC41E3
S214000F8087FFE9CF16EFE8CFCF93DF9300D0CDB73A
S214000F90DEB78A839B838FB78983F8948091712408
S214000FA0909172240E942D4399819FBF282F33274A
S214000FB027FD3095932F2396CDBFDEBFDF91CF91CF
S214000FC00895CF92DF92EF92FF920F931F93CF93E5
S214000FD0DF93CDB7DEB7AA97CDBFDEBF89A79AA7A6
S214000FE069017A01643009F4EBC1653010F16730AD
S214000FF009F47AC2683008F0B0C1653009F455C209
S214001000663009F422C29DEFC92E9FEFD92E9FEFBE
S214001010E92E9FEFF92EB601C701AA96CDBFDEBF17
S214001020DF91CF911F910F91FF90EF90DF90CF90BF
S2140010300895613009F405C2613008F4B5C1623024
S21400104009F449C26330F9F68091682490916924C6
S21400105060E00E94697E80916C2490916D2460E02F
S2140010600E94697E80916E2490916F240E946C8706
S2140010708C01760160E7C62ED12CCE0CDF1C809149
S2140010806E2490916F240E945887D6011C92F80116
S2140010909081E0E0F0E0E295F295F07FFE27E07FB9
S2140010A0FE27EE0DFF1D9D3009F47BC2992309F43F
S2140010B078C2903209F4D8C218160CF072C2908327
S2140010C098012F5F3F4FD80111969C9111979D3044
S2140010D009F470C2992309F46DC2903209F4D0C2A3
S2140010E0813009F467C2918398012E5F3F4F1296B4
S2140010F09C9112979D3009F463C2992309F460C24B
S214001100903209F4C3C2823009F45AC2928398011D
S2140011102D5F3F4F13969C9113979D3009F456C24E
S214001120992309F453C2903209F4B6C2833009F405
S2140011304DC2938398012C5F3F4F14969C91149751
S2140011409D3009F448C2992309F445C2903209F447
S214001150A9C2843009F43FC2948398012B5F3F4FA5
S21400116015969C9115979D3009F43AC2992309F477
S21400117037C2903209F49CC2853009F431C2958397
S21400118098012A5F3F4F16969C9116979D3009F45A
S2140011902CC2992309F429C2903209F48FC28630F2
S2140011A009F423C296839801295F3F4F17969C91B6
S2140011B017979D3009F41EC2992309F41BC290327A
S2140011C009F482C2873009F415C297839801285F14
S2140011D03F4F18969C9118979D3009F410C299239A
S2140011E009F40DC2903209F475C2883009F407C2BA
S2140011F090879801275F3F4F19969C9119979D30CD
S21400120009F402C2992309F4FFC1903209F471C2AD
S214001210893009F4F9C191879801265F3F4F1A96E5
S2140012209C911A979D3009F4F4C1992309F4F1C1F1
S214001230903209F464C28A3009F4EBC192879801AF
S214001240255F3F4F1B969C911B979D3009F4E6C186
S214001250992309F4E3C1903209F457C28B3009F49C
S214001260DDC193879801245F3F4F1C969C911C9785
S2140012709D3009F4D8C1992309F4D5C1903209F4F8
S2140012804AC28C3009F4CFC194879801235F3F4F40
S2140012901D969C911D979D3009F4CAC1992309F4A7
S2140012A0C7C1903209F43DC28D3009F4C1C195879B
S2140012B09801225F3F4F1E969C911E979D3009F421
S2140012C0CEC1992309F4CBC1903209F436C28E30D0
S2140012D009F4C5C196879801215F3F4F1F969C91E0
S2140012E01F979D3009F4C7C1992309F4C4C19032F1
S2140012F009F41DC28F3009F4BEC1978791E100E062
S21400130010E0D601EC91EF5FEC93E83008F09EC158
S214001310913109F492C1D8019C919A3041F09923F9
S21400132031F00115110519F018160CF4B3CECC24C3
S214001330DD24760180916E2490916F240E9425888A
S21400134080917124909172240E94FC4180916824BF
S214001350909169240E94227B5ECE683009F4FDC01D
S214001360693009F050CE80916A2490916B2460E039
S2140013700E94697ED701C601C097A109B1098830CD
S2140013809105A105B10508F4F9C029EFC22E2FEF8B
S214001390D22E2FEFE22E2FEFF22E80916A2490911C
S2140013A06B240E94227B37CE80916E2490916F240E
S2140013B00E9458876C01EE24D7FCE094FE2C2BCEBE
S2140013C080916A2490916B2460E00E94697EEDB75C
S2140013D0FEB73A97EDBFFEBF31968E010F5F1F4FE7
S2140013E0ADB7BEB711960D931C93129780E090E2AE
S2140013F08283938380917424992787FD90958483B4
S214001400958386E794E2868397838091752499274F
S21400141087FD9095808791870E946AB2AC01809183
S214001420712490917224EDB7FEB73A96EDBFFEBFD9
S214001430B8010E942D4380916A2490916B240E94EB
S214001440227BCC24DD247601E6CD80916A2490911F
S2140014506B2460E00E94697E00D00F928E010F5FC1
S2140014601F4FADB7BEB711960D931C9312978BE620
S21400147092E013968D939C9314970E9493B2AC01BE
S21400148080917124909172240F900F900F900F907E
S214001490B8010E942D4380916A2490916B240E948B
S2140014A0227BCC24DD247601B6CD80916A249091EF
S2140014B06B2460E00E94697E86E794E2B6010E9493
S2140014C0EEB180916A2490916B240E94227BCC24FA
S2140014D0DD247601A0CD80917124909172240E9423
S2140014E004446B017C0197CD80916A2490916B2413
S2140014F060E00E94697ED701C601C097A109B109C4
S21400150088309105A105B10508F03FCF00D000D086
S214001510EDB7FEB731968E010F5F1F4FADB7BEB762
S21400152011960D931C93129787E190E28283938322
S214001530C48215820E946AB2AC0180917124909197
S2140015407224EDB7FEB73696EDBFFEBFB8010E9417
S2140015502D43CC24DD24760120CFDA01C901C097C3
S214001560A109B10988309105A105B10508F0B8C0F8
S21400157020937424CC24DD2476014DCDC0927524AE
S21400158000D000D0EDB7FEB731968E010F5F1F4F2B
S214001590ADB7BEB711960D931C93129782E290E2F8
S2140015A0C5CF41E091E060E070E0E60FF71F1082E3
S2140015B0841BA7CE42E092E061E070E08901F5CF9F
S2140015C043E093E062E070E08901EFCF44E094E00E
S2140015D063E070E0F3CF45E095E064E070E0EECFC6
S2140015E046E096E065E070E0E9CF47E097E066E029
S2140015F070E0E4CF48E098E067E070E0DFCF49E0D5
S21400160099E068E070E0DACF4AE09AE069E070E0DE
S214001610D5CF4BE09BE06AE070E0D0CF4CE09CE09A
S2140016206BE070E0CBCF4DE09DE06CE070E0C6CFA5
S2140016304EE09EE06DE070E0C1CF3BEFC32E3FEF83
S214001640D32E3FEFE32E3FEFF32E74CE4AEFC42E99
S2140016504FEFD42E4FEFE42E4FEFF42E6BCE4FE02D
S2140016609FE06EE070E0AACF41E091E060E070E0BD
S2140016700F5F1F4F9ACF40E190E16FE070E09ECF82
S214001680890142E092E061E070E0F2CF890143E038
S21400169093E062E070E0ECCF890144E094E063E020
S2140016A070E0E6CF890145E095E064E070E0E0CFC9
S2140016B0890146E096E065E070E0DACF890147E010
S2140016C097E066E070E0D4CF890148E098E067E0F4
S2140016D070E0CECF890149E099E068E070E0C8CFBD
S2140016E089EFC82E8FEFD82E8FEFE82E8FEFF82ECB
S2140016F092CC89014AE09AE069E070E0B9CF8901AE
S2140017004BE09BE06AE070E0B3CF89014CE09CE0E0
S2140017106BE070E0ADCF89014DE09DE06CE070E0DD
S214001720A7CF89014EE09EE06DE070E0A1CF890171
S21400173040E190E16FE070E09BCF89014FE09FE0D1
S2140017406EE070E095CF0F931F93CF93DF93EC017D
S21400175080916E2490916F240E9444878C01809122
S2140017606E2490916F240E94588721E02093732462
S214001770CF37D10501F1CD30D10571F101970817AA
S2140017801907A0F4CF37D10589F0CB31D10571F018
S21400179080917124909172246C2F0E945F428091F8
S2140017A06E2490916F246C2F0E948087DF91CF91DA
S2140017B01F910F9108950115110501F38091712471
S2140017C0909172246FE70E945F4280916E24909100
S2140017D06F240E94F087EACF809171249091722442
S2140017E06DE00E945F4280917124909172246AE0BD
S2140017F00E945F421092732480917124909172240B
S2140018000E94324280916E2490916F2460E00E9484
S214001810808780916C2490916D240E94227BC6CF95
S214001820CF92DF92EF92FF920F931F93CF93DF93A7
S2140018300F920F92CDB7DEB789839A836B017A0138
S214001840809168249091692460E00E94697E80916E
S2140018506C2490916D2460E00E94697E80916E24D5
S21400186090916F240E9444878C0180916E24909101
S2140018706F24E016F10610F1B601A8010E94B088A8
S21400188080916E2490916F240E9425888091712407
S214001890909172240E94FC41809168249091692462
S2140018A00E94227BC8010F900F90DF91CF911F916D
S2140018B00F91FF90EF90DF90CF9008950E942588BB
S2140018C080917124909172240E94FC41809168243A
S2140018D0909169240E94227B04EF1FEFE3CFAF9222
S2140018E0BF92CF92DF92EF92FF920F931F93CF9308
S2140018F0DF93CDB7DEB76497CDBFDEBF4F87588B7B
S214001900698B7A8B8B8B9C8B792F8BE290E260E0D5
S2140019104AE350E20E942A6F182F87FD91C082E0AA
S2140019200E940779809368249093692480916824A4
S2140019309091692497FD7BC080E00E940779809390
S2140019406C2490936D2480916C2490916D2497FD67
S21400195086C08B890E946C44809371249093722475
S214001960809171249091722497FD88C0198283E03B
S2140019708A831B821C828F859889A989BA898D8360
S2140019809E83AF83B8871A86198683EA9BE08B8787
S2140019909C871D861E868091712490917224AA24AD
S2140019A073E0B72ECC24DD24ED80FE800F811885F1
S2140019B020E030E04B855C856D857E850E94B746CD
S2140019C087FD5EC081E790E00E945E8880936E246B
S2140019D090936F2480916E2490916F2497FD4CC055
S2140019E082E00E94077980936A2490936B2480910A
S2140019F06A2490916B2497FF45C080916A24909149
S214001A006B24182F80916E2490916F240E943D883D
S214001A102091712430917224C9010E94D1452091F1
S214001A206C2430916D24C9010E9490781DC080916D
S214001A30682490916924182F8BE290E20E94B16E80
S214001A40812F6496CDBFDEBFDF91CF911F910F919E
S214001A50FF90EF90DF90CF90BF90AF900895809169
S214001A606C2490916D24182F20916824309169245D
S214001A70C9010E949078E0CF1FEFCACF16EFCFCFF4
S214001A8016EFC6CF109270241092732482E38093D0
S214001A90742487E3809375248FE290E08093762405
S214001AA09093772410E0CCCF80916824909169249D
S214001AB0009709F4089580916E2490916F240E94F7
S214001AC03D8880917124909172240E94D145809126
S214001AD06C2490916D240E94907880916824909157
S214001AE069240E94907880916A2490916B240E94C9
S214001AF090788BE290E20E94B16E8EE1E8E6F4E226
S214001B00DF011D928A95E9F708950F931F93CF93EF
S214001B10DF930F920F92CDB7DEB789839A83098140
S214001B201A81809186249091872460E00E94697EC5
S214001B3080918A24815080938A24F801828193813F
S214001B400E949B8E882319F0F801128213828091DE
S214001B508624909187240E94227B80E00F900F902D
S214001B60DF91CF911F910F9108958F929F92AF9220
S214001B70BF92CF92DF92EF92FF921F93CF93DF93A5
S214001B800F920F92CDB7DEB789839A83162F49013D
S214001B905A01C980DA80809186249091872460E07B
S214001BA00E94697E153009F497C0163048F1183047
S214001BB009F47EC0193090F5163009F469C0173064
S214001BC009F460C02BEFC22E2FEFD22E2FEFE22E9D
S214001BD02FEFF22E80918624909187240E94227BFC
S214001BE0B601C7010F900F90DF91CF911F91FF9024
S214001BF0EF90DF90CF90BF90AF909F908F9008951A
S214001C00123009F45CC01330A8F0133009F447C052
S214001C101430C1F6CC24DD247601DCCF1930D9F09F
S214001C201A3081F6F601828193810E94278F6B011C
S214001C307C01D0CF1123A9F0113021F60E94E78E47
S214001C40882341F78DEFC82E8FEFD82E8FEFE82E22
S214001C508FEFF82EBFCFC4010E94BB8E8823D1F62B
S214001C60F1CF80918824909189240E94B48D882396
S214001C7089F69EEFC92E9FEFD92E9FEFE92E9FEF94
S214001C80F92EA8CFC4010E94DB8E882319F6DACF7E
S214001C90C4010E94C28E882309F0BCCFD3CFF601C0
S214001CA0828193810E942D8FCC24DD24760192CFF1
S214001CB0C4010E94E18E882309F0ACCFC3CFF601A1
S214001CC08281938140E050E0BA010E94348FC82E92
S214001CD0DD24EE24FF247ECF0E94B58E9BCFAF92EC
S214001CE0BF92CF92DF92EF92FF920F931F93CF9304
S214001CF0DF930F920F92CDB7DEB789839A836B017D
S214001D005A01E980FA80809186249091872460E0C9
S214001D100E94697EF701628173816115710509F47D
S214001D207BC08091882490918924A60195010E9409
S214001D30EC8E8B019C0177FD14C0809186249091D7
S214001D4087240E94227BC8010F900F90DF91CF91CD
S214001D501F910F91FF90EF90DF90CF90BF90AF90C4
S214001D60089580918824909189240E94B48D809152
S214001D70882490918924F70162817381A6019501D8
S214001D800E94EC8E8B019C0177FFD7CF8091882430
S214001D90909189240E94B48D809188249091892402
S214001DA0F70162817381A60195010E94EC8E8B017A
S214001DB09C0177FFC2CF80918824909189240E944D
S214001DC0B48D8091882490918924F7016281738173
S214001DD0A60195010E94EC8E8B019C0177FFADCF8A
S214001DE080918824909189240E94B48D80918824C3
S214001DF090918924F70162817381A60195010E9462
S214001E00EC8E8B019C0177FF98CF8091882490916F
S214001E1089240E94B48D91CF00E010E08ECFAF925F
S214001E20BF92CF92DF92EF92FF920F931F93CF93C2
S214001E30DF930F920F92CDB7DEB789839A836B013B
S214001E405A01E980FA80809186249091872460E088
S214001E500E94697EF701628173816115710509F43C
S214001E607BC08091882490918924A60195010E94C8
S214001E70098F8B019C0177FD14C080918624909178
S214001E8087240E94227BC8010F900F90DF91CF918C
S214001E901F910F91FF90EF90DF90CF90BF90AF9083
S214001EA0089580918824909189240E94B48D809111
S214001EB0882490918924F70162817381A601950197
S214001EC00E94098F8B019C0177FFD7CF80918824D1
S214001ED0909189240E94B48D8091882490918924C1
S214001EE0F70162817381A60195010E94098F8B011B
S214001EF09C0177FFC2CF80918824909189240E940C
S214001F00B48D8091882490918924F7016281738131
S214001F10A60195010E94098F8B019C0177FFADCF2A
S214001F2080918824909189240E94B48D8091882481
S214001F3090918924F70162817381A60195010E9420
S214001F40098F8B019C0177FF98CF80918824909110
S214001F5089240E94B48D91CF00E010E08ECF0F93BD
S214001F601F93CF93DF930F920F92CDB7DEB789837F
S214001F709A83809186249091872460E00E94697EEF
S214001F8009811A8100938C2410938D2480918A24D1
S214001F90882309F43AC0F8018281938180938E24C5
S214001FA090938F240097E1F02481622F617021FDC9
S214001FB0626022FD646023FD686024FD606125FD8B
S214001FC0606226FD20C00E94C78DF801828393833D
S214001FD0E0918C24F0918D2482819381009711F1F9
S214001FE080918A248F5F80938A24809186249091A2
S214001FF087240E94227B80E00F900F90DF91CF9184
S2140020001F910F9108956064DECF8091882490918F
S21400201089240E94A18D882329F000918C24109198
S2140020208D24B9CF80918624909187240E94227BAC
S21400203080EFE2CFDF92EF92FF920F931F93CF9342
S214002040DF93CDB7DEB72897CDBFDEBFF62EE72EDF
S214002050D82E792F85E0E6E8F4E2DF011D928A9516
S214002060E9F784E490E260E04EE450E20E942A6FD2
S214002070182F87FD3CC082E00E9407798093862453
S21400208090938724809186249091872497FD3BC067
S214002090188680E095E3ACE0B0E0382F8C839D8313
S2140020A0AE83BF8319821A8281E08B838F2D00E076
S2140020B010E021E04D815E816F8170E00E94173A4A
S2140020C080938B2487FD29C08F2D60E070E04E2D15
S2140020D02D2D0E94463880938824909389248091E1
S2140020E088249091892497FD18C010928A24812F05
S2140020F02896CDBFDEBFDF91CF911F910F91FF9045
S214002100EF90DF9008958091862490918724182F71
S21400211084E490E20E94B16EEACF8091862490918A
S21400212087240E94907816EFF3CF809186249091B2
S2140021308724009709F40895809186249091872437
S2140021400E94907884E490E20E94B16E8091882488
S214002150909189240E94BB390895CF93DF930F9204
S2140021600F92CDB7DEB789839A83809190249091A1
S214002170912460E00E94697E80919724815080932C
S214002180972480919024909191240E94227B80E055
S2140021900F900F90DF91CF910895CF92DF92EF923C
S2140021A0FF921F93CF93DF930F920F92CDB7DEB7B8
S2140021B089839A83162F809190249091912460E0D1
S2140021C00E94697E153009F4C0C1163030F118300F
S2140021D009F452C1193008F050C0163009F429C16C
S2140021E0173009F403C18BEFC82E8FEFD82E8FEF70
S2140021F0E82E8FEFF82E80919024909191240E94E3
S214002200227BB601C7010F900F90DF91CF911F91EF
S214002210FF90EF90DF90CF900895123009F472C1CE
S214002220133008F44EC0133009F498C01430D9F6B1
S2140022308091952490919224953011F40C943F1936
S214002240963008F403C2983011F40C94B4199930FF
S21400225008F09AC3963009F41CC5973009F002C2FC
S21400226090910007982311F40C94161AE0E0F7E01A
S2140022708583CC24DD247601BECF1A3009F41FC135
S2140022801A3008F448C01B3009F0ADCF8091962470
S21400229090919224953011F40C94E418963008F03E
S2140022A025C2923009F409C6933008F037C2992344
S2140022B009F417C7913009F414C4CC24DD24760140
S2140022C09ACF112309F46EC0113009F08CCF80919B
S2140022D0932490919224953009F477C5963008F0AF
S2140022E0A5C1923011F40C94CE19933008F094C323
S2140022F0992309F42EC5913009F0A4C190912006C7
S214002300982311F40C94021AE0E2F6E08583CC24BC
S214002310DD24760170CF809196249091922495309A
S21400232009F44BC4963008F4D1C1983009F4A9C317
S214002330993008F083C3963009F423C5973009F026
S214002340D1C190910007982311F40C94A21AE0E0F2
S214002350F7E08683CC24DD2476014DCF809195244A
S21400236090919224953009F4C8C6963008F48EC130
S214002370983011F40C947319993008F007C296300F
S21400238009F4D3C3973009F08DC1909100079823C4
S21400239011F40C942E1BE0E0F7E08683CC24DD24B9
S2140023A0760129CF8091932490919224953009F458
S2140023B08CC3963008F40AC1983011F40C94C119F5
S2140023C0993008F099C2963009F403C4973009F0A2
S2140023D009C190910007982311F40C94EE19E0E0DF
S2140023E0F7E08683CC24DD24760105CF8091942403
S2140023F090919224953009F428C7963008F456C177
S214002400983009F44AC3993008F02AC3963009F484
S214002410D0C4973009F056C190910007982311F464
S2140024200C94661AE0E0F7E08583CC24DD24760180
S214002430E2CE8091942490919224953009F4DDC4E4
S214002440963008F4E3C0983009F48AC6993008F04C
S214002450E7C1963009F429C4973009F0E3C090919B
S2140024600007982311F40C94421BE0E0F7E0868303
S214002470CC24DD247601BFCE8091942490919224C2
S214002480953009F422C6963008F4B0C0983009F4A6
S214002490C4C3993008F042C2963009F482C397301C
S2140024A009F0B0C090910007982311F40C94DE1A3E
S2140024B0E0E0F7E08783CC24DD2476019CCE809193
S2140024C0962490919224953009F417C3963008F418
S2140024D0CDC0983009F414C7993008F079C2963008
S2140024E009F407C4973009F0CDC0909100079823EF
S2140024F011F40C94521AE0E0F7E08583CC24DD2436
S214002500760179CE8091932490919224953009F4A7
S214002510DDC6963008F44AC0983009F4CAC6993029
S21400252008F0C6C1963009F424C3973009F04AC0B3
S21400253090910007982311F40C943E1AE0E0F7E01F
S2140025408783CC24DD24760156CE80919524909105
S2140025509224953009F445C49630C0F0983009F4BA
S214002560DCC4993008F0FEC1963009F44AC39730AF
S214002570C9F490910007982311F40C948E1AE0E0A9
S214002580F7E08783CC24DD24760135CE923009F43B
S214002590D1C6933008F068C1992309F4BAC59130C2
S2140025A009F4B7C2CC24DD24760125CE923009F496
S2140025B014C5933008F08EC1992309F4C4C5913030
S2140025C009F4BFC2CC24DD24760115CE923009F47E
S2140025D064C5933008F00EC2992309F402C6913000
S2140025E009F46FC3CC24DD24760105CE923009F4BD
S2140025F074C3933008F04AC1992309F40CC691308D
S21400260009F42FC3CC24DD247601F5CD923009F4ED
S2140026100FC6933008F094C1992309F4AEC59130E3
S21400262009F407C3CC24DD247601E5CD983009F4FF
S214002630B4C3993008F0BAC1963009F4B8C59730DB
S21400264009F46FC3CC24DD247601D5CD923009F48D
S21400265074C3933008F088C0992309F49BC5913061
S21400266009F493C2CC24DD247601C5CD923009F45A
S21400267074C2933008F0C2C0992309F40DC6913095
S21400268009F443C3CC24DD247601B5CD923009F499
S214002690D4C4933008F08DC0992309F4E3C5913073
S2140026A009F4D3C2CC24DD247601A5CD923009F4FA
S2140026B04EC6933008F08FC0992309F437C5913081
S2140026C009F493C2CC24DD24760195CD923009F42A
S2140026D0C4C3933008F0B6C0992309F48FC591306F
S2140026E009F443C3CC24DD24760185CD983009F463
S2140026F014C6993030F5963009F4BFC2973009F009
S214002700DCCD90910007982311F40C94C91BE0E0EF
S214002710F7E08783CC24DD2476016DCD933009F471
S2140027202CC4943009F0C9CD90918006982311F4FA
S2140027300C94D31BE0E8F6E08783CC24DD247601F6
S2140027405ACD993009F4A1C39A3009F0B6CD9091CC
S214002750E007982311F40C94691CE0EEF7E08783F9
S214002760CC24DD24760147CD933009F45EC3943043
S21400277009F078CF90918006982309F479C7E0E8AD
S214002780F6E08583CC24DD24760135CD993009F436
S214002790DCC39A3009F086CF9091E007982311F4B5
S2140027A00C94A11BE0EEF7E08683CC24DD247601B2
S2140027B022CD933009F499C3943009F073CF9091E9
S2140027C08006982309F472C7E0E8F6E08683CC24F6
S2140027D0DD24760110CD933009F417C4943009F047
S2140027E071CF90918006982311F40C948D1BE0E82D
S2140027F0F6E08583CC24DD247601FDCC933009F405
S214002800D4C3943009F03ECF90918006982309F403
S21400281043C7E0E8F6E08583CC24DD247601EBCCE4
S214002820993009F422C49A3009F0FCCE9091E00762
S214002830982309F44FC7E0EEF7E08683CC24DD2426
S2140028407601D9CC933009F4E4C2943009F04ACF2B
S21400285090918006982309F4FDC5E0E8F6E08683AB
S214002860CC24DD247601C7CC933009F47AC39430A7
S21400287009F098CE90918006982309F4C7C6E0E840
S214002880F6E08783CC24DD247601B5CC933009F4BA
S214002890F0C2943009F0B6CE90918006982309F4E1
S2140028A0F7C5E0E8F6E08783CC24DD247601A3CCE8
S2140028B0993009F4C6C29A3009F084CE9091E007A8
S2140028C0982309F453C6E0EEF7E08783CC24DD2492
S2140028D0760191CC933009F4FCC2943009F072CEA4
S2140028E090918006982309F483C5E0E8F6E0878394
S2140028F0CC24DD2476017FCC993009F4D2C29A30FC
S21400290009F070CE9091E007982309F461C6E0EED6
S214002910F7E08683CC24DD2476016DCC993009F46B
S21400292008C39A3009F06ECE9091E007982309F418
S214002930E1C5E0EEF7E08783CC24DD2476015BCCAE
S214002940933009F4DEC2943009F06CCE9091800684
S214002950982309F4EDC5E0E8F6E08683CC24DD2470
S214002960760149CC993009F414C39A3009F01ACE8E
S2140029709091E007982309F463C5E0EEF7E08783BB
S214002980CC24DD24760137CC993009F44AC39A303A
S21400299009F068CE9091E007982309F423C6E0EE8C
S2140029A0F7E08583CC24DD24760125CC993009F424
S2140029B020C39A3009F046CE9091E007982309F498
S2140029C07BC5E0EEF7E08583CC24DD24760113CCCE
S2140029D0993009F4F6C29A3009F054CE9091E00787
S2140029E0982309F4D7C5E0EEF7E08583CC24DD24F0
S2140029F0760101CC933009F42CC3943009F0F2CD63
S214002A0090918006982309F407C5E0E8F6E08683EF
S214002A10CC24DD247601EFCB933009F432C3943016
S214002A2009F010CE90918006982309F495C5E0E849
S214002A30F6E08583CC24DD247601DDCB993009F4DD
S214002A4038C39A3009F04ECE9091E007982309F4E7
S214002A5047C5E0EEF7E08683CC24DD247601CBCBB9
S214002A60993039F19A3009F02DCE9091E0079823ED
S214002A7009F4AAC4E0EEF7E08583CC24DD247601D1
S214002A80BACB90912007982309F494C4E0E2F7E0CB
S214002A908683CC24DD247601AECB90912007982344
S214002AA009F497C4E0E2F7E08583CC24DD247601C0
S214002AB0A2CB9091C007982309F457C6E0ECF7E044
S214002AC08583CC24DD24760196CB9091A0069823AE
S214002AD009F4B0C5E0EAF6E08683CC24DD2476016E
S214002AE08ACB90912006982309F467C6E0E2F6E0C8
S214002AF08783CC24DD2476017ECB9091A006982394
S214002B0009F4B2C4E0EAF6E08583CC24DD2476013D
S214002B1072CB90912006982309F4A5C5E0E2F6E072
S214002B208783CC24DD24760166CB9091E00698233B
S214002B3009F426C5E0EEF6E08683CC24DD24760193
S214002B405ACB90912006982309F473C6E0E2F6E08B
S214002B508783CC24DD2476014ECB909140069823C3
S214002B6009F491C4E0E4F6E08583CC24DD24760104
S214002B7042CB9091E006982309F4C5C5E0EEF6E056
S214002B808783CC24DD24760136CB909120069823CB
S214002B9009F419C5E0E2F6E08583CC24DD2476014D
S214002BA02ACB9091E006982309F41BC6E0EEF6E0E7
S214002BB08783CC24DD2476011ECB9091A006982333
S214002BC009F411C4E0EAF6E08683CC24DD2476011D
S214002BD012CB9091E006982309F472C5E0EEF6E079
S214002BE08683CC24DD24760106CB9091200698239C
S214002BF009F499C4E0E2F6E08583CC24DD2476016E
S214002C00FACA9091E006982309F43BC6E0EEF6E097
S214002C108783CC24DD247601EECA90912007982382
S214002C2009F472C4E0E2F7E08783CC24DD24760161
S214002C30E2CA90912006982309F48DC5E0E2F6E0FA
S214002C408683CC24DD247601D6CA9091200698236C
S214002C5009F4E6C4E0E2F6E08683CC24DD247601BF
S214002C60CACA90912006982309F498C5E0E2F6E0D7
S214002C708783CC24DD247601BECA9091E006982393
S214002C8009F4D9C3E0EEF6E08783CC24DD24760190
S214002C90B2CA9091E006982309F4F9C4E0EEF6E093
S214002CA08583CC24DD247601A6CA9091E00698237D
S214002CB009F47AC4E0EEF6E08683CC24DD247601BF
S214002CC09ACA90912006982309F4C7C5E0E2F6E078
S214002CD08683CC24DD2476018ECA90914006982304
S214002CE009F4E5C3E0E4F6E08783CC24DD2476012E
S214002CF082CA9091E006982309F419C5E0EEF6E042
S214002D008583CC24DD24760176CA9091200698230C
S214002D1009F472C4E0E2F6E08583CC24DD24760173
S214002D206ACA90910007982309F46FC5E0E0F7E0BF
S214002D308583CC24DD2476015ECA909140069823D4
S214002D4009F465C3E0E4F6E08583CC24DD2476014F
S214002D5052CA90910006982309F4C6C4E0E0F6E053
S214002D608583CC24DD24760146CA909120069823DC
S214002D7009F4EDC3E0E2F6E08683CC24DD24760198
S214002D803ACA9091E006982309F48FC5E0EEF6E083
S214002D908683CC24DD2476012ECA909120079823C2
S214002DA009F499C3E0E2F7E08583CC24DD247601BC
S214002DB022CA9091E006982309F4E1C4E0EEF6E01A
S214002DC08583CC24DD24760116CA9091A00698232C
S214002DD009F43AC4E0EAF6E08583CC24DD247601E3
S214002DE00ACA9091A006982309F4F1C4E0EAF6E036
S214002DF08783CC24DD247601FEC99091A006982313
S214002E0009F42DC3E0EAF6E08683CC24DD247601BF
S214002E10F2C990916006982309F42FC4E0E6F6E024
S214002E208683CC24DD247601E6C99091600698233B
S214002E3009F4A1C3E0E6F6E08583CC24DD24760120
S214002E40DAC99091C007982309F4FDC4E0ECF7E0D6
S214002E508783CC24DD247601CEC990914006982342
S214002E6009F41BC3E0E4F6E08683CC24DD24760177
S214002E70C2C990916006982309F440C4E0E6F6E0E3
S214002E808783CC24DD247601B6C99091C0079823A9
S214002E9009F4A3C3E0ECF7E08783CC24DD247601B5
S214002EA0AAC99091C007982309F4A5C4E0ECF7E0FE
S214002EB08683CC24DD2476019EC990914006982313
S214002EC009F49BC2E0E4F6E08783CC24DD24760197
S214002ED092C990916006982309F4EDC3E0E6F6E007
S214002EE08783CC24DD24760186C9909160069823DA
S214002EF009F423C3E0E6F6E08683CC24DD247601DD
S214002F007AC990916006982309F4C5C4E0E6F6E015
S214002F108683CC24DD2476016EC990912007982301
S214002F2009F4EDC2E0E2F7E08783CC24DD247601E5
S214002F3062C99091C007982309F408C4E0ECF7E052
S214002F408783CC24DD24760156C99091C007982348
S214002F5009F461C3E0ECF7E08683CC24DD24760137
S214002F604AC990916006982309F422C4E0E6F6E088
S214002F708783CC24DD2476013EC990916006982391
S214002F8009F463C2E0E6F6E08783CC24DD2476010C
S214002F9032C99091C007982309F483C3E0ECF7E0A8
S214002FA08783CC24DD24760126C990916006982379
S214002FB009F4F5C2E0E6F6E08583CC24DD2476014C
S214002FC01AC99091C007982309F451C4E0ECF7E0C1
S214002FD08583CC24DD2476010EC990914006982383
S214002FE009F46FC2E0E4F6E08783CC24DD247601A2
S214002FF002C99091C007982309F494C3E0ECF7E067
S2140030008583CC24DD247601F6C89091600698234B
S21400301009F4EDC2E0E6F6E08583CC24DD247601F3
S214003020EAC89091C007982309F4F9C3E0ECF7E0EA
S2140030308583CC24DD247601DEC890914006982353
S21400304009F4EFC1E0E4F6E08683CC24DD247601C3
S214003050D2C890916006982309F441C3E0E6F6E0F2
S2140030608683CC24DD247601C6C89091C0079823B9
S21400307009F477C2E0ECF7E08683CC24DD24760101
S214003080BAC890916006982309F419C4E0E6F6E001
S2140030908583CC24DD247601AEC890914006982323
S2140030A009F423C2E0E4F6E08683CC24DD2476012E
S2140030B0A2C89091C007982309F45CC3E0ECF7E03F
S2140030C08683CC24DD24760196C89091A0069823AA
S2140030D009F4B5C2E0EAF6E08783CC24DD24760165
S2140030E08AC890910006982309F46CC3E0E0F6E0E5
S2140030F08783CC24DD2476017EC89091A006982391
S21400310009F4B7C1E0EAF6E08683CC24DD24760134
S21400311072C890910006982309F4D7C2E0E0F6E062
S2140031208783CC24DD2476010C94FB109091000656
S214003130982309F42AC2E0E0F6E08583CC24DD2457
S21400314076010C94FB1090910006982309F476C340
S214003150E0E0F6E08783CC24DD2476010C94FB10B7
S21400316090912007982309F4D4C1E0E2F7E0868323
S214003170CC24DD2476010C94FB1090910006982355
S21400318009F4C6C2E0E0F6E08683CC24DD247601AE
S2140031900C94FB1090910006982309F432C2E0E0EC
S2140031A0F6E08583CC24DD2476010C94FB10909108
S2140031B0E006982309F41AC3E0EEF6E08583CC24F3
S2140031C0DD2476010C94FB109091A006982309F458
S2140031D0F0C1E0EAF6E08783CC24DD2476010C9487
S2140031E0FB1090910006982309F483C2E0E0F6E015
S2140031F08683CC24DD2476010C94FB109091000687
S214003200982309F412C2E0E0F6E08683CC24DD249D
S21400321076010C94FB1090910006982309F436C3AF
S214003220E0E0F6E08783CC24DD2476010C94FB10E6
S21400323090914006982309F40CC2E0E4F6E08683F9
S214003240CC24DD2476010C94FB109091A0069823E4
S21400325009F486C2E0EAF6E08583CC24DD24760114
S2140032600C94FB1090910006982309F4B5C2E0E098
S214003270F6E08683CC24DD2476010C94FB10909136
S214003280A006982309F458C2E0EAF6E08583CC2429
S214003290DD2476010C94FB1090910006982309F427
S2140032A0E1C2E0E0F6E08583CC24DD2476010C94D0
S2140032B0FB1090912007982309F466C2E0E2F7E03D
S2140032C08783CC24DD2476010C94FB109091A00615
S2140032D0982309F49FC2E0EAF6E08783CC24DD2435
S2140032E076010C94FB1090912007982309F4E2C213
S2140032F0E0E2F7E08683CC24DD2476010C94FB1014
S21400330090912007982309F47BC2E0E2F7E08583DA
S214003310CC24DD2476010C94FB1090912007982392
S21400332009F496C2E0E2F7E08783CC24DD24760138
S2140033300C94FB1090914006982309F475C2E0E4C3
S214003340F6E08783CC24DD2476010C94FB10909164
S2140033504006982309F4A4C2E0E4F6E08583CC2472
S214003360DD2476010C94FB1090912007982309F435
S21400337083C2E0E2F7E08583CC24DD2476010C945A
S214003380FB1090912007982309F49EC2E0E2F7E034
S2140033908683CC24DD2476010C94FB1090914006A5
S2140033A0982369F0E0E4F6E08583CC24DD247601FA
S2140033B00C94FB10CC24DD2476010C94FB10CC245A
S2140033C0DD2476010C94FB10CC24DD2476010C94CD
S2140033D0FB10CC24DD2476010C94FB10CC24DD24D9
S2140033E076010C94FB10CC24DD2476010C94FB10A3
S2140033F0CC24DD2476010C94FB10CC24DD2476014D
S2140034000C94FB10CC24DD2476010C94FB10CC2409
S214003410DD2476010C94FB10CC24DD2476010C947C
S214003420FB10CC24DD2476010C94FB10CC24DD2488
S21400343076010C94FB10CC24DD2476010C94FB1052
S214003440CC24DD2476010C94FB10CC24DD247601FC
S2140034500C94FB10CC24DD2476010C94FB10CC24B9
S214003460DD2476010C94FB10CC24DD2476010C942C
S214003470FB10CC24DD2476010C94FB10CC24DD2438
S21400348076010C94FB10CC24DD2476010C94FB1002
S214003490CC24DD2476010C94FB10CC24DD247601AC
S2140034A00C94FB10CC24DD2476010C94FB10CC2469
S2140034B0DD2476010C94FB10CC24DD2476010C94DC
S2140034C0FB10CC24DD2476010C94FB10CC24DD24E8
S2140034D076010C94FB10CC24DD2476010C94FB10B2
S2140034E0CC24DD2476010C94FB10CC24DD2476015C
S2140034F00C94FB10CC24DD2476010C94FB10CC2419
S214003500DD2476010C94FB10CC24DD2476010C948B
S214003510FB10CC24DD2476010C94FB10CC24DD2497
S21400352076010C94FB10CC24DD2476010C94FB1061
S214003530CC24DD2476010C94FB10CC24DD2476010B
S2140035400C94FB10CC24DD2476010C94FB10CC24C8
S214003550DD2476010C94FB10CC24DD2476010C943B
S214003560FB10CC24DD2476010C94FB10CC24DD2447
S21400357076010C94FB10CC24DD2476010C94FB1011
S214003580CC24DD2476010C94FB10CC24DD247601BB
S2140035900C94FB10CC24DD2476010C94FB10CC2478
S2140035A0DD2476010C94FB10CC24DD2476010C94EB
S2140035B0FB10CC24DD2476010C94FB10CC24DD24F7
S2140035C076010C94FB10CC24DD2476010C94FB10C1
S2140035D0CC24DD2476010C94FB10CC24DD2476016B
S2140035E00C94FB10CC24DD2476010C94FB10CC2428
S2140035F0DD2476010C94FB10CC24DD2476010C949B
S214003600FB10CC24DD2476010C94FB10CC24DD24A6
S21400361076010C94FB10CC24DD2476010C94FB1070
S214003620CC24DD2476010C94FB10CC24DD2476011A
S2140036300C94FB10CC24DD2476010C94FB10CC24D7
S214003640DD2476010C94FB10CC24DD2476010C944A
S214003650FB10CC24DD2476010C94FB10CC24DD2456
S21400366076010C94FB10CC24DD2476010C94FB1020
S214003670CC24DD2476010C94FB10CC24DD247601CA
S2140036800C94FB10CC24DD2476010C94FB10CC2487
S214003690DD2476010C94FB10CC24DD2476010C94FA
S2140036A0FB10CC24DD2476010C94FB10CC24DD2406
S2140036B076010C94FB10CC24DD2476010C94FB10D0
S2140036C0CC24DD2476010C94FB10CC24DD2476017A
S2140036D00C94FB10CC24DD2476010C94FB10CC2437
S2140036E0DD2476010C94FB10CC24DD2476010C94AA
S2140036F0FB10CC24DD2476010C94FB10CC24DD24B6
S21400370076010C94FB10CC24DD2476010C94FB107F
S214003710CC24DD2476010C94FB10CC24DD24760129
S2140037200C94FB10CC24DD2476010C94FB10CC24E6
S214003730DD2476010C94FB10CC24DD2476010C9459
S214003740FB10CC24DD2476010C94FB10CC24DD2465
S21400375076010C94FB10CC24DD2476010C94FB102F
S214003760CC24DD2476010C94FB10CC24DD247601D9
S2140037700C94FB10CC24DD2476010C94FB10CC2496
S214003780DD2476010C94FB10CC24DD2476010C9409
S214003790FB10CC24DD2476010C94FB10CC24DD2415
S2140037A076010C94FB10CC24DD2476010C94FB10DF
S2140037B0CC24DD2476010C94FB10CC24DD24760189
S2140037C00C94FB10CC24DD2476010C94FB10CC2446
S2140037D0DD2476010C94FB10CC24DD2476010C94B9
S2140037E0FB10CC24DD2476010C94FB10CC24DD24C5
S2140037F076010C94FB10CC24DD2476010C94FB108F
S214003800CC24DD2476010C94FB10CC24DD24760138
S2140038100C94FB10CC24DD2476010C94FB10CC24F5
S214003820DD2476010C94FB10CC24DD2476010C9468
S214003830FB10CC24DD2476010C94FB10CC24DD2474
S21400384076010C94FB10CC24DD2476010C94FB103E
S214003850CC24DD2476010C94FB10CC24DD247601E8
S2140038600C94FB10CC24DD2476010C94FB10CC24A5
S214003870DD2476010C94FB10CC24DD2476010C9418
S214003880FB10CC24DD2476010C94FB10CC24DD2424
S21400389076010C94FB10CC24DD2476010C94FB10EE
S2140038A0CC24DD2476010C94FB10CC24DD24760198
S2140038B00C94FB10CC24DD2476010C94FB10CC2455
S2140038C0DD2476010C94FB10CC24DD2476010C94C8
S2140038D0FB10CC24DD2476010C94FB10CF93DF93F1
S2140038E00F920F92CDB7DEB789839A83809190248A
S2140038F09091912460E00E94697E809197248F5F6A
S2140039008093972480919024909191240E94227B0A
S21400391080E00F900F90DF91CF9108950F931F9343
S214003920CF93DF93CDB7DEB72A97CDBFDEBF142F78
S2140039304E835F83688779878A87782F88E590E249
S21400394060E046E650E20E942A6F082F87FD40C0DE
S21400395082E00E940779809390249093912420918E
S21400396090243091912437FD3CC0109297241093F8
S21400397092243F8130939324888580939424382B17
S214003980898580939524382B3093962419823A8320
S2140039901B821D82812F20E040E05C8160E00E9457
S2140039A0912A87FD3BC08091962490919224953071
S2140039B009F49EC09630F8F0983009F47BC0993030
S2140039C0A8F1993009F480C09A3009F44BC000E0A1
S2140039D0802F2A96CDBFDEBFDF91CF911F910F912A
S2140039E008958091902490919124082F88E590E284
S2140039F00E94B16EEDCF923009F470C0933018F18A
S214003A00933009F44DC0943011F7909180069823B6
S214003A10F1F2E0E8F6E0858300E0DACF80919024CA
S214003A20909191240E94907806EFE0CF963071F145
S214003A30973069F690910007982349F2E0E0F7E0A6
S214003A40858300E0C5CF9923B9F0913009F0BFCF48
S214003A5090912006982309F4BACFE0E2F6E0858339
S214003A6000E0B6CF9091E007982309F4B0CFE0EEDF
S214003A70F7E0858300E0ACCF90910006982309F428
S214003A80A6CFE0E0F6E0858300E0A2CF9091E006C6
S214003A90982309F49CCFE0EEF6E0858300E098CF0B
S214003AA090916006982309F492CFE0E6F6E08583CD
S214003AB000E08ECF90912007982309F488CFE0E2AB
S214003AC0F7E0858300E084CF9091C007982309F43F
S214003AD07ECFE0ECF7E0858300E07ACF9091400659
S214003AE0982309F474CFE0E4F6E0858300E070CF15
S214003AF09091A006982309F46ACFE0EAF6E0858361
S214003B0000E066CF8091902490919124009709F46C
S214003B10089580919024909191240E94907888E551
S214003B2090E20E94B16E08950F931F93CF93DF9398
S214003B30CDB7DEB72B97CDBFDEBF1A8680E092ECFE
S214003B40A1E0B0E0482F8E839F83A887B98711E055
S214003B501B875F816885798580E091E00E946F0C05
S214003B6087FD41C088E089831A8382E08B8394E0D6
S214003B709C838D8348E051E062E074E00E948E1CD6
S214003B8087FD31C060E072E080E195E00E941A1087
S214003B9087FD29C080E790E260E072E04FE750E2E0
S214003BA00E94AF7087FD1FC080E790E267E970E271
S214003BB040E054E02EEF07EF1DE10E94FB6287FD18
S214003BC012C081E060E072E04EE10E942D7887FD31
S214003BD00AC00E9415232B96CDBFDEBFDF91CF9182
S214003BE01F910F91089580E090E00E94ACB0EF9294
S214003BF0FF920F931F93CF93DF930F920F92CDB741
S214003C00DEB789839A838B01CA0161EA70E20E945B
S214003C10E5B1009751F080E00F900F90DF91CF91C3
S214003C201F910F91FF90EF900895E980FA8000D0E1
S214003C300F92EDB7FEB7018312838EE692E0838380
S214003C4094830E9493B2AC010F900F900F900F9048
S214003C50C701B8010E94956D00D00F92EDB7FEB770
S214003C60018312838BEB92E0838394830E9493B24A
S214003C70AC010F900F900F900F90C701B8010E94F3
S214003C80956D00D00F92EDB7FEB70183128388E0E2
S214003C9093E0838394830E9493B2AC010F900F90BD
S214003CA00F900F90C701B8010E94956D81E0B4CFC8
S214003CB0EF92FF920F931F93CF93DF93CDB7DEB7AC
S214003CC0CD5AD040CDBFDEBF9E012F563F4FF901E3
S214003CD080839183CE018D569F4FFC016083718354
S214003CE019821A821B821C82CE018B569F4F0E941D
S214003CF04A829E012B563F4F8CE994E249E1F90136
S214003D0000802F5F3F4FFC01008201964150442304
S214003D10B1F7CE018B569F4F0E944A829E012B56CA
S214003D203F4F85EB94E249E1F90100802F5F3F4F5A
S214003D30FC010082019641504423B1F78091CA24C9
S214003D409091CB24A091CC24B091CD249C0180915D
S214003D50B1249091B224A091B324B091B4247901F7
S214003D60E81AF90AC7018093CE249093CF2489815C
S214003D709A81AB81BC81805C9F4FAF4FBF4F8983D8
S214003D809A83AB83BC8389819A81AB81BC81813065
S214003D9000E0900701E0A00700E0B00760F089812E
S214003DA09A81AB81BC8180509040A140B04089830D
S214003DB09A83AB83BC83CE018B569F4F0E944A8268
S214003DC09E012B563F4F8CE994E249E1F9010080B1
S214003DD02F5F3F4FFC010082019641504423B1F70C
S214003DE089819A810E940B8C8D839E83CE018B568F
S214003DF09F4F0E944A829E012B563F4F85EB94E2CE
S214003E0049E1F90100802F5F3F4FFC0100820196D7
S214003E1041504423B1F72091CA243091CB244091DD
S214003E20CC245091CD248091B1249091B224A091BD
S214003E30B324B091B42479018A01E81AF90A0A0B6E
S214003E401B0BD801C7018093D0249093D124A09354
S214003E50D224B093D3242091D0243091D124409101
S214003E60D2245091D3248091CE249091CF24AA2797
S214003E7097FDA095BA2F79018A01E81AF90A0A0B6C
S214003E801B0BD801C7018093D0249093D124A09314
S214003E90D224B093D3248091D0249091D124A091A1
S214003EA0D224B091D324BB23A4F48091D024909143
S214003EB0D124A091D224B091D324805C9D4BA04FF6
S214003EC0BF4F8093D0249093D124A093D224B09354
S214003ED0D32469817A818B819C810E946BADDC0141
S214003EE0CB01BC01CD0120ED3FE049EC50E40E943F
S214003EF0D4AEDC01CB01BC01CD0120E030E040E8CF
S214003F0057E40E9498ACDC01CB018093D4249093B4
S214003F10D524A093D624B093D724CE018B569F4F9A
S214003F200E944A829E012B563F4F8CE994E249E15B
S214003F30F90100802F5F3F4FFC010082019641503F
S214003F404423B1F78091D4249091D524A091D6240F
S214003F50B091D724BC01CD010E9495ACDC01CB0109
S214003F608F839887A987BA87CE018B569F4F0E946A
S214003F704A829E012B563F4F85EB94E249E1F901B8
S214003F8000802F5F3F4FFC01008201964150442382
S214003F90B1F78091D4249091D524A091D624B091E5
S214003FA0D724BC01CD010E9437AFDC01CB018B8743
S214003FB09C87AD87BE872091CA243091CB24409140
S214003FC0CC245091CD248091B1249091B224A0911C
S214003FD0B324B091B42479018A01E81AF90A0A0BCD
S214003FE01B0BD801C7018093D8249093D924A093A3
S214003FF0DA24B093DB248091D8249091D924A09120
S214004000DA24B091DB24BB23A4F48091D8249091C9
S214004010D924A091DA24B091DB24805C9D4BA04F7C
S214004020BF4F8093D8249093D924A093DA24B093DA
S214004030DB242091D8243091D9244091DA24509161
S214004040DB248091CE249091CF24AA2797FDA095BB
S214004050BA2F79018A01E81AF90A0A0B1B0BD80154
S214004060C7018093D8249093D924A093DA24B093E0
S214004070DB248D819E81AA2797FDA095BA2FBC01CF
S214004080CD010E946DADDC01CB01BC01CD0120E06D
S21400409030E040E057E40E9498ACDC01CB019C0184
S2140040A0AD016F81788589859A850E94CAABDC014F
S2140040B0CB01BC01CD0120E030E048EC52E40E9488
S2140040C0D4AEDC01CB01BC01CD012F8138854985FA
S2140040D05A850E9498ACDC01CB01BF778F87988BFE
S2140040E0A98BBA8B6F81788589859A8520E03EEF0B
S2140040F04FEF56E40E94D4AEDC01CB01BC01CD01EB
S2140041000E943AADDC01CB018C018091D8249091BD
S214004110D924A091DA24B091DB24AA2797FDA09594
S214004120BA2F2091D0243091D1244091D22450919E
S214004130D324BC01CD010E940EB58DB79EB7409723
S2140041408DBF9EBF8DB79EB70196BE01675E7F4F3F
S214004150FC016083718366EA70E2FC01628373830C
S2140041606D817E81FC0164837583FC010683178361
S214004170EF84F88809891A89FC01E086F1860287AF
S2140041801387FC0124873587468757870E946AB2C3
S2140041900DB71EB7005F1F4F0DBF1EBF8B8B9C8BCE
S2140041A09E01275E3F4F82E4B9010E942D726B8507
S2140041B07C858D859E8520E03EEF4FEF56E40E947D
S2140041C0D4AEDC01CB01BC01CD010E943AADDC01CE
S2140041D0CB018D8B9E8B6F81788589859A8520E0B3
S2140041E03EEF4FEF56E40E94D4AEDC01CB01BC019B
S2140041F0CD010E943AADDC01CB018D839E83CE01BA
S2140042008B569F4F0E944A829E012B563F4F8CE949
S21400421094E249E1F90100802F5F3F4FFC010082E4
S214004220019641504423B1F78D899E892D813E81A8
S214004230B9010E94708C8F8B988FCE018B569F4F42
S2140042400E944A829E012B563F4F85EB94E249E13D
S214004250F90100802F5F3F4FFC010082019641501C
S2140042604423B1F72091CA243091CB244091CC242A
S2140042705091CD248091B1249091B224A091B32482
S214004280B091B42479018A01E81AF90A0A0B1B0BCB
S214004290D801C7018093D0249093D124A093D22430
S2140042A0B093D3242091D0243091D1244091D224AD
S2140042B05091D3248091CE249091CF24AA2797FDA5
S2140042C0A095BA2F79018A01E81AF90A0A0B1B0B86
S2140042D0D801C7018093D0249093D124A093D224F0
S2140042E0B093D3248091D0249091D124A091D2244D
S2140042F0B091D324BB23A4F48091D0249091D124F0
S214004300A091D224B091D324805C9D4BA04FBF4F88
S2140043108093D0249093D124A093D224B093D32416
S2140043208091D4249091D524A091D624B091D724FE
S21400433011E0BC01CD0126EA3FE049E450E40E94CA
S214004340C9AE18160CF010E01123D1F08091D424D9
S2140043509091D524A091D624B091D724BC01CD014C
S21400436020ED3FE049EC50E40E94CAABDC01CB01F3
S2140043708093D4249093D524A093D624B093D724A6
S214004380E090D424F090D5240091D6241091D72420
S2140043908F89988DAA2797FDA095BA2FBC01CD01CD
S2140043A00E946DADDC01CB01BC01CD0120ED3FE0EC
S2140043B049E450E40E94D4AEDC01CB01BC01CD013F
S2140043C020E030E040E057E40E9498ACDC01CB01EE
S2140043D09C01AD01C801B7010E94CAABDC01CB014C
S2140043E0BC01CD0120E030E048EC52E40E94D4AE9F
S2140043F0DC01CB012091D4243091D5244091D624E1
S2140044005091D724BC01CD010E9498ACDC01CB01B1
S214004410BF778F87988BA98BBA8BCE018B569F4F11
S2140044200E944A829E012B563F4F8CE994E249E156
S214004430F90100802F5F3F4FFC010082019641503A
S2140044404423B1F78B859C85AD85BE852F81388545
S21400445049855A85BC01CD010E943EACDC01CB01EA
S2140044608093D4249093D524A093D624B093D724B5
S214004470CE018B569F4F0E944A829E012B563F4F7D
S21400448085EB94E249E1F90100802F5F3F4FFC0184
S2140044900082019641504423B1F72091CA243091FE
S2140044A0CB244091CC245091CD248091B12490917E
S2140044B0B224A091B324B091B42479018A01E81AF9
S2140044C0F90A0A0B1B0BD801C7018093D8249093D6
S2140044D0D924A093DA24B093DB248091D824909139
S2140044E0D924A091DA24B091DB24BB23A4F48091D4
S2140044F0D8249091D924A091DA24B091DB24805C52
S2140045009D4BA04FBF4F8093D8249093D924A0935F
S214004510DA24B093DB242091D8243091D92440911A
S214004520DA245091DB248091CE249091CF24AA27C0
S21400453097FDA095BA2F79018A01E81AF90A0A0BA5
S2140045401B0BD801C7018093D8249093D924A0933D
S214004550DA24B093DB246F81788589859A8520E0FC
S2140045603EEF4FEF56E40E94D4AEDC01CB01BC0117
S214004570CD010E943AADDC01CB018C018091D8249C
S2140045809091D924A091DA24B091DB24AA2797FD34
S214004590A095BA2F2091D0243091D1244091D224D6
S2140045A05091D324BC01CD010E940EB58DB79EB7A5
S2140045B040978DBF9EBF8DB79EB70196BE01675EC2
S2140045C07F4FFC016083718366ED70E2FC016283BD
S2140045D073836D817E81FC0164837583FC01068391
S2140045E01783EF84F88809891A89FC01E086F1862A
S2140045F002871387FC0124873587468757870E94E2
S2140046006AB20DB71EB7005F1F4F0DBF1EBF8B8B64
S2140046109C8B9E01275E3F4F82E4B9010E942D725B
S2140046208AE090E00E94C685A2CB0F93CF93DF93DB
S214004630CDB7DEB7109298241092992410929A243F
S21400464010929B2488E59EE161E070E040E050E037
S21400465020E032E000E00E9401848093982490934A
S2140046609924809198249091992499232CF48091F0
S21400467098249091992415C08AE091E263E00E9404
S214004680C86F80939A2490939B2480919A2490914B
S2140046909B2499232CF480919A2490919B2401C00A
S2140046A080E0DF91CF910F910895CF93DF930F9223
S2140046B00F92CDB7DEB7E0911821F0911921228133
S2140046C03381E0911821F09119210CC0E981FA811B
S2140046D00190F081E02D9081981769F021503040CC
S2140046E0E981FA814085518549835A83121613065B
S2140046F06CF3E0E0F0E0CF010F900F90DF91CF91E8
S2140047000895CF93DF930F920F92CDB7DEB784E074
S21400471090E00E945E8B89839A8389819A8197FDB7
S2140047200CC0809118219091192169817A8141E00D
S2140047300E946E8989819A8102C08EEF9FEF0F904A
S2140047400F90DF91CF910895CF92DF92EF92FF9274
S2140047500F931F93CF93DF930F920F92CDB7DEB7D1
S2140047608C017B01C42ED22EDB018C918830C1F0E7
S214004770893048F4813008F426C1833088F08430CC
S21400478009F021C10DC0803259F0813220F4803109
S21400479009F019C105C0803419F0803809F013C13A
S2140047A0F8019081982309F011C18C2D0E945523A1
S2140047B0009709F080C00E94812389839A838981AB
S2140047C09A8197FD09C1E981FA810190F081E02D77
S2140047D0C082D7018C91818312968D919C911397FC
S2140047E0828393838C91883099F1893040F48230AB
S2140047F0E9F0843021F1813009F055C00EC08032D6
S214004800C9F1813220F4803109F04DC02AC08034CD
S214004810D1F1803809F047C03FC0F8018089D70140
S21400482011969C911197892B808B3DC0F801818948
S214004830D70111969C911197892B818B34C0F80172
S2140048408289D70111969C911197892B828B2BC058
S214004850F8018389D70111969C911197892B838B38
S21400486022C0F8018489D70111969C911197892B53
S214004870848B19C0F8018589D70111969C911197F0
S214004880892B858B10C0F8018689D70111969C91DB
S2140048901197892B868B07C0F8018789D701119657
S2140048A09C91892B878BF801818583608187D7014E
S2140048B08C91828785C08D2D0E945523009709F024
S2140048C088C00E94812389839A8389819A8197FD73
S2140048D083C0E981FA810190F081E02DD082D70172
S2140048E08C91818312968D919C91139782839383EA
S2140048F08C91883099F1893040F48230E9F0843028
S21400490021F1813009F055C00EC08032C9F18132E4
S21400491020F4803109F04DC02AC08034D1F18038AF
S21400492009F047C03FC0F8018089D70111969C91D5
S2140049301197892B808B3DC0F8018189D70111968C
S2140049409C911197892B818B34C0F8018289D701FD
S21400495011969C911197892B828B2BC0F801838925
S214004960D70111969C911197892B838B22C0F80151
S2140049708489D70111969C911197892B848B19C035
S214004980F8018589D70111969C911197892B858B03
S21400499010C0F8018689D70111969C911197892B32
S2140049A0868B07C0F8018789D70111969C91892BC1
S2140049B0878BF80181858C608187D7018C918387EE
S2140049C089819A810BC08FEF9FEF08C08AEF9FEF17
S2140049D005C089EF9FEF02C08EEF9FEF0F900F90FC
S2140049E0DF91CF911F910F91FF90EF90DF90CF90C6
S2140049F00895FC01DB0111968C911197882309F12B
S214004A0012969C911297992311F0868301C0858394
S214004A1011968C911197818311968C9111978093A2
S214004A20B00014968C911497813029F0813040F0B4
S214004A30823031F402C080E201C088E2808B01C07F
S214004A40108A8C918823C1F011868C9182838C9178
S214004A508093B00013968C911397843029F085309C
S214004A6029F0833041F404C080E103C088E101C02E
S214004A7088E0808B0895108A08951F920F920FB6D3
S214004A800F9208B60F9209B60F920BB60F9211242A
S214004A902F933F934F935F936F937F938F939F9341
S214004AA0AF93BF93EF93FF9380E00E945523DC0102
S214004AB0009751F01296ED91FC911397309721F0E4
S214004AC080E011966C911995FF91EF91BF91AF918F
S214004AD09F918F917F916F915F914F913F912F9111
S214004AE00F900BBE0F9009BE0F9008BE0F900FBE22
S214004AF00F901F9018951F920F920FB60F9208B640
S214004B000F9209B60F920BB60F9211242F933F9374
S214004B104F935F936F937F938F939F93AF93BF93C0
S214004B20EF93FF9381E00E945523DC01009751F03C
S214004B301296ED91FC911397309721F080E0119634
S214004B406C911995FF91EF91BF91AF919F918F91C5
S214004B507F916F915F914F913F912F910F900BBE78
S214004B600F9009BE0F9008BE0F900FBE0F901F90BB
S214004B7018951F920F920FB60F9208B60F9209B6AD
S214004B800F920BB60F9211242F933F934F935F9380
S214004B906F937F938F939F93AF93BF93EF93FF9300
S214004BA082E00E945523DC01009751F01296ED91A9
S214004BB0FC911397309721F081E011966C9119952E
S214004BC0FF91EF91BF91AF919F918F917F916F91E0
S214004BD05F914F913F912F910F900BBE0F9009BEA2
S214004BE00F9008BE0F900FBE0F901F9018951F9243
S214004BF00F920FB60F9208B60F9209B60F920BB629
S214004C000F9211242F933F934F935F936F937F934D
S214004C108F939F93AF93BF93EF93FF9383E00E948E
S214004C205523DC01009751F01296ED91FC911397F5
S214004C30309721F081E011966C911995FF91EF91D4
S214004C40BF91AF919F918F917F916F915F914F919F
S214004C503F912F910F900BBE0F9009BE0F9008BE8C
S214004C600F900FBE0F901F9018951F920F920FB6C1
S214004C700F9208B60F9209B60F920BB60F92112438
S214004C802F933F934F935F936F937F938F939F934F
S214004C90AF93BF93EF93FF9384E00E945523DC010C
S214004CA0009751F01296ED91FC911397309721F0F2
S214004CB082E011966C911995FF91EF91BF91AF919B
S214004CC09F918F917F916F915F914F913F912F911F
S214004CD00F900BBE0F9009BE0F9008BE0F900FBE30
S214004CE00F901F9018951F920F920FB60F9208B64E
S214004CF00F9209B60F920BB60F9211242F933F9383
S214004D004F935F936F937F938F939F93AF93BF93CE
S214004D10EF93FF9385E00E945523DC01009751F046
S214004D201296ED91FC911397309721F082E0119640
S214004D306C911995FF91EF91BF91AF919F918F91D3
S214004D407F916F915F914F913F912F910F900BBE86
S214004D500F9009BE0F9008BE0F900FBE0F901F90C9
S214004D6018951F920F920FB60F9208B60F9209B6BB
S214004D700F920BB60F9211242F933F934F935F938E
S214004D806F937F938F939F93AF93BF93EF93FF930E
S214004D9086E00E945523DC01009751F01296ED91B3
S214004DA0FC911397309721F083E011966C9119953A
S214004DB0FF91EF91BF91AF919F918F917F916F91EE
S214004DC05F914F913F912F910F900BBE0F9009BEB0
S214004DD00F9008BE0F900FBE0F901F9018951F9251
S214004DE00F920FB60F9208B60F9209B60F920BB637
S214004DF00F9211242F933F934F935F936F937F935C
S214004E008F939F93AF93BF93EF93FF9387E00E9498
S214004E105523DC01009751F01296ED91FC91139703
S214004E20309721F083E011966C911995FF91EF91E0
S214004E30BF91AF919F918F917F916F915F914F91AD
S214004E403F912F910F900BBE0F9009BE0F9008BE9A
S214004E500F900FBE0F901F9018951F920F920FB6CF
S214004E600F9208B60F9209B60F920BB60F92112446
S214004E702F933F934F935F936F937F938F939F935D
S214004E80AF93BF93EF93FF9388E00E945523DC0116
S214004E90009751F01296ED91FC911397309721F000
S214004EA084E011966C911995FF91EF91BF91AF91A7
S214004EB09F918F917F916F915F914F913F912F912D
S214004EC00F900BBE0F9009BE0F9008BE0F900FBE3E
S214004ED00F901F9018951F920F920FB60F9208B65C
S214004EE00F9209B60F920BB60F9211242F933F9391
S214004EF04F935F936F937F938F939F93AF93BF93DD
S214004F00EF93FF9389E00E945523DC01009751F050
S214004F101296ED91FC911397309721F084E011964C
S214004F206C911995FF91EF91BF91AF919F918F91E1
S214004F307F916F915F914F913F912F910F900BBE94
S214004F400F9009BE0F9008BE0F900FBE0F901F90D7
S214004F5018951F920F920FB60F9208B60F9209B6C9
S214004F600F920BB60F9211242F933F934F935F939C
S214004F706F937F938F939F93AF93BF93EF93FF931C
S214004F808AE00E945523DC01009751F01296ED91BD
S214004F90FC911397309721F085E011966C91199546
S214004FA0FF91EF91BF91AF919F918F917F916F91FC
S214004FB05F914F913F912F910F900BBE0F9009BEBE
S214004FC00F9008BE0F900FBE0F901F9018951F925F
S214004FD00F920FB60F9208B60F9209B60F920BB645
S214004FE00F9211242F933F934F935F936F937F936A
S214004FF08F939F93AF93BF93EF93FF938BE00E94A3
S2140050005523DC01009751F01296ED91FC91139711
S214005010309721F085E011966C911995FF91EF91EC
S214005020BF91AF919F918F917F916F915F914F91BB
S2140050303F912F910F900BBE0F9009BE0F9008BEA8
S2140050400F900FBE0F901F9018951F920F920FB6DD
S2140050500F9208B60F9209B60F920BB60F92112454
S2140050602F933F934F935F936F937F938F939F936B
S214005070AF93BF93EF93FF938CE00E945523DC0120
S214005080009751F01296ED91FC911397309721F00E
S21400509086E011966C911995FF91EF91BF91AF91B3
S2140050A09F918F917F916F915F914F913F912F913B
S2140050B00F900BBE0F9009BE0F9008BE0F900FBE4C
S2140050C00F901F9018951F920F920FB60F9208B66A
S2140050D00F9209B60F920BB60F9211242F933F939F
S2140050E04F935F936F937F938F939F93AF93BF93EB
S2140050F0EF93FF938DE00E945523DC01009751F05B
S2140051001296ED91FC911397309721F086E0119658
S2140051106C911995FF91EF91BF91AF919F918F91EF
S2140051207F916F915F914F913F912F910F900BBEA2
S2140051300F9009BE0F9008BE0F900FBE0F901F90E5
S21400514018951F920F920FB60F9208B60F9209B6D7
S2140051500F920BB60F9211242F933F934F935F93AA
S2140051606F937F938F939F93AF93BF93EF93FF932A
S2140051708EE00E945523DC01009751F01296ED91C7
S214005180FC911397309721F087E011966C91199552
S214005190FF91EF91BF91AF919F918F917F916F910A
S2140051A05F914F913F912F910F900BBE0F9009BECC
S2140051B00F9008BE0F900FBE0F901F9018951F926D
S2140051C00F920FB60F9208B60F9209B60F920BB653
S2140051D00F9211242F933F934F935F936F937F9378
S2140051E08F939F93AF93BF93EF93FF938FE00E94AD
S2140051F05523DC01009751F01296ED91FC91139720
S214005200309721F087E011966C911995FF91EF91F8
S214005210BF91AF919F918F917F916F915F914F91C9
S2140052203F912F910F900BBE0F9009BE0F9008BEB6
S2140052300F900FBE0F901F9018951F920F920FB6EB
S2140052400F9208B60F9209B60F920BB60F92112462
S2140052502F933F934F935F936F937F938F939F9379
S214005260AF93BF93EF93FF9380E10E945523DC0139
S214005270009751F01296ED91FC911397309721F01C
S21400528088E011966C911995FF91EF91BF91AF91BF
S2140052909F918F917F916F915F914F913F912F9149
S2140052A00F900BBE0F9009BE0F9008BE0F900FBE5A
S2140052B00F901F9018951F920F920FB60F9208B678
S2140052C00F9209B60F920BB60F9211242F933F93AD
S2140052D04F935F936F937F938F939F93AF93BF93F9
S2140052E0EF93FF9381E10E945523DC01009751F074
S2140052F01296ED91FC911397309721F088E0119665
S2140053006C911995FF91EF91BF91AF919F918F91FD
S2140053107F916F915F914F913F912F910F900BBEB0
S2140053200F9009BE0F9008BE0F900FBE0F901F90F3
S21400533018951F920F920FB60F9208B60F9209B6E5
S2140053400F920BB60F9211242F933F934F935F93B8
S2140053506F937F938F939F93AF93BF93EF93FF9338
S21400536082E10E945523DC01009751F01296ED91E0
S214005370FC911397309721F089E011966C9119955E
S214005380FF91EF91BF91AF919F918F917F916F9118
S2140053905F914F913F912F910F900BBE0F9009BEDA
S2140053A00F9008BE0F900FBE0F901F9018951F927B
S2140053B00F920FB60F9208B60F9209B60F920BB661
S2140053C00F9211242F933F934F935F936F937F9386
S2140053D08F939F93AF93BF93EF93FF9383E10E94C6
S2140053E05523DC01009751F01296ED91FC9113972E
S2140053F0309721F089E011966C911995FF91EF9105
S214005400BF91AF919F918F917F916F915F914F91D7
S2140054103F912F910F900BBE0F9009BE0F9008BEC4
S2140054200F900FBE0F901F9018951F920F920FB6F9
S2140054300F9208B60F9209B60F920BB60F92112470
S2140054402F933F934F935F936F937F938F939F9387
S214005450AF93BF93EF93FF9384E10E945523DC0143
S214005460009751F01296ED91FC911397309721F02A
S2140054708AE011966C911995FF91EF91BF91AF91CB
S2140054809F918F917F916F915F914F913F912F9157
S2140054900F900BBE0F9009BE0F9008BE0F900FBE68
S2140054A00F901F9018951F920F920FB60F9208B686
S2140054B00F9209B60F920BB60F9211242F933F93BB
S2140054C04F935F936F937F938F939F93AF93BF9307
S2140054D0EF93FF9385E10E945523DC01009751F07E
S2140054E01296ED91FC911397309721F08AE0119671
S2140054F06C911995FF91EF91BF91AF919F918F910C
S2140055007F916F915F914F913F912F910F900BBEBE
S2140055100F9009BE0F9008BE0F900FBE0F901F9001
S2140055201895CF93DF9300D000D0CDB7DEB72A838F
S2140055303B834C835D836E839FB79983F894853055
S21400554069F1863070F4823001F1833028F48823C4
S214005550B1F08130D9F516C08330D1F08430B1F582
S2140055601AC0883021F1893028F48630D1F087308F
S21400557069F51AC08930F1F08A3041F51EC080E026
S21400558096E01DC080E296E01AC080E496E017C060
S21400559080E696E014C080E896E011C080EA96E0C7
S2140055A00EC080EE96E00BC080E097E008C080E278
S2140055B097E005C080EC97E002C080EE97E0BE0161
S2140055C06E5F7F4F0E94F92480E001C08CEF9981C6
S2140055D09FBF2696CDBFDEBFDF91CF910895CF93B4
S2140055E0DF93CDB7DEB72797CDBFDEBF4C835D8395
S2140055F06E837F839FB79983F894853009F44CC0F7
S214005600863080F4823081F1833030F48823E1F0F4
S214005610813009F079C020C0833071F1843009F000
S21400562073C032C0883009F44FC0893030F48630F9
S214005630D9F1873009F068C03FC0893009F44CC002
S2140056408A3009F061C050C080E096E0BE016C5F11
S2140056507F4F40E021E04FC080E296E0BE016C5FE5
S2140056607F4F42E023E047C080E496E0BE016C5FD7
S2140056707F4F44E025E03FC080E696E0BE016C5FC9
S2140056807F4F46E027E037C080E896E0BE016C5FBB
S2140056907F4F48E029E02FC080EA96E0BE016C5FAD
S2140056A07F4F4AE02BE027C080EE96E0BE016C5F9D
S2140056B07F4F4CE02DE01FC080E097E0BE016C5F9E
S2140056C07F4F4EE02FE017C080E297E0BE016C5F90
S2140056D07F4F40E121E10FC080EC97E0BE016C5F98
S2140056E07F4F42E123E107C080EE97E0BE016C5F8A
S2140056F07F4F44E125E10E94A4238A839B8389810E
S2140057008FBF8A819B8104C089818FBF8CEF9FEFFA
S2140057102796CDBFDEBFDF91CF910895CF93DF935D
S21400572000D0CDB7DEB78A839B838FB78983F89482
S214005730EA81FB818091182190911921248135817D
S2140057402817390721F089818FBF88EF91C0EA8139
S214005750FB810190F081E02DE081F0E0E631F1057B
S21400576008F07BC0E650FF4FEE0FFF1F0590F49148
S214005770E02D1994E0E0F6E08091090609C0E0E02B
S214005780F6E08091090666C0E0E2F6E08091290620
S2140057908C7F8187128661C0E0E2F6E08091290660
S2140057A059C0E0E4F6E080914906F2CFE0E4F6E086
S2140057B0809149064FC0E0E6F6E080916906E8CFA2
S2140057C0E0E6F6E08091690645C0E0E8F6E0809104
S2140057D08906DECFE0E8F6E0809189063BC0E0EA85
S2140057E0F6E08091A906D4CFE0EAF6E08091A9061B
S2140057F031C0E0EEF6E08091E906CACFE0EEF6E0D2
S2140058008091E90627C0E0E0F7E080910907C0CF65
S214005810E0E0F7E0809109071DC0E0E2F7E0809144
S2140058202907B6CFE0E2F7E08091290713C0E0EC45
S214005830F7E08091C907ACCFE0ECF7E08091C907AC
S21400584009C0E0EEF7E08091E907A2CFE0EEF7E0CE
S2140058508091E907837F8187138680911821909134
S21400586019216A817B810E946A8A89818FBF80E0C4
S2140058702396CDBFDEBFDF91CF9108950F931F9380
S214005880CF93DF938C01DB01EC018E81882309F036
S214005890D4C014968D919C9115971296CD91DC915B
S2140058A013971C96ED91FC911D970780F085E02DCF
S2140058B021E28234920749F023811896ED91FC91FB
S2140058C01997E80FF91F208303C083818093422134
