:100000000C942B070C945C070C948A250C94C8253F
:100010000C946A290C94A8290C946F490C94BA4941
:100020000C94054A0C94504A0C945C070C945C07A1
:100030000C945C070C945C070C9497510C949D50A5
:100040000C94AB500C94E6500C9421510C945C51E0
:100050000C9448520C945C070C94D2510C940D52A1
:100060000C946A2E0C94F13D0C94273E0C945C0782
:100070000C945D3E0C94933E0C945C070C945C07CE
:100080000C945C070C945C070C940E250C944C2586
:100090000C945C070C945C070C945C070C945C0754
:1000A0000C945C070C945C070C945C070C948226FF
:1000B0000C94C0260C945C070C945C070C94475578
:1000C0000C945C070C945B540C9496540C94D1548F
:1000D0000C940C550C94F8550C945C070C948255B8
:1000E0000C94BD550C94DA2E0C94A13F0C94D73F80
:1000F0000C945C070C940D400C9443400C945C07EA
:100100000C9406260C9444260C9492240C94D0242F
:100110000C945C070C945C070C945C070C945C07D3
:100120000C945C070C945C070C945C070C945C07C3
:100130000C945C070C946F530C945C070C948352E2
:100140000C94BE520C94F9520C9434530C942054D9
:100150000C945C070C94AA530C94E5530C94A22EB7
:100160000C94C93E0C94FF3E0C945C070C94353FF4
:100170000C946B3F0C945C070C94EE280C942C2987
:100180000C947A270C94B8270C94F6270C943428F6
:100190000C9472280C94B0280C945C070C945C07A7
:1001A0000C94FE260C943C270C945C070C945C0782
:1001B0000C941F570C945C070C9433560C946E5699
:1001C0000C94A9560C94E4560C94D0570C945C07EC
:1001D0000C945A570C9495570C94122F0C94794008
:1001E0000C94AF400C945C070C94E5400C941B41BC
:1001F0000C945C070F2B142B192B212B262B2B2B4C
:10020000302B352B3A2B3F2B442B492B4E2B532B8A
:10021000582B5D2B622B672B6C2B712B762B7B2B3A
:10022000084AD73B3BCE016E84BCBFFDC12F3D6C5D
:1002300074319ABD56833DDA3D00C77F11BED9E4C3
:10024000BB4C3E916BAAAABE000000803F05A84CA3
:10025000CDB2D44EB93836A9020C50B9918688086F
:100260003CA6AAAA2ABE000000803F1B63007C2D8A
:100270002D2D2D2D2D2D2D2D7C2D2D2D2D2D2D2D5F
:100280002D2D2D2D2D2D2D2D2D2D2D2D7C2D2D2D4F
:100290002D2D2D2D2D2D2D2D2D2D2D2D2D2D2D2D8E
:1002A0002D2D2D2D2D2D2D2D2D2D2D2D2D2D2D2D7E
:1002B0002D2D2D2D2D2D2D7C0A0D007C20436F6DB5
:1002C0006D616E64207C2020202020417267756D56
:1002D000656E747320202020207C20202020202088
:1002E00020202020202020204465736372697074D0
:1002F000696F6E2020202020202020202020202018
:10030000202020207C0A0D002E2D2D2D2D2D2D2D71
:100310002D2D2D2D2D2D2D2D2D2D2D2D2D2D2D2D0D
:100320002D2D2D2D2D2D2D2D2D2D2D2D2D2D2D2DFD
:100330002D2D2D2D2D2D2D2D2D2D2D2D2D2D2D2DED
:100340002D2D2D2D2D2D2D2D2D2D2D2D2D2D2D2DDD
:100350002D2E0A0D00496E76616C696420434D4470
:100360000A0D0068656164002F006364006D6B64B2
:10037000697200726D646972002D7200726D006C9A
:100380007300746F70006465760073646C00686558
:100390006C700073637400496E76616C6964206EE2
:1003A000756D626572206F6620746F6B656E730A7F
:1003B0000D00496E76616C696420746F6B656E2008
:1003C00073697A650A0D00272D2D2D2D2D2D2D2DCC
:1003D0002D272D2D2D2D2D2D2D2D2D2D2D2D2D2D53
:1003E0002D2D2D2D2D272D2D2D2D2D2D2D2D2D2D43
:1003F0002D2D2D2D2D2D2D2D2D2D2D2D2D2D2D2D2D
:100400002D2D2D2D2D2D2D2D2D2D2D2D2D2D2D2D1C
:10041000270A0D007C2068656164202020207C2054
:100420003C617267313E20202020202020202020A7
:1004300020207C205072696E747320612066696C84
:1004400065203C617267313E20746F2074686520BE
:100450007465726D696E616C2E202020207C0A0DFF
:10046000007C20746F7563682020207C203C6172C2
:1004700067313E2020202020202020202020207CAA
:10048000204372656174652066696C65203C617209
:1004900067313E2E202020202020202020202020D8
:1004A000202020202020202020207C0A0D007C20DD
:1004B0006D6B6469722020207C203C617267313E44
:1004C0002020202020202020202020207C2043725B
:1004D000656174652061206469726563746F727907
:1004E000203C617267313E2E2020202020202020D9
:1004F000202020202020207C0A0D007C20726D64AA
:1005000069722020207C203C617267313E202020CF
:100510002020202020202020207C2052656D6F7616
:10052000652061206469726563746F72792E202082
:1005300020202020202020202020202020202020BB
:10054000202020207C0A0D007C20726D202020209D
:1005500020207C203C617267313E2020202020201A
:100560002020202020207C2052656D6F7665206140
:100570002066696C65203C617267313E2E20202028
:10058000202020202020202020202020202020206B
:10059000207C0A0D007C2063642020202020207C09
:1005A000203C617267313E20202020202020202026
:1005B0002020207C204368616E676520746F206472
:1005C0006972203C617267313E2E2020202020205D
:1005D00020202020202020202020202020207C0AD5
:1005E0000D007C206C732020202020207C203C618A
:1005F0007267313E20202020202020202020202033
:100600007C20446973706C61797320746865206321
:100610006F6E74656E7473206F6620646972203C1F
:10062000617267313E2E20202020207C0A0D007C44
:1006300020746F7020202020207C2020202020206B
:10064000202020202020202020202020207C20442A
:100650006973706C6179732073797374656D20733D
:100660007461746973746963732E202020202020C4
:1006700020202020202020207C0A0D007C20646582
:100680007620202020207C202020202020202020B8
:10069000202020202020202020207C2052657475DE
:1006A000726E732061206C697374206F66206163C1
:1006B0007469766520647269766572732E202020D5
:1006C00020202020207C0A0D007C202020202020BB
:1006D0002020207C202020202020202020202020BE
:1006E000202020202020207C20302C312C3220285B
:1006F0006C6F772C206D65642C20686967682920F1
:1007000020202020202020202020202020202020E9
:1007100020207C0A0D007C2073646C202020202087
:100720007C203C617267313E202020202020202048
:10073000202020207C205365742074686520646527
:10074000627567206C6576656C2C207768657265CC
:10075000203C617267313E203D2020202020207CFB
:100760000A0D007C2D2D2D2D2D2D2D2D2D7C2D2D8B
:100770002D2D2D2D2D2D2D2D2D2D2D2D2D2D2D2DA9
:100780002D7C2D2D2D2D2D2D2D2D2D2D2D2D2D2D4A
:100790002D2D2D2D2D2D2D2D2D2D2D2D2D2D2D2D89
:1007A0002D2D2D2D2D2D2D2D2D2D2D2D7C0A0D009A
:1007B0007C20436F6D6D616E64207C2020202020A2
:1007C000417267756D656E747320202020207C2037
:1007D000202020202020202020202020204465735D
:1007E0006372697074696F6E2020202020202020A1
:1007F0002020202020202020207C0A0D002E2D2DBE
:100800002D2D2D2D2D2D2D2D2D2D2D2D2D2D2D2D18
:100810002D2D2D2D2D2D2D2D2D2D2D2D2D2D2D2D08
:100820002D2D2D2D2D2D2D2D2D2D2D2D2D2D2D2DF8
:100830002D2D2D2D2D2D2D2D2D2D2D2D2D2D2D2DE8
:100840002D2D2D2D2D2D2E0A0D00546865202745A8
:100850006E7465722720627574746F6E2077696C90
:100860006C20656E61626C652F64697361626C6592
:10087000206120646562756767696E6720736573C0
:1008800073696F6E2E2050726573732027456E74E6
:1008900065722720746F20626567696E2E2E2E0A9E
:1008A0000D00496E76616C6964204C6576656C0A52
:1008B0000D00272D2D2D2D2D2D2D2D2D2D2D2D2DBB
:1008C0002D2D2D2D272D2D2D2D2D2D2D2D2D2D2D5E
:1008D0002D2D2D272D2D2D2D2D2D2D2D2D2D2D2D4E
:1008E0002D272D2D2D2D2D2D2D2D2D2D2D2D2D2D3E
:1008F000270A0D007C20253136737C2025326420A8
:10090000202020202020202020207C202532642030
:100910002020202020202020207C20253264202020
:100920002020202020202020207C0A0D007C2D2D3E
:100930002D2D2D2D2D2D2D2D2D2D2D2D2D2D2D7C98
:100940002D2D2D2D2D2D2D2D2D2D2D2D2D2D7C2D88
:100950002D2D2D2D2D2D2D2D2D2D2D2D7C2D2D2D78
:100960002D2D2D2D2D2D2D2D2D2D2D7C0A0D007C89
:10097000202020447269766572204E616D652020CA
:10098000207C204D616A6F72204E756D6265722009
:100990007C204D696E6F72204E756D6265727C2091
:1009A00023206F662048616E646C6573207C0A0D9D
:1009B000002E2D2D2D2D2D2D2D2D2D2D2D2D2D2D93
:1009C0002D2D2D2D2D2D2D2D2D2D2D2D2D2D2D2D57
:1009D0002D2D2D2D2D2D2D2D2D2D2D2D2D2D2D2D47
:1009E0002D2D2D2D2D2D2D2D2D2D2D2D2D2D2D2E36
:1009F0000A0D00272D2D2D2D2D2D2D2D2D2D2D2D9D
:100A00002D2D2D2D2D2D2D2D2D2D2D2D2D272D2D1C
:100A10002D2D2D2D2D2D2D2D2D2D2D2D2D270A0D4F
:100A2000007C537973204C6F616420616674657239
:100A30002035206D696E75746573207C20253132F8
:100A40002E31662525207C0A0D00272D2D2D2D2DDC
:100A50002D2D2D2D2D2D2D2D2D2D2D2D2D2D2D2DC6
:100A60002D2D2D2D272D2D2D2D2D2D2D2D2D2D2DBC
:100A70002D2D2D2D270A0D007C537973204C6F618D
:100A8000642061667465722031206D696E757465CD
:100A900020207C202531322E31662525207C0A0D30
:100AA00000272D2D2D2D2D2D2D2D2D272D2D2D2DAF
:100AB0002D2D2D2D2D2D2D2D2D2D2D272D2D2D2D6C
:100AC0002D2D2D2D2D2D2D2D2D2D2D270A0D007C7D
:100AD0002020202020202020207C202020202020BA
:100AE0002020202020202020207C20253132642539
:100AF00025207C0A0D007C467265652052414D2000
:100B00007C20202020202020202020202020202089
:100B10007C2025313364207C0A0D00272D2D2D2DBE
:100B20002D2D2D2D2D272D2D2D2D2D2D2D2D2D2DFB
:100B30002D2D2D2D2D272D2D2D2D2D2D2D2D2D2DEB
:100B40002D2D2D2D2D270A0D007C2020202020204A
:100B50002020207C20202020202020202020202039
:100B60002020207C20253132642525207C0A0D00A0
:100B70007C557365642052414D207C20202020202C
:100B8000202020202020202020207C20253133649C
:100B9000207C0A0D00272D2D2D2D2D2D2D2D2D27BF
:100BA0002D2D2D2D2D2D2D2D2D2D2D2D2D2D2D277B
:100BB0002D2D2D2D2D2D2D2D2D2D2D2D2D2D2D276B
:100BC0000A0D007C2020202E68656170207C20208A
:100BD00020202020202030782578207C20253133CB
:100BE00064207C0A0D007C202020202E627373205C
:100BF0007C202020202020202030782578207C2078
:100C000025313364207C0A0D007C2020202E646175
:100C10007461207C2020202020202020307825781E
:100C2000207C2025313364207C0A0D007C2D2D2D65
:100C30002D2D2D2D2D2D7C2D2D2D2D2D2D2D2D2D95
:100C40002D2D2D2D2D2D7C2D2D2D2D2D2D2D2D2D85
:100C50002D2D2D2D2D2D7C0A0D007C2053656374C8
:100C6000696F6E207C20202020416464726573735C
:100C7000202020207C20202053697A65204279742E
:100C8000657320207C0A0D002E2D2D2D2D2D2D2D50
:100C90002D2D2E2D2D2D2D2D2D2D2D2D2D2D2D2D83
:100CA0002D2D2E2D2D2D2D2D2D2D2D2D2D2D2D2D73
:100CB0002D2D2E0A0D000D0A5072657373202745E5
:100CC0006E7465722720746F20726573756D652C64
:100CD0002027712720746F2073746F702E0A0D0007
:100CE0002533645D202000253033645D20200025FD
:100CF000303033645D2020002532643A00253032E4
:100D0000643A002532643A00253032643A005B25AB
:100D100032643A005B253032643A006172625F737C
:100D2000797354696D657253746172742066616978
:100D30006C656420776974682025642E0A0D007C38
:100D40003C3E5E2B3D3F2F5B5D3B2C2A225C006EC0
:100D5000616E00696E660000407A10F35A00A0725E
:100D60004E18090010A5D4E80000E87648170000E6
:100D7000E40B54020000CA9A3B000000E1F50500B4
:100D80000080969800000040420F000000A08601FD
:100D9000000000102700000000E8030000000064CD
:100DA00000000000000A0000000000010000000038
:100DB000002C76D888DC674F0823DFC1DFAE59E10D
:100DC000B1B796E5E3E453C63AE651997696E8E67C
:100DD000C28426EB898C9B62ED407C6FFCEFBC9C4F
:100DE0009F40F2BAA56FA5F490055A2AF75C936B61
:100DF0006CF9676DC11BFCE0E40D47FEF520E6B51C
:100E000000D0ED902E0300943577050080841E08F5
:100E10000000204E0A000000C80C333333330F9813
:100E20006E12831141EF8D2114893BE65516CFFEDA
:100E3000E6DB18D1844B381BF77C1D901DA4BBE466
:100E400024203284725E228100C9F124ECA1E53DA8
:100E50002700928E4FA711241FBECFEFDFE3DEBF26
:100E6000CDBF00E00CBF18BE19BE1ABE1BBE14E2F7
:100E7000A0E0B0E2EAE8F8E601E00BBF02C00790AC
:100E80000D92A834B107D9F71BBE17E2A8E4B4E26B
:100E900001C01D92AE3CB107E1F71EE0C6E5DEE001
:100EA00004C02297FE010E943FB4C235D107C9F7A2
:100EB0000E94E86F0C94BCAF0C9400001F93DF936A
:100EC000CF930F920F92CDB7DEB789839A8380912B
:100ED00048249091492460E00E94C37D8091502471
:100EE000815080935024882371F010E08091482431
:100EF000909149240E947C7A812F0F900F90CF917E
:100F0000DF911F91089580915124909152240E9465
:100F1000874187FFEACF16EFE9CF1F93DF93CF9387
:100F20000F920F92CDB7DEB789839A8380914A24BE
:100F300090914B2460E00E94C37D809150248F5F8C
:100F400080935024813071F010E080914A24909178
:100F50004B240E947C7A812F0F900F90CF91DF91CC
:100F60001F91089580915124909152240E945141E3
:100F700087FFEACF16EFE9CFDF93CF9300D0CDB74D
:100F8000DEB78A839B838FB78983F894809151243D
:100F9000909152240E94824299819FBF282F33272B
:100FA00027FD3095C9012396CDBFDEBFCF91DF91DC
:100FB0000895CF92DF92EF92FF920F931F93DF93EA
:100FC000CF93CDB7DEB7AA97CDBFDEBF89A79AA7CB
:100FD00069017A01643009F4D6C1653010F16730D7
:100FE00009F465C2683008F092C1653009F440C266
:100FF000663009F40DC27DEFE72E7FEFF72E7FEF0D
:10100000072F7FEF172FB701C801AA96CDBFDEBF0C
:10101000CF91DF911F910F91FF90EF90DF90CF90D4
:101020000895613009F4F0C1613008F496C162306E
:1010300009F434C26330F9F6809148249091492430
:1010400060E00E94C37D760180914C2490914D24F4
:1010500060E00E94C37D80914E2490914F240E94B5
:10106000C6868C0180914E2490914F240E94B286B6
:10107000282FA60140595F4FDA011C92F801908198
:10108000DA018C91E82FF0E0E295F295F07FFE27EF
:10109000E07FFE27EE0DFF1D9D3009F46BC2992302
:1010A00009F468C2903209F464C112160CF062C2ED
:1010B00090830F5F1F4FD8018C918D3009F45CC273
:1010C000882309F459C2803209F484C2213009F41A
:1010D00053C281830F5F1F4FD8018C918D3009F46B
:1010E0004DC2882309F44AC2803209F475C2223005
:1010F00009F444C282830F5F1F4FD8018C918D3059
:1011000009F43EC2882309F43BC2803209F466C266
:10111000233009F435C283830F5F1F4FD8018C91B0
:101120008D3009F42FC2882309F42CC2803209F4CF
:1011300057C2243009F426C284830F5F1F4FD801A1
:101140008C918D3009F420C2882309F41DC28032AD
:1011500009F44AC2253009F417C285830F5F1F4F77
:10116000D8018C918D3009F411C2882309F40EC284
:10117000803209F43BC2263009F408C286830F5F2F
:101180001F4FD8018C918D3009F402C2882309F4D5
:10119000FFC1803209F42CC2273009F4F9C18783DA
:1011A0000F5F1F4FD8018C918D3009F4F3C1882354
:1011B00009F4F0C1803209F41DC2283009F4EAC1F3
:1011C00080870F5F1F4FD8018C918D3009F4E4C1E7
:1011D000882309F4E1C1803209F40EC2293009F4F0
:1011E000DBC181870F5F1F4FD8018C918D3009F4CF
:1011F000D5C1882309F4D2C1803209F4FFC12A3055
:1012000009F4CCC182870F5F1F4FD8018C918D30BC
:1012100009F4C6C1882309F4C3C1803209F4F0C1BE
:101220002B3009F4BDC183870F5F1F4FD8018C910C
:101230008D3009F4B7C1882309F4B4C1803209F4B0
:10124000E1C12C3009F4AEC184870F5F1F4FD80174
:101250008C918D3009F490C0882309F4C3C1803289
:1012600009F4D2C12D3009F4BDC185870F5F1F4F2E
:10127000D8018C918D3009F4A9C1882309F4A6C145
:10128000803209F4C5C12E3009F4A0C186870F5FF2
:101290001F4FD8018C918D3009F49AC1882309F42D
:1012A00097C1803209F4B2C12F3009F491C1878708
:1012B00091E100E010E0FA0180818F5F8083883047
:1012C00008F07BC1913109F46FC1D8019C919A302B
:1012D00041F0992331F00115110519F012160CF4A3
:1012E000CFCEEE24FF24870180914E2490914F248D
:1012F0000E947F8780915124909152240E945141F5
:1013000080914824909149240E947C7A7CCE683058
:1013100009F405C1693009F06ECE80914A2490919C
:101320004B2460E00E94C37DD701C601C097A1098C
:10133000B1090897A105B10508F409C189EFE82EA4
:101340008FEFF82E8FEF082F8FEF182F80914A2400
:1013500090914B240E947C7A56CE80914E2490919D
:101360004F240E94B2867C010027F7FC0095102FC5
:101370004ACE80E00F5F1F4FE80FF11D1082982FBB
:101380009F5F291B98CF80914A2490914B2460E065
:101390000E94C37DEDB7FEB73A97EDBFFEBF319611
:1013A0008E010F5F1F4FADB7BEB711960D931C9303
:1013B000129780E090E2828393838091542499274E
:1013C00087FD90958483958386E594E28683978351
:1013D00080915524992787FD9095808791870E9459
:1013E0007AB1AC018091512490915224EDB7FEB7AF
:1013F0003A96EDBFFEBFB8010E94824280914A2416
:1014000090914B240E947C7AEE24FF248701FBCD2F
:1014100080914A2490914B2460E00E94C37D00D0CB
:101420000F928E010F5F1F4FADB7BEB711960D9390
:101430001C9312978BE692E013968D939C931497CE
:101440000E94A5B1AC0180915124909152240F903B
:101450000F900F900F90B8010E94824280914A2411
:1014600090914B240E947C7AEE24FF248701CBCDFF
:1014700080914A2490914B2460E00E94C37D86E5D0
:1014800094E2B6010E94FEB080914A2490914B24D0
:101490000E947C7AEE24FF248701B5CD80915124EF
:1014A000909152240E9459437B018C01ACCD8091D4
:1014B0004A2490914B2460E00E94C37DD701C6016D
:1014C000C097A109B1090897A105B10508F036CF69
:1014D00000D000D0EDB7FEB731968E010F5F1F4FE1
:1014E000ADB7BEB711960D931C93129787E190E2AA
:1014F00082839383C48215820E947AB1AC01809169
:10150000512490915224EDB7FEB73696EDBFFEBF41
:10151000B8010E948242EE24FF24870117CFDA012E
:10152000C901C097A109B1090897A105B10548F003
:1015300099EFE92E9FEFF92E9FEF092F9FEF192FBB
:1015400062CD20935424EE24FF2487015CCDC09209
:10155000552400D000D0EDB7FEB731968E010F5F55
:101560001F4FADB7BEB711960D931C93129782E231
:1015700090E2BECF80E000CF81E0FECE82E0FCCEE4
:1015800083E0FACE84E0F8CE85E0F6CE86E0F4CEB5
:1015900087E0F2CE88E0F0CE89E0EECE8AE0ECCEB5
:1015A0008BE0EACE8CE0E8CE2BEFE22E2FEFF22E8E
:1015B0002FEF022F2FEF122F97CE3AEFE32E3FEFB0
:1015C000F32E3FEF032F3FEF132F8ECE8EE0D4CEBE
:1015D0008FE0D2CE81E0CECE82E0CCCE83E0CACE08
:1015E00084E0C8CE8DE0C8CE85E0C4CE86E0C2CE11
:1015F00087E0C0CE88E0BECE89E0BCCE8AE0BACE1D
:101600008BE0B8CE8CE0B6CE8DE0B4CE8FE0B2CE1B
:101610008EE0B0CECF92DF92EF92FF920F931F93A6
:10162000DF93CF930F920F92CDB7DEB789839A8362
:101630006B018A01809148249091492460E00E94C6
:10164000C37D80914C2490914D2460E00E94C37D25
:1016500080914E2490914F240E949E867C01081711
:10166000190730F180914E2490914F24B601A701C3
:101670000E940A8880914E2490914F240E947F8777
:1016800080915124909152240E945141809148248C
:10169000909149240E947C7AC7010F900F90CF91BE
:1016A000DF911F910F91FF90EF90DF90CF90089501
:1016B00080914E2490914F240E947F8780915124E5
:1016C000909152240E945141809148249091492444
:1016D0000E947C7AE4EFEE2EEFEFFE2EDDCF8091BC
:1016E000482490914924892B09F4089580914E242F
:1016F00090914F240E949787809151249091522479
:101700000E94264580914C2490914D240E94EA77B6
:1017100080914824909149240E94EA7780914A243C
:1017200090914B240E94EA778BE290E20E940B6E2C
:101730008EE1E8E4F4E2DF011D928A95E9F708956D
:10174000AF92BF92CF92DF92EF92FF920F931F93CF
:10175000DF93CF93CDB7DEB76497CDBFDEBF4F87A2
:10176000588B698B7A8B8B8B9C8B082FCF84D88876
:10177000E988FA88792F8BE290E260E04AE350E250
:101780000E94846E182F87FD8BC082E00E946178D2
:10179000809348249093492480914824909149242F
:1017A00097FD75C080E00E94617880934C249093EF
:1017B0004D2480914C2490914D2497FD80C0802F22
:1017C0000E94C143809351249093522480915124CC
:1017D0009091522497FD81C0198283E08A831B82F5
:1017E0001C82CD82DE82EF82F8861A86198683E813
:1017F0009CE08B879C871D861E868091512490914A
:101800005224AA24F3E0BF2ECC24DD24ED80FE80F8
:101810000F81188520E030E04B855C856D857E85E5
:101820000E940C4687FD5BC081E790E00E94B8876C
:1018300080934E2490934F2480914E2490914F2476
:1018400097FD49C082E00E94617880934A2490937A
:101850004B2480914A2490914B2497FF42C0809161
:101860004A2490914B24182F80914E2490914F241C
:101870000E94978780915124909152240E9426457E
:1018800080914C2490914D240E94EA771DC0809154
:10189000482490914924182F8BE290E20E940B6E0D
:1018A000812F6496CDBFDEBFCF91DF911F910F9145
:1018B000FF90EF90DF90CF90BF90AF900895809110
:1018C0004C2490914D24182F8091482490914924C4
:1018D0000E94EA77E1CF1FEFCDCF16EFD1CF16EF01
:1018E000C9CF109250241092532482E38093542441
:1018F00087E3809355248FE290E080935624909361
:10190000572410E0CDCF0F931F93CF93DF938C011B
:1019100080914E2490914F240E949E86EC018091EC
:101920004E2490914F240E94B2869C0181E08093C6
:1019300053240F37110509F10D30110571F12150B4
:101940003040C217D307A0F40F37110589F00B31CF
:10195000110571F08091512490915224602F0E94C2
:10196000B44180914E2490914F24602F0E94DA86DA
:10197000DF91CF911F910F910895209701F38091EE
:101980005124909152246FE70E94B44180914E24DB
:1019900090914F240E944A87EBCF809151249091DF
:1019A00052246DE00E94B4418091512490915224C0
:1019B0006AE00E94B4411092532480915124909186
:1019C00052240E94874180914E2490914F2460E0E0
:1019D0000E94DA8680914C2490914D240E947C7A5A
:1019E000DF91CF911F910F9108950F931F93DF9374
:1019F000CF930F920F92CDB7DEB789839A83098177
:101A00001A8180916B2490916C2460E00E94C37DC8
:101A100080916F24815080936F24F801828193819B
:101A20000E94F58D882319F0F801128213828091AB
:101A30006B2490916C240E947C7A80E00F900F9030
:101A4000CF91DF911F910F910895AF92BF92CF92E6
:101A5000DF92EF92FF920F931F93DF93CF930F923A
:101A60000F92CDB7DEB789839A83162F69017A0169
:101A7000A980BA8080916B2490916C2460E00E94D0
:101A8000C37D153009F497C0163040F1183009F4C1
:101A90007DC0193088F5163009F468C0173009F494
:101AA0005FC02BEFE22E2FEFF22E2FEF022F2FEF42
:101AB000122F80916B2490916C240E947C7AB70144
:101AC000C8010F900F90CF91DF911F910F91FF9060
:101AD000EF90DF90CF90BF90AF900895123009F44F
:101AE0005CC01330A8F0133009F447C01430C9F6B5
:101AF000EE24FF248701DDCF1930D9F01A3089F6A2
:101B0000F501828193810E94818E7B018C01D1CF6E
:101B10001123A9F0113029F60E94418E882341F744
:101B20008DEFE82E8FEFF82E8FEF082F8FEF182F05
:101B3000C0CFC6010E94158E8823D1F6F1CF8091C7
:101B40006D2490916E240E940E8D882389F69EEF5D
:101B5000E92E9FEFF92E9FEF092F9FEF192FA9CFA5
:101B6000C6010E94358E882319F6DACFC6010E947D
:101B70001C8E882309F0BCCFD3CFF50182819381DD
:101B80000E94878EEE24FF24870193CFC6010E9416
:101B90003B8E882309F0ACCFC3CFF50182819381BE
:101BA00040E050E060E070E00E948E8EE82EFF245E
:101BB00000E010E07ECF0E940F8EEE24FF2487010C
:101BC00078CFAF92BF92CF92DF92EF92FF920F93B6
:101BD0001F93DF93CF930F920F92CDB7DEB7898318
:101BE0009A83B62EA72E6A01E980FA8080916B2431
:101BF00090916C2460E00E94C37DF7016281738143
:101C00006115710509F47BC080916D2490916E245B
:101C10004B2D5A2D96010E94468E8B0177FD14C0E4
:101C200080916B2490916C240E947C7AC8010F9063
:101C30000F90CF91DF911F910F91FF90EF90DF9068
:101C4000CF90BF90AF90089580916D2490916E24B5
:101C50000E940E8D80916D2490916E24F701628117
:101C600073814B2D5A2D96010E94468E8B0177FF72
:101C7000D7CF80916D2490916E240E940E8D80911B
:101C80006D2490916E24F701628173814B2D5A2D42
:101C900096010E94468E8B0177FFC2CF80916D2402
:101CA00090916E240E940E8D80916D2490916E24EF
:101CB000F701628173814B2D5A2D96010E94468E49
:101CC0008B0177FFADCF80916D2490916E240E949F
:101CD0000E8D80916D2490916E24F7016281738145
:101CE0004B2D5A2D96010E94468E8B0177FF98CF7F
:101CF00080916D2490916E240E940E8D91CF00E012
:101D000010E08ECFAF92BF92CF92DF92EF92FF9210
:101D10000F931F93DF93CF930F920F92CDB7DEB740
:101D200089839A83B62EA72E6A01E980FA80809172
:101D30006B2490916C2460E00E94C37DF701628166
:101D400073816115710509F47BC080916D249091B8
:101D50006E244B2D5A2D96010E94638E8B0177FDC8
:101D600014C080916B2490916C240E947C7AC801ED
:101D70000F900F90CF91DF911F910F91FF90EF90F7
:101D8000DF90CF90BF90AF90089580916D24909197
:101D90006E240E940E8D80916D2490916E24F70127
:101DA000628173814B2D5A2D96010E94638E8B01A7
:101DB00077FFD7CF80916D2490916E240E940E8D75
:101DC00080916D2490916E24F701628173814B2D77
:101DD0005A2D96010E94638E8B0177FFC2CF8091AE
:101DE0006D2490916E240E940E8D80916D249091AF
:101DF0006E24F701628173814B2D5A2D96010E944A
:101E0000638E8B0177FFADCF80916D2490916E240E
:101E10000E940E8D80916D2490916E24F701628155
:101E200073814B2D5A2D96010E94638E8B0177FF93
:101E300098CF80916D2490916E240E940E8D91CF49
:101E400000E010E08ECF0F931F93DF93CF930F929C
:101E50000F92CDB7DEB789839A8380916B249091DE
:101E60006C2460E00E94C37D89819A8180936824FC
:101E70009093692480916F24882309F440C00091D5
:101E8000682410916924F80122813381209366240B
:101E90003093672421153105E9F08481682F617042
:101EA00081FD626082FD646083FD686084FD606125
:101EB00085FD606286FD21C0C9010E94218DF80167
:101EC00082839383E0916824F091692482819381D5
:101ED000892BF1F080916F248F5F80936F24809124
:101EE0006B2490916C240E947C7A80E00F900F907C
:101EF000CF91DF911F910F9108956064DDCF8091A4
:101F00006D2490916E240E94FB8C882309F0B7CF3A
:101F100080916B2490916C240E947C7A80EF0F90CA
:101F20000F90CF91DF911F910F91089580916B24B5
:101F300090916C24892B09F4089580916B249091E1
:101F40006C240E94EA7784E490E20E940B6E8091F8
:101F50006D2490916E240E9410390895DF92EF92C3
:101F6000FF920F931F93DF93CF93CDB7DEB72897E0
:101F7000CDBFDEBFF62EE72ED82E792FEBE6F4E2AA
:101F800085E0DF011D928A95E9F784E490E260E044
:101F90004EE450E20E94846E182F87FD3CC082E020
:101FA0000E94617880936B2490936C2480916B24C1
:101FB00090916C2497FD3BC0188680E095E3ACE0DF
:101FC000B0E0382F8C839D83AE83BF8319821A8241
:101FD00081E08B838F2D00E010E021E04D815E8158
:101FE0006F8170E00E946C3980936A2487FD29C05C
:101FF0008F2D60E070E04E2D2D2D0E949B37809339
:102000006D2490936E2480916D2490916E2497FDA1
:1020100018C010926F24812F2896CDBFDEBFCF91BC
:10202000DF911F910F91FF90EF90DF9008958091C5
:102030006B2490916C24182F84E490E20E940B6E24
:10204000EACF80916B2490916C240E94EA7716EF7E
:10205000F3CFDF93CF930F920F92CDB7DEB7898383
:102060009A83809170249091712460E00E94C37DD6
:10207000809177248150809377248091702490916F
:1020800071240E947C7A80E00F900F90CF91DF91B5
:102090000895EF92FF920F931F93DF93CF930F92C8
:1020A0000F92CDB7DEB789839A83162F8091702463
:1020B0009091712460E00E94C37D153009F4B0C195
:1020C000163028F1183009F445C1193008F04AC01B
:1020D000163009F41DC1173009F4F8C08BEFE82E53
:1020E0008FEFF82E8FEF082F8FEF182F809170242D
:1020F000909171240E947C7AB701C8010F900F90D3
:10210000CF91DF911F910F91FF90EF9008951230C2
:1021100009F464C1133008F44BC0133009F490C0C3
:102120001430E1F69091752480917224853009F481
:1021300053C6863008F40DC2883009F4A5C589302D
:1021400008F0CEC3863009F493C5873069F58091D5
:102150000007892349F1E0E0F7E09583EE24FF24AE
:102160008701C4CF1A3009F417C11A3008F446C0E9
:102170001B3009F0B3CF9091762480917224853082
:1021800011F40C94E718863008F073C2823009F419
:1021900037C4833008F084C2882311F40C94851866
:1021A000813011F40C947718EE24FF2487019ECF20
:1021B000112309F469C0113009F090CF9091732474
:1021C00080917224853009F4D7C5863008F409C29D
:1021D000883009F481C4893008F086C2863009F459
:1021E000BBC6873009F7809100078923E9F2E0E058
:1021F000F7E09583EE24FF24870178CF9091762431
:1022000080917224853009F497C4863008F419C28D
:10221000883009F499C5893008F0AAC3863009F4DA
:1022200087C5873009F0C0CF80910007892309F462
:10223000BBCFE0E0F7E09683EE24FF24870156CF82
:102240009091752480917224853009F4E6C6863019
:1022500008F4AFC1883011F40C940319893008F0E8
:10226000BDC3863011F40C94F518873009F09CCF6B
:1022700080910007892309F497CFE0E0F7E0968387
:10228000EE24FF24870132CF909173248091722431
:10229000853009F4F6C6863008F413C1883009F495
:1022A0007BC4893008F056C2863009F435C58730C2
:1022B00009F07ACF80910007892309F475CFE0E017
:1022C000F7E09683EE24FF24870110CF90917424C9
:1022D00080917224853009F4AFC5863008F499C125
:1022E000883009F491C5893008F01EC3863009F49E
:1022F0007FC5873009F058CF80910007892309F402
:1023000053CFE0E0F7E09583EE24FF248701EECE83
:102310009091742480917224853009F4CDC4863064
:1023200008F4FFC0883009F4EFC3893008F024C2F4
:10233000863009F4A1C3873009F036CF80910007B9
:10234000892309F431CFE0E0F7E09683EE24FF24FF
:102350008701CCCE9091742480917224853009F449
:10236000CBC5863008F4C5C0883009F4ADC58930C6
:1023700008F022C3863009F49BC5873009F014CFDA
:1023800080910007892309F40FCFE0E0F7E09783FD
:10239000EE24FF248701AACE9091762480917224A6
:1023A000853009F409C6863008F4EBC0883009F49A
:1023B0000BC4893008F0F2C1863009F46DC587304E
:1023C00009F0F2CE80910007892309F4EDCEE0E018
:1023D000F7E09583EE24FF24870188CE9091732443
:1023E00080917224853009F437C4863008F451C0D6
:1023F000883009F439C5893008F04EC2863009F4B6
:1024000027C5873009F0D0CE80910007892309F4D1
:10241000CBCEE0E0F7E09783EE24FF24870166CE81
:102420009091752480917224853009F4E5C386303B
:10243000C0F0883009F477C6893008F087C286304A
:1024400009F48DC6873009F0AFCE8091000789234B
:1024500009F4AACEE0E0F7E09783EE24FF24870199
:1024600045CE823009F4E0C3833008F0A9C1882347
:1024700009F4CEC3813009F097CE809120068923DC
:1024800009F492CEE0E2F6E09783EE24FF24870180
:102490002DCE823009F47FC6833008F00FC2882326
:1024A00009F46BC6813009F07FCE80912006892324
:1024B00009F47ACEE0E2F6E09783EE24FF24870168
:1024C00015CE823009F4F7C5833008F0AFC18823F8
:1024D00009F4E4C5813009F067CE80912006892394
:1024E00009F462CEE0E2F6E09683EE24FF24870151
:1024F000FDCD823009F418C5833008F073C18823FC
:1025000009F406C5813009F04FCE80912006892359
:1025100009F44ACEE0E2F6E09783EE24FF24870137
:10252000E5CD823009F440C4833008F06DC18823C2
:1025300009F42EC4813009F037CE8091200689231A
:1025400009F432CEE0E2F6E09683EE24FF24870120
:10255000CDCD823009F418C5833008F0D3C188236B
:1025600009F406C5813009F01FCE80912006892329
:1025700009F41ACEE0E2F6E09583EE24FF24870109
:10258000B5CD823009F430C5833008F073C188239B
:1025900009F41EC5813009F007CE809120068923F9
:1025A00009F402CEE0E2F6E09583EE24FF248701F1
:1025B0009DCD823009F44BC5833008F0EBC18823F0
:1025C00009F438C5813009F0EFCD809120068923C8
:1025D00009F4EACDE0E2F6E09683EE24FF248701D9
:1025E00085CD823009F480C3833008F031C188235F
:1025F00009F46EC3813009F0D7CD8091200689237C
:1026000009F4D2CDE0E2F6E09583EE24FF248701C1
:102610006DCD823009F448C2833008F089C0882328
:1026200009F436C2813009F0BFCD8091200689239C
:1026300009F4BACDE0E2F6E09583EE24FF248701A9
:1026400055CD823009F490C2833008F05FC08823F2
:1026500009F47EC2813009F0A7CD8091200689233C
:1026600009F4A2CDE0E2F6E09683EE24FF24870190
:102670003DCD883009F4D0C1893020F5863009F489
:10268000E3C1873009F090CD80910007892309F4D8
:102690008BCDE0E0F7E09783EE24FF24870126CD81
:1026A000833009F4C5C1843009F07ECD8091800665
:1026B000892309F479CDE0E8F6E09783EE24FF243E
:1026C000870114CD893009F413C28A3009F06CCD2A
:1026D0008091E007892309F467CDE0EEF7E0978366
:1026E000EE24FF24870102CD893009F449C28A30E3
:1026F00009F05ACD8091E007892309F455CDE0EE29
:10270000F7E09583EE24FF248701F0CC833009F4B1
:10271000D7C1843009F048CD80918006892309F41F
:1027200043CDE0E8F6E09683EE24FF248701DECC7B
:10273000833009F43DC2843009F036CD80918006A3
:10274000892309F431CDE0E8F6E09583EE24FF24F7
:102750008701CCCC893009F4E3C18A3009F024CD5B
:102760008091E007892309F41FCDE0EEF7E096831E
:10277000EE24FF248701BACC893009F431C28A30B3
:1027800009F012CD8091E007892309F40DCDE0EE28
:10279000F7E09683EE24FF248701A8CC893009F462
:1027A0004FC28A3009F000CD8091E007892309F4F7
:1027B000FBCCE0EEF7E09583EE24FF24870196CC76
:1027C000833009F4BDC3843009F0EECC80918006DB
:1027D000892309F4E9CCE0E8F6E09783EE24FF24AE
:1027E000870184CC833009F4EBC2843009F0DCCC5F
:1027F00080918006892309F4D7CCE0E8F6E097833E
:10280000EE24FF24870172CC833009F462C4843043
:1028100009F0CACC80918006892309F4C5CCE0E890
:10282000F6E09683EE24FF24870160CC833009F420
:1028300067C2843009F0B8CC80918006892309F4FE
:10284000B3CCE0E8F6E09683EE24FF2487014ECC7B
:10285000833009F4D5C3843009F0A6CC809180067A
:10286000892309F4A1CCE0E8F6E09583EE24FF2467
:1028700087013CCC833009F403C3843009F094CC45
:1028800080918006892309F48FCCE0E8F6E09583F7
:10289000EE24FF2487012ACC893009F48AC48A30C7
:1028A00009F082CC8091E007892309F47DCCE0EE29
:1028B000F7E09783EE24FF24870118CC833009F4D6
:1028C000EFC1843009F070CC80918006892309F42F
:1028D0006BCCE0E8F6E09783EE24FF24870106CC7A
:1028E000893009F45DC38A3009F05ECC8091E0073D
:1028F000892309F459CCE0EEF7E09583EE24FF2418
:102900008701F4CB833009F48BC2843009F04CCCBE
:1029100080918006892309F447CCE0E8F6E09583AE
:10292000EE24FF248701E2CB893009F40AC48A30FF
:1029300009F03ACC8091E007892309F435CCE0EE28
:10294000F7E09583EE24FF248701D0CB893009F48A
:1029500007C28A3009F028CC8091E007892309F466
:1029600023CCE0EEF7E09783EE24FF248701BECB73
:10297000893009F479C38A3009F016CC8091E007D8
:10298000892309F411CCE0EEF7E09683EE24FF24CE
:102990008701ACCB833009F4A3C2843009F004CCA6
:1029A00080918006892309F4FFCBE0E8F6E0968366
:1029B000EE24FF2487019ACB893009F432C48A308F
:1029C00009F0F2CB8091E007892309F4EDCBE0EE2A
:1029D000F7E09783EE24FF24870188CB893009F440
:1029E0003FC08A3009F0E0CB8091E007892309F4E9
:1029F000DBCBE0EEF7E09683EE24FF24870176CB75
:102A000080914006892309F4CFCBE0E4F6E0978378
:102A1000EE24FF2487016ACB80912007892309F4E3
:102A2000C3CBE0E2F7E09783EE24FF2487015ECB7F
:102A300080916006892309F4B7CBE0E6F6E097833E
:102A4000EE24FF24870152CB8091E006892309F40C
:102A5000ABCBE0EEF6E09783EE24FF24870146CB74
:102A60008091C007892309F49FCBE0ECF7E09683BF
:102A7000EE24FF2487013ACB8091E006892309F4F4
:102A800093CBE0EEF6E09683EE24FF2487012ECB75
:102A900080910006892309F487CBE0E0F6E0958376
:102AA000EE24FF24870122CB80914006892309F47C
:102AB0007BCBE0E4F6E09583EE24FF24870116CB80
:102AC00080916006892309F46FCBE0E6F6E09683F7
:102AD000EE24FF2487010ACB80912007892309F483
:102AE00063CBE0E2F7E09583EE24FF248701FECA82
:102AF0008091C007892309F457CBE0ECF7E0978376
:102B0000EE24FF248701F2CA80912007892309F46B
:102B10004BCBE0E2F7E09683EE24FF248701E6CA80
:102B20008091C007892309F43FCBE0ECF7E096835E
:102B3000EE24FF248701DACA8091A006892309F4D4
:102B400033CBE0EAF6E09683EE24FF248701CECA79
:102B500080910006892309F427CBE0E0F6E0968314
:102B6000EE24FF248701C2CA80914006892309F41C
:102B70001BCBE0E4F6E09683EE24FF248701B6CA7F
:102B80008091C007892309F40FCBE0ECF7E095832F
:102B9000EE24FF248701AACA80912007892309F423
:102BA00003CBE0E2F7E09683EE24FF2487019ECA80
:102BB00080916006892309F4F7CAE0E6F6E0958380
:102BC000EE24FF24870192CA80912007892309F40B
:102BD000EBCAE0E2F7E09583EE24FF24870186CA82
:102BE0008091C007892309F4DFCAE0ECF7E09683FF
:102BF000EE24FF2487017ACA8091A006892309F474
:102C0000D3CAE0EAF6E09783EE24FF2487016ECA78
:102C100080910006892309F4C7CAE0E0F6E09783B3
:102C2000EE24FF24870162CA80914006892309F4BB
:102C3000BBCAE0E4F6E09783EE24FF24870156CA7E
:102C40008091C007892309F4AFCAE0ECF7E09583CF
:102C5000EE24FF2487014ACA8091A006892309F443
:102C6000A3CAE0EAF6E09783EE24FF2487013ECA78
:102C70008091E006892309F497CAE0EEF6E0958397
:102C8000EE24FF24870132CA80912007892309F4AA
:102C90008BCAE0E2F7E09583EE24FF24870126CA81
:102CA00080916006892309F47FCAE0E6F6E0978305
:102CB000EE24FF2487011ACA8091A006892309F413
:102CC00073CAE0EAF6E09683EE24FF2487010ECA79
:102CD00080910006892309F467CAE0E0F6E0958355
:102CE000EE24FF24870102CA80914006892309F45B
:102CF0005BCAE0E4F6E09583EE24FF248701F6C981
:102D000080916006892309F44FCAE0E6F6E09683D5
:102D1000EE24FF248701EAC98091E006892309F4A3
:102D200043CAE0EEF6E09683EE24FF248701DEC975
:102D30008091E006892309F437CAE0EEF6E0968335
:102D4000EE24FF248701D2C980912007892309F44A
:102D50002BCAE0E2F7E09683EE24FF248701C6C980
:102D60008091C007892309F41FCAE0ECF7E097833C
:102D7000EE24FF248701BAC98091A006892309F4B3
:102D800013CAE0EAF6E09583EE24FF248701AEC97A
:102D900080910006892309F407CAE0E0F6E09683F3
:102DA000EE24FF248701A2C980914006892309F4FB
:102DB000FBC9E0E4F6E09683EE24FF24870196C980
:102DC00080916006892309F4EFC9E0E6F6E0978375
:102DD000EE24FF2487018AC98091A006892309F483
:102DE000E3C9E0EAF6E09583EE24FF2487017EC97B
:102DF0008091E006892309F4D7C9E0EEF6E09583D7
:102E0000EE24FF24870172C980912007892309F4E9
:102E1000CBC9E0E2F7E09583EE24FF24870166C981
:102E200080916006892309F4BFC9E0E6F6E0958346
:102E3000EE24FF2487015AC98091A006892309F452
:102E4000B3C9E0EAF6E09583EE24FF2487014EC97A
:102E50008091E006892309F4A7C9E0EEF6E09783A4
:102E6000EE24FF24870142C980912007892309F4B9
:102E70009BC9E0E2F7E09783EE24FF24870136C97F
:102E800080916006892309F48FC9E0E6F6E0958316
:102E9000EE24FF2487012AC98091E006892309F4E2
:102EA00083C9E0EEF6E09583EE24FF2487011EC976
:102EB0008091E006892309F477C9E0EEF6E0978374
:102EC000EE24FF24870112C980912007892309F489
:102ED0006BC9E0E2F7E09783EE24FF24870106C97F
:102EE00080916006892309F45FC9E0E6F6E09683E5
:102EF000EE24FF248701FAC88091A006892309F4F3
:102F000053C9E0EAF6E09783EE24FF248701EEC878
:102F100080910006892309F447C9E0E0F6E0978331
:102F2000EE24FF248701E2C880914006892309F43A
:102F30003BC9E0E4F6E09783EE24FF248701D6C87E
:102F400080916006892309F42FC9E0E6F6E09783B3
:102F5000EE24FF248701CAC88091E006892309F482
:102F600023C9E0EEF6E09583EE24FF248701BEC876
:102F700080910006892309F417C9E0E0F6E0958303
:102F8000EE24FF248701B2C880914006892309F40A
:102F90000BC9E0E4F6E09583EE24FF248701A6C880
:102FA0008091C007892309F4FFC8E0ECF7E095831E
:102FB000EE24FF2487019AC88091A006892309F492
:102FC000F3C8E0EAF6E09583EE24FF2487018EC87B
:102FD00080910006892309F4E7C8E0E0F6E09583D4
:102FE000EE24FF24870182C880914006892309F4DA
:102FF000DBC8E0E4F6E09583EE24FF24870176C881
:1030000080916006892309F4CFC8E0E6F6E0958355
:10301000EE24FF2487010C9476108091A00689236A
:1030200009F4C2C8E0EAF6E09683EE24FF248701A3
:103030000C94761080910006892309F4B5C8E0E06D
:10304000F6E09683EE24FF2487010C94761080919D
:103050004006892309F4A8C8E0E4F6E09683EE244C
:10306000FF2487010C9476108091C007892309F40E
:103070009BC8E0ECF7E09683EE24FF2487010C94D4
:1030800076108091A006892309F48EC8E0EAF6E064
:103090009683EE24FF2487010C947610809100061D
:1030A000892309F481C8E0E0F6E09683EE24FF244A
:1030B00087010C94761080914006892311F40C94BA
:1030C000D410E0E4F6E09683EE24FF2487010C940C
:1030D000761080916006892311F40C94D410E0E6F8
:1030E000F6E09683EE24FF2487010C9476108091FD
:1030F0002006892311F40C94D410E0E2F6E09783C3
:10310000EE24FF2487010C94761080910006892319
:1031100011F40C94D410E0E0F6E09783EE24FF2441
:1031200087010C94761080912007892311F40C9468
:10313000D410E0E2F7E09783EE24FF2487010C949B
:1031400076108091C007892311F40C94D410E0EC20
:10315000F7E09583EE24FF2487010C94761080918C
:10316000E006892311F40C94D410E0EEF6E0978386
:10317000EE24FF2487010C947610809100068923A9
:1031800011F40C94D410E0E0F6E09783EE24FF24D1
:1031900087010C94761080914006892311F40C94D9
:1031A000D410E0E4F6E09783EE24FF2487010C942A
:1031B00076108091C007892311F40C94D410E0ECB0
:1031C000F7E09783EE24FF2487010C94761080911A
:1031D000A006892311F40C94D410E0EAF6E097835A
:1031E000EE24FF2487010C9476108091E006892359
:1031F00011F40C94D410E0EEF6E09683EE24FF2454
:1032000087010C94761080912007892311F40C9487
:10321000D410E0E2F7E09683EE24FF2487010C94BB
:1032200076108091C007892311F40C94D410E0EC3F
:10323000F7E09783EE24FF2487010C947610DF9348
:10324000CF930F920F92CDB7DEB789839A83809187
:1032500070249091712460E00E94C37D8091772456
:103260008F5F8093772480917024909171240E94C5
:103270007C7A80E00F900F90CF91DF91089580913C
:10328000702490917124892B09F408958091702401
:10329000909171240E94EA7788E590E20E940B6E7B
:1032A00008950F931F93DF93CF93CDB7DEB72A977F
:1032B000CDBFDEBF4E835F83688779878A87042FFF
:1032C000782F88E590E260E046E650E20E94846E46
:1032D000182F87FD40C082E00E946178809370249F
:1032E00090937124809170249091712497FD3CC03B
:1032F00010927724009372243F8130937324888541
:1033000080937424382B898580937524382B3093CF
:10331000762419823A831B821D82802F20E040E0B0
:103320005C8160E00E94E62987FD3BC09091762495
:1033300080917224853009F49EC08630F8F0883080
:1033400009F47BC08930A8F1893009F480C08A3043
:1033500009F44BC010E0812F2A96CDBFDEBFCF917C
:10336000DF911F910F9108958091702490917124A5
:10337000182F88E590E20E940B6EEDCF823009F4A1
:1033800070C0833018F1833009F44DC0843011F7D8
:10339000809180068923F1F2E0E8F6E0958310E061
:1033A000DACF80917024909171240E94EA7716EF11
:1033B000E0CF863071F1873069F68091000789236C
:1033C00049F2E0E0F7E0958310E0C5CF8823B9F03B
:1033D000813009F0BFCF80912006892309F4BACF4C
:1033E000E0E2F6E0958310E0B6CF8091E007892314
:1033F00009F4B0CFE0EEF7E0958310E0ACCF809118
:103400000006892309F4A6CFE0E0F6E0958310E0FA
:10341000A2CF8091E006892309F49CCFE0EEF6E08C
:10342000958310E098CF80916006892309F492CFAC
:10343000E0E6F6E0958310E08ECF809120078923A7
:1034400009F488CFE0E2F7E0958310E084CF809123
:10345000C007892309F47ECFE0ECF7E0958310E004
:103460007ACF80914006892309F474CFE0E4F6E036
:10347000958310E070CF8091A006892309F46ACF6C
:10348000E0EAF6E0958310E066CF0F931F93DF9399
:10349000CF93CDB7DEB72B97CDBFDEBF1A8680E0C6
:1034A00092ECA1E0B0E0482F8E839F83A887B98774
:1034B00011E01B875F816885798580E091E00E943B
:1034C000A00B87FD42C088E089831A8392E09B832A
:1034D00084E08C839D8348E051E062E074E082E008
:1034E0000E94511987FD31C060E072E080E195E0F3
:1034F0000E94AE0F87FD29C080E790E260E072E095
:103500004FE750E20E94097087FD1FC080E790E2FC
:1035100067E970E240E054E02EEF09EA1AE10E9408
:10352000556287FD12C081E060E072E04EE10E94CA
:10353000877787FD0AC00E9465222B96CDBFDEBF2C
:10354000CF91DF911F910F91089580E090E00E944C
:10355000BCAFEF92FF920F931F93DF93CF930F9225
:103560000F92CDB7DEB789839A83F62EE72ECA0174
:1035700061EA70E20E94F5B0009751F080E00F9090
:103580000F90CF91DF911F910F91FF90EF900895D1
:1035900009811A8100D00F92EDB7FEB73196ADB711
:1035A000BEB71196FC92E18288E093E08283938318
:1035B0000E94A5B1AC010F900F900F900F90C80121
:1035C0006F2D7E2D0E94EF6C00D00F92EDB7FEB7ED
:1035D0003196ADB7BEB71196FC92E1828BEB92E0CB
:1035E000828393830E94A5B1AC010F900F900F903E
:1035F0000F90C8016F2D7E2D0E94EF6C00D00F92AE
:10360000EDB7FEB73196ADB7BEB71196FC92E18229
:103610008EE692E0828393830E94A5B1AC010F9065
:103620000F900F900F90C8016F2D7E2D0E94EF6CB0
:1036300081E0A5CFEF92FF920F931F93DF93CF937B
:10364000CDB7DEB7CF5DD040CDBFDEBFFE01EF56B8
:10365000FF4F80839183FE01ED56FF4F608371839E
:103660001D8A1E8A1F8A188ECE018B569F4F0E947C
:10367000A481CE018B569F4F0FE914E2C255DF4F54
:1036800008831983CE5AD040C055DF4F8883998371
:10369000C05BD04019E1CE54DF4F1883C25BD040ED
:1036A000C055DF4FE881F981C05BD0400080C05534
:1036B000DF4F08811981C05BD0400F5F1F4FC0559D
:1036C000DF4F08831983C05BD040C255DF4FE881CC
:1036D000F981CE5AD0400082C255DF4F088119814E
:1036E000CE5AD0400F5F1F4FC255DF4F088319835A
:1036F000CE5AD040CE54DF4F1881C25BD04011501B
:10370000CE54DF4F1883C25BD040CE54DF4F2881A8
:10371000C25BD040222321F6CE018B569F4F0E94E0
:10372000A481CE018B569F4F46E854E2CD54DF4F23
:1037300048835983C35BD040CB54DF4F8883998340
:10374000C55BD04059E1C954DF4F5883C75BD040B7
:10375000CB54DF4FE881F981C55BD0400080CB546A
:10376000DF4F08811981C55BD0400F5F1F4FCB54DD
:10377000DF4F08831983C55BD040CD54DF4FE8810C
:10378000F981C35BD0400082CD54DF4F088119819D
:10379000C35BD0400F5F1F4FCD54DF4F08831983A9
:1037A000C35BD040C954DF4F1881C75BD040115074
:1037B000C954DF4F1883C75BD040C954DF4F2881FD
:1037C000C75BD040222321F680919B2490919C24BA
:1037D000A0919D24B0919E249C018091B42490914D
:1037E000B524A091B624B091B724A901481B590B68
:1037F000CA0180938424909385248D899E89AF8902
:10380000B88D805C9F4FAF4FBF4F8D8B9E8BAF8B22
:10381000B88F8D899E89AF89B88D813050E095072A
:1038200051E0A50750E0B50760F08D899E89AF890A
:10383000B88D80509040A140B0408D8B9E8BAF8B57
:10384000B88FCE018B569F4F0E94A481CE018B561C
:103850009F4FEFE9F4E2C854DF4FE883F983C85B78
:10386000D040C654DF4F88839983CA5BD040F9E1CA
:10387000C454DF4FF883CC5BD040C654DF4FE8819F
:10388000F981CA5BD0400080C654DF4F088119819E
:10389000CA5BD0400F5F1F4FC654DF4F08831983A8
:1038A000CA5BD040C854DF4FE881F981C85BD04083
:1038B0000082C854DF4F08811981C85BD0400F5F78
:1038C0001F4FC854DF4F08831983C85BD040C454CE
:1038D000DF4F1881CC5BD0401150C454DF4F1883A8
:1038E000CC5BD040C454DF4F2881CC5BD040222336
:1038F00021F68D899E890E94658B8B8B9C8BCE01D6
:103900008B569F4F0E94A481CE018B569F4F46E855
:1039100054E2C354DF4F48835983CD5BD040C15438
:10392000DF4F88839983CF5BD04059E1CF53DF4F7E
:103930005883C15CD040C154DF4FE881F981CF5B2F
:10394000D0400080C154DF4F08811981CF5BD04047
:103950000F5F1F4FC154DF4F08831983CF5BD040E7
:10396000C354DF4FE881F981CD5BD0400082C3545E
:10397000DF4F08811981CD5BD0400F5F1F4FC354CB
:10398000DF4F08831983CD5BD040CF53DF4F1881C1
:10399000C15CD0401150CF53DF4F1883C15CD04081
:1039A000CF53DF4F2881C15CD040222321F62091E4
:1039B0009B2430919C2440919D2450919E24809181
:1039C000B4249091B524A091B624B091B724790184
:1039D0008A01E81AF90A0A0B1B0BD801C701809368
:1039E000802490938124A0938224B09383242091F7
:1039F00080243091812440918224509183248091AD
:103A0000842490918524AA2797FDA095BA2F790147
:103A10008A01E81AF90A0A0B1B0BD801C701809327
:103A2000802490938124A0938224B0938324809156
:103A3000802490918124A0918224B0918324BB237F
:103A4000A4F48091802490918124A0918224B0914B
:103A50008324805C9D4BA04FBF4F80938024909324
:103A60008124A0938224B09383246D897E898F89D9
:103A7000988D0E94A5ACDC01CB01BC01CD0120EDED
:103A80003FE049EC50E40E940EAEDC01CB01BC01EA
:103A9000CD0120E030E040E857E40E94D2ABDC01E9
:103AA000CB018093782490937924A0937A24B093C7
:103AB0007B24CE018B569F4F0E94A481CE018B5652
:103AC0009F4F0FE914E2CE53DF4F08831983C25C86
:103AD000D040CC53DF4F88839983C45CD04019E138
:103AE000CA53DF4F1883C65CD040CC53DF4FE88108
:103AF000F981C45CD0400080CC53DF4F088119812C
:103B0000C45CD0400F5F1F4FCC53DF4F0883198335
:103B1000C45CD040CE53DF4FE881F981C25CD04015
:103B20000082CE53DF4F08811981C25CD0400F5F05
:103B30001F4FCE53DF4F08831983C25CD040CA5356
:103B4000DF4F1881C65CD0401150CA53DF4F188335
:103B5000C65CD040CA53DF4F2881C65CD0402223C8
:103B600021F68091782490917924A0917A24B091C3
:103B70007B24BC01CD010E94CFABDC01CB01898746
:103B80009A87AB87BC87CE018B569F4F0E94A4813A
:103B9000CE018B569F4F46E854E2C953DF4F48830E
:103BA0005983C75CD040C753DF4F88839983C95C72
:103BB000D04059E1C553DF4F5883CB5CD040C75349
:103BC000DF4FE881F981C95CD0400080C753DF4FE7
:103BD00008811981C95CD0400F5F1F4FC753DF4F69
:103BE00008831983C95CD040C953DF4FE881F9814C
:103BF000C75CD0400082C953DF4F08811981C75C80
:103C0000D0400F5F1F4FC953DF4F08831983C75C34
:103C1000D040C553DF4F1881CB5CD0401150C55305
:103C2000DF4F1883CB5CD040C553DF4F2881CB5C7E
:103C3000D040222321F68091782490917924A0917C
:103C40007A24B0917B24BC01CD010E9471AEDC01CD
:103C5000CB018D839E83AF83B88720919B243091C5
:103C60009C2440919D2450919E248091B424909155
:103C7000B524A091B624B091B72479018A01E81A3D
:103C8000F90A0A0B1B0BD801C70180937C2490937F
:103C90007D24A0937E24B0937F2480917C249091F6
:103CA0007D24A0917E24B0917F24BB23A4F4809135
:103CB0007C2490917D24A0917E24B0917F24805C0F
:103CC0009D4BA04FBF4F80937C2490937D24A09365
:103CD0007E24B0937F2420917C2430917D244091D8
:103CE0007E2450917F248091842490918524AA275A
:103CF00097FDA095BA2F79018A01E81AF90A0A0BF3
:103D00001B0BD801C70180937C2490937D24A09342
:103D10007E24B0937F248B899C89AA2797FDA09548
:103D2000BA2FBC01CD010E94A7ACDC01CB01BC01C4
:103D3000CD0120E030E040E057EC0E94D2ABDC0146
:103D4000CB01BC01CD0129853A854B855C850E945C
:103D500005ABDC01CB01BC01CD0120E030E048EC3B
:103D600052E40E940EAEDC01CB01BC01CD012985DD
:103D70003A854B855C850E94D2ABDC01CB01BF77D5
:103D800089839A83AB83BC8369857A858B859C857F
:103D900020E03EEF4FEF56E40E940EAEDC01CB0177
:103DA000BC01CD010E9474ACDC01CB018C0180917F
:103DB0007C2490917D24A0917E24B0917F24AA2719
:103DC00097FDA095BA2F20918024309181244091B5
:103DD000822450918324BC01CD010E9422B4DA01D7
:103DE000C9019C01AD018DB79EB740978DBF9EBFA5
:103DF000EDB7FEB73196CE0149968083918386EA6E
:103E000090E2828393838B899C8984839583068344
:103E1000178389819A81AB81BC8180879187A28732
:103E2000B38724873587468757870E947AB1EDB7D5
:103E3000FEB77096EDBFFEBF8D879E879E01275E01
:103E40003F4F82E4B9010E9487716D817E818F812D
:103E5000988520E03EEF4FEF56E40E940EAEDC0165
:103E6000CB01BC01CD010E9474ACDC01CB01898B7C
:103E70009A8B69857A858B859C8520E03EEF4FEF94
:103E800056E40E940EAEDC01CB01BC01CD010E94C4
:103E900074ACDC01CB018B8B9C8BCE018B569F4F7E
:103EA0000E94A481CE018B569F4F0FE914E2C453A8
:103EB000DF4F08831983CC5CD040C253DF4F888327
:103EC0009983CE5CD04019E1C053DF4F1883C05DA9
:103ED000D040C253DF4FE881F981CE5CD0400080F2
:103EE000C253DF4F08811981CE5CD0400F5F1F4F56
:103EF000C253DF4F08831983CE5CD040C453DF4FD9
:103F0000E881F981CC5CD0400082C453DF4F088146
:103F10001981CC5CD0400F5F1F4FC453DF4F088323
:103F20001983CC5CD040C053DF4F1881C05DD040B6
:103F30001150C053DF4F1883C05DD040C053DF4FD6
:103F40002881C05DD040222321F689899A892B8956
:103F50003C89B9010E94CA8B8F87988BCE018B5602
:103F60009F4F0E94A481CE018B569F4F46E854E29A
:103F7000CF52DF4F48835983C15DD040CD52DF4FD0
:103F800088839983C35DD04059E1CB52DF4F58837A
:103F9000C55DD040CD52DF4FE881F981C35DD0408F
:103FA0000080CD52DF4F08811981C35DD0400F5F83
:103FB0001F4FCD52DF4F08831983C35DD040CF52CE
:103FC000DF4FE881F981C15DD0400082CF52DF4FE1
:103FD00008811981C15DD0400F5F1F4FCF52DF4F65
:103FE00008831983C15DD040CB52DF4F1881C55D76
:103FF000D0401150CB52DF4F1883C55DD040CB521B
:10400000DF4F2881C55DD040222321F620919B24DB
:1040100030919C2440919D2450919E248091B42401
:104020009091B524A091B624B091B72479018A016A
:10403000E81AF90A0A0B1B0BD801C70180938024E8
:1040400090938124A0938224B09383242091802490
:104050003091812440918224509183248091842442
:1040600090918524AA2797FDA095BA2F79018A01FE
:10407000E81AF90A0A0B1B0BD801C70180938024A8
:1040800090938124A0938224B093832480918024F0
:1040900090918124A0918224B0918324BB23A4F425
:1040A0008091802490918124A0918224B0918324D6
:1040B000805C9D4BA04FBF4F8093802490938124C0
:1040C000A0938224B09383248091782490917924C2
:1040D000A0917A24B0917B24BC01CD0126EA3FE077
:1040E00049E450E40E9403AE1816D4F48091782479
:1040F00090917924A0917A24B0917B24BC01CD01C8
:1041000020ED3FE049EC50E40E9404ABDC01CB0120
:104110008093782490937924A0937A24B0937B247D
:104120008F859889AA2797FDA095BA2FBC01CD014C
:104130000E94A7ACDC01CB01BC01CD0120ED3FE02A
:1041400049E450E40E940EAEDC01CB01BC01CD017C
:1041500020E030E040E057EC0E94D2ABDC01CB0124
:10416000209178243091792440917A2450917B24B5
:10417000BC01CD010E9405ABDC01CB01BC01CD012E
:1041800020E030E048EC52E40E940EAEDC01CB01AE
:10419000209178243091792440917A2450917B2485
:1041A000BC01CD010E94D2ABDC01CB01BF7789837A
:1041B0009A83AB83BC83CE018B569F4F0E94A48110
:1041C000CE018B569F4F0FE914E2CA52DF4F08838E
:1041D0001983C65DD040C852DF4F88839983C85D7C
:1041E000D04019E1C652DF4F1883CA5DD040C85293
:1041F000DF4FE881F981C85DD0400080C852DF4FB1
:1042000008811981C85DD0400F5F1F4FC852DF4F32
:1042100008831983C85DD040CA52DF4FE881F98115
:10422000C65DD0400082CA52DF4F08811981C65D49
:10423000D0400F5F1F4FCA52DF4F08831983C65DFE
:10424000D040C652DF4F1881CA5DD0401150C652CF
:10425000DF4F1883CA5DD040C652DF4F2881CA5D48
:10426000D040222321F68D819E81AF81B88529859A
:104270003A854B855C85BC01CD010E9478ABDC01A1
:10428000CB018093782490937924A0937A24B093DF
:104290007B24CE018B569F4F0E94A481CE018B566A
:1042A0009F4F46E854E2C552DF4F48835983CB5DA8
:1042B000D040C352DF4F88839983CD5DD04059E110
:1042C000C152DF4F5883CF5DD040C352DF4FE881EA
:1042D000F981CD5DD0400080C352DF4F0881198144
:1042E000CD5DD0400F5F1F4FC352DF4F088319834E
:1042F000CD5DD040C552DF4FE881F981CB5DD04024
:104300000082C552DF4F08811981CB5DD0400F5F1D
:104310001F4FC552DF4F08831983CB5DD040C15278
:10432000DF4F1881CF5DD0401150C152DF4F18834D
:10433000CF5DD040C152DF4F2881CF5DD0402223D6
:1043400021F620919B2430919C2440919D245091F2
:104350009E248091B4249091B524A091B624B0916C
:10436000B72479018A01E81AF90A0A0B1B0BD80154
:10437000C70180937C2490937D24A0937E24B093E6
:104380007F2480917C2490917D24A0917E24B09103
:104390007F24BB23A4F480917C2490917D24A09160
:1043A0007E24B0917F24805C9D4BA04FBF4F8093B3
:1043B0007C2490937D24A0937E24B0937F2420912D
:1043C0007C2430917D2440917E2450917F248091E3
:1043D000842490918524AA2797FDA095BA2F79016E
:1043E0008A01E81AF90A0A0B1B0BD801C70180934E
:1043F0007C2490937D24A0937E24B0937F246985B0
:104400007A858B859C8520E03EEF4FEF56E40E9435
:104410000EAEDC01CB01BC01CD010E9474ACDC010D
:10442000CB018C0180917C2490917D24A0917E24ED
:10443000B0917F24AA2797FDA095BA2F20918024C0
:10444000309181244091822450918324BC01CD017C
:104450000E9422B4DA01C9019C01AD018DB79EB75B
:1044600040978DBF9EBFEDB7FEB73196CE014996FE
:104470008083918386ED90E2828393838B899C89EC
:10448000848395830683178389819A81AB81BC815C
:1044900080879187A287B387248735874687578788
:1044A0000E947AB1EDB7FEB77096EDBFFEBF8D8763
:1044B0009E879E01275E3F4F82E4B9010E9487716B
:1044C0008AE090E00E94208598C90F93DF93CF93F4
:1044D0000F92CDB7DEB788EB94E260E070E044E085
:1044E00050E00E94D0B08AE19BE161E070E040E0E2
:1044F00050E020E032E000E00E945B838093B8242B
:104500009093B9248091B8249091B924992334F4DC
:104510008091B8249091B924898316C08AE091E2F1
:1045200063E00E94226F8093BA249093BB24809111
:10453000BA249091BB24992334F48091BA249091A9
:10454000BB24898301C0198289810F90CF91DF91AB
:104550000F910895CF93DF930F920F92CDB7DEB7EF
:10456000E0911821F091192122813381E0911821E5
:10457000F09119210CC0E981FA810190F081E02DC0
:104580009081981769F021503040E981FA81408587
:10459000518549835A83121613066CF3E0E0F0E06C
:1045A000CF010F900F90DF91CF910895CF93DF93BC
:1045B0000F920F92CDB7DEB784E090E00E94B88AE8
:1045C00089839A8389819A8197FD0CC080911821F3
:1045D0009091192169817A8141E00E94C88889817E
:1045E0009A8102C08EEF9FEF0F900F90DF91CF91D5
:1045F0000895CF92DF92EF92FF920F931F93CF9384
:10460000DF930F920F92CDB7DEB78C017B01C42EE2
:10461000D22EDB018C918830C1F0893048F4813092
:1046200008F426C1833088F0843009F021C10DC020
:10463000803259F0813220F4803109F019C105C06F
:10464000803419F0803809F013C1F8019081982363
:1046500009F011C18C2D0E94AA22009709F080C098
:104660000E94D62289839A8389819A8197FD09C104
:10467000E981FA810190F081E02DC082D7018C910F
:10468000818312968D919C911397828393838C9151
:10469000883099F1893040F48230E9F0843021F19A
:1046A000813009F055C00EC08032C9F1813220F44A
:1046B000803109F04DC02AC08034D1F1803809F032
:1046C00047C03FC0F8018089D70111969C9111978E
:1046D000892B808B3DC0F8018189D70111969C916F
:1046E0001197892B818B34C0F8018289D7011196EB
:1046F0009C911197892B828B2BC0F8018389D7015C
:1047000011969C911197892B838B22C0F801848983
:10471000D70111969C911197892B848B19C0F801B0
:104720008589D70111969C911197892B858B10C093
:10473000F8018689D70111969C911197892B868B58
:1047400007C0F8018789D70111969C91892B878B27
:10475000F801818583608187D7018C91828785C02C
:104760008D2D0E94AA22009709F088C00E94D622AF
:1047700089839A8389819A8197FD83C0E981FA812F
:104780000190F081E02DD082D7018C918183129627
:104790008D919C911397828393838C91883099F1AA
:1047A000893040F48230E9F0843021F1813009F021
:1047B00055C00EC08032C9F1813220F4803109F039
:1047C0004DC02AC08034D1F1803809F047C03FC0C5
:1047D000F8018089D70111969C911197892B808BC4
:1047E0003DC0F8018189D70111969C911197892BC1
:1047F000818B34C0F8018289D70111969C91119761
:10480000892B828B2BC0F8018389D70111969C914B
:104810001197892B838B22C0F8018489D7011196C7
:104820009C911197892B848B19C0F8018589D70138
:1048300011969C911197892B858B10C0F801868960
:10484000D70111969C911197892B868B07C0F8018F
:104850008789D70111969C91892B878BF8018185D7
:104860008C608187D7018C91838789819A810BC065
:104870008FEF9FEF08C08AEF9FEF05C089EF9FEF92
:1048800002C08EEF9FEF0F900F90DF91CF911F919D
:104890000F91FF90EF90DF90CF900895FC01DB0126
:1048A00011968C911197882309F112969C91129779
:1048B000992311F0868301C0858311968C911197FD
:1048C000818311968C9111978093B00014968C91EE
:1048D0001497813029F0813040F0823031F402C0E9
:1048E00080E201C088E2808B01C0108A8C9188230D
:1048F000C1F011868C9182838C918093B0001396C5
:104900008C911397843029F0853029F0833041F45D
:1049100004C080E103C088E101C088E0808B089575
:10492000108A08951F920F920FB60F9208B60F9239
:1049300009B60F920BB60F9211242F933F934F930A
:104940005F936F937F938F939F93AF93BF93EF93F7
:10495000FF9380E00E94AA22DC01009751F012969A
:10496000ED91FC911397309721F080E011966C91B6
:104970001995FF91EF91BF91AF919F918F917F9189
:104980006F915F914F913F912F910F900BBE0F90C0
:1049900009BE0F9008BE0F900FBE0F901F90189584
:1049A0001F920F920FB60F9208B60F9209B60F9290
:1049B0000BB60F9211242F933F934F935F936F93F6
:1049C0007F938F939F93AF93BF93EF93FF9381E078
:1049D0000E94AA22DC01009751F01296ED91FC9101
:1049E0001397309721F080E011966C911995FF9103
:1049F000EF91BF91AF919F918F917F916F915F9157
:104A00004F913F912F910F900BBE0F9009BE0F90C9
:104A100008BE0F900FBE0F901F9018951F920F9217
:104A20000FB60F9208B60F9209B60F920BB60F92FF
:104A300011242F933F934F935F936F937F938F93A3
:104A40009F93AF93BF93EF93FF9382E00E94AA22BC
:104A5000DC01009751F01296ED91FC91139730977D
:104A600021F081E011966C911995FF91EF91BF9122
:104A7000AF919F918F917F916F915F914F913F91F6
:104A80002F910F900BBE0F9009BE0F9008BE0F9094
:104A90000FBE0F901F9018951F920F920FB60F9296
:104AA00008B60F9209B60F920BB60F9211242F93EE
:104AB0003F934F935F936F937F938F939F93AF93A6
:104AC000BF93EF93FF9383E00E94AA22DC0100973B
:104AD00051F01296ED91FC911397309721F081E0FF
:104AE00011966C911995FF91EF91BF91AF919F91A4
:104AF0008F917F916F915F914F913F912F910F9087
:104B00000BBE0F9009BE0F9008BE0F900FBE0F9006
:104B10001F9018951F920F920FB60F9208B60F9222
:104B200009B60F920BB60F9211242F933F934F9318
:104B30005F936F937F938F939F93AF93BF93EF9305
:104B4000FF9384E00E94AA22DC01009751F01296A4
:104B5000ED91FC911397309721F082E011966C91C2
:104B60001995FF91EF91BF91AF919F918F917F9197
:104B70006F915F914F913F912F910F900BBE0F90CE
:104B800009BE0F9008BE0F900FBE0F901F90189592
:104B90001F920F920FB60F9208B60F9209B60F929E
:104BA0000BB60F9211242F933F934F935F936F9304
:104BB0007F938F939F93AF93BF93EF93FF9385E082
:104BC0000E94AA22DC01009751F01296ED91FC910F
:104BD0001397309721F082E011966C911995FF910F
:104BE000EF91BF91AF919F918F917F916F915F9165
:104BF0004F913F912F910F900BBE0F9009BE0F90D8
:104C000008BE0F900FBE0F901F9018951F920F9225
:104C10000FB60F9208B60F9209B60F920BB60F920D
:104C200011242F933F934F935F936F937F938F93B1
:104C30009F93AF93BF93EF93FF9386E00E94AA22C6
:104C4000DC01009751F01296ED91FC91139730978B
:104C500021F083E011966C911995FF91EF91BF912E
:104C6000AF919F918F917F916F915F914F913F9104
:104C70002F910F900BBE0F9009BE0F9008BE0F90A2
:104C80000FBE0F901F9018951F920F920FB60F92A4
:104C900008B60F9209B60F920BB60F9211242F93FC
:104CA0003F934F935F936F937F938F939F93AF93B4
:104CB000BF93EF93FF9387E00E94AA22DC01009745
:104CC00051F01296ED91FC911397309721F083E00B
:104CD00011966C911995FF91EF91BF91AF919F91B2
:104CE0008F917F916F915F914F913F912F910F9095
:104CF0000BBE0F9009BE0F9008BE0F900FBE0F9015
:104D00001F9018951F920F920FB60F9208B60F9230
:104D100009B60F920BB60F9211242F933F934F9326
:104D20005F936F937F938F939F93AF93BF93EF9313
:104D3000FF9388E00E94AA22DC01009751F01296AE
:104D4000ED91FC911397309721F084E011966C91CE
:104D50001995FF91EF91BF91AF919F918F917F91A5
:104D60006F915F914F913F912F910F900BBE0F90DC
:104D700009BE0F9008BE0F900FBE0F901F901895A0
:104D80001F920F920FB60F9208B60F9209B60F92AC
:104D90000BB60F9211242F933F934F935F936F9312
:104DA0007F938F939F93AF93BF93EF93FF9389E08C
:104DB0000E94AA22DC01009751F01296ED91FC911D
:104DC0001397309721F084E011966C911995FF911B
:104DD000EF91BF91AF919F918F917F916F915F9173
:104DE0004F913F912F910F900BBE0F9009BE0F90E6
:104DF00008BE0F900FBE0F901F9018951F920F9234
:104E00000FB60F9208B60F9209B60F920BB60F921B
:104E100011242F933F934F935F936F937F938F93BF
:104E20009F93AF93BF93EF93FF938AE00E94AA22D0
:104E3000DC01009751F01296ED91FC911397309799
:104E400021F085E011966C911995FF91EF91BF913A
:104E5000AF919F918F917F916F915F914F913F9112
:104E60002F910F900BBE0F9009BE0F9008BE0F90B0
:104E70000FBE0F901F9018951F920F920FB60F92B2
:104E800008B60F9209B60F920BB60F9211242F930A
:104E90003F934F935F936F937F938F939F93AF93C2
:104EA000BF93EF93FF938BE00E94AA22DC0100974F
:104EB00051F01296ED91FC911397309721F085E017
:104EC00011966C911995FF91EF91BF91AF919F91C0
:104ED0008F917F916F915F914F913F912F910F90A3
:104EE0000BBE0F9009BE0F9008BE0F900FBE0F9023
:104EF0001F9018951F920F920FB60F9208B60F923F
:104F000009B60F920BB60F9211242F933F934F9334
:104F10005F936F937F938F939F93AF93BF93EF9321
:104F2000FF938CE00E94AA22DC01009751F01296B8
:104F3000ED91FC911397309721F086E011966C91DA
:104F40001995FF91EF91BF91AF919F918F917F91B3
:104F50006F915F914F913F912F910F900BBE0F90EA
:104F600009BE0F9008BE0F900FBE0F901F901895AE
:104F70001F920F920FB60F9208B60F9209B60F92BA
:104F80000BB60F9211242F933F934F935F936F9320
:104F90007F938F939F93AF93BF93EF93FF938DE096
:104FA0000E94AA22DC01009751F01296ED91FC912B
:104FB0001397309721F086E011966C911995FF9127
:104FC000EF91BF91AF919F918F917F916F915F9181
:104FD0004F913F912F910F900BBE0F9009BE0F90F4
:104FE00008BE0F900FBE0F901F9018951F920F9242
:104FF0000FB60F9208B60F9209B60F920BB60F922A
:1050000011242F933F934F935F936F937F938F93CD
:105010009F93AF93BF93EF93FF938EE00E94AA22DA
:10502000DC01009751F01296ED91FC9113973097A7
:1050300021F087E011966C911995FF91EF91BF9146
:10504000AF919F918F917F916F915F914F913F9120
:105050002F910F900BBE0F9009BE0F9008BE0F90BE
:105060000FBE0F901F9018951F920F920FB60F92C0
:1050700008B60F9209B60F920BB60F9211242F9318
:105080003F934F935F936F937F938F939F93AF93D0
:10509000BF93EF93FF938FE00E94AA22DC01009759
:1050A00051F01296ED91FC911397309721F087E023
:1050B00011966C911995FF91EF91BF91AF919F91CE
:1050C0008F917F916F915F914F913F912F910F90B1
:1050D0000BBE0F9009BE0F9008BE0F900FBE0F9031
:1050E0001F9018951F920F920FB60F9208B60F924D
:1050F00009B60F920BB60F9211242F933F934F9343
:105100005F936F937F938F939F93AF93BF93EF932F
:10511000FF9380E10E94AA22DC01009751F01296D1
:10512000ED91FC911397309721F088E011966C91E6
:105130001995FF91EF91BF91AF919F918F917F91C1
:105140006F915F914F913F912F910F900BBE0F90F8
:1051500009BE0F9008BE0F900FBE0F901F901895BC
:105160001F920F920FB60F9208B60F9209B60F92C8
:105170000BB60F9211242F933F934F935F936F932E
:105180007F938F939F93AF93BF93EF93FF9381E1AF
:105190000E94AA22DC01009751F01296ED91FC9139
:1051A0001397309721F088E011966C911995FF9133
:1051B000EF91BF91AF919F918F917F916F915F918F
:1051C0004F913F912F910F900BBE0F9009BE0F9002
:1051D00008BE0F900FBE0F901F9018951F920F9250
:1051E0000FB60F9208B60F9209B60F920BB60F9238
:1051F00011242F933F934F935F936F937F938F93DC
:105200009F93AF93BF93EF93FF9382E10E94AA22F3
:10521000DC01009751F01296ED91FC9113973097B5
:1052200021F089E011966C911995FF91EF91BF9152
:10523000AF919F918F917F916F915F914F913F912E
:105240002F910F900BBE0F9009BE0F9008BE0F90CC
:105250000FBE0F901F9018951F920F920FB60F92CE
:1052600008B60F9209B60F920BB60F9211242F9326
:105270003F934F935F936F937F938F939F93AF93DE
:10528000BF93EF93FF9383E10E94AA22DC01009772
:1052900051F01296ED91FC911397309721F089E02F
:1052A00011966C911995FF91EF91BF91AF919F91DC
:1052B0008F917F916F915F914F913F912F910F90BF
:1052C0000BBE0F9009BE0F9008BE0F900FBE0F903F
:1052D0001F9018951F920F920FB60F9208B60F925B
:1052E00009B60F920BB60F9211242F933F934F9351
:1052F0005F936F937F938F939F93AF93BF93EF933E
:10530000FF9384E10E94AA22DC01009751F01296DB
:10531000ED91FC911397309721F08AE011966C91F2
:105320001995FF91EF91BF91AF919F918F917F91CF
:105330006F915F914F913F912F910F900BBE0F9006
:1053400009BE0F9008BE0F900FBE0F901F901895CA
:105350001F920F920FB60F9208B60F9209B60F92D6
:105360000BB60F9211242F933F934F935F936F933C
:105370007F938F939F93AF93BF93EF93FF9385E1B9
:105380000E94AA22DC01009751F01296ED91FC9147
:105390001397309721F08AE011966C911995FF913F
:1053A000EF91BF91AF919F918F917F916F915F919D
:1053B0004F913F912F910F900BBE0F9009BE0F9010
:1053C00008BE0F900FBE0F901F901895CF93DF93DC
:1053D00000D000D0CDB7DEB72A833B834C835D83FA
:1053E0006E839FB79983F894853069F1863070F4A5
:1053F000823001F1833028F48823B1F08130D9F56F
:1054000016C08330D1F08430B1F51AC0883021F154
:10541000893028F48630D1F0873069F51AC0893098
:10542000F1F08A3041F51EC080E096E01DC080E2B8
:1054300096E01AC080E496E017C080E696E014C0BB
:1054400080E896E011C080EA96E00EC080EE96E01B
:105450000BC080E097E008C080E297E005C080ECD8
:1054600097E002C080EE97E0BE016E5F7F4F0E9422
:105470004E2480E001C08CEF99819FBF2696CDBF5E
:10548000DEBFDF91CF910895CF93DF93CDB7DEB725
:105490002797CDBFDEBF4C835D836E837F839FB72D
:1054A0009983F894853009F44CC0863080F48230BA
:1054B00081F1833030F48823E1F0813009F079C044
:1054C00020C0833071F1843009F073C032C088305D
:1054D00009F44FC0893030F48630D9F1873009F0B3
:1054E00068C03FC0893009F44CC08A3009F061C0FF
:1054F00050C080E096E0BE016C5F7F4F40E021E04D
:105500004FC080E296E0BE016C5F7F4F42E023E037
:1055100047C080E496E0BE016C5F7F4F44E025E029
:105520003FC080E696E0BE016C5F7F4F46E027E01B
:1055300037C080E896E0BE016C5F7F4F48E029E00D
:105540002FC080EA96E0BE016C5F7F4F4AE02BE0FF
:1055500027C080EE96E0BE016C5F7F4F4CE02DE0EF
:105560001FC080E097E0BE016C5F7F4F4EE02FE0F0
:1055700017C080E297E0BE016C5F7F4F40E121E100
:105580000FC080EC97E0BE016C5F7F4F42E123E1EA
:1055900007C080EE97E0BE016C5F7F4F44E125E1DC
:1055A0000E94F9228A839B8389818FBF8A819B8194
:1055B00004C089818FBF8CEF9FEF2796CDBFDEBFE0
:1055C000DF91CF910895CF93DF9300D0CDB7DEB7B1
:1055D0008A839B838FB78983F894EA81FB818091CA
:1055E000182190911921248135812817390721F03C
:1055F00089818FBF88EF91C0EA81FB810190F081A2
:10560000E02DE081F0E0E631F10508F07BC0E650E6
:10561000FF4FEE0FFF1F0590F491E02D1994E0E08D
:10562000F6E08091090609C0E0E0F6E08091090605
:1056300066C0E0E2F6E0809129068C7F81871286C1
:1056400061C0E0E2F6E08091290659C0E0E4F6E0AE
:1056500080914906F2CFE0E4F6E0809149064FC020
:10566000E0E6F6E080916906E8CFE0E6F6E08091BA
:10567000690645C0E0E8F6E080918906DECFE0E803
:10568000F6E0809189063BC0E0EAF6E08091A90649
:10569000D4CFE0EAF6E08091A90631C0E0EEF6E072
:1056A0008091E906CACFE0EEF6E08091E90627C0D6
:1056B000E0E0F7E080910907C0CFE0E0F7E08091FB
:1056C00009071DC0E0E2F7E080912907B6CFE0E2CC
:1056D000F7E08091290713C0E0ECF7E08091C9075B
:1056E000ACCFE0ECF7E08091C90709C0E0EEF7E04D
:1056F0008091E907A2CFE0EEF7E08091E907837F90
:105700008187138680911821909119216A817B816C
:105710000E94C48989818FBF80E02396CDBFDEBF00
:10572000DF91CF9108950F931F93CF93DF938C0157
:10573000DB01EC018E81882309F0D4C014968D9191
:105740009C9115971296CD91DC9113971C96ED9133
:10575000FC911D970780F085E02D21E282349207AD
:1057600049F023811896ED91FC911997E80FF91FE4
:10577000208303C083818093422118962D913C9110
:1057800019972F5F3F4F18962D933C9319971696B4
:105790008D919C9117972817390780F41C96ED91ED
:1057A000FC911D970780F085E02D41E2C234D407BB
:1057B00011F0C20FD31F888183831EC150968C9134
:1057C0005097882309F47DC01B968C911B971A96DD
:1057D0009C911A97953009F44AC0963080F4923023
:1057E00081F1933030F49923E1F0913009F069C0F0
:1057F00020C0933071F1943009F063C031C098300B
:1058000009F44AC0993030F49630C1F1973009F06C
:1058100058C03BC0993009F446C09A3009F051C0D5
:1058200049C090910006982309F44BC0E0E0F6E0EF
:1058300047C090912006982309F443C0E0E2F6E0C7
:105840003FC090914006982309F43BC0E0E4F6E0A5
:1058500037C0909160069823A1F1E0E6F6E030C0F1
:1058600090918006982369F1E0E8F6E029C09091D4
:10587000A006982331F1E0EAF6E022C09091E0061C
:105880009823F9F0E0EEF6E01BC090910007982312
:10589000C1F0E0E0F7E014C090912007982389F070
:1058A000E0E2F7E00DC09091C007982351F0E0ECE2
:1058B000F7E006C09091E007982319F0E0EEF7E0DA
:1058C0008583ED91FC911197309749F018966D9171
:1058D0007C91199714968D919C9115971995E801D3
:1058E00019868AC01B969C911B971A968C911A97C1
:1058F000853069F1863070F4823001F1833028F40C
:105900008823B1F08130B9F516C08330D1F08430EE
:1059100091F51AC0883021F1893028F48630D1F011
:10592000873049F51AC08930F1F08A3021F51EC060
:10593000809108061DC0809128061AC080914806F3
:1059400017C08091680614C08091880611C08091AC
:10595000A8060EC08091E8060BC08091080708C019
:105960008091280705C08091C80702C08091E80790
:10597000892309F041C014968D919C911597129638
:105980002D913C9113971C96ED91FC911D970780EA
:10599000F085E02DD1E282349D0749F043811896CD
:1059A000ED91FC911997E80FF91F408303C08381A3
:1059B000809342211C96ED91FC911D9741E2223487
:1059C000340759F0C781D0851896ED91FC9119974D
:1059D000E20FF31F80818B8306C00780F085E02DE6
:1059E000E9018881838318968D919C91199701967E
:1059F00018968D939C931997DF91CF911F910F91DA
:105A00000895CF93DF930F920F92CDB7DEB7E09159
:105A10003421F091352122813381E0913421F091BC
:105A200035210CC0E981FA810190F081E02D90814F
:105A3000981769F021503040E981FA8140855185FD
:105A400049835A83121613066CF3E0E0F0E0CF01AD
:105A50000F900F90DF91CF9108950F931F93CF93E5
:105A6000DF938C01EB018C819D8121E282349207CE
:105A700019F481E090E005C0F801808991890E94C5
:105A8000DA4D888799878889882309F479C08B85BE
:105A90009A85953009F44AC0963080F4923081F1AD
:105AA000933030F49923E1F0913009F069C020C0BF
:105AB000933071F1943009F063C031C0983009F42B
:105AC0004AC0993030F49630C1F1973009F058C08F
:105AD0003BC0993009F446C09A3009F051C049C022
