:100000000C942C0C0C94630C0C94CE290C940C2A9C
:100010000C94AE2D0C94EC2D0C9414220C945F22B5
:100020000C94AA220C94F5220C94630C0C94630C8F
:100030000C94804D0C944B4D0C944B410C945140BE
:100040000C945F400C949A400C94D5400C94104151
:100050000C94FC410C94630C0C9486410C94C141AB
:100060000C948A320C94F5520C942B530C94630C20
:100070000C9461530C9497530C94630C0C94630C84
:100080000C94630C0C94630C0C9452290C949029DE
:100090000C94630C0C94630C0C94630C0C94BE20B5
:1000A0000C94FD200C943C210C947B210C94C62ACA
:1000B0000C94042B0C94544E0C941F4E0C94FB4443
:1000C0000C94630C0C940F440C944A440C94854497
:1000D0000C94C0440C94AC450C94630C0C943645C1
:1000E0000C9471450C94FA320C94A5540C94DB5486
:1000F0000C94630C0C9411550C9447550C94630CA0
:100100000C944A2A0C94882A0C94D6280C9414290E
:100110000C94630C0C94630C0C94630C0C94C21F31
:100120000C9401200C9440200C947F200C94EA4DF8
:100130000C94B54D0C9423430C94630C0C943742EF
:100140000C9472420C94AD420C94E8420C94D4434B
:100150000C94630C0C945E430C9499430C94C2323F
:100160000C94CD530C9403540C94630C0C9439549C
:100170000C946F540C94630C0C94322D0C94702DD1
:100180000C94BE2B0C94FC2B0C943A2C0C94782CD5
:100190000C94B62C0C94F42C0C94630C0C94630CFF
:1001A0000C94422B0C94802B0C94BE4E0C94894ED4
:1001B0000C94D3460C94630C0C94E7450C942246A3
:1001C0000C945D460C9498460C9484470C94630CF4
:1001D0000C940E470C9449470C9432330C947D5583
:1001E0000C94B3550C94630C0C94E9550C941F5665
:1001F0000C94630C1B63007C3C3E5E2B3D3F2F5BED
:100200005D3B2C2A225C00496E76616C6964207427
:100210006F6B656E2073697A650A0D00496E7661B1
:100220006C6964206E756D626572206F6620746FF4
:100230006B656E730A0D007363740068656C700003
:1002400073646C0064657600746F70006C73007288
:100250006D002D7200726D646972006D6B6469725D
:10026000006364002F006865616400496E76616C0C
:10027000696420434D440A0D002E2D2D2D2D2D2D6A
:100280002D2D2D2D2D2D2D2D2D2D2D2D2D2D2D2D9E
:100290002D2D2D2D2D2D2D2D2D2D2D2D2D2D2D2D8E
:1002A0002D2D2D2D2D2D2D2D2D2D2D2D2D2D2D2D7E
:1002B0002D2D2D2D2D2D2D2D2D2D2D2D2D2D2D2D6E
:1002C0002D2D2E0A0D007C20436F6D6D616E642014
:1002D0007C2020202020417267756D656E7473202C
:1002E000202020207C2020202020202020202020B2
:1002F0002020204465736372697074696F6E2020DA
:100300002020202020202020202020202020207C91
:100310000A0D007C2D2D2D2D2D2D2D2D2D7C2D2DDF
:100320002D2D2D2D2D2D2D2D2D2D2D2D2D2D2D2DFD
:100330002D7C2D2D2D2D2D2D2D2D2D2D2D2D2D2D9E
:100340002D2D2D2D2D2D2D2D2D2D2D2D2D2D2D2DDD
:100350002D2D2D2D2D2D2D2D2D2D2D2D7C0A0D00EE
:100360007C2073646C20202020207C203C617267FC
:10037000313E2020202020202020202020207C20F2
:1003800053657420746865206465627567206C65C8
:1003900076656C2C207768657265203C61726731E8
:1003A0003E203D2020202020207C0A0D007C2020A3
:1003B000202020202020207C2020202020202020E1
:1003C00020202020202020202020207C20302C31A4
:1003D0002C3220286C6F772C206D65642C20686986
:1003E0006768292020202020202020202020202075
:1003F0002020202020207C0A0D007C2064657620AF
:10040000202020207C202020202020202020202090
:1004100020202020202020207C2052657475726EC0
:10042000732061206C697374206F66206163746946
:10043000766520647269766572732E2020202020F4
:100440002020207C0A0D007C20746F70202020204A
:10045000207C202020202020202020202020202040
:1004600020202020207C20446973706C61797320E7
:1004700073797374656D20737461746973746963DF
:10048000732E20202020202020202020202020200B
:100490007C0A0D007C206C732020202020207C20F2
:1004A0003C617267313E2020202020202020202027
:1004B00020207C20446973706C61797320746865B6
:1004C00020636F6E74656E7473206F66206469724A
:1004D000203C617267313E2E20202020207C0A0DB6
:1004E000007C2063642020202020207C203C61723E
:1004F00067313E2020202020202020202020207C2A
:10050000204368616E676520746F20646972203CC7
:10051000617267313E2E20202020202020202020C4
:10052000202020202020202020207C0A0D007C205C
:10053000726D2020202020207C203C617267313E9B
:100540002020202020202020202020207C205265D8
:100550006D6F766520612066696C65203C6172670D
:10056000313E2E202020202020202020202020204E
:10057000202020202020207C0A0D007C20726D6429
:1005800069722020207C203C617267313E2020204F
:100590002020202020202020207C2052656D6F7696
:1005A000652061206469726563746F72792E202002
:1005B000202020202020202020202020202020203B
:1005C000202020207C0A0D007C206D6B6469722045
:1005D00020207C203C617267313E2020202020209A
:1005E0002020202020207C204372656174652061DA
:1005F000206469726563746F7279203C617267313F
:100600003E2E2020202020202020202020202020BE
:10061000207C0A0D007C20746F7563682020207C8C
:10062000203C617267313E202020202020202020A5
:100630002020207C204372656174652066696C65AA
:10064000203C617267313E2E202020202020202077
:1006500020202020202020202020202020207C0A54
:100660000D007C2068656164202020207C203C6196
:100670007267313E202020202020202020202020B2
:100680007C205072696E747320612066696C6520ED
:100690003C617267313E20746F2074686520746518
:1006A000726D696E616C2E202020207C0A0D00275F
:1006B0002D2D2D2D2D2D2D2D2D272D2D2D2D2D2D70
:1006C0002D2D2D2D2D2D2D2D2D2D2D2D2D272D2D60
:1006D0002D2D2D2D2D2D2D2D2D2D2D2D2D2D2D2D4A
:1006E0002D2D2D2D2D2D2D2D2D2D2D2D2D2D2D2D3A
:1006F0002D2D2D2D2D2D2D2D270A0D00496E7661C6
:100700006C6964204C6576656C0A0D005468652040
:1007100027456E7465722720627574746F6E20773A
:10072000696C6C20656E61626C652F6469736162CF
:100730006C65206120646562756767696E67207308
:10074000657373696F6E2E20507265737320274531
:100750006E7465722720746F20626567696E2E2E35
:100760002E0A0D002E2D2D2D2D2D2D2D2D2D2D2D27
:100770002D2D2D2D2D2D2D2D2D2D2D2D2D2D2D2DA9
:100780002D2D2D2D2D2D2D2D2D2D2D2D2D2D2D2D99
:100790002D2D2D2D2D2D2D2D2D2D2D2D2D2D2D2D89
:1007A0002D2D2E0A0D007C20202044726976657262
:1007B000204E616D652020207C204D616A6F722083
:1007C0004E756D626572207C204D696E6F72204E91
:1007D000756D6265727C2023206F662048616E64AF
:1007E0006C6573207C0A0D007C2D2D2D2D2D2D2D5B
:1007F0002D2D2D2D2D2D2D2D2D2D7C2D2D2D2D2DDA
:100800002D2D2D2D2D2D2D2D2D7C2D2D2D2D2D2DC9
:100810002D2D2D2D2D2D2D7C2D2D2D2D2D2D2D2DB9
:100820002D2D2D2D2D2D7C0A0D007C20253136738C
:100830007C20253264202020202020202020202001
:100840007C20253264202020202020202020207C95
:100850002025326420202020202020202020207CE1
:100860000A0D00272D2D2D2D2D2D2D2D2D2D2D2D2E
:100870002D2D2D2D2D272D2D2D2D2D2D2D2D2D2DAE
:100880002D2D2D2D272D2D2D2D2D2D2D2D2D2D2D9E
:100890002D2D272D2D2D2D2D2D2D2D2D2D2D2D2D8E
:1008A0002D270A0D002E2D2D2D2D2D2D2D2D2D2EEC
:1008B0002D2D2D2D2D2D2D2D2D2D2D2D2D2D2D2E67
:1008C0002D2D2D2D2D2D2D2D2D2D2D2D2D2D2D2E57
:1008D0000A0D007C2053656374696F6E207C2020B4
:1008E000202041646472657373202020207C2020C6
:1008F0002053697A6520427974657320207C0A0D43
:10090000007C2D2D2D2D2D2D2D2D2D7C2D2D2D2DA6
:100910002D2D2D2D2D2D2D2D2D2D2D7C2D2D2D2DB8
:100920002D2D2D2D2D2D2D2D2D2D2D7C0A0D007CC9
:100930002020202E64617461207C20202020202033
:10094000202030782578207C2025313364207C0AD3
:100950000D007C202020202E627373207C2020201C
:10096000202020202030782578207C2025313364F9
:10097000207C0A0D007C2020202E68656170207C80
:10098000202020202020202030782578207C202541
:10099000313364207C0A0D00272D2D2D2D2D2D2D7A
:1009A0002D2D272D2D2D2D2D2D2D2D2D2D2D2D2D7D
:1009B0002D2D272D2D2D2D2D2D2D2D2D2D2D2D2D6D
:1009C0002D2D270A0D007C557365642052414D2062
:1009D0007C202020202020202020202020202020BB
:1009E0007C2025313364207C0A0D007C20202020CF
:1009F00020202020207C202020202020202020209B
:100A000020202020207C20253132642525207C0ACE
:100A10000D00272D2D2D2D2D2D2D2D2D272D2D2D5F
:100A20002D2D2D2D2D2D2D2D2D2D2D2D272D2D2DFC
:100A30002D2D2D2D2D2D2D2D2D2D2D2D270A0D005C
:100A40007C467265652052414D207C20202020206C
:100A5000202020202020202020207C2025313364CD
:100A6000207C0A0D007C2020202020202020207CBB
:100A70002020202020202020202020202020207C1A
:100A800020253132642525207C0A0D00272D2D2DAF
:100A90002D2D2D2D2D2D272D2D2D2D2D2D2D2D2D8C
:100AA0002D2D2D2D2D2D272D2D2D2D2D2D2D2D2D7C
:100AB0002D2D2D2D2D2D270A0D007C537973204CC3
:100AC0006F61642061667465722031206D696E7596
:100AD000746520207C202531322E31662525207C2E
:100AE0000A0D00272D2D2D2D2D2D2D2D2D2D2D2DAC
:100AF0002D2D2D2D2D2D2D2D2D2D2D2D2D272D2D2C
:100B00002D2D2D2D2D2D2D2D2D2D2D2D2D270A0D5E
:100B1000007C537973204C6F616420616674657248
:100B20002035206D696E75746573207C2025313207
:100B30002E31662525207C0A0D00272D2D2D2D2DEB
:100B40002D2D2D2D2D2D2D2D2D2D2D2D2D2D2D2DD5
:100B50002D2D2D2D272D2D2D2D2D2D2D2D2D2D2DCB
:100B60002D2D2D2D270A0D000D0A5072657373204F
:100B700027456E7465722720746F20726573756DDA
:100B8000652C2027712720746F2073746F702E0AD4
:100B90000D005B253032643A005B2532643A002553
:100BA0003032643A002532643A00253032643A002B
:100BB0002532643A0025303033645D202000253032
:100BC00033645D2020002533645D20200061726263
:100BD0005F73797354696D657253746172742066C2
:100BE00061696C656420776974682025642E0A0D3C
:100BF000002E2D2D2D2D2D2D2D2D2D2D2D2D2D2D51
:100C00002D2D2D2D2D2D2D2D2D2D2D2D2D2D2D2D14
:100C10002D2D2D2D2D2D2D2D2D2D2D2D2D2D2D2D04
:100C20002D2D2D2D2D2D2D2D2D2D2D2D2D2D2D2DF4
:100C30002D2D2D2D2D2D2D2D2D2D2E0A0D007C2011
:100C4000436F6D6D616E64207C20202020204172F6
:100C500067756D656E747320202020207C20202015
:100C60002020202020202020202020446573637233
:100C7000697074696F6E20202020202020202020A1
:100C8000202020202020207C0A0D007C2D2D2D2DC1
:100C90002D2D2D2D2D7C2D2D2D2D2D2D2D2D2D2D35
:100CA0002D2D2D2D2D2D2D2D2D7C2D2D2D2D2D2D25
:100CB0002D2D2D2D2D2D2D2D2D2D2D2D2D2D2D2D64
:100CC0002D2D2D2D2D2D2D2D2D2D2D2D2D2D2D2D54
:100CD0002D2D2D2D7C0A0D007C20756C742020207C
:100CE00020207C20202020202020202020202020A8
:100CF0002020202020207C20506572666F726D734A
:100D000020612055415254206C6F6F706261636B9B
:100D100020746573742E2020202020202020202085
:100D2000207C0A0D007C20746C7420202020207C04
:100D300020202020202020202020202020202020B3
:100D40002020207C20506572666F726D73206120B8
:100D5000545749206C6F6F706261636B20746573C8
:100D6000742E2020202020202020202020207C0ADB
:100D70000D007C2074677420202020207C202020FF
:100D80002020202020202020202020202020202063
:100D90007C20506572666F726D732061207465737C
:100DA00074207573696E6720612074696D657220A7
:100DB000616E642032206770696F737C0A0D007C5D
:100DC00020736C7420202020207C202020202020D4
:100DD000202020202020202020202020207C205087
:100DE0006572666F726D73206120535049206C6F7D
:100DF0006F706261636B20746573742E20202020F5
:100E000020202020202020207C0A0D00272D2D2DA1
:100E10002D2D2D2D2D2D272D2D2D2D2D2D2D2D2D08
:100E20002D2D2D2D2D2D2D2D2D2D272D2D2D2D2DF8
:100E30002D2D2D2D2D2D2D2D2D2D2D2D2D2D2D2DE2
:100E40002D2D2D2D2D2D2D2D2D2D2D2D2D2D2D2DD2
:100E50002D2D2D2D2D270A0D002E2D2D2D2D2D2D37
:100E60002D2D2D2D2D2D2D2D2D2D2D2D2D2D2D2DB2
:100E70002D2D2D2D2D2D2D2D2D2D2D2D2D2D2D2DA2
:100E80002D2D2D2D2D2D2D2D2D2D2D2D2D2D2D2D92
:100E90002D2D2D2D2D2D2D2D2D2D2D2D2D2D2D2D82
:100EA0002D2D2E0A0D007C202020202020202054D3
:100EB00065737420202020202020207C20202020EA
:100EC0002020202020204465736372697074696F4C
:100ED0006E202020202020202020207C2020202068
:100EE0002020205365747570202020202020207C35
:100EF0000A0D007C2D2D2D2D2D2D2D2D2D2D2D2D43
:100F00002D2D2D2D2D2D2D2D7C2D2D2D2D2D2D2DC2
:100F10002D2D2D2D2D2D2D2D2D2D2D2D2D2D2D2D01
:100F20002D2D2D2D2D2D2D2D7C2D2D2D2D2D2D2DA2
:100F30002D2D2D2D2D2D2D2D2D2D2D2D7C0A0D0002
:100F40007C2055415254206C6F6F706261636B203E
:100F500074657374207C204C6F6F707320626163C2
:100F60006B2061206D6573736167652062657477BE
:100F700065656E20207C20436F6E6E656374207003
:100F8000696E732050453620207C0A0D007C20209D
:100F90002020202020202020202020202020202051
:100FA00020207C2074686520636F6E736F6C6520F1
:100FB000616E64207573725F706C6174666F726DC0
:100FC0002D207C20616E64205045372E202020206B
:100FD0002020202020207C0A0D007C2020202020A2
:100FE0002020202020202020202020202020207CA5
:100FF000205465737420746872656164732075731E
:10100000696E672055415254362C2074776F207CCE
:1010100020202020202020202020202020202020D0
:101020002020207C0A0D007C202020202020202051
:101030002020202020202020202020207C20444D03
:101040004127732C20616E642074776F206D616975
:101050006C626F78206D6F64756C65737C202020E6
:101060002020202020202020202020202020202080
:101070007C0A0D00272D2D2D2D2D2D2D2D2D2D2DC7
:101080002D2D2D2D2D2D2D2D2D272D2D2D2D2D2D96
:101090002D2D2D2D2D2D2D2D2D2D2D2D2D2D2D2D80
:1010A0002D2D2D2D2D2D2D2D2D272D2D2D2D2D2D76
:1010B0002D2D2D2D2D2D2D2D2D2D2D2D2D270A0DA9
:1010C000007C20545749206C6F6F706261636B2005
:1010D0007465737420207C204C6F6F707320626184
:1010E000636B2061206D6573736167652062657451
:1010F0007765656E20207C20436F6E6E656374207B
:1011000070696E732050443020207C0A0D007C20D2
:1011100020202020202020202020202020202020CF
:101120002020207C2074686520636F6E736F6C656F
:1011300020616E64207573725F706C6174666F728B
:101140006D2D207C20616E6420504530206173201D
:1011500077656C6C2061737C0A0D007C2020202058
:10116000202020202020202020202020202020207F
:101170007C20546573742074687265616473207593
:1011800073696E6720545749322C205457493320D5
:101190007C2070696E732050443120616E64205051
:1011A00045312E207C0A0D007C202020202020208C
:1011B000202020202020202020202020207C206192
:1011C0006E642074776F206D61696C626F78206D3A
:1011D0006F64756C65732E2020202020207C2020D9
:1011E00020202020202020202020202020202020FF
:1011F000207C0A0D00272D2D2D2D2D2D2D2D2D2D53
:101200002D2D2D2D2D2D2D2D2D2D272D2D2D2D2D14
:101210002D2D2D2D2D2D2D2D2D2D2D2D2D2D2D2DFE
:101220002D2D2D2D2D2D2D2D2D2D272D2D2D2D2DF4
:101230002D2D2D2D2D2D2D2D2D2D2D2D2D2D270A07
:101240000D007C20535049206C6F6F706261636B9E
:10125000207465737420207C204C6F6F7073206243
:1012600061636B2061206D657373616765206265E2
:10127000747765656E20207C20436F6E6E656374A5
:101280002070696E732050463520207C0A0D007C4A
:10129000202020202020202020202020202020204E
:1012A000202020207C2074686520636F6E736F6C33
:1012B0006520616E64207573725F706C6174666F17
:1012C000726D2D207C20616E64205046362E2020C9
:1012D00020202020202020207C0A0D007C2020209F
:1012E00020202020202020202020202020202020FE
:1012F000207C205465737420746872656164732067
:101300007573696E672053504932202020202020B9
:10131000207C202020202020202020202020202071
:1013200020202020207C0A0D007C2020202020204E
:1013300020202020202020202020202020207C2051
:10134000616E642074776F206D61696C626F7820C4
:101350006D6F64756C65732E2020202020207C200A
:10136000202020202020202020202020202020207D
:1013700020207C0A0D00272D2D2D2D2D2D2D2D2DDE
:101380002D2D2D2D2D2D2D2D2D2D2D272D2D2D2D93
:101390002D2D2D2D2D2D2D2D2D2D2D2D2D2D2D2D7D
:1013A0002D2D2D2D2D2D2D2D2D2D2D272D2D2D2D73
:1013B0002D2D2D2D2D2D2D2D2D2D2D2D2D2D2D2763
:1013C0000A0D0053656C656374206E756D626572FD
:1013D000206F6620747269616C732028303C2D3E4A
:1013E0003130303030292C20707265737320656E77
:1013F0007465722D3E2000496E76616C69642043ED
:101400004D440A0D00456E74657220746865207441
:10141000657374206D6573736167652D3E20004DA3
:1014200065737361676520746F6F206269672066FA
:101430006F72206D61696C626F782E0A0D000A0D63
:1014400000546573742066696E69736865642E2044
:101450005265636569766564202564206F75742024
:101460006F66202564206D657373616765732077EF
:10147000697468202564206572726F72732E0A0D7C
:10148000002E2D2D2D2D2D2D2D2D2D2D2D2D2D2DB8
:101490002D2D2D2D2D2D2D2D2D2D2D2D2D2D2D2D7C
:1014A0002D2D2D2D2D2D2D2D2D2D2D2D2D2D2D2D6C
:1014B0002D2D2D2D2D2D2D2D2D2D2D2D2D2D2D2D5C
:1014C0002D2D2D2D2D2D2D2D2D2D2E0A0D007C2079
:1014D00020202020202020546573742020202020EC
:1014E0002020207C20202020202020202020446537
:1014F000736372697074696F6E2020202020202031
:101500002020207C2020202020202053657475700E
:10151000202020202020207C0A0D007C2D2D2D2D28
:101520002D2D2D2D2D2D2D2D2D2D2D2D2D2D2D2DEB
:101530007C2D2D2D2D2D2D2D2D2D2D2D2D2D2D2D8C
:101540002D2D2D2D2D2D2D2D2D2D2D2D2D2D2D2DCB
:101550007C2D2D2D2D2D2D2D2D2D2D2D2D2D2D2D6C
:101560002D2D2D2D7C0A0D007C2054696D65722F68
:101570004750494F2074657374202020207C2045FB
:101580006E61626C65732054494D45525F3120771E
:101590006869636820676F6573206F66667C2043A7
:1015A0006F6E6E6563742070696E732050483320CF
:1015B000207C0A0D007C20202020202020202020BC
:1015C000202020202020202020207C2061742061E9
:1015D000206F6E65207365636F6E64207261746541
:1015E0002E2054686520202020207C20616E6420FD
:1015F0005048342E202020202020202020207C0A2B
:101600000D007C20202020202020202020202020B1
:10161000202020202020207C2074696D6572207499
:101620006F67676C6573204750494F5F322077685A
:10163000696368202020207C20202020202020207A
:1016400020202020202020202020207C0A0D007C2B
:10165000202020202020202020202020202020208A
:10166000202020207C2063617573657320616E20CB
:10167000696E74657272757074206F6E2047504980
:101680004F5F312E7C202020202020202020202071
:1016900020202020202020207C0A0D00272D2D2D09
:1016A0002D2D2D2D2D2D2D2D2D2D2D2D2D2D2D2D6A
:1016B0002D272D2D2D2D2D2D2D2D2D2D2D2D2D2D60
:1016C0002D2D2D2D2D2D2D2D2D2D2D2D2D2D2D2D4A
:1016D0002D272D2D2D2D2D2D2D2D2D2D2D2D2D2D40
:1016E0002D2D2D2D2D270A0D0053656C656374205B
:1016F0006E756D626572206F6620747269616C73BD
:101700002028303C2D3E3130303030292C20707272
:1017100065737320656E7465722D3E2000496E7688
:10172000616C696420434D440A0D0054696D657213
:1017300020696E746572727570742E2E2E0A0D00FB
:10174000546573742066696E69736865642E0A0D4A
:10175000006E616E00696E660000407A10F35A00F8
:10176000A0724E18090010A5D4E80000E8764817CA
:101770000000E40B54020000CA9A3B000000E1F5AF
:1017800005000080969800000040420F000000A075
:101790008601000000102700000000E803000000A0
:1017A000006400000000000A0000000000010000CA
:1017B0000000002C76D888DC674F0823DFC1DFAE3D
:1017C00059E1B1B796E5E3E453C63AE65199769606
:1017D000E8E6C28426EB898C9B62ED407C6FFCEFCF
:1017E000BC9C9F40F2BAA56FA5F490055A2AF75CFD
:1017F000936B6CF9676DC11BFCE0E40D47FEF520AF
:10180000E6B500D0ED902E03009435770500808476
:101810001E080000204E0A000000C80C333333338A
:101820000F986E12831141EF8D2114893BE65516F6
:10183000CFFEE6DB18D1844B381BF77C1D901DA42E
:10184000BBE424203284725E228100C9F124ECA121
:10185000E53D2700D55F677911241FBECFEFDFE399
:10186000DEBFCDBF00E00CBF18BE19BE1ABE1BBE46
:1018700014E2A0E0B0E2ECE6F1E701E00BBF02C049
:1018800007900D92AA34B107D9F71BBE17E2AAE45C
:10189000B4E201C01D92AC3CB107E1F718E1C8E524
:1018A000D8E100E006C022970109FE010BBF0E94AB
:1018B000B0B8C435D10780E00807A9F71BBE0E9465
:1018C000C3890C94E6B50C940000CF92DF92EF929E
:1018D000FF920F93CF93DF93CDB7DEB76097CDBF65
:1018E000DEBF002309F45AC029873A874B875C87FB
:1018F0006D877E878F87988B80E2801B4D855E8504
:101900006F8578891816B4F01D821E821F82188692
:10191000992787FD9095909581959F4F04C0769566
:101920006795579547958A95D2F749835A836B8374
:101930007C832CC06A017B01002E04C0F694E794DE
:10194000D794C7940A94D2F7CD82DE82EF82F886CC
:101950006A017B0104C0CC0CDD1CEE1CFF1C8A95C7
:10196000D2F7D701C60149855A856B857C8504C0AD
:1019700076956795579547950A95D2F7842B952BC1
:10198000A62BB72B89839A83AB83BC8329813A81A9
:101990004B815C816D817E818F8198856096CDBF02
:1019A000DEBFDF91CF910F91FF90EF90DF90CF904E
:1019B00008951F93CF93DF930F920F92CDB7DEB7A9
:1019C00089839A8380914A2490914B2460E00E94FD
:1019D000D29680915224815080935224882341F4DE
:1019E00080915324909154240E948B5687FD02C00D
:1019F00010E001C016EF20914A2430914B24C90118
:101A00000E944297812F0F900F90DF91CF911F91ED
:101A100008951F93CF93DF930F920F92CDB7DEB748
:101A200089839A8380914C2490914D2460E00E9498
:101A3000D296809152248F5F80935224813041F45A
:101A400080915324909154240E94555687FD02C0E2
:101A500010E001C016EF20914C2430914D24C901B3
:101A60000E944297812F0F900F90DF91CF911F918D
:101A70000895CF93DF9300D0CDB7DEB78A839B83E1
:101A80008FB78983F89480915324909154240E94B5
:101A9000865799819FBF282F332727FD3095932F95
:101AA0002396CDBFDEBFDF91CF910895CF92DF9215
:101AB000EF92FF920F931F93CF93DF93CDB7DEB7D3
:101AC000AA97CDBFDEBF89A79AA769017A016430C2
:101AD00009F4B9C0653058F4613009F4F5C06130DB
:101AE000C8F0623019F1633009F09DC128C0673039
:101AF00009F41FC1683038F4653009F4E9C0663074
:101B000009F091C1F2C0683009F436C1693009F0BA
:101B10008AC140C180915024909151240E9405A116
:101B20006C01EE24D7FCE094FE2C8EC180915324EE
:101B3000909154240E945D586B017C0185C1809175
:101B40004A2490914B2460E00E94D29680914E24CA
:101B500090914F2460E00E94D29680915024909101
:101B600051240E9419A18C01760150E7C52ED12C79
:101B7000CE0CDF1C80915024909151240E9405A12D
:101B8000D6011C92F601208130E044E0220F331F81
:101B90004A95E1F72E0D3F1DA801F90190E00AC01A
:101BA0006193692F6F5F603121F49E5F00E010E068
:101BB00019C0962F8A01DA016C914F5F5F4F6D302B
:101BC00041F0662331F0603211F48A0102C09817A7
:101BD0003CF3E92FFF27E7FDF095E20FF31F10829A
:101BE0009F5F891BF60120812F5F2083283078F4C6
:101BF00091317CF4D8019C919A3069F0992359F085
:101C00000115110541F018160CF4BCCF04C08AEF81
:101C100003C08BEF01C080E0C82EDD24C7FCD09448
:101C2000ED2CFD2C80915024909151240E946DA2A6
:101C300080915324909154240E94555680914A24B7
:101C400090914B24EDC080914C2490914D2460E004
:101C50000E94D296EDB7FEB73A97EDBFFEBF319620
:101C60008E010F5F1F4FADB7BEB711960D931C933A
:101C7000129780E090E28283938380915624992783
:101C800087FD90958483958388E594E28683978386
:101C900080915724992787FD9095808791870E948E
:101CA000A4B7AC018091532490915424EDB7FEB7B2
:101CB0003A96EDBFFEBFB8010E94865780914C2432
:101CC00090914D240E944297CC24DD247601BCC023
:101CD00080914C2490914D2460E00E94D29688E53A
:101CE00094E2B6010E9428B7E9CF80914C249091EC
:101CF0004D2460E00E94D29600D00F928E010F5FBB
:101D00001F4FADB7BEB711960D931C93129784EF7A
:101D100091E013968D939C9314970E94CDB7AC01DC
:101D200080915324909154240F900F900F900F9016
:101D3000C2CF80914C2490914D2460E00E94D296B5
:101D4000D701C601C097A109B10988309105A10545
:101D5000B10508F059C000D000D0EDB7FEB73196FC
:101D60008E010F5F1F4FADB7BEB711960D931C9339
:101D7000129787E190E231C0DA01C901C097A10949
:101D8000B10988309105A105B10508F055C020932F
:101D900056249ACF80914C2490914D2460E00E946B
:101DA000D296D701C601C097A109B1098830910523
:101DB000A105B10548F5C092572400D000D0EDB779
:101DC000FEB731968E010F5F1F4FADB7BEB71196AC
:101DD0000D931C93129782E290E282839383C482D4
:101DE00015820E94A4B7AC01809153249091542491
:101DF000EDB7FEB73696EDBFFEBFB8010E9486571D
:101E0000CC24DD24760108C029EFC22E2FEFD22E7C
:101E10002FEFE22E2FEFF22E80914C2490914D2443
:101E20000E94429711C09DEFC92E9FEFD92E9FEFC0
:101E3000E92E9FEFF92E08C089EFC82E8FEFD82E1C
:101E40008FEFE82E8FEFF82EB601C701AA96CDBF0F
:101E5000DEBFDF91CF911F910F91FF90EF90DF9048
:101E6000CF9008950F931F93CF93DF93EC01809150
:101E70005024909151240E94F1A08C018091502413
:101E8000909151240E9405A121E020935524CF3741
:101E9000D10589F401151105A9F180915324909180
:101EA00054246FE70E94B856809150249091512499
:101EB0000E94EAA13FC0CD30D10521F58091532485
:101EC000909154246DE00E94B856809153249091D3
:101ED00054246AE00E94B8561092552480915324ED
:101EE000909154240E948B568091502490915124BB
:101EF00060E00E942DA180914E2490914F240E9479
:101F0000429718C0019708171907A0F4CF37D105D9
:101F100089F0CB31D10571F08091532490915424F4
:101F20006C2F0E94B85680915024909151246C2FB0
:101F30000E942DA1DF91CF911F910F910895CF9213
:101F4000DF92EF92FF920F931F93CF93DF930F9245
:101F50000F92CDB7DEB789839A836B017A018091A6
:101F60004A2490914B2460E00E94D29680914E24A6
:101F700090914F2460E00E94D296809150249091DD
:101F800051240E94F1A08C01809150249091512401
:101F9000E016F10688F40E946DA28091532490917E
:101FA00054240E94555680914A2490914B240E94BB
:101FB000429704EF1FEF16C0B601A8010E9414A2B9
:101FC00080915024909151240E946DA280915324BD
:101FD000909154240E94555680914A2490914B240C
:101FE0000E944297C8010F900F90DF91CF911F91EF
:101FF0000F91FF90EF90DF90CF900895AF92BF9236
:10200000CF92DF92EF92FF920F931F93CF93DF93C4
:10201000CDB7DEB76497CDBFDEBF4F87588B698BD6
:102020007A8B8B8B9C8B792F8BE290E260E04CE378
:1020300050E20E94FB84182F87FDB6C082E00E9408
:10204000029980934A2490934B2480914A24909142
:102050004B2497FF06C080914A2490914B24182F5F
:102060009FC080E00E94029980934E2490934F2459
:1020700080914E2490914F2497FF06C080914E246A
:1020800090914F24182F85C08B890E94905880937F
:10209000532490935424809153249091542497FD79
:1020A00070C0198283E08A831B821C828F85988985
:1020B000A989BA898D839E83AF83B8871A861986CA
:1020C00082E39FE08B879C871D861E868091532428
:1020D00090915424AA2463E0B62ECC24DD24ED8014
:1020E000FE800F81188520E030E04B855C856D8592
:1020F0007E850E94DB5A87FD39C081E790E00E940F
:1021000085A28093502490935124809150249091E3
:10211000512497FD2DC082E00E94029980934C24A7
:1021200090934D2480914C2490914D2497FF0CC0A6
:1021300080914C2490914D24182F8091502490919F
:1021400051240E94D4A215C01092522410925524FA
:1021500082E38093562487E38093572488E594E2B2
:102160006AE370E20E9428B710E01EC016EF01C0BB
:102170001FEF2091532430915424C9010E94F55936
:1021800001C016EF20914E2430914F24C9010E94C6
:10219000569920914A2430914B24C9010E945699A6
:1021A0008BE290E20E949C85812F6496CDBFDEBFBA
:1021B000DF91CF911F910F91FF90EF90DF90CF9023
:1021C000BF90AF9008950F931F93CF93DF930F921B
:1021D0000F92CDB7DEB789839A8309811A818091E6
:1021E00068249091692460E00E94D29680916C24CA
:1021F000815080936C24F801828193810E94CA7877
:10220000882319F0F801128213828091682490913A
:1022100069240E94429780E00F900F90DF91CF9148
:102220001F910F9108958F929F92AF92BF92CF927C
:10223000DF92EF92FF921F93CF93DF930F920F9253
:10224000CDB7DEB789839A83162F49015A01C98019
:10225000DA80809168249091692460E00E94D2968F
:10226000153079F1163088F4123009F448C0133073
:1022700030F41123D1F0113009F056C01FC01330D3
:10228000A9F1143009F050C036C01830E9F0193007
:1022900030F4163009F1173009F046C021C019306A
:1022A000B9F01A3009F040C037C080916A2490918B
:1022B0006B240E94E3778823F1F43FC00E941679D3
:1022C00012C00E94E47817C0C4010E9410790BC0AC
:1022D000C4010E94EA7807C0C4010E94F17803C0DB
:1022E000C4010E940A79882331F430C0F60182814A
:1022F00093810E945C79CC24DD2476012FC0F60105
:102300008281938140E050E0BA010E946379C82E37
:10231000DD24EE24FF2422C0F601828193810E94F5
:1023200056796B017C011AC02BEFC22E2FEFD22EF3
:102330002FEFE22E2FEFF22E11C09EEFC92E9FEF4E
:10234000D92E9FEFE92E9FEFF92E08C08DEFC82EF2
:102350008FEFD82E8FEFE82E8FEFF82E8091682424
:10236000909169240E944297B601C7010F900F9087
:10237000DF91CF911F91FF90EF90DF90CF90BF90B2
:10238000AF909F908F9008958F929F92AF92BF923F
:10239000CF92DF92FF920F931F93CF93DF930F9211
:1023A0000F92CDB7DEB789839A834B015A01C9805A
:1023B000DA80809168249091692460E00E94D2962E
:1023C000F601828193810097D1F035E0F32E809160
:1023D0006A2490916B24F60162817381A4019501B6
:1023E0000E941B798B019C0177FF0BC080916A24AE
:1023F00090916B240E94E377FA9449F702C000E0C1
:1024000010E080916824909169240E944297C8014D
:102410000F900F90DF91CF911F910F91FF90DF9060
:10242000CF90BF90AF909F908F9008958F929F9282
:10243000AF92BF92CF92DF92FF920F931F93CF93F1
:10244000DF930F920F92CDB7DEB789839A834B014A
:102450005A01C980DA80809168249091692460E0F3
:102460000E94D296F601828193810097D1F045E0D7
:10247000F42E80916A2490916B24F601628173811D
:10248000A40195010E9438798B019C0177FF0BC054
:1024900080916A2490916B240E94E377FA9449F723
:1024A00002C000E010E080916824909169240E94AD
:1024B0004297C8010F900F90DF91CF911F910F911C
:1024C000FF90DF90CF90BF90AF909F908F90089536
:1024D0000F931F93CF93DF930F920F92CDB7DEB779
:1024E00089839A83809168249091692460E00E9496
:1024F000D29689819A8180936E2490936F248091E3
:102500006C24882341F480916A2490916B240E946A
:10251000D0778823B1F100916E2410916F24F801D7
:102520008281938180937024909371240097E1F0CD
:102530002481622F617021FD626022FD646023FDB1
:10254000686024FD606125FD606226FD60640E9474
:10255000F677F80182839383E0916E24F0916F24E3
:1025600082819381009769F080916C248F5F8093C2
:102570006C2480916824909169240E94429780E0A5
:1025800007C080916824909169240E94429780EF4F
:102590000F900F90DF91CF911F910F910895DF92CF
:1025A000EF92FF920F931F93CF93DF93CDB7DEB7D8
:1025B0002897CDBFDEBFF62EE72ED82E792F85E0E7
:1025C000E8E6F4E2DF011D928A95E9F786E490E2FD
:1025D00060E040E550E20E94FB84182F87FD4EC06A
:1025E00082E00E94029980936824909369248091EC
:1025F00068249091692497FF06C080916824909187
:102600006924182F37C0188680E095E3ACE0B0E06D
:10261000382F8C839D83AE83BF8319821A8281E019
:102620008B838F2D00E010E021E04D815E816F8172
:1026300070E00E94303D80936D2487FD14C08F2D83
:1026400060E070E04E2D2D2D0E94BB3B80936A24EC
:1026500090936B2480916A2490916B2497FD03C022
:1026600010926C240BC080916824909169240E9480
:10267000569916EF86E490E20E949C85812F289659
:10268000CDBFDEBFDF91CF911F910F91FF90EF90F3
:10269000DF900895CF93DF930F920F92CDB7DEB7FF
:1026A00089839A83809172249091732460E00E94C0
:1026B000D2968091792481508093792480917224DC
:1026C000909173240E94429780E00F900F90DF91C9
:1026D000CF910895CF92DF92EF92FF921F93CF9305
:1026E000DF930F920F92CDB7DEB789839A83162FAF
:1026F000809172249091732460E00E94D2961530EC
:1027000009F4EAC31630A0F4123009F4BDC1133045
:1027100038F4112331F1113011F00C943C1CEDC050
:10272000133009F46DC2143011F00C943C1C24C316
:10273000183009F4E1C5193040F4163009F47CC4AE
:10274000173011F00C943C1C27C51A3009F434C71B
:102750001A3008F481C61B3011F00C943C1C0C9408
:102760008C1B8091752490917424953009F471C06C
:102770009630A0F4923009F442C0933038F4992393
:1027800011F1913011F00C94451C2BC0933009F4D9
:1027900044C0943011F00C94451C4DC0983009F49D
:1027A00082C0993040F4963009F461C0973011F03E
:1027B0000C94451C6AC0993009F483C09A3011F01A
:1027C0000C94451C8CC090910006982311F40C9435
:1027D000491CE0E0F6E08683CC24DD2476010C94ED
:1027E000841E90912006982311F40C944D1CE0E275
:1027F000F6E08683CC24DD2476010C94841E90912F
:102800004006982311F40C94511CE0E4F6E0868312
:10281000CC24DD2476010C94841E909160069823CC
:1028200011F40C94551CE0E6F6E08683CC24DD24FC
:1028300076010C94841E90918006982311F40C94D8
:10284000591CE0E8F6E08683CC24DD2476010C9464
:10285000841E9091A006982311F40C945D1CE0EA6C
:10286000F6E08683CC24DD2476010C94841E9091BE
:10287000E006982311F40C94611CE0EEF6E08683E8
:10288000CC24DD2476010C94841E909100079823BB
:1028900011F40C94651CE0E0F7E08683CC24DD2481
:1028A00076010C94841E90912007982311F40C94C7
:1028B000691CE0E2F7E08683CC24DD2476010C94E9
:1028C000841E9091C007982311F40C946D1CE0ECC9
:1028D000F7E08683CC24DD2476010C94841E90914D
:1028E000E007982311F40C94711CE0EEF7E0868366
:1028F000CC24DD2476010C94841E80917524909163
:102900007424953009F471C09630A0F4923009F423
:1029100042C0933038F4992311F1913011F00C94A6
:10292000751C2BC0933009F444C0943011F00C9402
:10293000751C4DC0983009F480C0993040F4963031
:1029400009F461C0973011F00C94751C69C099307E
:1029500009F480C09A3011F00C94751C88C09091D5
:102960000006982311F40C94791CE0E0F6E08583CE
:10297000CC24DD2476010C94841E909120069823AB
:1029800011F40C947D1CE0E2F6E08583CC24DD2478
:1029900076010C94841E90914006982311F40C94B7
:1029A000811CE0E4F6E08583CC24DD2476010C94E0
:1029B000841E90916006982311F40C94851CE0E627
:1029C000F6E08583CC24DD2476010C94841E90915E
:1029D0008006982311F40C94891CE0E8F6E08583C6
:1029E000CC24DD2476010C94841E9091A0069823BB
:1029F00011F40C948D1CE0EAF6E08583CC24DD24F0
:102A000076010C94841E9091E006982309F489C7FE
:102A1000E0EEF6E08583CC24DD2476010C94841E60
:102A200090910007982309F480C7E0E0F7E08583E0
:102A3000CC24DD2476010C94841E909120079823E9
:102A400009F477C7E0E2F7E08583CC24DD24760142
:102A50000C94841E9091C007982309F46EC7E0EC93
:102A6000F7E08583CC24DD2476010C94841E9091BC
:102A7000E007982309F465C7E0EEF7E08583CC24EE
:102A8000DD2476010C94841E809175249091742429
:102A9000953009F467C0963088F49230E1F19330B4
:102AA00030F49923F1F0913009F04FC727C09330EB
:102AB00009F43EC0943009F048C747C0983009F483
:102AC00078C0993038F4963009F459C0973009F03D
:102AD0003CC762C0993009F479C09A3009F035C713
:102AE00082C090910006982309F433C7E0E0F6E035
:102AF0008783CC24DD2476010C94841E90912006DB
:102B0000982309F42AC7E0E2F6E08783CC24DD2489
:102B100076010C94841E90914006982309F421C7F5
:102B2000E0E4F6E08783CC24DD2476010C94841E57
:102B300090916006982309F418C7E0E6F6E08783D1
:102B4000CC24DD2476010C94841E90918006982379
:102B500009F40FC7E0E8F6E08783CC24DD24760192
:102B60000C94841E9091A006982309F406C7E0EA0D
:102B7000F6E08783CC24DD2476010C94841E9091AA
:102B8000E006982309F4FDC6E0EEF6E08783CC2446
:102B9000DD2476010C94841E90910007982309F49B
:102BA000F4C6E0E0F7E08783CC24DD2476010C94C2
:102BB000841E90912007982309F4EBC6E0E2F7E029
:102BC0008783CC24DD2476010C94841E9091C00769
:102BD000982309F4E2C6E0ECF7E08783CC24DD24F7
:102BE00076010C94841E9091E007982309F4D9C6CD
:102BF000E0EEF7E08783CC24DD2476010C94841E7C
:102C00008091772490917424953009F467C09630B0
:102C100088F49230E1F1933030F49923F1F091305F
:102C200009F0C3C627C0933009F43EC0943009F0C0
:102C3000BCC647C0983009F478C0993038F4963053
:102C400009F459C0973009F0B0C662C0993009F450
:102C500079C09A3009F0A9C682C0909100069823E5
:102C600009F4A7C6E0E0F6E08683CC24DD247601F3
:102C70000C94841E90912006982309F49EC6E0E2ED
:102C8000F6E08683CC24DD2476010C94841E90919A
:102C90004006982309F495C6E0E4F6E08683CC2448
:102CA000DD2476010C94841E90916006982309F42B
:102CB0008CC6E0E6F6E08683CC24DD2476010C9415
:102CC000841E90918006982309F483C6E0E8F6E01C
:102CD0008683CC24DD2476010C94841E9091A0067A
:102CE000982309F47AC6E0EAF6E08683CC24DD2452
:102CF00076010C94841E9091E006982309F471C625
:102D0000E0EEF6E08683CC24DD2476010C94841E6C
:102D100090910007982309F468C6E0E0F7E0868305
:102D2000CC24DD2476010C94841E909120079823F6
:102D300009F45FC6E0E2F7E08683CC24DD24760167
:102D40000C94841E9091C007982309F456C6E0ECB9
:102D5000F7E08683CC24DD2476010C94841E9091C8
:102D6000E007982309F44DC6E0EEF7E08683CC2413
:102D7000DD2476010C94841E809177249091742434
:102D8000953009F461C0963080F49230C9F19330E7
:102D900030F49923E9F0913009F037C625C093301B
:102DA000D9F1943009F031C643C0983009F470C0AD
:102DB000993038F4963009F453C0973009F025C69D
:102DC0005BC0993009F470C09A3009F01EC678C013
:102DD00090910006982309F41CC6E0E0F6E0858394
:102DE000CC24DD24760190C790912006982309F425
:102DF00014C6E0E2F6E08583CC24DD24760184C7A6
:102E000090914006982309F40CC6E0E4F6E085832F
:102E1000CC24DD24760178C790916006982309F4CC
:102E200004C6E0E6F6E08583CC24DD2476016CC799
:102E300090918006982309F4FCC5E0E8F6E08583CC
:102E4000CC24DD24760160C79091A006982309F474
:102E5000F4C5E0EAF6E08583CC24DD24760154C78E
:102E60009091E006982309F4ECC5E0EEF6E0858346
:102E7000CC24DD24760148C790910007982309F4FB
:102E8000E4C5E0E0F7E08583CC24DD2476013CC78F
:102E900090912007982309F4DCC5E0E2F7E08583F0
:102EA000CC24DD24760130C79091C007982309F423
:102EB000D4C5E0ECF7E08583CC24DD24760124C77B
:102EC0009091E007982309F4CCC5E0EEF7E0858304
:102ED000CC24DD24760118C7809177249091742446
:102EE000953009F461C0963080F49230C9F1933086
:102EF00030F49923E9F0913009F0B7C525C093303B
:102F0000D9F1943009F0B1C543C0983009F470C0CC
:102F1000993038F4963009F453C0973009F0A5C5BC
:102F20005BC0993009F470C09A3009F09EC578C032
:102F300090910006982309F49CC5E0E0F6E08783B1
:102F4000CC24DD247601E0C690912006982309F474
:102F500094C5E0E2F6E08783CC24DD247601D4C674
:102F600090914006982309F48CC5E0E4F6E087834D
:102F7000CC24DD247601C8C690916006982309F41C
:102F800084C5E0E6F6E08783CC24DD247601BCC668
:102F900090918006982309F47CC5E0E8F6E08783E9
:102FA000CC24DD247601B0C69091A006982309F4C4
:102FB00074C5E0EAF6E08783CC24DD247601A4C65C
:102FC0009091E006982309F46CC5E0EEF6E0878363
:102FD000CC24DD24760198C690910007982309F44B
:102FE00064C5E0E0F7E08783CC24DD2476018CC65D
:102FF00090912007982309F45CC5E0E2F7E087830D
:10300000CC24DD24760180C69091C007982309F472
:1030100054C5E0ECF7E08783CC24DD24760174C648
:103020009091E007982309F44CC5E0EEF7E0878320
:10303000CC24DD24760168C6809176249091742496
:10304000953009F461C0963080F49230C9F1933024
:1030500030F49923E9F0913009F037C525C0933059
:10306000D9F1943009F031C543C0983009F470C0EB
:10307000993038F4963009F453C0973009F025C5DB
:103080005BC0993009F470C09A3009F01EC578C051
:1030900090910006982309F41CC5E0E0F6E08683D1
:1030A000CC24DD24760130C690912006982309F4C3
:1030B00014C5E0E2F6E08683CC24DD24760124C644
:1030C00090914006982309F40CC5E0E4F6E086836D
:1030D000CC24DD24760118C690916006982309F46B
:1030E00004C5E0E6F6E08683CC24DD2476010CC638
:1030F00090918006982309F4FCC4E0E8F6E086830A
:10310000CC24DD24760100C69091A006982309F412
:10311000F4C4E0EAF6E08683CC24DD247601F4C52D
:103120009091E006982309F4ECC4E0EEF6E0868383
:10313000CC24DD247601E8C590910007982309F49A
:10314000E4C4E0E0F7E08683CC24DD247601DCC52E
:1031500090912007982309F4DCC4E0E2F7E086832D
:10316000CC24DD247601D0C59091C007982309F4C2
:10317000D4C4E0ECF7E08683CC24DD247601C4C51A
:103180009091E007982309F4CCC4E0EEF7E0868341
:10319000CC24DD247601B8C58091762490917424E6
:1031A000953009F461C0963080F49230C9F19330C3
:1031B00030F49923E9F0913009F0B7C425C0933079
:1031C000D9F1943009F0B1C443C0983009F470C00B
:1031D000993038F4963009F453C0973009F0A5C4FB
:1031E0005BC0993009F470C09A3009F09EC478C071
:1031F00090910006982309F49CC4E0E0F6E08583F2
:10320000CC24DD24760180C590912006982309F412
:1032100094C4E0E2F6E08583CC24DD24760174C515
:1032200090914006982309F48CC4E0E4F6E085838D
:10323000CC24DD24760168C590916006982309F4BA
:1032400084C4E0E6F6E08583CC24DD2476015CC509
:1032500090918006982309F47CC4E0E8F6E0858329
:10326000CC24DD24760150C59091A006982309F462
:1032700074C4E0EAF6E08583CC24DD24760144C5FD
:103280009091E006982309F46CC4E0EEF6E08583A3
:10329000CC24DD24760138C590910007982309F4E9
:1032A00064C4E0E0F7E08583CC24DD2476012CC5FE
:1032B00090912007982309F45CC4E0E2F7E085834D
:1032C000CC24DD24760120C59091C007982309F411
:1032D00054C4E0ECF7E08583CC24DD24760114C5EA
:1032E0009091E007982309F44CC4E0EEF7E0858361
:1032F000CC24DD24760108C5809176249091742435
:10330000953009F461C0963080F49230C9F1933061
:1033100030F49923E9F0913009F037C425C0933097
:10332000D9F1943009F031C443C0983009F470C029
:10333000993038F4963009F453C0973009F025C419
:103340005BC0993009F470C09A3009F01EC478C08F
:1033500090910006982309F41CC4E0E0F6E087830E
:10336000CC24DD247601D0C490912006982309F462
:1033700014C4E0E2F6E08783CC24DD247601C4C4E3
:1033800090914006982309F40CC4E0E4F6E08783AA
:10339000CC24DD247601B8C490916006982309F40A
:1033A00004C4E0E6F6E08783CC24DD247601ACC4D7
:1033B00090918006982309F4FCC3E0E8F6E0878347
:1033C000CC24DD247601A0C49091A006982309F4B2
:1033D000F4C3E0EAF6E08783CC24DD24760194C4CC
:1033E0009091E006982309F4ECC3E0EEF6E08783C1
:1033F000CC24DD24760188C490910007982309F439
:10340000E4C3E0E0F7E08783CC24DD2476017CC4CC
:1034100090912007982309F4DCC3E0E2F7E087836A
:10342000CC24DD24760170C49091C007982309F460
:10343000D4C3E0ECF7E08783CC24DD24760164C4B8
:103440009091E007982309F4CCC3E0EEF7E087837E
:10345000CC24DD24760158C4809178249091742482
:10346000953009F461C0963080F49230C9F1933000
:1034700030F49923E9F0913009F0B7C325C09330B7
:10348000D9F1943009F0B1C343C0983009F470C049
:10349000993038F4963009F453C0973009F0A5C339
:1034A0005BC0993009F470C09A3009F09EC378C0AF
:1034B00090910006982309F49CC3E0E0F6E086832F
:1034C000CC24DD24760120C490912006982309F4B1
:1034D00094C3E0E2F6E08683CC24DD24760114C4B4
:1034E00090914006982309F48CC3E0E4F6E08683CB
:1034F000CC24DD24760108C490916006982309F459
:1035000084C3E0E6F6E08683CC24DD247601FCC3A8
:1035100090918006982309F47CC3E0E8F6E0868366
:10352000CC24DD247601F0C39091A006982309F401
:1035300074C3E0EAF6E08683CC24DD247601E4C39C
:103540009091E006982309F46CC3E0EEF6E08683E0
:10355000CC24DD247601D8C390910007982309F488
:1035600064C3E0E0F7E08683CC24DD247601CCC39D
:1035700090912007982309F45CC3E0E2F7E086838A
:10358000CC24DD247601C0C39091C007982309F4B0
:1035900054C3E0ECF7E08683CC24DD247601B4C389
:1035A0009091E007982309F44CC3E0EEF7E086839E
:1035B000CC24DD247601A8C38091782490917424D2
:1035C000953009F461C0963080F49230C9F193309F
:1035D00030F49923E9F0913009F037C325C09330D6
:1035E000D9F1943009F031C343C0983009F470C068
:1035F000993038F4963009F453C0973009F025C358
:103600005BC0993009F470C09A3009F01EC378C0CD
:1036100090910006982309F41CC3E0E0F6E085834E
:10362000CC24DD24760170C390912006982309F400
:1036300014C3E0E2F6E08583CC24DD24760164C384
:1036400090914006982309F40CC3E0E4F6E08583EA
:10365000CC24DD24760158C390916006982309F4A8
:1036600004C3E0E6F6E08583CC24DD2476014CC378
:1036700090918006982309F4FCC2E0E8F6E0858387
:10368000CC24DD24760140C39091A006982309F450
:10369000F4C2E0EAF6E08583CC24DD24760134C36D
:1036A0009091E006982309F4ECC2E0EEF6E0858301
:1036B000CC24DD24760128C390910007982309F4D7
:1036C000E4C2E0E0F7E08583CC24DD2476011CC36E
:1036D00090912007982309F4DCC2E0E2F7E08583AB
:1036E000CC24DD24760110C39091C007982309F4FF
:1036F000D4C2E0ECF7E08583CC24DD24760104C35A
:103700009091E007982309F4CCC2E0EEF7E08583BE
:10371000CC24DD247601F8C2809178249091742421
:10372000953009F461C0963080F49230C9F193303D
:1037300030F49923E9F0913009F0B7C225C09330F5
:10374000D9F1943009F0B1C243C0983009F470C087
:10375000993038F4963009F453C0973009F0A5C277
:103760005BC0993009F470C09A3009F09EC278C0ED
:1037700090910006982309F49CC2E0E0F6E087836C
:10378000CC24DD247601C0C290912006982309F450
:1037900094C2E0E2F6E08783CC24DD247601B4C253
:1037A00090914006982309F48CC2E0E4F6E0878308
:1037B000CC24DD247601A8C290916006982309F4F8
:1037C00084C2E0E6F6E08783CC24DD2476019CC247
:1037D00090918006982309F47CC2E0E8F6E08783A4
:1037E000CC24DD24760190C29091A006982309F4A0
:1037F00074C2E0EAF6E08783CC24DD24760184C23B
:103800009091E006982309F46CC2E0EEF6E087831D
:10381000CC24DD24760178C290910007982309F426
:1038200064C2E0E0F7E08783CC24DD2476016CC23B
:1038300090912007982309F45CC2E0E2F7E08783C7
:10384000CC24DD24760160C29091C007982309F44E
:1038500054C2E0ECF7E08783CC24DD24760154C227
:103860009091E007982309F44CC2E0EEF7E08783DB
:10387000CC24DD24760148C28BEFC82E8FEFD82EE2
:103880008FEFE82E8FEFF82E3FC2CC24DD24760197
:103890003BC2CC24DD24760137C2CC24DD24760162
:1038A00033C2CC24DD2476012FC2CC24DD24760162
:1038B0002BC2CC24DD24760127C2CC24DD24760162
:1038C00023C2CC24DD2476011FC2CC24DD24760162
:1038D0001BC2CC24DD24760117C2CC24DD24760162
:1038E00013C2CC24DD2476010FC2CC24DD24760162
:1038F0000BC2CC24DD24760107C2CC24DD24760162
:1039000003C2CC24DD247601FFC1CC24DD24760162
:10391000FBC1CC24DD247601F7C1CC24DD24760163
:10392000F3C1CC24DD247601EFC1CC24DD24760163
:10393000EBC1CC24DD247601E7C1CC24DD24760163
:10394000E3C1CC24DD247601DFC1CC24DD24760163
:10395000DBC1CC24DD247601D7C1CC24DD24760163
:10396000D3C1CC24DD247601CFC1CC24DD24760163
:10397000CBC1CC24DD247601C7C1CC24DD24760163
:10398000C3C1CC24DD247601BFC1CC24DD24760163
:10399000BBC1CC24DD247601B7C1CC24DD24760163
:1039A000B3C1CC24DD247601AFC1CC24DD24760163
:1039B000ABC1CC24DD247601A7C1CC24DD24760163
:1039C000A3C1CC24DD2476019FC1CC24DD24760163
:1039D0009BC1CC24DD24760197C1CC24DD24760163
:1039E00093C1CC24DD2476018FC1CC24DD24760163
:1039F0008BC1CC24DD24760187C1CC24DD24760163
:103A000083C1CC24DD2476017FC1CC24DD24760162
:103A10007BC1CC24DD24760177C1CC24DD24760162
:103A200073C1CC24DD2476016FC1CC24DD24760162
:103A30006BC1CC24DD24760167C1CC24DD24760162
:103A400063C1CC24DD2476015FC1CC24DD24760162
:103A50005BC1CC24DD24760157C1CC24DD24760162
:103A600053C1CC24DD2476014FC1CC24DD24760162
:103A70004BC1CC24DD24760147C1CC24DD24760162
:103A800043C1CC24DD2476013FC1CC24DD24760162
:103A90003BC1CC24DD24760137C1CC24DD24760162
:103AA00033C1CC24DD2476012FC1CC24DD24760162
:103AB0002BC1CC24DD24760127C1CC24DD24760162
:103AC00023C1CC24DD2476011FC1CC24DD24760162
:103AD0001BC1CC24DD24760117C1CC24DD24760162
:103AE00013C1CC24DD2476010FC1CC24DD24760162
:103AF0000BC1CC24DD24760107C1CC24DD24760162
:103B000003C1CC24DD247601FFC0CC24DD24760162
:103B1000FBC0CC24DD247601F7C0CC24DD24760163
:103B2000F3C0CC24DD247601EFC0CC24DD24760163
:103B3000EBC0CC24DD247601E7C0CC24DD24760163
:103B4000E3C0CC24DD247601DFC0CC24DD24760163
:103B5000DBC0CC24DD247601D7C0CC24DD24760163
:103B6000D3C0CC24DD247601CFC0CC24DD24760163
:103B7000CBC0CC24DD247601C7C0CC24DD24760163
:103B8000C3C0CC24DD247601BFC0CC24DD24760163
:103B9000BBC0CC24DD247601B7C0CC24DD24760163
:103BA000B3C0CC24DD247601AFC0CC24DD24760163
:103BB000ABC0CC24DD247601A7C0CC24DD24760163
:103BC000A3C0CC24DD2476019FC0CC24DD24760163
:103BD0009BC0CC24DD24760197C0CC24DD24760163
:103BE00093C0CC24DD2476018FC0CC24DD24760163
:103BF0008BC0CC24DD24760187C0CC24DD24760163
:103C000083C0CC24DD2476017FC0CC24DD24760162
:103C10007BC0CC24DD24760177C0CC24DD24760162
:103C200073C0CC24DD2476016FC0CC24DD24760162
:103C30006BC0CC24DD24760167C0CC24DD24760162
:103C400063C0CC24DD2476015FC0CC24DD24760162
:103C50005BC0CC24DD24760157C0CC24DD24760162
:103C600053C0CC24DD2476014FC0CC24DD24760162
:103C70004BC0CC24DD24760147C0CC24DD24760162
:103C800043C0CC24DD2476013FC0CC24DD24760162
:103C90003BC0CC24DD24760137C0CC24DD24760162
:103CA00033C0CC24DD2476012FC0CC24DD24760162
:103CB0002BC0CC24DD24760127C0CC24DD24760162
:103CC00023C0CC24DD2476011FC0CC24DD24760162
:103CD0001BC0CC24DD24760117C0CC24DD24760162
:103CE00013C0CC24DD2476010FC0CC24DD24760162
:103CF0000BC0CC24DD24760107C0CC24DD24760162
:103D000003C0CC24DD247601809172249091732429
:103D10000E944297B601C7010F900F90DF91CF919B
:103D20001F91FF90EF90DF90CF900895CF93DF9396
:103D30000F920F92CDB7DEB789839A838091722458
:103D40009091732460E00E94D296809179248F5FD5
:103D50008093792480917224909173240E944297D9
:103D600080E00F900F90DF91CF9108950F931F93F4
:103D7000CF93DF93CDB7DEB72A97CDBFDEBF142F29
:103D80004E835F83688779878A87782F8AE590E2F8
:103D900060E048E650E20E94FB84082F87FDBDC02A
:103DA00082E00E9402998093722490937324209160
:103DB00072243091732437FF06C080917224909151
:103DC0007324082FA4C010927924109374243F8187
:103DD00030937524888580937624382B8985809349
:103DE0007724382B3093782419823A831B821D82E2
:103DF000812F20E040E05C8160E00E942A2E87FD58
:103E00007FC08091782490917424953009F44DC03E
:103E1000963080F4923089F1933030F49923E9F0B0
:103E2000913009F079C021C0933079F1943009F0D4
:103E300073C033C0983009F44DC0993038F49630CF
:103E400009F43AC0973009F067C03DC0993009F4D1
:103E500048C09A3009F060C04BC09091000698238A
:103E600009F45AC0E0E0F6E049C09091200698239A
:103E700009F452C0E0E2F6E041C090914006982378
:103E800009F44AC0E0E4F6E039C090916006982356
:103E900009F442C0E0E6F6E031C090918006982334
:103EA00009F43AC0E0E8F6E029C09091A006982312
:103EB00099F1E0EAF6E022C09091E006982361F1E2
:103EC000E0EEF6E01BC090910007982329F1E0E0B6
:103ED000F7E014C0909120079823F1F0E0E2F7E0BA
:103EE0000DC09091C0079823B9F0E0ECF7E006C050
:103EF0009091E007982381F0E0EEF7E085830CC015
:103F000080917224909173240E94569906EF8AE55D
:103F100090E20E949C8501C000E0802F2A96CDBFD0
:103F2000DEBFDF91CF911F910F910895CF93DF9363
:103F30000F920F92CDB7DEB7E0917220F09173200F
:103F400022813381E0917220F09173200CC0E981CD
:103F5000FA810190F081E02D9181981769F021504C
:103F60003040E981FA814085518549835A83121690
:103F700013066CF3E0E0F0E0CF010F900F90DF91BB
:103F8000CF9108951F920F920FB60F9208B60F921D
:103F900009B60F920BB60F9211242F933F934F93B4
:103FA0005F936F937F938F939F93AF93BF93EF93A1
:103FB000FF9380E00E94961FFC01009759F020912A
:103FC000240230912502248335830680F781E02D79
:103FD000C9011995FF91EF91BF91AF919F918F9179
:103FE0007F916F915F914F913F912F910F900BBEF9
:103FF0000F9009BE0F9008BE0F900FBE0F901F903C
:1040000018951F920F920FB60F9208B60F9209B62D
:104010000F920BB60F9211242F933F934F935F9300
:104020006F937F938F939F93AF93BF93EF93FF9380
:1040300081E00E94961FFC01009759F020912C020C
:1040400030912D02248335830680F781E02DC9014C
:104050001995FF91EF91BF91AF919F918F917F91B2
:104060006F915F914F913F912F910F900BBE0F90E9
:1040700009BE0F9008BE0F900FBE0F901F901895AD
:104080001F920F920FB60F9208B60F9209B60F92B9
:104090000BB60F9211242F933F934F935F936F931F
:1040A0007F938F939F93AF93BF93EF93FF9382E0A0
:1040B0000E94961FFC01009759F020913402309124
:1040C0003502248335830680F781E02DC9011995D7
:1040D000FF91EF91BF91AF919F918F917F916F91E0
:1040E0005F914F913F912F910F900BBE0F9009BEA2
:1040F0000F9008BE0F900FBE0F901F9018951F9243
:104100000F920FB60F9208B60F9209B60F920BB628
:104110000F9211242F933F934F935F936F937F934D
:104120008F939F93AF93BF93EF93FF9383E00E948E
:10413000961FFC01009759F020913C0230913D02FE
:10414000248335830680F781E02DC9011995FF91FD
:10415000EF91BF91AF919F918F917F916F915F91FF
:104160004F913F912F910F900BBE0F9009BE0F9072
:1041700008BE0F900FBE0F901F9018951F920F92C0
:104180000FB60F9208B60F9209B60F920BB60F92A8
:1041900011242F933F934F935F936F937F938F934C
:1041A0009F93AF93BF93EF93FF9384E00E94961F7A
:1041B000FC01009759F0209164023091650224833C
:1041C00035830680F781E02DC9011995FF91EF91A4
:1041D000BF91AF919F918F917F916F915F914F911F
:1041E0003F912F910F900BBE0F9009BE0F9008BE0C
:1041F0000F900FBE0F901F9018951F920F920FB641
:104200000F9208B60F9209B60F920BB60F921124B7
:104210002F933F934F935F936F937F938F939F93CE
:10422000AF93BF93EF93FF9385E00E94961FFC012D
:10423000009759F020916C0230916D0224833583F0
:104240000680F781E02DC9011995FF91EF91BF918B
:10425000AF919F918F917F916F915F914F913F911E
:104260002F910F900BBE0F9009BE0F9008BE0F90BC
:104270000FBE0F901F9018951F920F920FB60F92BE
:1042800008B60F9209B60F920BB60F9211242F9316
:104290003F934F935F936F937F938F939F93AF93CE
:1042A000BF93EF93FF9386E00E94961FFC01009757
:1042B00059F0209174023091750224833583068071
:1042C000F781E02DC9011995FF91EF91BF91AF9151
:1042D0009F918F917F916F915F914F913F912F911E
:1042E0000F900BBE0F9009BE0F9008BE0F900FBE2F
:1042F0000F901F9018951F920F920FB60F9208B64D
:104300000F9209B60F920BB60F9211242F933F9381
:104310004F935F936F937F938F939F93AF93BF93CD
:10432000EF93FF9387E00E94961FFC01009759F0DE
:1043300020917C0230917D02248335830680F781B1
:10434000E02DC9011995FF91EF91BF91AF919F9118
:104350008F917F916F915F914F913F912F910F902E
:104360000BBE0F9009BE0F9008BE0F900FBE0F90AE
:104370001F90189560917B2770917C2780917D27F5
:1043800090917E270895DC01CB0122E0209350001C
:1043900028ED24BFE0E4F0E0118220914100218368
:1043A0002091510021FFFCCF28ED24BF21E0209374
:1043B0004000209150002E7F2093500080937B2757
:1043C00090937C27A0937D27B0937E2780E008956B
:1043D000CF93DF930F920F92CDB7DEB7E091872096
:1043E000F091882022813381E0918720F09188200C
:1043F0000CC0E981FA810190F081E02D908198173D
:1044000069F021503040E981FA8140855185498326
:104410005A83121613066CF3E0E0F0E0CF010F9020
:104420000F90DF91CF9108951F920F920FB60F92C8
:1044300008B60F9209B60F920BB60F9211242F9364
:104440003F934F935F936F937F938F939F93AF931C
:10445000BF93EF93FF93E0E0F1E08091110185FFBE
:1044600006C0809111018062818B81E005C080913E
:1044700011018061818B80E00E94E821009741F06A
:10448000DC011196ED91FC911297309709F0199586
:10449000FF91EF91BF91AF919F918F917F916F911C
:1044A0005F914F913F912F910F900BBE0F9009BEDE
:1044B0000F9008BE0F900FBE0F901F9018951F927F
:1044C0000F920FB60F9208B60F9209B60F920BB665
:1044D0000F9211242F933F934F935F936F937F938A
:1044E0008F939F93AF93BF93EF93FF93E0E0F1E03F
:1044F0008091210185FF06C080912101806281A306
:1045000083E005C080912101806181A382E00E9447
:10451000E821009741F0DC011196ED91FC91129792
:10452000309709F01995FF91EF91BF91AF919F914D
:104530008F917F916F915F914F913F912F910F904C
:104540000BBE0F9009BE0F9008BE0F900FBE0F90CC
:104550001F9018951F920F920FB60F9208B60F92E8
:1045600009B60F920BB60F9211242F933F934F93DE
:104570005F936F937F938F939F93AF93BF93EF93CB
:10458000FF93E0E0F1E08091310185FF06C080916A
:104590003101806281AB85E005C08091310180618D
:1045A00081AB84E00E94E821009741F0DC01119684
:1045B000ED91FC911297309709F01995FF91EF91C9
:1045C000BF91AF919F918F917F916F915F914F912B
:1045D0003F912F910F900BBE0F9009BE0F9008BE18
:1045E0000F900FBE0F901F9018951F920F920FB64D
:1045F0000F9208B60F9209B60F920BB60F921124C4
:104600002F933F934F935F936F937F938F939F93DA
:10461000AF93BF93EF93FF938091410185FF07C054
:104620008091410180628093410187E006C08091C2
:10463000410180618093410186E00E94E82100975A
:1046400041F0DC011196ED91FC911297309709F041
:104650001995FF91EF91BF91AF919F918F917F91AC
:104660006F915F914F913F912F910F900BBE0F90E3
:1046700009BE0F9008BE0F900FBE0F901F901895A7
:10468000CF92DF92EF92FF920F931F93CF93DF931E
:10469000CDB7DEB72797CDBFDEBF8E839F83062FB2
:1046A0006A018FB78983F894EE81FF81809195200C
:1046B00090919620248135812817390721F089812E
:1046C0008FBF8EEF51C0EE81FF81E080F180D70176
:1046D0001C91160F183020F089818FBF8BEF44C0DA
:1046E000812F0E94E8210097E1F583E090E00E948D
:1046F0007EA38A839B838A819B8197FD0CC08091D6
:104700008720909188206A817B8141E00E94E2A30A
:104710008A819B8102C08FEF9FEF8C839D838C8168
:104720009D8197FF04C089818FBF8FEF1DC0EC81F1
:10473000FD810190F081E02D1083C182D282F701CA
:1047400082818F5F82830380F481E02D8181002349
:1047500011F4836001C08C60818389818FBF80E008
:1047600003C089818FBF8AEF2796CDBFDEBFDF915F
:10477000CF911F910F91FF90EF90DF90CF90089510
:104780001F93CF93DF93CDB7DEB72597CDBFDEBFA5
:104790008FB78983F8948091A3208823D9F08FB7AD
:1047A0008A83F894809100018F7780930001809133
:1047B0000001837F809300018091000183608093DA
:1047C0000001809100018068809300018A818FBF81
:1047D0001092A32044E050E010E0E0919520F09189
:1047E000962082819381E0919520F09196200BC0D4
:1047F000EA81FB810190F081E02D2081211759F0A1
:104800000197EA81FB81208531852A833B83181635
:10481000190674F307C0309729F01E5F41505040CD
:10482000E1F64FC085E090E00E947EA38A839B83DF
:104830008A819B8197FD2DC0EA81FB810190F081E7
:10484000E02D118210831282123069F0133018F4B7
:10485000112331F012C0143049F0163071F409C040
:1048600080E191E008C080E291E005C080E391E042
:1048700002C080E491E0838394838091952090919D
:1048800096206A817B8141E00E94E2A38A819B811C
:1048900002C08FEF9FEF8C839D838C819D8197FF5A
:1048A00005C089818FBF8FEF9FEF04C089818FBFC3
:1048B0008C819D812596CDBFDEBFDF91CF911F9169
:1048C000089589818FBF89EF9FEFF4CFAF92BF9298
:1048D000CF92DF92EF92FF920F931F93CF93DF93CC
:1048E00000D0CDB7DEB78A839B838FB78983F894D6
:1048F000EA81FB81809195209091962024813581D9
:104900002817390721F089818FBF8EEF8AC0EA818D
:10491000FB810081118182E0A82EB12CFF24D801F7
:10492000EC90EF0CE0918720F0918820C280D3803A
:10493000E0918720F09188203AC0E0917E24F091A8
:104940007F24A081B181E0917E24F0917F24828533
:10495000938580937C2490937D248C918E1501F512
:10496000F8018281815082830380F481E02D81816E
:10497000FF2011F48C7F01C0837F81838091872089
:104980009091882060917E2470917F240E944FA492
:1049900080917C2490917D2480937E2490937F2429
:1049A0000894C108D108E0917E24F0917F2480858D
:1049B000918580937E2490937F241C141D040CF415
:1049C000BCCFF3940894A108B108A114B10409F074
:1049D000A6CFD8011396ED91FC91149780818F7723
:1049E00080831396ED91FC91149780818F7780835B
:1049F0001396ED91FC9114978081806480831396C7
:104A0000ED91FC91149780818F7B8083809195201C
:104A1000909196206A817B810E944FA489818FBFEB
:104A200080E02396CDBFDEBFDF91CF911F910F9124
:104A3000FF90EF90DF90CF90BF90AF900895CF930D
:104A4000DF930F920F92CDB7DEB789839A83E98106
:104A5000FA818091952090919620248135812817A4
:104A6000390759F4E981FA810190F081E02D038042
:104A7000F481E02D8481958102C08EEF9FEF0F902D
:104A80000F90DF91CF910895AF92BF92CF92DF92B6
:104A9000EF92FF920F931F93CF93DF93CDB7DEB7C3
:104AA0006197CDBFDEBF8A839B83AC82BD82CE82FD
:104AB000DF828E2DE8869F2DF986E02F0A87F12F61
:104AC0001B872C873D87242F4E87F52E5F87E62E88
:104AD000688B372F798B8F01CC84DD84B9012FB798
:104AE0002983F894833010F4933020F089818FBFAC
:104AF00086EFECC0043010F4143020F089818FBFB1
:104B000085EFE4C0C114D10421F489818FBF84EF03
:104B1000DDC0643020F089818FBF83EFD7C021E0F2
:104B2000251720F489818FBF82EFD0C02FEA2E1580
:104B300020F489818FBF81EFC9C0EA81FB81209178
:104B4000952030919620448155814217530721F0DA
:104B500089818FBF8EEFBAC0EA81FB810190F0811D
:104B6000E02DA381B4812C912F772C93A381B48164
:104B70002C8118962C93A381B4812D8119962C93A6
:104B8000A381B4811A961C92A381B4812E811C96B4
:104B90002C93A381B4812F811D962C93A381B48182
:104BA0001E961C92A381B48112962C9112972F7C91
:104BB00012962C93A381B48112962C911297829510
:104BC000807F822B12968C93A381B48112968C9154
:104BD00012978C7F12968C93A381B48112968C913C
:104BE0001297892B12968C93A381B48112968C9183
:104BF00012978F7312968C93A381B48112968C9125
:104C000012970295000F000F007C082B12960C9350
:104C1000A381B48112968C911297837F12968C9304
:104C2000A381B48112968C911297110F110F182B3A
:104C300012961C93A381B4811496CD92DC921597A1
:104C4000A381B4818C918C7F8C93A381B4818C914E
:104C5000862B8C93A381B4818C918F7D8C93A381BF
:104C6000B48116961C92A381B48117164CF48C91D2
:104C700080628C93A381B48116967C93169705C0AD
:104C8000772319F08C9180628C93A381B4818C91ED
:104C90008B7F8C93A381B4818C91FF0CFF0CF82A3D
:104CA000FC92A381B48113968C91139713961C9256
:104CB000A381B48113968C9113978E2913968C93AC
:104CC000139781E0818389818FBF80E06196CDBF9A
:104CD000DEBFDF91CF911F910F91FF90EF90DF909A
:104CE000CF90BF90AF900895CF93DF930F920F9224
:104CF000CDB7DEB789839A83E981FA8180919520C7
:104D000090919620248135812817390739F4E9815B
:104D1000FA810190F081E02D808101C08EEF0F902B
:104D20000F90DF91CF910895CF93DF9300D0CDB74F
:104D3000DEB78A839B838FB78983F894EA81FB81EE
:104D400080919520909196202481358128173907EC
:104D500021F089818FBF8EEF0EC0EA81FB81019027
:104D6000F081E02D0380F481E02D808180688083D4
:104D700089818FBF80E02396CDBFDEBFDF91CF91C9
:104D80000895CF93DF9300D0CDB7DEB78A839B839E
:104D90008FB78983F894EA81FB8180919520909167
:104DA0009620248135812817390721F089818FBF0A
:104DB0008EEF0EC0EA81FB810190F081E02D03802F
:104DC000F481E02D80818F77808389818FBF80E09F
:104DD0002396CDBFDEBFDF91CF910895CF93DF93B0
:104DE0000F920F92CDB7DEB7E091A420F091A520ED
:104DF00022813381E091A420F091A5200CC0E981AB
:104E0000FA810190F081E02D9081981769F021508E
:104E10003040E981FA814085518549835A831216D1
:104E200013066CF3E0E0F0E0CF010F900F90DF91FC
:104E3000CF910895CF93DF930F920F92CDB7DEB746
:104E400084E090E00E947EA389839A8389819A817D
:104E500097FD0CC08091A4209091A52069817A8152
:104E600041E00E94E2A389819A8102C08EEF9FEF08
:104E70000F900F90DF91CF910895CF92DF92EF9234
:104E8000FF920F931F93CF93DF930F920F92CDB7A3
:104E9000DEB78C017B01C42ED22EDB018C918830D1
:104EA000C1F0893048F4813008F426C1833088F09D
:104EB000843009F021C10DC0803259F0813220F4D4
:104EC000803109F019C105C0803419F0803809F02B
:104ED00013C1F8019081982309F011C18C2D0E9413
:104EE000EE26009709F080C00E941A2789839A83D2
:104EF00089819A8197FD09C1E981FA810190F08148
:104F0000E02DC082D7018C91818312968D919C9166
:104F10001397828393838C91883099F1893040F480
:104F20008230E9F0843021F1813009F055C00EC0A3
:104F30008032C9F1813220F4803109F04DC02AC09D
:104F40008034D1F1803809F047C03FC0F801808932
:104F5000D70111969C911197892B808B3DC0F80148
:104F60008189D70111969C911197892B818B34C02F
:104F7000F8018289D70111969C911197892B828B18
:104F80002BC0F8018389D70111969C911197892B29
:104F9000838B22C0F8018489D70111969C911197C7
:104FA000892B848B19C0F8018589D70111969C91B2
:104FB0001197892B858B10C0F8018689D70111962E
:104FC0009C911197892B868B07C0F8018789D7019F
:104FD00011969C91892B878BF8018185836081874D
:104FE000D7018C91828785C08D2D0E94EE26009777
:104FF00009F088C00E941A2789839A8389819A813F
:1050000097FD83C0E981FA810190F081E02DD08283
:10501000D7018C91818312968D919C9113978283F5
:1050200093838C91883099F1893040F48230E9F093
:10503000843021F1813009F055C00EC08032C9F1B1
:10504000813220F4803109F04DC02AC08034D1F182
:10505000803809F047C03FC0F8018089D701119618
:105060009C911197892B808B3DC0F8018189D701D4
:1050700011969C911197892B818B34C0F8018289FC
:10508000D70111969C911197892B828B2BC0F80127
:105090008389D70111969C911197892B838B22C00C
:1050A000F8018489D70111969C911197892B848BE3
:1050B00019C0F8018589D70111969C911197892B08
:1050C000858B10C0F8018689D70111969C911197A4
:1050D000892B868B07C0F8018789D70111969C918F
:1050E000892B878BF80181858C608187D7018C9112
:1050F000838789819A810BC08FEF9FEF08C08AEF69
:105100009FEF05C089EF9FEF02C08EEF9FEF0F90DA
:105110000F90DF91CF911F910F91FF90EF90DF9053
:10512000CF900895FC01DB0111968C911197882393
:1051300009F112969C911297992311F0868301C070
:10514000858311968C911197818311968C9111977B
:105150008093B00014968C911497813029F081309F
:1051600040F0823031F402C080E201C088E2808BDE
:1051700001C0108A8C918823C1F011868C918283A2
:105180008C918093B00013968C911397843029F002
:10519000853029F0833041F404C080E103C088E108
:1051A00001C088E0808B0895108A08951F920F92A5
:1051B0000FB60F9208B60F9209B60F920BB60F9268
:1051C00011242F933F934F935F936F937F938F930C
:1051D0009F93AF93BF93EF93FF9380E00E94EE26DF
:1051E000DC01009751F01296ED91FC9113973097E6
:1051F00021F080E011966C911995FF91EF91BF918C
:10520000AF919F918F917F916F915F914F913F915E
:105210002F910F900BBE0F9009BE0F9008BE0F90FC
:105220000FBE0F901F9018951F920F920FB60F92FE
:1052300008B60F9209B60F920BB60F9211242F9356
:105240003F934F935F936F937F938F939F93AF930E
:10525000BF93EF93FF9381E00E94EE26DC0100975D
:1052600051F01296ED91FC911397309721F080E068
:1052700011966C911995FF91EF91BF91AF919F910C
:105280008F917F916F915F914F913F912F910F90EF
:105290000BBE0F9009BE0F9008BE0F900FBE0F906F
:1052A0001F9018951F920F920FB60F9208B60F928B
:1052B00009B60F920BB60F9211242F933F934F9381
:1052C0005F936F937F938F939F93AF93BF93EF936E
:1052D000FF9382E00E94EE26DC01009751F01296C7
:1052E000ED91FC911397309721F081E011966C912C
:1052F0001995FF91EF91BF91AF919F918F917F9100
:105300006F915F914F913F912F910F900BBE0F9036
:1053100009BE0F9008BE0F900FBE0F901F901895FA
:105320001F920F920FB60F9208B60F9209B60F9206
:105330000BB60F9211242F933F934F935F936F936C
:105340007F938F939F93AF93BF93EF93FF9383E0EC
:105350000E94EE26DC01009751F01296ED91FC912F
:105360001397309721F081E011966C911995FF9178
:10537000EF91BF91AF919F918F917F916F915F91CD
:105380004F913F912F910F900BBE0F9009BE0F9040
:1053900008BE0F900FBE0F901F9018951F920F928E
:1053A0000FB60F9208B60F9209B60F920BB60F9276
:1053B00011242F933F934F935F936F937F938F931A
:1053C0009F93AF93BF93EF93FF9384E00E94EE26E9
:1053D000DC01009751F01296ED91FC9113973097F4
:1053E00021F082E011966C911995FF91EF91BF9198
:1053F000AF919F918F917F916F915F914F913F916D
:105400002F910F900BBE0F9009BE0F9008BE0F900A
:105410000FBE0F901F9018951F920F920FB60F920C
:1054200008B60F9209B60F920BB60F9211242F9364
:105430003F934F935F936F937F938F939F93AF931C
:10544000BF93EF93FF9385E00E94EE26DC01009767
:1054500051F01296ED91FC911397309721F082E074
:1054600011966C911995FF91EF91BF91AF919F911A
:105470008F917F916F915F914F913F912F910F90FD
:105480000BBE0F9009BE0F9008BE0F900FBE0F907D
:105490001F9018951F920F920FB60F9208B60F9299
:1054A00009B60F920BB60F9211242F933F934F938F
:1054B0005F936F937F938F939F93AF93BF93EF937C
:1054C000FF9386E00E94EE26DC01009751F01296D1
:1054D000ED91FC911397309721F083E011966C9138
:1054E0001995FF91EF91BF91AF919F918F917F910E
:1054F0006F915F914F913F912F910F900BBE0F9045
:1055000009BE0F9008BE0F900FBE0F901F90189508
:105510001F920F920FB60F9208B60F9209B60F9214
:105520000BB60F9211242F933F934F935F936F937A
:105530007F938F939F93AF93BF93EF93FF9387E0F6
:105540000E94EE26DC01009751F01296ED91FC913D
:105550001397309721F083E011966C911995FF9184
:10556000EF91BF91AF919F918F917F916F915F91DB
:105570004F913F912F910F900BBE0F9009BE0F904E
:1055800008BE0F900FBE0F901F9018951F920F929C
:105590000FB60F9208B60F9209B60F920BB60F9284
:1055A00011242F933F934F935F936F937F938F9328
:1055B0009F93AF93BF93EF93FF9388E00E94EE26F3
:1055C000DC01009751F01296ED91FC911397309702
:1055D00021F084E011966C911995FF91EF91BF91A4
:1055E000AF919F918F917F916F915F914F913F917B
:1055F0002F910F900BBE0F9009BE0F9008BE0F9019
:105600000FBE0F901F9018951F920F920FB60F921A
:1056100008B60F9209B60F920BB60F9211242F9372
:105620003F934F935F936F937F938F939F93AF932A
:10563000BF93EF93FF9389E00E94EE26DC01009771
:1056400051F01296ED91FC911397309721F084E080
:1056500011966C911995FF91EF91BF91AF919F9128
:105660008F917F916F915F914F913F912F910F900B
:105670000BBE0F9009BE0F9008BE0F900FBE0F908B
:105680001F9018951F920F920FB60F9208B60F92A7
:1056900009B60F920BB60F9211242F933F934F939D
:1056A0005F936F937F938F939F93AF93BF93EF938A
:1056B000FF938AE00E94EE26DC01009751F01296DB
:1056C000ED91FC911397309721F085E011966C9144
:1056D0001995FF91EF91BF91AF919F918F917F911C
:1056E0006F915F914F913F912F910F900BBE0F9053
:1056F00009BE0F9008BE0F900FBE0F901F90189517
:105700001F920F920FB60F9208B60F9209B60F9222
:105710000BB60F9211242F933F934F935F936F9388
:105720007F938F939F93AF93BF93EF93FF938BE000
:105730000E94EE26DC01009751F01296ED91FC914B
:105740001397309721F085E011966C911995FF9190
:10575000EF91BF91AF919F918F917F916F915F91E9
:105760004F913F912F910F900BBE0F9009BE0F905C
:1057700008BE0F900FBE0F901F9018951F920F92AA
:105780000FB60F9208B60F9209B60F920BB60F9292
:1057900011242F933F934F935F936F937F938F9336
:1057A0009F93AF93BF93EF93FF938CE00E94EE26FD
:1057B000DC01009751F01296ED91FC911397309710
:1057C00021F086E011966C911995FF91EF91BF91B0
:1057D000AF919F918F917F916F915F914F913F9189
:1057E0002F910F900BBE0F9009BE0F9008BE0F9027
:1057F0000FBE0F901F9018951F920F920FB60F9229
:1058000008B60F9209B60F920BB60F9211242F9380
:105810003F934F935F936F937F938F939F93AF9338
:10582000BF93EF93FF938DE00E94EE26DC0100977B
:1058300051F01296ED91FC911397309721F086E08C
:1058400011966C911995FF91EF91BF91AF919F9136
:105850008F917F916F915F914F913F912F910F9019
:105860000BBE0F9009BE0F9008BE0F900FBE0F9099
:105870001F9018951F920F920FB60F9208B60F92B5
:1058800009B60F920BB60F9211242F933F934F93AB
:105890005F936F937F938F939F93AF93BF93EF9398
:1058A000FF938EE00E94EE26DC01009751F01296E5
:1058B000ED91FC911397309721F087E011966C9150
:1058C0001995FF91EF91BF91AF919F918F917F912A
:1058D0006F915F914F913F912F910F900BBE0F9061
:1058E00009BE0F9008BE0F900FBE0F901F90189525
:1058F0001F920F920FB60F9208B60F9209B60F9231
:105900000BB60F9211242F933F934F935F936F9396
:105910007F938F939F93AF93BF93EF93FF938FE00A
:105920000E94EE26DC01009751F01296ED91FC9159
:105930001397309721F087E011966C911995FF919C
:10594000EF91BF91AF919F918F917F916F915F91F7
:105950004F913F912F910F900BBE0F9009BE0F906A
:1059600008BE0F900FBE0F901F9018951F920F92B8
:105970000FB60F9208B60F9209B60F920BB60F92A0
:1059800011242F933F934F935F936F937F938F9344
:105990009F93AF93BF93EF93FF9380E10E94EE2616
:1059A000DC01009751F01296ED91FC91139730971E
:1059B00021F088E011966C911995FF91EF91BF91BC
:1059C000AF919F918F917F916F915F914F913F9197
:1059D0002F910F900BBE0F9009BE0F9008BE0F9035
:1059E0000FBE0F901F9018951F920F920FB60F9237
:1059F00008B60F9209B60F920BB60F9211242F938F
:105A00003F934F935F936F937F938F939F93AF9346
:105A1000BF93EF93FF9381E10E94EE26DC01009794
:105A200051F01296ED91FC911397309721F088E098
:105A300011966C911995FF91EF91BF91AF919F9144
:105A40008F917F916F915F914F913F912F910F9027
:105A50000BBE0F9009BE0F9008BE0F900FBE0F90A7
:105A60001F9018951F920F920FB60F9208B60F92C3
:105A700009B60F920BB60F9211242F933F934F93B9
:105A80005F936F937F938F939F93AF93BF93EF93A6
:105A9000FF9382E10E94EE26DC01009751F01296FE
:105AA000ED91FC911397309721F089E011966C915C
:105AB0001995FF91EF91BF91AF919F918F917F9138
:105AC0006F915F914F913F912F910F900BBE0F906F
:105AD00009BE0F9008BE0F900FBE0F901F90189533
