S01200007072696D75734576616C2E73726563EA
S2140000000C942C0C0C945D0C0C9428290C94E82869
S2140000100C9428250C94E8240C94A5200C945820C5
S2140000200C940B200C94BE1F0C945D0C0C945D0C71
S2140000300C948B4B0C945A4D0C94E1440C94363E25
S2140000400C94D5450C9498450C945B450C941E4531
S2140000500C942A440C945D0C0C94A4440C946744B1
S2140000600C94AF2F0C9436510C946F510C945D0C7D
S2140000700C94A8510C94E1510C945D0C0C945D0CFE
S2140000800C945D0C0C945D0C0C94A8290C946829B7
S2140000900C945D0C0C945D0C0C945D0C0C94191E69
S2140000A00C94D71D0C94951D0C94531D0C94282865
S2140000B00C94E8270C941B4B0C94EA4C0C941141BE
S2140000C00C945D0C0C9405420C94C8410C948B4126
S2140000D00C944E410C945A400C945D0C0C94D440F5
S2140000E00C9497400C94392F0C94FE520C94375372
S2140000F00C945D0C0C9470530C94A9530C945D0CEA
S2140001000C94A8280C9468280C94282A0C94E829A7
S2140001100C945D0C0C945D0C0C945D0C0C94211FDF
S2140001200C94DF1E0C949D1E0C945B1E0C94534B7B
S2140001300C94224D0C94F9420C945D0C0C94ED43F7
S2140001400C94B0430C9473430C9436430C94424284
S2140001500C945D0C0C94BC420C947F420C94742F4F
S2140001600C941A520C9453520C945D0C0C948C52B2
S2140001700C94C5520C945D0C0C94A8250C94682520
S2140001800C9428270C94E8260C94A8260C94682631
S2140001900C9428260C94E8250C945D0C0C945D0CAD
S2140001A00C94A8270C9468270C94E34A0C94B24C41
S2140001B00C94293F0C945D0C0C941D400C94E03F6D
S2140001C00C94A33F0C94663F0C94723E0C945D0C0A
S2140001D00C94EC3E0C94AF3E0C94FE2E0C94E25322
S2140001E00C941B540C945D0C0C9454540C948D5429
S2140001F00C945D0C1B63007C3C3E5E2B3D3F2F5BEE
S2140002005D3B2C2A225C00496E76616C6964204353
S2140002104D440A0D0068656164002F006364006D3C
S2140002206B64697200726D646972002D7200726D83
S214000230006C7300746F70006465760073646C0005
S21400024068656C700073637400496E76616C6964EF
S214000250206E756D626572206F6620746F6B656EBA
S214000260730A0D00496E76616C696420746F6B6565
S2140002706E2073697A650A0D00272D2D2D2D2D2DE4
S2140002802D2D2D272D2D2D2D2D2D2D2D2D2D2D2D9F
S2140002902D2D2D2D2D2D2D272D2D2D2D2D2D2D2D8F
S2140002A02D2D2D2D2D2D2D2D2D2D2D2D2D2D2D2D79
S2140002B02D2D2D2D2D2D2D2D2D2D2D2D2D2D2D2D69
S2140002C02D2D270A0D007C206865616420202020E3
S2140002D07C203C617267313E202020202020202098
S2140002E0202020207C205072696E74732061206666
S2140002F0696C65203C617267313E20746F207468BB
S21400030065207465726D696E616C2E202020207CDD
S2140003100A0D007C20746F7563682020207C203CCA
S214000320617267313E2020202020202020202020BF
S214000330207C204372656174652066696C65203C8C
S214000340617267313E2E2020202020202020202091
S2140003502020202020202020202020207C0A0D0085
S2140003607C206D6B6469722020207C203C61726763
S214000370313E2020202020202020202020207C20ED
S2140003804372656174652061206469726563746F89
S2140003907279203C617267313E2E2020202020207A
S2140003A02020202020202020207C0A0D007C207287
S2140003B06D6469722020207C203C617267313E208B
S2140003C020202020202020202020207C2052656D08
S2140003D06F76652061206469726563746F72792E2A
S2140003E02020202020202020202020202020202008
S2140003F02020202020207C0A0D007C20726D2020EA
S214000400202020207C203C617267313E2020202066
S21400041020202020202020207C2052656D6F7665CD
S21400042020612066696C65203C617267313E2E2033
S21400043020202020202020202020202020202020B7
S2140004402020207C0A0D007C2063642020202020B1
S214000450207C203C617267313E2020202020202016
S21400046020202020207C204368616E676520746F02
S21400047020646972203C617267313E2E2020202065
S2140004802020202020202020202020202020202067
S2140004907C0A0D007C206C732020202020207C20ED
S2140004A03C617267313E2020202020202020202022
S2140004B020207C20446973706C61797320746865B1
S2140004C020636F6E74656E7473206F662064697245
S2140004D0203C617267313E2E20202020207C0A0DB1
S2140004E0007C20746F7020202020207C202020207C
S2140004F02020202020202020202020202020207C9B
S21400050020446973706C6179732073797374656DB8
S21400051020737461746973746963732E20202020BD
S214000520202020202020202020207C0A0D007C2057
S21400053064657620202020207C202020202020207B
S2140005402020202020202020202020207C205265D3
S2140005507475726E732061206C697374206F6620E8
S21400056061637469766520647269766572732E209D
S214000570202020202020207C0A0D007C2020202007
S21400058020202020207C202020202020202020200A
S2140005902020202020202020207C20302C312C32AF
S2140005A020286C6F772C206D65642C20686967683E
S2140005B0292020202020202020202020202020202D
S2140005C0202020207C0A0D007C2073646C202020D4
S2140005D020207C203C617267313E20202020202095
S2140005E02020202020207C205365742074686520FD
S2140005F06465627567206C6576656C2C2077686527
S2140006007265203C617267313E203D20202020200C
S214000610207C0A0D007C2D2D2D2D2D2D2D2D2D7C95
S2140006202D2D2D2D2D2D2D2D2D2D2D2D2D2D2D2DF5
S2140006302D2D2D7C2D2D2D2D2D2D2D2D2D2D2D2D96
S2140006402D2D2D2D2D2D2D2D2D2D2D2D2D2D2D2DD5
S2140006502D2D2D2D2D2D2D2D2D2D2D2D2D2D7C0A99
S2140006600D007C20436F6D6D616E64207C20202021
S2140006702020417267756D656E74732020202020DF
S2140006807C202020202020202020202020202044E5
S21400069065736372697074696F6E20202020202055
S2140006A020202020202020202020207C0A0D002E24
S2140006B02D2D2D2D2D2D2D2D2D2D2D2D2D2D2D2D65
S2140006C02D2D2D2D2D2D2D2D2D2D2D2D2D2D2D2D55
S2140006D02D2D2D2D2D2D2D2D2D2D2D2D2D2D2D2D45
S2140006E02D2D2D2D2D2D2D2D2D2D2D2D2D2D2D2D35
S2140006F02D2D2D2D2D2D2D2D2E0A0D005468652007
S21400070027456E7465722720627574746F6E207745
S214000710696C6C20656E61626C652F6469736162DA
S2140007206C65206120646562756767696E67207313
S214000730657373696F6E2E2050726573732027453C
S2140007406E7465722720746F20626567696E2E2E40
S2140007502E0A0D00496E76616C6964204C657665DC
S2140007606C0A0D00272D2D2D2D2D2D2D2D2D2D2DEB
S2140007702D2D2D2D2D2D272D2D2D2D2D2D2D2D2DAA
S2140007802D2D2D2D2D272D2D2D2D2D2D2D2D2D2D9A
S2140007902D2D2D272D2D2D2D2D2D2D2D2D2D2D2D8A
S2140007A02D2D270A0D007C20253136737C2025321E
S2140007B06420202020202020202020207C2025327D
S2140007C064202020202020202020207C2025326429
S2140007D020202020202020202020207C0A0D007CA5
S2140007E02D2D2D2D2D2D2D2D2D2D2D2D2D2D2D2D34
S2140007F02D7C2D2D2D2D2D2D2D2D2D2D2D2D2D2DD5
S2140008007C2D2D2D2D2D2D2D2D2D2D2D2D2D7C2D75
S2140008102D2D2D2D2D2D2D2D2D2D2D2D2D7C0A0DF7
S214000820007C202020447269766572204E616D65DA
S2140008302020207C204D616A6F72204E756D6265A7
S21400084072207C204D696E6F72204E756D626572E7
S2140008507C2023206F662048616E646C6573207C64
S2140008600A0D002E2D2D2D2D2D2D2D2D2D2D2D2D22
S2140008702D2D2D2D2D2D2D2D2D2D2D2D2D2D2D2DA3
S2140008802D2D2D2D2D2D2D2D2D2D2D2D2D2D2D2D93
S2140008902D2D2D2D2D2D2D2D2D2D2D2D2D2D2D2D83
S2140008A02D2E0A0D00272D2D2D2D2D2D2D2D2D2DE8
S2140008B02D2D2D2D2D2D2D2D2D2D2D2D2D2D2D2769
S2140008C02D2D2D2D2D2D2D2D2D2D2D2D2D2D2D2759
S2140008D00A0D007C537973204C6F61642061667446
S2140008E065722035206D696E75746573207C2025D1
S2140008F031322E31662525207C0A0D00272D2D2D20
S2140009002D2D2D2D2D2D2D2D2D2D2D2D2D2D2D2D12
S2140009102D2D2D2D2D2D272D2D2D2D2D2D2D2D2D08
S2140009202D2D2D2D2D2D270A0D007C537973204C4F
S2140009306F61642061667465722031206D696E7522
S214000940746520207C202531322E31662525207CBA
S2140009500A0D00272D2D2D2D2D2D2D2D2D272D2D3E
S2140009602D2D2D2D2D2D2D2D2D2D2D2D2D272D2DB8
S2140009702D2D2D2D2D2D2D2D2D2D2D2D2D270A0DEB
S214000980007C2020202020202020207C20202020CA
S21400099020202020202020202020207C20253132CE
S2140009A0642525207C0A0D007C4672656520524130
S2140009B04D207C20202020202020202020202020A9
S2140009C020207C2025313364207C0A0D00272D2D25
S2140009D02D2D2D2D2D2D2D272D2D2D2D2D2D2D2D48
S2140009E02D2D2D2D2D2D2D272D2D2D2D2D2D2D2D38
S2140009F02D2D2D2D2D2D2D270A0D007C202020207D
S214000A0020202020207C2020202020202020202085
S214000A1020202020207C20253132642525207C0AB9
S214000A200D007C557365642052414D207C202020AB
S214000A302020202020202020202020207C2025313F
S214000A403364207C0A0D00272D2D2D2D2D2D2D2DC8
S214000A502D272D2D2D2D2D2D2D2D2D2D2D2D2D2DC7
S214000A602D272D2D2D2D2D2D2D2D2D2D2D2D2D2DB7
S214000A702D270A0D007C2020202E68656170207CC2
S214000A80202020202020202030782578207C20253B
S214000A90313364207C0A0D007C202020202E6273D7
S214000AA073207C20202020202020203078257820CD
S214000AB07C2025313364207C0A0D007C2020202EEB
S214000AC064617461207C2020202020202020307843
S214000AD02578207C2025313364207C0A0D007C2D6F
S214000AE02D2D2D2D2D2D2D2D7C2D2D2D2D2D2D2DE2
S214000AF02D2D2D2D2D2D2D2D7C2D2D2D2D2D2D2DD2
S214000B002D2D2D2D2D2D2D2D7C0A0D007C20536591
S214000B106374696F6E207C202020204164647265B7
S214000B207373202020207C20202053697A65204281
S214000B307974657320207C0A0D002E2D2D2D2D2D09
S214000B402D2D2D2D2E2D2D2D2D2D2D2D2D2D2D2DCF
S214000B502D2D2D2D2E2D2D2D2D2D2D2D2D2D2D2DBF
S214000B602D2D2D2D2E0A0D000D0A50726573732043
S214000B7027456E7465722720746F20726573756DD5
S214000B80652C2027712720746F2073746F702E0ACF
S214000B900D002533645D202000253033645D202061
S214000BA00025303033645D2020002532643A00256D
S214000BB03032643A002532643A00253032643A0016
S214000BC05B2532643A005B253032643A006172621B
S214000BD05F73797354696D657253746172742066BD
S214000BE061696C656420776974682025642E0A0D37
S214000BF000272D2D2D2D2D2D2D2D2D272D2D2D2D59
S214000C002D2D2D2D2D2D2D2D2D2D2D2D2D2D2D2715
S214000C102D2D2D2D2D2D2D2D2D2D2D2D2D2D2D2DFF
S214000C202D2D2D2D2D2D2D2D2D2D2D2D2D2D2D2DEF
S214000C302D2D2D2D2D2D2D2D2D2D270A0D007C2013
S214000C40736C7420202020207C2020202020202050
S214000C502020202020202020202020207C205065BE
S214000C6072666F726D73206120535049206C6F6FEF
S214000C70706261636B20746573742E2020202020C0
S214000C80202020202020207C0A0D007C2074677401
S214000C9020202020207C20202020202020202020F3
S214000CA02020202020202020207C20506572666F87
S214000CB0726D7320612074657374207573696E6736
S214000CC020612074696D657220616E642032206731
S214000CD070696F737C0A0D007C20746C7420202071
S214000CE020207C20202020202020202020202020A3
S214000CF02020202020207C20506572666F726D7345
S214000D00206120545749206C6F6F706261636B20BE
S214000D10746573742E202020202020202020202080
S214000D20207C0A0D007C20756C7420202020207CFE
S214000D3020202020202020202020202020202020AE
S214000D402020207C20506572666F726D73206120B3
S214000D5055415254206C6F6F706261636B207465EE
S214000D6073742E20202020202020202020207C0A83
S214000D700D007C2D2D2D2D2D2D2D2D2D7C2D2D2D4D
S214000D802D2D2D2D2D2D2D2D2D2D2D2D2D2D2D2D8E
S214000D907C2D2D2D2D2D2D2D2D2D2D2D2D2D2D2D2F
S214000DA02D2D2D2D2D2D2D2D2D2D2D2D2D2D2D2D6E
S214000DB02D2D2D2D2D2D2D2D2D2D2D7C0A0D007C30
S214000DC020436F6D6D616E64207C202020202041C2
S214000DD07267756D656E747320202020207C20203D
S214000DE020202020202020202020202044657363FF
S214000DF072697074696F6E202020202020202020C9
S214000E0020202020202020207C0A0D002E2D2D2D95
S214000E102D2D2D2D2D2D2D2D2D2D2D2D2D2D2D2DFD
S214000E202D2D2D2D2D2D2D2D2D2D2D2D2D2D2D2DED
S214000E302D2D2D2D2D2D2D2D2D2D2D2D2D2D2D2DDD
S214000E402D2D2D2D2D2D2D2D2D2D2D2D2D2D2D2DCD
S214000E502D2D2D2D2D2E0A0D0054657374206669D8
S214000E606E69736865642E2052656365697665648D
S214000E70202564206F7574206F66202564206D65BC
S214000E8073736167657320776974682025642065CD
S214000E9072726F72732E0A0D000A0D004D65737321
S214000EA061676520746F6F2062696720666F7220C5
S214000EB06D61696C626F782E0A0D00456E746572FE
S214000EC0207468652074657374206D65737361673C
S214000ED0652D3E2000496E76616C696420434D4462
S214000EE00A0D0053656C656374206E756D626572DD
S214000EF0206F6620747269616C732028303C2D3E2A
S214000F003130303030292C20707265737320656E56
S214000F107465722D3E2000272D2D2D2D2D2D2D2D67
S214000F202D2D2D2D2D2D2D2D2D2D2D2D272D2D2DF2
S214000F302D2D2D2D2D2D2D2D2D2D2D2D2D2D2D2DDC
S214000F402D2D2D2D2D2D2D2D2D2D2D2D272D2D2DD2
S214000F502D2D2D2D2D2D2D2D2D2D2D2D2D2D2D2DBC
S214000F60270A0D007C202020202020202020202062
S214000F702020202020202020207C20616E642074E9
S214000F80776F206D61696C626F78206D6F64756C29
S214000F9065732E2020202020207C2020202020204A
S214000FA0202020202020202020202020207C0A0D09
S214000FB0007C2020202020202020202020202020F0
S214000FC02020202020207C205465737420746872B2
S214000FD065616473207573696E67205350493220CB
S214000FE02020202020207C202020202020202020A0
S214000FF0202020202020202020207C0A0D007C207D
S21400100020202020202020202020202020202020DB
S2140010102020207C2074686520636F6E736F6C657B
S21400102020616E64207573725F706C6174666F7297
S2140010306D2D207C20616E64205046362E202020A8
S214001040202020202020207C0A0D007C20535049A0
S214001050206C6F6F706261636B2074657374202000
S2140010607C204C6F6F7073206261636B2061206D13
S214001070657373616765206265747765656E2020A9
S2140010807C20436F6E6E6563742070696E732050AB
S214001090463520207C0A0D00272D2D2D2D2D2D2D9B
S2140010A02D2D2D2D2D2D2D2D2D2D2D2D2D272D2D71
S2140010B02D2D2D2D2D2D2D2D2D2D2D2D2D2D2D2D5B
S2140010C02D2D2D2D2D2D2D2D2D2D2D2D2D272D2D51
S2140010D02D2D2D2D2D2D2D2D2D2D2D2D2D2D2D2D3B
S2140010E02D270A0D007C20202020202020202020D4
S2140010F0202020202020202020207C20616E6420BC
S21400110074776F206D61696C626F78206D6F64759F
S2140011106C65732E2020202020207C20202020207C
S21400112020202020202020202020202020207C0A74
S2140011300D007C2020202020202020202020202081
S214001140202020202020207C205465737420746882
S2140011507265616473207573696E672054574932EF
S2140011602C2054574933207C2070696E73205044DD
S2140011703120616E64205045312E207C0A0D007CA3
S214001180202020202020202020202020202020205A
S214001190202020207C2074686520636F6E736F6C3F
S2140011A06520616E64207573725F706C6174666F23
S2140011B0726D2D207C20616E642050453020617356
S2140011C02077656C6C2061737C0A0D007C20545778
S2140011D049206C6F6F706261636B20746573742056
S2140011E0207C204C6F6F7073206261636B206120DF
S2140011F06D657373616765206265747765656E20DB
S214001200207C20436F6E6E6563742070696E732059
S21400121050443020207C0A0D00272D2D2D2D2D2DFD
S2140012202D2D2D2D2D2D2D2D2D2D2D2D2D2D272DEF
S2140012302D2D2D2D2D2D2D2D2D2D2D2D2D2D2D2DD9
S2140012402D2D2D2D2D2D2D2D2D2D2D2D2D2D272DCF
S2140012502D2D2D2D2D2D2D2D2D2D2D2D2D2D2D2DB9
S2140012602D2D270A0D007C20202020202020202045
S21400127020202020202020202020207C20444D419B
S21400128027732C20616E642074776F206D61696C03
S214001290626F78206D6F64756C65737C20202020EB
S2140012A02020202020202020202020202020207CDD
S2140012B00A0D007C20202020202020202020202016
S2140012C020202020202020207C2054657374207449
S2140012D0687265616473207573696E672055415244
S2140012E054362C2074776F207C202020202020204D
S2140012F02020202020202020202020207C0A0D00D6
S2140013007C2020202020202020202020202020207C
S21400131020202020207C2074686520636F6E736F09
S2140013206C6520616E64207573725F706C617466A4
S2140013306F726D2D207C20616E64205045372E2004
S2140013402020202020202020207C0A0D007C2055F4
S214001350415254206C6F6F706261636B20746573CA
S21400136074207C204C6F6F7073206261636B206109
S214001370206D657373616765206265747765656E59
S21400138020207C20436F6E6E6563742070696E73D8
S2140013902050453620207C0A0D007C2D2D2D2D2D2D
S2140013A02D2D2D2D2D2D2D2D2D2D2D2D2D2D2D7C19
S2140013B02D2D2D2D2D2D2D2D2D2D2D2D2D2D2D2D58
S2140013C02D2D2D2D2D2D2D2D2D2D2D2D2D2D2D7CF9
S2140013D02D2D2D2D2D2D2D2D2D2D2D2D2D2D2D2D38
S2140013E02D2D2D7C0A0D007C202020202020202062
S2140013F05465737420202020202020207C2020206C
S2140014002020202020202044657363726970746950
S2140014106F6E202020202020202020207C202020CE
S2140014202020202053657475702020202020202046
S2140014307C0A0D002E2D2D2D2D2D2D2D2D2D2D2DF7
S2140014402D2D2D2D2D2D2D2D2D2D2D2D2D2D2D2DC7
S2140014502D2D2D2D2D2D2D2D2D2D2D2D2D2D2D2DB7
S2140014602D2D2D2D2D2D2D2D2D2D2D2D2D2D2D2DA7
S2140014702D2D2D2D2D2D2D2D2D2D2D2D2D2E0A0DD9
S21400148000546573742066696E69736865642E0A15
S2140014900D0054696D657220696E746572727570A0
S2140014A0742E2E2E0A0D00496E76616C69642043F8
S2140014B04D440A0D0053656C656374206E756D624D
S2140014C06572206F6620747269616C732028303CE8
S2140014D02D3E3130303030292C20707265737320E9
S2140014E0656E7465722D3E2000272D2D2D2D2D2D19
S2140014F02D2D2D2D2D2D2D2D2D2D2D2D2D2D272D1D
S2140015002D2D2D2D2D2D2D2D2D2D2D2D2D2D2D2D06
S2140015102D2D2D2D2D2D2D2D2D2D2D2D2D2D272DFC
S2140015202D2D2D2D2D2D2D2D2D2D2D2D2D2D2D2DE6
S2140015302D2D270A0D007C20202020202020202072
S21400154020202020202020202020207C2063617561
S21400155073657320616E20696E746572727570743F
S214001560206F6E204750494F5F312E7C2020202070
S2140015702020202020202020202020202020207C0A
S2140015800A0D007C20202020202020202020202043
S21400159020202020202020207C2074696D65722069
S2140015A0746F67676C6573204750494F5F322077CA
S2140015B068696368202020207C20202020202020AE
S2140015C02020202020202020202020207C0A0D0003
S2140015D07C202020202020202020202020202020AA
S2140015E020202020207C2061742061206F6E6520E2
S2140015F07365636F6E6420726174652E205468652F
S21400160020202020207C20616E64205048342E202C
S2140016102020202020202020207C0A0D007C205422
S214001620696D65722F4750494F207465737420208A
S21400163020207C20456E61626C65732054494D45C0
S214001640525F3120776869636820676F6573206F23
S21400165066667C20436F6E6E6563742070696E7379
S2140016602050483320207C0A0D007C2D2D2D2D2D5A
S2140016702D2D2D2D2D2D2D2D2D2D2D2D2D2D2D7C46
S2140016802D2D2D2D2D2D2D2D2D2D2D2D2D2D2D2D85
S2140016902D2D2D2D2D2D2D2D2D2D2D2D2D2D2D7C26
S2140016A02D2D2D2D2D2D2D2D2D2D2D2D2D2D2D2D65
S2140016B02D2D2D7C0A0D007C20202020202020208F
S2140016C05465737420202020202020207C20202099
S2140016D0202020202020204465736372697074697E
S2140016E06F6E202020202020202020207C202020FC
S2140016F02020202053657475702020202020202074
S2140017007C0A0D002E2D2D2D2D2D2D2D2D2D2D2D24
S2140017102D2D2D2D2D2D2D2D2D2D2D2D2D2D2D2DF4
S2140017202D2D2D2D2D2D2D2D2D2D2D2D2D2D2D2DE4
S2140017302D2D2D2D2D2D2D2D2D2D2D2D2D2D2D2DD4
S2140017402D2D2D2D2D2D2D2D2D2D2D2D2D2E0A0D06
S214001750006E616E00696E660000407A10F35A00F3
S214001760A0724E18090010A5D4E80000E8764817C5
S2140017700000E40B54020000CA9A3B000000E1F5AA
S21400178005000080969800000040420F000000A070
S2140017908601000000102700000000E8030000009B
S2140017A0006400000000000A0000000000010000C5
S2140017B00000002C76D888DC674F0823DFC1DFAE38
S2140017C059E1B1B796E5E3E453C63AE65199769601
S2140017D0E8E6C28426EB898C9B62ED407C6FFCEFCA
S2140017E0BC9C9F40F2BAA56FA5F490055A2AF75CF8
S2140017F0936B6CF9676DC11BFCE0E40D47FEF520AA
S214001800E6B500D0ED902E03009435770500808471
S2140018101E080000204E0A000000C80C3333333385
S2140018200F986E12831141EF8D2114893BE65516F1
S214001830CFFEE6DB18D1844B381BF77C1D901DA429
S214001840BBE424203284725E228100C9F124ECA11C
S214001850E53D2700885EFD7611241FBECFEFDFE34F
S214001860DEBFCDBF00E00CBF18BE19BE1ABE1BBE41
S21400187012E2A0E0B0E2E6E7F3E701E00BBF02C049
S21400188007900D92A638B107D9F71BBE16E2A6E858
S214001890B2E201C01D92A830B107E1F718E1C8E531
S2140018A0D8E104C02297FE010E94B5B9C435D1071D
S2140018B0C9F70E94188A0C94E5B60C940000EF92C3
S2140018C0FF920F93DF93CF93CDB7DEB76097CDBF70
S2140018D0DEBFA82F002309F461C07E010894E11C36
S2140018E0F11C88E0F70111928A95E9F729833A837B
S2140018F04B835C836D837E83AF83988780E2801BF7
S214001900E82FFF27E7FDF0954D815E816F81788592
S214001910181684F01D861E861F86188A8827992723
S2140019208E1B9F0B04C076956795579547958A95AD
S214001930D2F728C0202F332727FD3095DB01CA01B8
S214001940022E04C0B695A795979587950A94D2F768
S2140019508D879E87AF87B88B04C0440F551F661FC0
S214001960771FEA95D2F789819A81AB81BC8104C042
S214001970B695A795979587952A95D2F7482B592B14
S2140019806A2B7B2B49875A876B877C8729853A8504
S2140019904B855C856D857E85AF8598898A2F609698
S2140019A0CDBFDEBFCF91DF910F91FF90EF900895EE
S2140019B01F93DF93CF930F920F92CDB7DEB7898335
S2140019C09A83809186229091872260E00E94C8992F
S2140019D080918E22815080938E22882351F48091AC
S2140019E08F22909190220E94FA5487FF02C016EF31
S2140019F001C010E080918622909187220E948196F5
S214001A00812F0F900F90CF91DF911F9108951F9314
S214001A10DF93CF930F920F92CDB7DEB789839A8369
S214001A20809188229091892260E00E94C8998091D6
S214001A308E228F5F80938E22813051F480918F2288
S214001A40909190220E94C65487FF02C016EF01C0F4
S214001A5010E080918822909189220E948196812FA1
S214001A600F900F90CF91DF911F910895DF93CF9342
S214001A7000D0CDB7DEB78A839B838FB78983F8946F
S214001A8080918F22909190220E94B85A99819FBF90
S214001A90282F332727FD3095C9012396CDBFDEBFFB
S214001AA0CF91DF910895CF92DF92EF92FF920F933E
S214001AB01F93DF93CF93CDB7DEB7AA97CDBFDEBF18
S214001AC089A79AA769017A01643009F4BFC0653016
S214001AD050F4613009F4FEC06130F8F0623049F12C
S214001AE0633091F42FC0673009F429C1683030F4B0
S214001AF0653009F4F3C0663039F4FDC0683009F487
S214001B003FC1693009F451C13DEFE32E3FEFF32E9C
S214001B103FEF032F3FEF132F8FC180918C229091C0
S214001B208D220E945FA17C010027F7FC0095102FF4
S214001B3083C180918F22909190220E9460557B01F4
S214001B408C017AC1809186229091872260E00E9463
S214001B50C899760180918A2290918B2260E00E943B
S214001B60C89980918C2290918D220E9473A18C013D
S214001B7080918C2290918D220E945FA1682FF601A1
S214001B80E059FF4F1082AF01DA018C91A82FB0E028
S214001B9024E0AA0FBB1F2A95E1F7AE0DBF1D80E01B
S214001BA090E00EC0FD01E80FF91F208301968031FA
S214001BB0910521F491E100E010E018C00F5F1F4F7F
S214001BC0382FF80120812D3039F0222329F02032D9
S214001BD009F440C1861734F3832F992787FD909523
S214001BE0A80FB91F1C92932F9F5F691BDA018C9177
S214001BF08F5F8C93883010F06AEF11C0913114F02B
S214001C006BEF0DC0F80180818A3041F0882331F0F7
S214001C100115110519F016160CF4B6CF60E0E62E85
S214001C20FF24E7FCF0940F2D1F2D80918C229091BD
S214001C308D220E942CA280918F22909190220E9449
S214001C40C6548091862290918722F4C08091882283
S214001C509091892260E00E94C8992DB73EB72A501D
S214001C6030402DBF3EBFEDB7FEB731968E010F5FF9
S214001C701F4FADB7BEB711960D931C93129780E019
S214001C8090E28283938380919222992787FD909594
S214001C908483958384E992E2868397838091932256
S214001CA0992787FD9095808791870E94A3B8AC01FD
S214001CB080918F2290919022EDB7FEB73A96EDBFB5
S214001CC0FEBFB8010E94B85A80918822909189225E
S214001CD00E948196EE24FF248701AEC08091882260
S214001CE09091892260E00E94C89984E992E2B60148
S214001CF00E9427B8E9CF809188229091892260E0DF
S214001D000E94C89900D00F928E010F5F1F4FADB78B
S214001D10BEB711960D931C93129784EF91E013961D
S214001D208D939C9314970E94CEB8AC0180918F221D
S214001D30909190220F900F900F900F90C2CF8091AD
S214001D4088229091892260E00E94C899D701C60136
S214001D50C097A109B1090897A105B105B0F500D053
S214001D6000D0EDB7FEB731968E010F5F1F4FADB7AF
S214001D70BEB711960D931C93129787E190E240C070
S214001D80DA01C901C097A109B1090897A105B105F3
S214001D9048F099EFE92E9FEFF92E9FEF092F9FEF5E
S214001DA0192F4AC02093922295CF80918822909135
S214001DB0892260E00E94C899D701C601C097A10990
S214001DC0B1090897A105B10548F089EFE82E8FEF15
S214001DD0F82E8FEF082F8FEF182F28C0C09293226F
S214001DE000D000D0EDB7FEB731968E010F5F1F4FC3
S214001DF0ADB7BEB711960D931C93129782E290E290
S214001E0082839383C48215820E94A3B8AC0180911A
S214001E108F2290919022EDB7FEB73696EDBFFEBFAB
S214001E20B8010E94B85AEE24FF24870180918822C8
S214001E30909189220E948196B701C801AA96CDBFCB
S214001E40DEBFCF91DF911F910F91FF90EF90DF9053
S214001E50CF9008950F5F1F4FBFCECF92DF92EF92C5
S214001E60FF920F931F93DF93CF930F920F92CDB7EE
S214001E70DEB789839A836B018A01809186229091CE
S214001E80872260E00E94C89980918A2290918B22D6
S214001E9060E00E94C89980918C2290918D220E94C9
S214001EA04BA17C0108171907B8F480918C229091F9
S214001EB08D220E942CA280918F22909190220E94C7
S214001EC0C65480918622909187220E94819644EF84
S214001ED0E42E4FEFF42E1AC080918C2290918D2222
S214001EE0B601A7010E94B7A280918C2290918D2204
S214001EF00E942CA280918F22909190220E94C6541C
S214001F0080918622909187220E948196C7010F9029
S214001F100F90CF91DF911F910F91FF90EF90DF9080
S214001F20CF900895AF92BF92CF92DF92EF92FF923A
S214001F300F931F93DF93CF93CDB7DEB76497CDBFD4
S214001F40DEBF4F87588B698B7A8B8B8B9C8B082FC9
S214001F50CF84D888E988FA88792F8BE290E260E00F
S214001F604CE350E20E94C984182F87FDB0C082E07F
S214001F700E94669480938622909387228091862280
S214001F809091872297FF06C08091862290918722A3
S214001F90182F99C080E00E94669480938A229093BE
S214001FA08B2280918A2290918B2297FF06C0809187
S214001FB08A2290918B22182F80C0802F0E944A5927
S214001FC080938F229093902280918F2290919022DE
S214001FD097FF02C016EF6BC0198283E08A831B82CC
S214001FE01C82CD82DE82EF82F8861A86198686E704
S214001FF090E18B879C871D861E8680918F2290910C
S2140020009022AA2453E0B52ECC24DD24ED80FE8059
S2140020100F81188520E030E04B855C856D857E85D8
S2140020200E948F5587FF02C016EF3BC081E790E005
S2140020300E9465A280938C2290938D2280918C22A0
S21400204090918D2297FF02C01FEF2BC082E00E9466
S214002050669480938822909389228091882290911A
S214002060892297FF0CC08091882290918922182F90
S21400207080918C2290918D220E9444A212C01092D0
S2140020808E221092912282E38093922287E380939D
S214002090932284E992E26AE370E20E9427B810E095
S2140020A016C080918F22909190220E94AD58809108
S2140020B08A2290918B220E94EF93809186229091A3
S2140020C087220E94EF938BE290E20E945084812F39
S2140020D06496CDBFDEBFCF91DF911F910F91FF9029
S2140020E0EF90DF90CF90BF90AF9008950F931F931F
S2140020F0CF93DF938C0180918C2290918D220E9449
S2140021004BA1EC0180918C2290918D220E945FA1C0
S2140021109C0181E0809391220F37110581F420976E
S214002120A9F180918F22909190226FE70E94275507
S21400213080918C2290918D220E94F7A140C00D3094
S214002140110521F580918F22909190226DE00E94DA
S214002150275580918F22909190226AE00E94275501
S2140021601092912280918F22909190220E94FA5490
S21400217080918C2290918D2260E00E9487A18091B0
S2140021808A2290918B220E94819619C0215030405D
S214002190C217D307A0F40F37110589F00B311105CC
S2140021A071F080918F2290919022602F0E94275587
S2140021B080918C2290918D22602F0E9487A1DF91C2
S2140021C0CF911F910F9108950F931F93DF93CF9395
S2140021D00F920F92CDB7DEB789839A8309811A8151
S2140021E08091A9229091AA2260E00E94C8998091CD
S2140021F0AD2281508093AD22F801828193810E94A6
S2140022007E77882319F0F801128213828091A92222
S2140022109091AA220E94819680E00F900F90CF9115
S214002220DF911F910F910895AF92BF92DF92EF92C8
S214002230FF920F931F93DF93CF930F920F92CDB71A
S214002240DEB789839A83D62E79018A01A980BA805F
S2140022508091A9229091AA2260E00E94C89985E008
S214002260D81609F447C08D15A0F0E2E0DE1609F492
S2140022705CC0ED1530F0DD2041F1F1E0DF16E1F451
S21400228036C083E0D81609F44AC0E4E0DE16A1F4AE
S2140022906BC0F8E0DF1689F1FD1538F086E0D81639
S2140022A0A1F1E7E0DE1641F434C0F9E0DF1649F1AB
S2140022B08AE0D81609F447C02BEFE22E2FEFF22E55
S2140022C02FEF022F2FEF122F52C08091AB2290914A
S2140022D0AC220E947478882309F046C09EEFE92E4F
S2140022E09FEFF92E9FEF092F9FEF192F40C00E94F6
S2140022F0487712C00E94787737C0C7010E944D7792
S2140023000BC0C7010E94717707C0C7010E945977AA
S21400231003C0C7010E945377882331F51CC0F5011E
S214002320828193810E940D771FC0F501828193817F
S21400233040E050E060E070E00E940977E82EFF245D
S21400234000E010E014C0F501828193810E94F776C8
S2140023507B018C010CC08DEFE82E8FEFF82E8FEFEF
S214002360082F8FEF182F03C0EE24FF2487018091DB
S214002370A9229091AA220E948196B701C8010F90C7
S2140023800F90CF91DF911F910F91FF90EF90DF900C
S214002390BF90AF9008958F929F92AF92BF92CF92C8
S2140023A0DF92FF920F931F93DF93CF930F920F92BC
S2140023B0CDB7DEB789839A834B015A01C980DA808C
S2140023C08091A9229091AA2260E00E94C899F60105
S2140023D082819381892B19F400E010E019C0FF2454
S2140023E08091AB229091AC22F60162817381A401A8
S2140023F095010E942F778B0177FF0AC08091AB2250
S2140024009091AC220E947478F394F5E0FF1641F7A1
S2140024108091A9229091AA220E948196C8010F90CD
S2140024200F90CF91DF911F910F91FF90DF90CF908B
S214002430BF90AF909F908F9008958F929F92AF928B
S214002440BF92CF92DF92FF920F931F93DF93CF93AB
S2140024500F920F92CDB7DEB789839A834B015A014C
S214002460C980DA808091A9229091AA2260E00E9419
S214002470C899F60182819381892B19F400E010E057
S21400248019C0FF248091AB229091AC22F6016281A4
S2140024907381A40195010E9415778B0177FF0AC00E
S2140024A08091AB229091AC220E947478F394F5E070
S2140024B0FF1641F78091A9229091AA220E94819648
S2140024C0C8010F900F90CF91DF911F910F91FF9051
S2140024D0DF90CF90BF90AF909F908F9008950F930E
S2140024E01F93DF93CF930F920F92CDB7DEB78983FA
S2140024F09A838091A9229091AA2260E00E94C899AE
S21400250089819A818093A6229093A7228091AD22FA
S214002510882341F48091AB229091AC220E94877868
S2140025208823C1F10091A6221091A722F8012281EA
S21400253033812093A4223093A52221153105E9F09A
S2140025408481682F617081FD626082FD646083FD16
S214002550686084FD606185FD606286FD6064C90117
S2140025600E949877F80182839383E091A622F091E7
S214002570A72282819381892B69F08091AD228F5F9B
S2140025808093AD228091A9229091AA220E948196E2
S21400259080E007C08091A9229091AA220E9481968D
S2140025A080EF0F900F90CF91DF911F910F910895BC
S2140025B0DF92EF92FF920F931F93DF93CF93CDB7E7
S2140025C0DEB72897CDBFDEBFF62EE72ED82E792FA2
S2140025D085E0E9EAF2E2DF011D928A95E9F786E4F2
S2140025E090E260E040E550E20E94C984182F87FD23
S2140025F04EC082E00E9466948093A9229093AA22FD
S2140026008091A9229091AA2297FF06C08091A922C4
S2140026109091AA22182F37C0188680E095E3ACE088
S214002620B0E0382F8C839D83AE83BF8319821A82D5
S21400263081E08B838F2D00E010E021E04D815E81EC
S2140026406F8170E00E947B338093A82287FD14C0C0
S2140026508F2D60E070E04E2D2D2D0E94DC3780938C
S214002660AB229093AC228091AB229091AC2297FD46
S21400267003C01092AD220BC08091A9229091AA228D
S2140026800E94EF9316EF86E490E20E945084812F1A
S2140026902896CDBFDEBFCF91DF911F910F91FF909F
S2140026A0EF90DF900895DF93CF930F920F92CDB700
S2140026B0DEB789839A838091AE229091AF2260E044
S2140026C00E94C8998091B52281508093B52280914E
S2140026D0AE229091AF220E94819680E00F900F90DC
S2140026E0CF91DF910895EF92FF920F931F93DF93A0
S2140026F0CF930F920F92CDB7DEB789839A83162FAA
S2140027008091AE229091AF2260E00E94C899153069
S21400271009F4BDC3163080F4123009F4A8C1133092
S21400272028F4112341F11130E1F4F1C0133009F41B
S2140027304EC21430B1F4FBC2183009F4B8C51930D3
S21400274030F4163009F453C4173059F400C51A3063
S21400275009F40DC71A3008F45AC61B3011F40C944D
S214002760671B8BEFE82E8FEFF82E8FEF082F8FEF7B
S214002770182F0C94151C9091B1228091B0228530B0
S21400278009F471C08630A0F4823009F442C0833068
S21400279038F4882311F1813011F00C94121C2BC0F0
S2140027A0833009F444C0843011F00C94121C4DC0E0
S2140027B0883009F482C0893040F4863009F461C05C
S2140027C0873011F00C94121C6AC0893009F483C05B
S2140027D08A3011F00C94121C8CC08091000689235C
S2140027E011F40C94121CE0E0F6E09683EE24FF242D
S2140027F087010C94151C80912006892311F40C94F3
S214002800121CE0E2F6E09683EE24FF2487010C9487
S214002810151C80914006892311F40C94121CE0E4E8
S214002820F6E09683EE24FF2487010C94151C809115
S2140028306006892311F40C94121CE0E6F6E09683F9
S214002840EE24FF2487010C94151C809180068923B2
S21400285011F40C94121CE0E8F6E09683EE24FF24B4
S21400286087010C94151C8091A006892311F40C9402
S214002870121CE0EAF6E09683EE24FF2487010C940F
S214002880151C8091E006892311F40C94121CE0EECE
S214002890F6E09683EE24FF2487010C94151C8091A5
S2140028A00007892311F40C94121CE0E0F7E09683ED
S2140028B0EE24FF2487010C94151C809120078923A1
S2140028C011F40C94121CE0E2F7E09683EE24FF2449
S2140028D087010C94151C8091C007892311F40C9471
S2140028E0121CE0ECF7E09683EE24FF2487010C949C
S2140028F0151C8091E007892311F40C94121CE0EE5D
S214002900F7E09683EE24FF2487010C94151C909123
S214002910B1228091B022853009F461C0863080F4FF
S2140029208230C9F1833030F48823E9F0813009F031
S21400293079C725C08330D9F1843009F073C743C006
S214002940883009F470C0893038F4863009F453C0F2
S214002950873009F067C75BC0893009F470C08A30D9
S21400296009F060C778C080910006892309F45AC729
S214002970E0E0F6E09583EE24FF24870156C78091B9
S2140029802006892309F44EC7E0E2F6E09583EE249C
S214002990FF2487014AC780914006892309F442C76D
S2140029A0E0E4F6E09583EE24FF2487013EC780919D
S2140029B06006892309F436C7E0E6F6E09583EE2440
S2140029C0FF24870132C780918006892309F42AC72D
S2140029D0E0E8F6E09583EE24FF24870126C7809181
S2140029E0A006892309F41EC7E0EAF6E09583EE24E4
S2140029F0FF2487011AC78091E006892309F412C7CD
S214002A00E0EEF6E09583EE24FF2487010EC7809162
S214002A100007892309F406C7E0E0F7E09583EE2473
S214002A20FF24870102C780912007892309F4FAC68C
S214002A30E0E2F7E09583EE24FF248701F6C6809156
S214002A40C007892309F4EEC6E0ECF7E09583EE2490
S214002A50FF248701EAC68091E007892309F4E2C6CD
S214002A60E0EEF7E09583EE24FF248701DEC6909122
S214002A70B1228091B022853009F461C0863080F49E
S214002A808230C9F1833030F48823E9F0813009F0D0
S214002A90C9C625C08330D9F1843009F0C3C643C007
S214002AA0883009F470C0893038F4863009F453C091
S214002AB0873009F0B7C65BC0893009F470C08A3029
S214002AC009F0B0C678C080910006892309F4AAC62A
S214002AD0E0E0F6E09783EE24FF248701A6C6809107
S214002AE02006892309F49EC6E0E2F6E09783EE24EA
S214002AF0FF2487019AC680914006892309F492C66E
S214002B00E0E4F6E09783EE24FF2487018EC68091EA
S214002B106006892309F486C6E0E6F6E09783EE248D
S214002B20FF24870182C680918006892309F47AC62D
S214002B30E0E8F6E09783EE24FF24870176C68091CE
S214002B40A006892309F46EC6E0EAF6E09783EE2431
S214002B50FF2487016AC68091E006892309F462C6CD
S214002B60E0EEF6E09783EE24FF2487015EC68091B0
S214002B700007892309F456C6E0E0F7E09783EE24C1
S214002B80FF24870152C680912007892309F44AC68C
S214002B90E0E2F7E09783EE24FF24870146C68091A3
S214002BA0C007892309F43EC6E0ECF7E09783EE24DD
S214002BB0FF2487013AC68091E007892309F432C6CC
S214002BC0E0EEF7E09783EE24FF2487012EC690916F
S214002BD0B3228091B022853009F461C0863080F43B
S214002BE08230C9F1833030F48823E9F0813009F06F
S214002BF019C625C08330D9F1843009F013C643C006
S214002C00883009F470C0893038F4863009F453C02F
S214002C10873009F007C65BC0893009F470C08A3077
S214002C2009F000C678C080910006892309F4FAC529
S214002C30E0E0F6E09683EE24FF248701F6C5809157
S214002C402006892309F4EEC5E0E2F6E09683EE243A
S214002C50FF248701EAC580914006892309F4E2C56E
S214002C60E0E4F6E09683EE24FF248701DEC580913B
S214002C706006892309F4D6C5E0E6F6E09683EE24DE
S214002C80FF248701D2C580918006892309F4CAC52E
S214002C90E0E8F6E09683EE24FF248701C6C580911F
S214002CA0A006892309F4BEC5E0EAF6E09683EE2482
S214002CB0FF248701BAC58091E006892309F4B2C5CE
S214002CC0E0EEF6E09683EE24FF248701AEC5809101
S214002CD00007892309F4A6C5E0E0F7E09683EE2412
S214002CE0FF248701A2C580912007892309F49AC58D
S214002CF0E0E2F7E09683EE24FF24870196C58091F4
S214002D00C007892309F48EC5E0ECF7E09683EE242D
S214002D10FF2487018AC58091E007892309F482C5CC
S214002D20E0EEF7E09683EE24FF2487017EC59091BF
S214002D30B3228091B022853009F461C0863080F4D9
S214002D408230C9F1833030F48823E9F0813009F00D
S214002D5069C525C08330D9F1843009F063C543C006
S214002D60883009F470C0893038F4863009F453C0CE
S214002D70873009F057C55BC0893009F470C08A30C7
S214002D8009F050C578C080910006892309F44AC529
S214002D90E0E0F6E09583EE24FF24870146C58091A7
S214002DA02006892309F43EC5E0E2F6E09583EE248A
S214002DB0FF2487013AC580914006892309F432C56D
S214002DC0E0E4F6E09583EE24FF2487012EC580918B
S214002DD06006892309F426C5E0E6F6E09583EE242E
S214002DE0FF24870122C580918006892309F41AC52D
S214002DF0E0E8F6E09583EE24FF24870116C580916F
S214002E00A006892309F40EC5E0EAF6E09583EE24D1
S214002E10FF2487010AC58091E006892309F402C5CC
S214002E20E0EEF6E09583EE24FF248701FEC4809151
S214002E300007892309F4F6C4E0E0F7E09583EE2462
S214002E40FF248701F2C480912007892309F4EAC48D
S214002E50E0E2F7E09583EE24FF248701E6C4809144
S214002E60C007892309F4DEC4E0ECF7E09583EE247E
S214002E70FF248701DAC48091E007892309F4D2C4CD
S214002E80E0EEF7E09583EE24FF248701CEC4909110
S214002E90B3228091B022853009F461C0863080F478
S214002EA08230C9F1833030F48823E9F0813009F0AC
S214002EB0B9C425C08330D9F1843009F0B3C443C007
S214002EC0883009F470C0893038F4863009F453C06D
S214002ED0873009F0A7C45BC0893009F470C08A3017
S214002EE009F0A0C478C080910006892309F49AC42A
S214002EF0E0E0F6E09783EE24FF24870196C48091F5
S214002F002006892309F48EC4E0E2F6E09783EE24D7
S214002F10FF2487018AC480914006892309F482C46D
S214002F20E0E4F6E09783EE24FF2487017EC48091D8
S214002F306006892309F476C4E0E6F6E09783EE247B
S214002F40FF24870172C480918006892309F46AC42D
S214002F50E0E8F6E09783EE24FF24870166C48091BC
S214002F60A006892309F45EC4E0EAF6E09783EE241F
S214002F70FF2487015AC48091E006892309F452C4CD
S214002F80E0EEF6E09783EE24FF2487014EC480919E
S214002F900007892309F446C4E0E0F7E09783EE24AF
S214002FA0FF24870142C480912007892309F43AC48C
S214002FB0E0E2F7E09783EE24FF24870136C4809191
S214002FC0C007892309F42EC4E0ECF7E09783EE24CB
S214002FD0FF2487012AC48091E007892309F422C4CC
S214002FE0E0EEF7E09783EE24FF2487011EC490915D
S214002FF0B2228091B022853009F461C0863080F418
S2140030008230C9F1833030F48823E9F0813009F04A
S21400301009C425C08330D9F1843009F003C443C005
S214003020883009F470C0893038F4863009F453C00B
S214003030873009F0F7C35BC0893009F470C08A3066
S21400304009F0F0C378C080910006892309F4EAC32A
S214003050E0E0F6E09683EE24FF248701E6C3809145
S2140030602006892309F4DEC3E0E2F6E09683EE2428
S214003070FF248701DAC380914006892309F4D2C36E
S214003080E0E4F6E09683EE24FF248701CEC3809129
S2140030906006892309F4C6C3E0E6F6E09683EE24CC
S2140030A0FF248701C2C380918006892309F4BAC32E
S2140030B0E0E8F6E09683EE24FF248701B6C380910D
S2140030C0A006892309F4AEC3E0EAF6E09683EE2470
S2140030D0FF248701AAC38091E006892309F4A2C3CE
S2140030E0E0EEF6E09683EE24FF2487019EC38091EF
S2140030F00007892309F496C3E0E0F7E09683EE2400
S214003100FF24870192C380912007892309F48AC38C
S214003110E0E2F7E09683EE24FF24870186C38091E1
S214003120C007892309F47EC3E0ECF7E09683EE241B
S214003130FF2487017AC38091E007892309F472C3CC
S214003140E0EEF7E09683EE24FF2487016EC39091AD
S214003150B2228091B022853009F461C0863080F4B6
S2140031608230C9F1833030F48823E9F0813009F0E9
S21400317059C325C08330D9F1843009F053C343C006
S214003180883009F470C0893038F4863009F453C0AA
S214003190873009F047C35BC0893009F470C08A30B5
S2140031A009F040C378C080910006892309F43AC329
S2140031B0E0E0F6E09583EE24FF24870136C3809195
S2140031C02006892309F42EC3E0E2F6E09583EE2478
S2140031D0FF2487012AC380914006892309F422C36D
S2140031E0E0E4F6E09583EE24FF2487011EC3809179
S2140031F06006892309F416C3E0E6F6E09583EE241C
S214003200FF24870112C380918006892309F40AC32C
S214003210E0E8F6E09583EE24FF24870106C380915C
S214003220A006892309F4FEC2E0EAF6E09583EE24C0
S214003230FF248701FAC28091E006892309F4F2C2CE
S214003240E0EEF6E09583EE24FF248701EEC280913F
S2140032500007892309F4E6C2E0E0F7E09583EE2450
S214003260FF248701E2C280912007892309F4DAC28D
S214003270E0E2F7E09583EE24FF248701D6C2809132
S214003280C007892309F4CEC2E0ECF7E09583EE246C
S214003290FF248701CAC28091E007892309F4C2C2CD
S2140032A0E0EEF7E09583EE24FF248701BEC29091FE
S2140032B0B2228091B022853009F461C0863080F455
S2140032C08230C9F1833030F48823E9F0813009F088
S2140032D0A9C225C08330D9F1843009F0A3C243C007
S2140032E0883009F470C0893038F4863009F453C049
S2140032F0873009F097C25BC0893009F470C08A3005
S21400330009F090C278C080910006892309F48AC229
S214003310E0E0F6E09783EE24FF24870186C28091E2
S2140033202006892309F47EC2E0E2F6E09783EE24C5
S214003330FF2487017AC280914006892309F472C26D
S214003340E0E4F6E09783EE24FF2487016EC28091C6
S2140033506006892309F466C2E0E6F6E09783EE2469
S214003360FF24870162C280918006892309F45AC22D
S214003370E0E8F6E09783EE24FF24870156C28091AA
S214003380A006892309F44EC2E0EAF6E09783EE240D
S214003390FF2487014AC28091E006892309F442C2CD
S2140033A0E0EEF6E09783EE24FF2487013EC280918C
S2140033B00007892309F436C2E0E0F7E09783EE249D
S2140033C0FF24870132C280912007892309F42AC28C
S2140033D0E0E2F7E09783EE24FF24870126C280917F
S2140033E0C007892309F41EC2E0ECF7E09783EE24B9
S2140033F0FF2487011AC28091E007892309F412C2CC
S214003400E0EEF7E09783EE24FF2487010EC290914A
S214003410B4228091B022853009F461C0863080F4F1
S2140034208230C9F1833030F48823E9F0813009F026
S214003430F9C125C08330D9F1843009F0F3C143C007
S214003440883009F470C0893038F4863009F453C0E7
S214003450873009F0E7C15BC0893009F470C08A3054
S21400346009F0E0C178C080910006892309F4DAC12A
S214003470E0E0F6E09683EE24FF248701D6C1809133
S2140034802006892309F4CEC1E0E2F6E09683EE2416
S214003490FF248701CAC180914006892309F4C2C16E
S2140034A0E0E4F6E09683EE24FF248701BEC1809117
S2140034B06006892309F4B6C1E0E6F6E09683EE24BA
S2140034C0FF248701B2C180918006892309F4AAC12E
S2140034D0E0E8F6E09683EE24FF248701A6C18091FB
S2140034E0A006892309F49EC1E0EAF6E09683EE245E
S2140034F0FF2487019AC18091E006892309F492C1CE
S214003500E0EEF6E09683EE24FF2487018EC18091DC
S2140035100007892309F486C1E0E0F7E09683EE24ED
S214003520FF24870182C180912007892309F47AC18C
S214003530E0E2F7E09683EE24FF24870176C18091CF
S214003540C007892309F46EC1E0ECF7E09683EE2409
S214003550FF2487016AC18091E007892309F462C1CC
S214003560E0EEF7E09683EE24FF2487015EC190919B
S214003570B4228091B022853009F461C0863080F490
S2140035808230C9F1833030F48823E9F0813009F0C5
S21400359049C125C08330D9F1843009F043C143C006
S2140035A0883009F470C0893038F4863009F453C086
S2140035B0873009F037C15BC0893009F470C08A30A3
S2140035C009F030C178C080910006892309F42AC129
S2140035D0E0E0F6E09583EE24FF24870126C1809183
S2140035E02006892309F41EC1E0E2F6E09583EE2466
S2140035F0FF2487011AC180914006892309F412C16D
S214003600E0E4F6E09583EE24FF2487010EC1809166
S2140036106006892309F406C1E0E6F6E09583EE2409
S214003620FF24870102C180918006892309F4FAC02D
S214003630E0E8F6E09583EE24FF248701F6C080914B
S214003640A006892309F4EEC0E0EAF6E09583EE24AE
S214003650FF248701EAC08091E006892309F4E2C0CE
S214003660E0EEF6E09583EE24FF248701DEC080912D
S2140036700007892309F4D6C0E0E0F7E09583EE243E
S214003680FF248701D2C080912007892309F4CAC08D
S214003690E0E2F7E09583EE24FF248701C6C0809120
S2140036A0C007892309F4BEC0E0ECF7E09583EE245A
S2140036B0FF248701BAC08091E007892309F4B2C0CD
S2140036C0E0EEF7E09583EE24FF248701AEC09091EC
S2140036D0B4228091B022853009F461C0863080F42F
S2140036E08230C9F1833030F48823E9F0813009F064
S2140036F099C025C08330D9F1843009F093C043C007
S214003700883009F46EC0893038F4863009F453C026
S214003710873009F087C05AC0893009F46DC08A30F6
S21400372009F080C074C080910006892309F47AC02D
S214003730E0E0F6E09783EE24FF24870176C08091D0
S2140037402006892309F46EC0E0E2F6E09783EE24B3
S214003750FF2487016AC080914006892309F462C06D
S214003760E0E4F6E09783EE24FF2487015EC08091B4
S2140037706006892309F456C0E0E6F6E09783EE2457
S214003780FF24870152C080918006892309F44AC02D
S214003790E0E8F6E09783EE24FF24870146C0809198
S2140037A0A006892309F43EC0E0EAF6E09783EE24FB
S2140037B0FF2487013AC08091E006892399F1E0EE64
S2140037C0F6E09783EE24FF2487012FC08091000740
S2140037D0892341F1E0E0F7E09783EE24FF24870198
S2140037E024C0809120078923E9F0E0E2F7E0978380
S2140037F0EE24FF24870119C08091C007892391F029
S214003800E0ECF7E09783EE24FF2487010EC080915A
S214003810E007892339F0E0EEF7E09783EE24FF24F3
S214003820870103C0EE24FF2487018091AE22909189
S214003830AF220E948196B701C8010F900F90CF91DA
S214003840DF911F910F91FF90EF900895DF93CF9334
S2140038500F920F92CDB7DEB789839A838091AE22FE
S2140038609091AF2260E00E94C8998091B5228F5F48
S2140038708093B5228091AE229091AF220E948196CD
S21400388080E00F900F90CF91DF9108950F931F93D4
S214003890DF93CF93CDB7DEB72A97CDBFDEBF4E837B
S2140038A05F83688779878A87042F782F8AE590E276
S2140038B060E048E650E20E94C984182F87FDBDC02C
S2140038C082E00E9466948093AE229093AF2280910D
S2140038D0AE229091AF2297FF06C08091AE229091C3
S2140038E0AF22182FA4C01092B5220093B0223F81B9
S2140038F03093B12288858093B222382B89858093B5
S214003900B322382B3093B42219823A831B821D824D
S214003910802F20E040E05C8160E00E94AB2A87FDBB
S2140039207FC09091B4228091B022853009F44DC0BA
S214003930863080F4823089F1833030F48823E9F0D1
S214003940813009F079C021C0833079F1843009F0E4
S21400395073C033C0883009F44DC0893038F48630DF
S21400396009F43AC0873009F067C03DC0893009F4D1
S21400397048C08A3009F060C04BC080910006892399
S21400398009F45AC0E0E0F6E049C080912006892399
S21400399009F452C0E0E2F6E041C080914006892377
S2140039A009F44AC0E0E4F6E039C080916006892355
S2140039B009F442C0E0E6F6E031C080918006892333
S2140039C009F43AC0E0E8F6E029C08091A006892311
S2140039D099F1E0EAF6E022C08091E006892361F1E1
S2140039E0E0EEF6E01BC080910007892329F1E0E0B5
S2140039F0F7E014C0809120078923F1F0E0E2F7E0B9
S214003A000DC08091C0078923B9F0E0ECF7E006C04E
S214003A108091E007892381F0E0EEF7E095830CC003
S214003A208091AE229091AF220E94EF9316EF8AE526
S214003A3090E20E94508401C010E0812F2A96CDBFEC
S214003A40DEBFCF91DF911F910F910895DF93CF9343
S214003A500F920F92CDB7DEB7482FE0917E20F091FF
S214003A607F2022813381E0917E20F0917F200CC060
S214003A70E981FA810190F081E02D8181841769F057
S214003A8021503040E981FA818085918589839A8327
S214003A90121613066CF3E0E0F0E0CF010F900F90E3
S214003AA0CF91DF9108951F920F920FB60F9208B62E
S214003AB00F9209B60F920BB60F92112418BE19BEBC
S214003AC01BBE2F933F934F935F936F937F938F937A
S214003AD09F93AF93BF93EF93FF9387E00E94261DBB
S214003AE0FC01009759F020917C0230917D022483DE
S214003AF035830680F781E02DC9011995FF91EF9176
S214003B00BF91AF919F918F917F916F915F914F91F0
S214003B103F912F910F900BBE0F9009BE0F9008BEDD
S214003B200F900FBE0F901F9018951F920F920FB612
S214003B300F9208B60F9209B60F920BB60F92112489
S214003B4018BE19BE1BBE2F933F934F935F936F9380
S214003B507F938F939F93AF93BF93EF93FF9386E0EC
S214003B600E94261DFC01009759F0209174023091A6
S214003B707502248335830680F781E02DC9011995E7
S214003B80FF91EF91BF91AF919F918F917F916F9130
S214003B905F914F913F912F910F900BBE0F9009BEF2
S214003BA00F9008BE0F900FBE0F901F9018951F9293
S214003BB00F920FB60F9208B60F9209B60F920BB679
S214003BC00F92112418BE19BE1BBE2F933F934F931E
S214003BD05F936F937F938F939F93AF93BF93EF9370
S214003BE0FF9385E00E94261DFC01009759F0209166
S214003BF06C0230916D02248335830680F781E02DB8
S214003C00C9011995FF91EF91BF91AF919F918F9147
S214003C107F916F915F914F913F912F910F900BBEC7
S214003C200F9009BE0F9008BE0F900FBE0F901F900A
S214003C3018951F920F920FB60F9208B60F9209B6FC
S214003C400F920BB60F92112418BE19BE1BBE2F93EF
S214003C503F934F935F936F937F938F939F93AF930F
S214003C60BF93EF93FF9384E00E94261DFC0100970C
S214003C7059F02091640230916502248335830680D2
S214003C80F781E02DC9011995FF91EF91BF91AF9192
S214003C909F918F917F916F915F914F913F912F915F
S214003CA00F900BBE0F9009BE0F9008BE0F900FBE70
S214003CB00F901F9018951F920F920FB60F9208B68E
S214003CC00F9209B60F920BB60F92112418BE19BEAA
S214003CD01BBE2F933F934F935F936F937F938F9368
S214003CE09F93AF93BF93EF93FF9383E00E94261DAD
S214003CF0FC01009759F020913C0230913D0224834C
S214003D0035830680F781E02DC9011995FF91EF9163
S214003D10BF91AF919F918F917F916F915F914F91DE
S214003D203F912F910F900BBE0F9009BE0F9008BECB
S214003D300F900FBE0F901F9018951F920F920FB600
S214003D400F9208B60F9209B60F920BB60F92112477
S214003D5018BE19BE1BBE2F933F934F935F936F936E
S214003D607F938F939F93AF93BF93EF93FF9382E0DE
S214003D700E94261DFC01009759F0209134023091D4
S214003D803502248335830680F781E02DC901199515
S214003D90FF91EF91BF91AF919F918F917F916F911E
S214003DA05F914F913F912F910F900BBE0F9009BEE0
S214003DB00F9008BE0F900FBE0F901F9018951F9281
S214003DC00F920FB60F9208B60F9209B60F920BB667
S214003DD00F92112418BE19BE1BBE2F933F934F930C
S214003DE05F936F937F938F939F93AF93BF93EF935E
S214003DF0FF9381E00E94261DFC01009759F0209158
S214003E002C0230912D02248335830680F781E02D25
S214003E10C9011995FF91EF91BF91AF919F918F9135
S214003E207F916F915F914F913F912F910F900BBEB5
S214003E300F9009BE0F9008BE0F900FBE0F901F90F8
S214003E4018951F920F920FB60F9208B60F9209B6EA
S214003E500F920BB60F92112418BE19BE1BBE2F93DD
S214003E603F934F935F936F937F938F939F93AF93FD
S214003E70BF93EF93FF9380E00E94261DFC010097FE
S214003E8059F0209124023091250224833583068040
S214003E90F781E02DC9011995FF91EF91BF91AF9180
S214003EA09F918F917F916F915F914F913F912F914D
S214003EB00F900BBE0F9009BE0F9008BE0F900FBE5E
S214003EC00F901F9018956091B7257091B825809136
S214003ED0B9259091BA2508959B01AC0182E08093A4
S214003EE0500088ED84BFE0E4F0E01182809141004C
S214003EF081838091510081FFFCCF88ED84BF81E0F3
S214003F0080934000809150008E7F809350002093D5
S214003F10B7253093B8254093B9255093BA2580E04D
S214003F200895DF93CF930F920F92CDB7DEB7482F49
S214003F30E0919A20F0919B2022813381E0919A2093
S214003F40F0919B200CC0E981FA810190F081E02D70
S214003F508081841769F021503040E981FA8180859C
S214003F60918589839A83121613066CF3E0E0F0E0DD
S214003F70CF010F900F90CF91DF9108951F920F926F
S214003F800FB60F9208B60F9209B60F920BB60F92A5
S214003F90112418BE19BE1BBE2F933F934F935F93F9
S214003FA06F937F938F939F93AF93BF93EF93FF93FC
S214003FB08091410185FF07C0809141018062809316
S214003FC0410187E006C080914101806180934101F4
S214003FD086E00E94911FFC01009731F00180F2817B
S214003FE0E02D309709F01995FF91EF91BF91AF91B1
S214003FF09F918F917F916F915F914F913F912F91FC
S2140040000F900BBE0F9009BE0F9008BE0F900FBE0C
S2140040100F901F9018951F920F920FB60F9208B62A
S2140040200F9209B60F920BB60F92112418BE19BE46
S2140040301BBE2F933F934F935F936F937F938F9304
S2140040409F93AF93BF93EF93FF93E0E0F1E08091EF
S214004050310185FF06C080913101806281AB85E029
S21400406005C080913101806181AB84E00E94911F80
S214004070FC01009731F00180F281E02D309709F0C5
S2140040801995FF91EF91BF91AF919F918F917F917D
S2140040906F915F914F913F912F910F900BBE0F90B4
S2140040A009BE0F9008BE0F900FBE0F901F90189578
S2140040B01F920F920FB60F9208B60F9209B60F9284
S2140040C00BB60F92112418BE19BE1BBE2F933F933A
S2140040D04F935F936F937F938F939F93AF93BF930B
S2140040E0EF93FF93E0E0F1E08091210185FF06C0A9
S2140040F080912101806281A383E005C08091210127
S214004100806181A382E00E94911FFC01009731F03C
S2140041100180F281E02D309709F01995FF91EF911B
S214004120BF91AF919F918F917F916F915F914F91CA
S2140041303F912F910F900BBE0F9009BE0F9008BEB7
S2140041400F900FBE0F901F9018951F920F920FB6EC
S2140041500F9208B60F9209B60F920BB60F92112463
S21400416018BE19BE1BBE2F933F934F935F936F935A
S2140041707F938F939F93AF93BF93EF93FF93E0E06C
S214004180F1E08091110185FF06C0809111018062E7
S214004190818B81E005C0809111018061818B80E078
S2140041A00E94911FFC01009731F00180F281E02D02
S2140041B0309709F01995FF91EF91BF91AF919F91BC
S2140041C08F917F916F915F914F913F912F910F90BB
S2140041D00BBE0F9009BE0F9008BE0F900FBE0F903B
S2140041E01F901895DF93CF930F920F92CDB7DEB73F
S2140041F089839A83E981FA8120918C2030918D20E1
S214004200848195818217930719F02EEF3FEF0AC03D
S214004210E981FA810190F081E02D0380F481E02DA0
S21400422024813581C9010F900F90CF91DF910895B9
S214004230AF92BF92CF92DF92EF92FF920F931F93AF
S214004240DF93CF93CDB7DEB76197CDBFDEBF8A834E
S2140042509B83AC82BD82CE82DF82E886F9860A879F
S2140042601B872C873D874E875F87688B798B8FB738
S2140042708983F8948885833018F48985833020F004
S21400428089818FBF86EF09C18A85843018F48B85B3
S214004290843020F089818FBF85EFFFC08C859D8597
S2140042A0892B21F489818FBF84EFF7C08E858430F7
S2140042B020F089818FBF83EFF0C08F85823020F099
S2140042C089818FBF82EFE9C08889803B20F0898191
S2140042D08FBF81EFE2C0EA81FB8120918C20309174
S2140042E08D20848195818217930721F089818FBF65
S2140042F08EEFD3C0EA81FB81A081B1811396ED9148
S214004300FC91149780818F7780831396ED91FC91B2
S21400431014978C8180871396ED91FC9114978D816C
S21400432081871396ED91FC91149712861396ED9162
S214004330FC9114978E8184871396ED91FC911497C7
S2140043408F8185871396ED91FC91149716861396A8
S214004350ED91FC91149782818F7C82831396ED9168
S214004360FC911497928188858295807F892B828321
S2140043701396ED91FC91149782818C7F828313961D
S214004380ED91FC91149782819985892B82831396EF
S214004390ED91FC91149782818F7382831396ED9131
S2140043A0FC91149792818A858295880F880F807C6D
S2140043B0892B82831396ED91FC9114978281837FDB
S2140043C082831396ED91FC91149792818B85880FCA
S2140043D0880F892B82831396ED91FC9114978C8518
S2140043E09D85848395831396ED91FC911497808127
S2140043F08C7F80831396ED91FC91149780819E8527
S214004400892B80831396ED91FC91149780818F7D84
S21400441080831396ED91FC9114971682898918165D
S21400442074F41396ED91FC911497808180628083DA
S2140044301396ED91FC9114978989868309C0882389
S21400444039F01396ED91FC911497808180628083F9
S2140044501396ED91FC91149780818B7F8083139641
S214004460ED91FC91149790818F85880F880F892B8A
S21400447080831396ED91FC91149783811382139693
S214004480ED91FC91149783819889892B838381E031
S21400449011968C9389818FBF80E06196CDBFDEBF79
S2140044A0CF91DF911F910F91FF90EF90DF90CF900B
S2140044B0BF90AF900895DF93CF930F920F92CDB732
S2140044C0DEB789839A83E981FA8120918C20309126
S2140044D08D20848195818217930711F08EEF06C098
S2140044E0E981FA810190F081E02D80810F900F9094
S2140044F0CF91DF910895DF93CF9300D0CDB7DEB78D
S2140045008A839B838FB78983F894EA81FB81209105
S2140045108C2030918D20848195818217930721F01D
S21400452089818FBF8EEF0EC0EA81FB810190F081FA
S214004530E02D0380F481E02D80818068808389816E
S2140045408FBF80E02396CDBFDEBFCF91DF91089569
S214004550DF93CF9300D0CDB7DEB78A839B838FB728
S2140045608983F894EA81FB8120918C2030918D20FC
S214004570848195818217930721F089818FBF8EEF02
S2140045800EC0EA81FB810190F081E02D0380F4816A
S214004590E02D80818F77808389818FBF80E023968E
S2140045A0CDBFDEBFCF91DF910895AF92BF92CF927D
S2140045B0DF92EF92FF920F931F93DF93CF9300D07B
S2140045C0CDB7DEB78A839B838FB78983F894EA8159
S2140045D0FB8120918C2030918D20848195818217DB
S2140045E0930721F089818FBF8EEF8BC0EA81FB8114
S2140045F000811181BB24CC24DD24D801AC90AB0C07
S214004600E0919A20F0919B20E280F380E0919A203E
S214004610F0919B203BC0E091B822F091B922A08196
S214004620B181E091B822F091B9228285938580937A
S214004630B6229093B7228C918A1509F5F8018281EB
S214004640815082830380F481E02DBB2019F48181A0
S2140046508C7F02C08181837F818380919A20909194
S2140046609B206091B8227091B9220E9471A480911B
S214004670B6229091B7228093B8229093B9220894DC
S214004680E108F108E091B822F091B9228085918581
S2140046908093B8229093B9221E141F040CF4BBCF4B
S2140046A0B3940894C11CD11CF2E0CF16D10409F0D3
S2140046B0A4CFD8011396ED91FC91149780818F7743
S2140046C080831396ED91FC91149780818F77808379
S2140046D01396ED91FC9114978081806480831396E5
S2140046E0ED91FC91149780818F7B808380918C2044
S2140046F090918D206A817B810E9471A489818FBFF1
S21400470080E02396CDBFDEBFCF91DF911F910F9142
S214004710FF90EF90DF90CF90BF90AF9008951F93DB
S214004720DF93CF93CDB7DEB72597CDBFDEBF8FB76C
S2140047308983F89480919C208823D9F08FB78C8346
S214004740F894809100018F7780930001809100019A
S214004750837F809300018091000183608093000135
S214004760809100018068809300018C818FBF109239
S2140047709C2010E042E0E0918C20F0918D20228178
S2140047803381E0918C20F0918D200CC0EC81FD816E
S2140047900190F081E02D8081811761F0215030403A
S2140047A0EC81FD81808591858C839D83121613068E
S2140047B06CF30AC0EF2B41F0842F8E5F8A3009F429
S2140047C053C0142F482FD7CF85E090E00E9465A5F0
S2140047D08C839D838C819D8197FF03C08FEF9FEF15
S2140047E02CC0EC81FD810190F081E02D11821083B8
S2140047F01282123069F0133018F4112331F012C00F
S214004800143049F0163071F409C080E191E008C018
S21400481080E291E005C080E391E002C080E491E090
S2140048208383948380918C2090918D206C817D81F0
S21400483041E00E9475A38C819D818A839B838A8137
S2140048409B8197FF05C089818FBF2FEF3FEF04C084
S21400485089818FBF2A813B81C9012596CDBFDEBFE6
S214004860CF91DF911F91089589818FBF29EF3FEF88
S214004870F3CFCF92DF92EF92FF920F931F93DF93C7
S214004880CF93CDB7DEB72797CDBFDEBF8E839F838E
S214004890E62E6A018FB78983F894EE81FF81209116
S2140048A08C2030918D20848195818217930721F08A
S2140048B089818FBF8EEF53C0EE81FF810081118109
S2140048C0D801FC90F60EB7E0BF1520F489818FBFA3
S2140048D08BEF45C08F2D0E94911F892BE9F583E051
S2140048E090E00E9465A58C839D838C819D8197FFB7
S2140048F003C08FEF9FEF0BC080919A2090919B2072
S2140049006C817D8141E00E9475A38C819D818A83A4
S2140049109B838A819B8197FF04C089818FBF8FEF1D
S2140049201EC0EA81FB810190F081E02DF082C182F9
S214004930D282F80182818F5F82830380F481E02D2A
S214004940EE2019F48181836002C081818C608183AE
S21400495089818FBF80E003C089818FBF8AEF279649
S214004960CDBFDEBFCF91DF911F910F91FF90EF90EB
S214004970DF90CF900895DF93CF930F920F92CDB72D
S214004980DEB7482FE091A920F091AA20228133813A
S214004990E091A920F091AA200CC0E981FA8101904B
S2140049A0F081E02D8081841769F021503040E98144
S2140049B0FA818085918589839A83121613066CF393
S2140049C0E0E0F0E0CF010F900F90CF91DF910895D7
S2140049D01F920F920FB60F9208B60F9209B60F925B
S2140049E00BB60F92112418BE19BE1BBE2F933F9311
S2140049F04F935F936F937F938F939F93AF93BF93E2
S214004A00EF93FF9385E10E94BB24FC01009749F0D9
S214004A10228133812115310521F08AE06181F90177
S214004A201995FF91EF91BF91AF919F918F917F91D3
S214004A306F915F914F913F912F910F900BBE0F900A
S214004A4009BE0F9008BE0F900FBE0F901F901895CE
S214004A501F920F920FB60F9208B60F9209B60F92DA
S214004A600BB60F92112418BE19BE1BBE2F933F9390
S214004A704F935F936F937F938F939F93AF93BF9361
S214004A80EF93FF9384E10E94BB24FC01009749F05A
S214004A90228133812115310521F08AE06181F901F7
S214004AA01995FF91EF91BF91AF919F918F917F9153
S214004AB06F915F914F913F912F910F900BBE0F908A
S214004AC009BE0F9008BE0F900FBE0F901F9018954E
S214004AD01F920F920FB60F9208B60F9209B60F925A
S214004AE00BB60F92112418BE19BE1BBE2F933F9310
S214004AF04F935F936F937F938F939F93AF93BF93E1
S214004B00EF93FF9383E10E94BB24FC01009749F0DA
S214004B10228133812115310521F089E06181F90177
S214004B201995FF91EF91BF91AF919F918F917F91D2
S214004B306F915F914F913F912F910F900BBE0F9009
S214004B4009BE0F9008BE0F900FBE0F901F901895CD
S214004B501F920F920FB60F9208B60F9209B60F92D9
S214004B600BB60F92112418BE19BE1BBE2F933F938F
S214004B704F935F936F937F938F939F93AF93BF9360
S214004B80EF93FF9382E10E94BB24FC01009749F05B
S214004B90228133812115310521F089E06181F901F7
S214004BA01995FF91EF91BF91AF919F918F917F9152
S214004BB06F915F914F913F912F910F900BBE0F9089
S214004BC009BE0F9008BE0F900FBE0F901F9018954D
S214004BD01F920F920FB60F9208B60F9209B60F9259
S214004BE00BB60F92112418BE19BE1BBE2F933F930F
S214004BF04F935F936F937F938F939F93AF93BF93E0
S214004C00EF93FF9381E10E94BB24FC01009749F0DB
S214004C10228133812115310521F088E06181F90177
S214004C201995FF91EF91BF91AF919F918F917F91D1
S214004C306F915F914F913F912F910F900BBE0F9008
S214004C4009BE0F9008BE0F900FBE0F901F901895CC
S214004C501F920F920FB60F9208B60F9209B60F92D8
S214004C600BB60F92112418BE19BE1BBE2F933F938E
S214004C704F935F936F937F938F939F93AF93BF935F
S214004C80EF93FF9380E10E94BB24FC01009749F05C
S214004C90228133812115310521F088E06181F901F7
S214004CA01995FF91EF91BF91AF919F918F917F9151
S214004CB06F915F914F913F912F910F900BBE0F9088
S214004CC009BE0F9008BE0F900FBE0F901F9018954C
S214004CD01F920F920FB60F9208B60F9209B60F9258
S214004CE00BB60F92112418BE19BE1BBE2F933F930E
S214004CF04F935F936F937F938F939F93AF93BF93DF
S214004D00EF93FF938FE00E94BB24FC01009749F0CD
S214004D10228133812115310521F087E06181F90177
S214004D201995FF91EF91BF91AF919F918F917F91D0
S214004D306F915F914F913F912F910F900BBE0F9007
S214004D4009BE0F9008BE0F900FBE0F901F901895CB
S214004D501F920F920FB60F9208B60F9209B60F92D7
S214004D600BB60F92112418BE19BE1BBE2F933F938D
S214004D704F935F936F937F938F939F93AF93BF935E
S214004D80EF93FF938EE00E94BB24FC01009749F04E
S214004D90228133812115310521F087E06181F901F7
S214004DA01995FF91EF91BF91AF919F918F917F9150
S214004DB06F915F914F913F912F910F900BBE0F9087
S214004DC009BE0F9008BE0F900FBE0F901F9018954B
S214004DD01F920F920FB60F9208B60F9209B60F9257
S214004DE00BB60F92112418BE19BE1BBE2F933F930D
S214004DF04F935F936F937F938F939F93AF93BF93DE
S214004E00EF93FF938DE00E94BB24FC01009749F0CE
S214004E10228133812115310521F086E06181F90177
S214004E201995FF91EF91BF91AF919F918F917F91CF
S214004E306F915F914F913F912F910F900BBE0F9006
S214004E4009BE0F9008BE0F900FBE0F901F901895CA
S214004E501F920F920FB60F9208B60F9209B60F92D6
S214004E600BB60F92112418BE19BE1BBE2F933F938C
S214004E704F935F936F937F938F939F93AF93BF935D
S214004E80EF93FF938CE00E94BB24FC01009749F04F
S214004E90228133812115310521F086E06181F901F7
S214004EA01995FF91EF91BF91AF919F918F917F914F
S214004EB06F915F914F913F912F910F900BBE0F9086
S214004EC009BE0F9008BE0F900FBE0F901F9018954A
S214004ED01F920F920FB60F9208B60F9209B60F9256
S214004EE00BB60F92112418BE19BE1BBE2F933F930C
S214004EF04F935F936F937F938F939F93AF93BF93DD
S214004F00EF93FF938BE00E94BB24FC01009749F0CF
S214004F10228133812115310521F085E06181F90177
S214004F201995FF91EF91BF91AF919F918F917F91CE
S214004F306F915F914F913F912F910F900BBE0F9005
S214004F4009BE0F9008BE0F900FBE0F901F901895C9
S214004F501F920F920FB60F9208B60F9209B60F92D5
S214004F600BB60F92112418BE19BE1BBE2F933F938B
S214004F704F935F936F937F938F939F93AF93BF935C
S214004F80EF93FF938AE00E94BB24FC01009749F050
S214004F90228133812115310521F085E06181F901F7
S214004FA01995FF91EF91BF91AF919F918F917F914E
S214004FB06F915F914F913F912F910F900BBE0F9085
S214004FC009BE0F9008BE0F900FBE0F901F90189549
S214004FD01F920F920FB60F9208B60F9209B60F9255
S214004FE00BB60F92112418BE19BE1BBE2F933F930B
S214004FF04F935F936F937F938F939F93AF93BF93DC
S214005000EF93FF9389E00E94BB24FC01009749F0D0
S214005010228133812115310521F084E06181F90177
S2140050201995FF91EF91BF91AF919F918F917F91CD
S2140050306F915F914F913F912F910F900BBE0F9004
S21400504009BE0F9008BE0F900FBE0F901F901895C8
S2140050501F920F920FB60F9208B60F9209B60F92D4
S2140050600BB60F92112418BE19BE1BBE2F933F938A
S2140050704F935F936F937F938F939F93AF93BF935B
S214005080EF93FF9388E00E94BB24FC01009749F051
S214005090228133812115310521F084E06181F901F7
S2140050A01995FF91EF91BF91AF919F918F917F914D
S2140050B06F915F914F913F912F910F900BBE0F9084
S2140050C009BE0F9008BE0F900FBE0F901F90189548
S2140050D01F920F920FB60F9208B60F9209B60F9254
S2140050E00BB60F92112418BE19BE1BBE2F933F930A
S2140050F04F935F936F937F938F939F93AF93BF93DB
S214005100EF93FF9387E00E94BB24FC01009749F0D1
S214005110228133812115310521F083E06181F90177
S2140051201995FF91EF91BF91AF919F918F917F91CC
S2140051306F915F914F913F912F910F900BBE0F9003
S21400514009BE0F9008BE0F900FBE0F901F901895C7
S2140051501F920F920FB60F9208B60F9209B60F92D3
S2140051600BB60F92112418BE19BE1BBE2F933F9389
S2140051704F935F936F937F938F939F93AF93BF935A
S214005180EF93FF9386E00E94BB24FC01009749F052
S214005190228133812115310521F083E06181F901F7
S2140051A01995FF91EF91BF91AF919F918F917F914C
S2140051B06F915F914F913F912F910F900BBE0F9083
S2140051C009BE0F9008BE0F900FBE0F901F90189547
S2140051D01F920F920FB60F9208B60F9209B60F9253
S2140051E00BB60F92112418BE19BE1BBE2F933F9309
S2140051F04F935F936F937F938F939F93AF93BF93DA
S214005200EF93FF9385E00E94BB24FC01009749F0D2
S214005210228133812115310521F082E06181F90177
S2140052201995FF91EF91BF91AF919F918F917F91CB
S2140052306F915F914F913F912F910F900BBE0F9002
S21400524009BE0F9008BE0F900FBE0F901F901895C6
S2140052501F920F920FB60F9208B60F9209B60F92D2
S2140052600BB60F92112418BE19BE1BBE2F933F9388
S2140052704F935F936F937F938F939F93AF93BF9359
S214005280EF93FF9384E00E94BB24FC01009749F053
S214005290228133812115310521F082E06181F901F7
S2140052A01995FF91EF91BF91AF919F918F917F914B
S2140052B06F915F914F913F912F910F900BBE0F9082
S2140052C009BE0F9008BE0F900FBE0F901F90189546
S2140052D01F920F920FB60F9208B60F9209B60F9252
S2140052E00BB60F92112418BE19BE1BBE2F933F9308
S2140052F04F935F936F937F938F939F93AF93BF93D9
S214005300EF93FF9383E00E94BB24FC01009749F0D3
S214005310228133812115310521F081E06181F90177
S2140053201995FF91EF91BF91AF919F918F917F91CA
S2140053306F915F914F913F912F910F900BBE0F9001
S21400534009BE0F9008BE0F900FBE0F901F901895C5
S2140053501F920F920FB60F9208B60F9209B60F92D1
S2140053600BB60F92112418BE19BE1BBE2F933F9387
S2140053704F935F936F937F938F939F93AF93BF9358
S214005380EF93FF9382E00E94BB24FC01009749F054
S214005390228133812115310521F081E06181F901F7
S2140053A01995FF91EF91BF91AF919F918F917F914A
S2140053B06F915F914F913F912F910F900BBE0F9081
S2140053C009BE0F9008BE0F900FBE0F901F90189545
S2140053D01F920F920FB60F9208B60F9209B60F9251
S2140053E00BB60F92112418BE19BE1BBE2F933F9307
S2140053F04F935F936F937F938F939F93AF93BF93D8
S214005400EF93FF9381E00E94BB24FC01009749F0D4
S214005410228133812115310521F080E06181F90177
S2140054201995FF91EF91BF91AF919F918F917F91C9
S2140054306F915F914F913F912F910F900BBE0F9000
S21400544009BE0F9008BE0F900FBE0F901F901895C4
S2140054501F920F920FB60F9208B60F9209B60F92D0
S2140054600BB60F92112418BE19BE1BBE2F933F9386
S2140054704F935F936F937F938F939F93AF93BF9357
S214005480EF93FF9380E00E94BB24FC01009749F055
S214005490228133812115310521F080E06181F901F7
S2140054A01995FF91EF91BF91AF919F918F917F9149
S2140054B06F915F914F913F912F910F900BBE0F9080
S2140054C009BE0F9008BE0F900FBE0F901F90189544
S2140054D0FC01DB0111969C911197992309F1129614
S2140054E08C911297882311F0968301C095831196AC
S2140054F08C911197818311968C9111978093B000AF
S21400550014968C911497813029F0813040F08230C7
S21400551031F402C080E201C088E2808B01C0108AAC
S2140055208C918823B9F011868C9182838C9180931C
S214005530B00013966C91643029F0653029F0633022
S21400554041F404C080E103C088E101C088E0808B9C
S2140055500895108A0895DF93CF9300D000D0CDB77A
S214005560DEB7982F2A833B834C835D836E838FB789
S2140055708983F894953071F1963070F4923009F181
S214005580933028F49923B9F0913099F417C09330EA
S214005590D9F0943071F41BC0983029F1993028F472
S2140055A09630D9F0973029F41BC09930F9F09A302C
S2140055B001F19CEF26C080E096E01DC080E296E0F8
S2140055C01AC080E496E017C080E696E014C080E833
S2140055D096E011C080EA96E00EC080EE96E00BC022
S2140055E080E097E008C080E297E005C080EC97E096
S2140055F002C080EE97E0BE016E5F7F4F0E94682A71
S21400560090E089818FBF892F2696CDBFDEBFCF91D0
S214005610DF910895DF93CF930F920F92CDB7DEB749
S21400562084E090E00E9465A589839A8389819A81A7
S21400563097FF03C02EEF3FEF0BC08091A9209091FB
S214005640AA2069817A8141E00E9475A329813A8166
S214005650C9010F900F90CF91DF910895CF92DF92FE
S214005660EF92FF920F931F93DF93CF930F920F92B9
S214005670CDB7DEB78C017B01D42EC22EDB019C9108
S2140056809830B9F0993038F4913080F0933088F043
S214005690943061F40EC0903261F0913218F490317B
S2140056A029F407C0903429F0903819F02FEF3FEF17
S2140056B00BC1F8018081892319F02AEF3FEF04C15E
S2140056C08D2D0E94BB24892B09F079C00E940A2BDD
S2140056D089839A8389819A8197FDF4C0E981FA814A
S2140056E00190F081E02DD082D7018C9181831296B3
S2140056F08D919C911397828393838C91883081F14E
S214005700893040F48230E1F0843011F1813009F0C4
S2140057104EC00EC08032A1F1813220F4803109F0F3
S21400572046C026C08034A1F1803809F040C038C099
S214005730F8018089D70111969C91892B808B37C000
S214005740F8018189D70111969C91892B818B2FC0F6
S214005750F8018289D70111969C91892B828B27C0EC
S214005760F8018389D70111969C91892B838B1FC0E2
S214005770F8018489D70111969C91892B848B17C0D8
S214005780F8018589D70111969C91892B858B0FC0CE
S214005790F8018689D70111969C91892B868B07C0C4
S2140057A0F8018789D70111969C91892B878BF80180
S2140057B0818583608187D7018C91828780C08C2DFC
S2140057C00E94BB24892B19F029EF3FEF7DC00E9471
S2140057D00A2B89839A8389819A8197FD73C0E98110
S2140057E0FA810190F081E02DC082D7018C918183EF
S2140057F012968D919C911397828393838C91883017
S21400580081F1893040F48230E1F0843011F181304A
S21400581009F04EC00EC08032A1F1813220F48031F2
S21400582009F046C026C08034A1F1803809F040C097
S21400583038C0F8018089D70111969C91892B808BFE
S21400584037C0F8018189D70111969C91892B818BED
S2140058502FC0F8018289D70111969C91892B828BE3
S21400586027C0F8018389D70111969C91892B838BD9
S2140058701FC0F8018489D70111969C91892B848BCF
S21400588017C0F8018589D70111969C91892B858BC5
S2140058900FC0F8018689D70111969C91892B868BBB
S2140058A007C0F8018789D70111969C91892B878BB1
S2140058B0F80181858C608187D7018C918387298147
S2140058C03A8102C02EEF3FEFC9010F900F90CF91A3
